{
  "address": "0x64Ea4B0B4363Fc053B073Be3ec83448Aa4035aFc",
  "abi": [
    {
      "inputs": [
        {
          "internalType": "uint256",
          "name": "chainId_",
          "type": "uint256"
        }
      ],
      "payable": false,
      "stateMutability": "nonpayable",
      "type": "constructor"
    },
    {
      "anonymous": false,
      "inputs": [
        {
          "indexed": true,
          "internalType": "address",
          "name": "src",
          "type": "address"
        },
        {
          "indexed": true,
          "internalType": "address",
          "name": "guy",
          "type": "address"
        },
        {
          "indexed": false,
          "internalType": "uint256",
          "name": "wad",
          "type": "uint256"
        }
      ],
      "name": "Approval",
      "type": "event"
    },
    {
      "anonymous": true,
      "inputs": [
        {
          "indexed": true,
          "internalType": "bytes4",
          "name": "sig",
          "type": "bytes4"
        },
        {
          "indexed": true,
          "internalType": "address",
          "name": "usr",
          "type": "address"
        },
        {
          "indexed": true,
          "internalType": "bytes32",
          "name": "arg1",
          "type": "bytes32"
        },
        {
          "indexed": true,
          "internalType": "bytes32",
          "name": "arg2",
          "type": "bytes32"
        },
        {
          "indexed": false,
          "internalType": "bytes",
          "name": "data",
          "type": "bytes"
        }
      ],
      "name": "LogNote",
      "type": "event"
    },
    {
      "anonymous": false,
      "inputs": [
        {
          "indexed": true,
          "internalType": "address",
          "name": "src",
          "type": "address"
        },
        {
          "indexed": true,
          "internalType": "address",
          "name": "dst",
          "type": "address"
        },
        {
          "indexed": false,
          "internalType": "uint256",
          "name": "wad",
          "type": "uint256"
        }
      ],
      "name": "Transfer",
      "type": "event"
    },
    {
      "constant": true,
      "inputs": [],
      "name": "CLAIM_AMOUNT",
      "outputs": [
        {
          "internalType": "uint256",
          "name": "",
          "type": "uint256"
        }
      ],
      "payable": false,
      "stateMutability": "view",
      "type": "function"
    },
    {
      "constant": true,
      "inputs": [],
      "name": "DOMAIN_SEPARATOR",
      "outputs": [
        {
          "internalType": "bytes32",
          "name": "",
          "type": "bytes32"
        }
      ],
      "payable": false,
      "stateMutability": "view",
      "type": "function"
    },
    {
      "constant": true,
      "inputs": [],
      "name": "OWNER",
      "outputs": [
        {
          "internalType": "address",
          "name": "",
          "type": "address"
        }
      ],
      "payable": false,
      "stateMutability": "view",
      "type": "function"
    },
    {
      "constant": true,
      "inputs": [],
      "name": "PERMIT_TYPEHASH",
      "outputs": [
        {
          "internalType": "bytes32",
          "name": "",
          "type": "bytes32"
        }
      ],
      "payable": false,
      "stateMutability": "view",
      "type": "function"
    },
    {
      "constant": false,
      "inputs": [
        {
          "internalType": "address",
          "name": "usr",
          "type": "address"
        },
        {
          "internalType": "uint256",
          "name": "wad",
          "type": "uint256"
        }
      ],
      "name": "allocateTo",
      "outputs": [],
      "payable": false,
      "stateMutability": "nonpayable",
      "type": "function"
    },
    {
      "constant": true,
      "inputs": [
        {
          "internalType": "address",
          "name": "",
          "type": "address"
        },
        {
          "internalType": "address",
          "name": "",
          "type": "address"
        }
      ],
      "name": "allowance",
      "outputs": [
        {
          "internalType": "uint256",
          "name": "",
          "type": "uint256"
        }
      ],
      "payable": false,
      "stateMutability": "view",
      "type": "function"
    },
    {
      "constant": false,
      "inputs": [
        {
          "internalType": "address",
          "name": "usr",
          "type": "address"
        },
        {
          "internalType": "uint256",
          "name": "wad",
          "type": "uint256"
        }
      ],
      "name": "approve",
      "outputs": [
        {
          "internalType": "bool",
          "name": "",
          "type": "bool"
        }
      ],
      "payable": false,
      "stateMutability": "nonpayable",
      "type": "function"
    },
    {
      "constant": true,
      "inputs": [
        {
          "internalType": "address",
          "name": "",
          "type": "address"
        }
      ],
      "name": "balanceOf",
      "outputs": [
        {
          "internalType": "uint256",
          "name": "",
          "type": "uint256"
        }
      ],
      "payable": false,
      "stateMutability": "view",
      "type": "function"
    },
    {
      "constant": false,
      "inputs": [
        {
          "internalType": "address",
          "name": "usr",
          "type": "address"
        },
        {
          "internalType": "uint256",
          "name": "wad",
          "type": "uint256"
        }
      ],
      "name": "burn",
      "outputs": [],
      "payable": false,
      "stateMutability": "nonpayable",
      "type": "function"
    },
    {
      "constant": true,
      "inputs": [
        {
          "internalType": "address",
          "name": "",
          "type": "address"
        }
      ],
      "name": "claimed",
      "outputs": [
        {
          "internalType": "bool",
          "name": "",
          "type": "bool"
        }
      ],
      "payable": false,
      "stateMutability": "view",
      "type": "function"
    },
    {
      "constant": true,
      "inputs": [],
      "name": "decimals",
      "outputs": [
        {
          "internalType": "uint8",
          "name": "",
          "type": "uint8"
        }
      ],
      "payable": false,
      "stateMutability": "view",
      "type": "function"
    },
    {
      "constant": false,
      "inputs": [
        {
          "internalType": "address",
          "name": "guy",
          "type": "address"
        }
      ],
      "name": "deny",
      "outputs": [],
      "payable": false,
      "stateMutability": "nonpayable",
      "type": "function"
    },
    {
      "constant": false,
      "inputs": [
        {
          "internalType": "address",
          "name": "usr",
          "type": "address"
        },
        {
          "internalType": "uint256",
          "name": "wad",
          "type": "uint256"
        }
      ],
      "name": "mint",
      "outputs": [],
      "payable": false,
      "stateMutability": "nonpayable",
      "type": "function"
    },
    {
      "constant": false,
      "inputs": [
        {
          "internalType": "address",
          "name": "src",
          "type": "address"
        },
        {
          "internalType": "address",
          "name": "dst",
          "type": "address"
        },
        {
          "internalType": "uint256",
          "name": "wad",
          "type": "uint256"
        }
      ],
      "name": "move",
      "outputs": [],
      "payable": false,
      "stateMutability": "nonpayable",
      "type": "function"
    },
    {
      "constant": true,
      "inputs": [],
      "name": "name",
      "outputs": [
        {
          "internalType": "string",
          "name": "",
          "type": "string"
        }
      ],
      "payable": false,
      "stateMutability": "view",
      "type": "function"
    },
    {
      "constant": true,
      "inputs": [
        {
          "internalType": "address",
          "name": "",
          "type": "address"
        }
      ],
      "name": "nonces",
      "outputs": [
        {
          "internalType": "uint256",
          "name": "",
          "type": "uint256"
        }
      ],
      "payable": false,
      "stateMutability": "view",
      "type": "function"
    },
    {
      "constant": false,
      "inputs": [
        {
          "internalType": "address",
          "name": "holder",
          "type": "address"
        },
        {
          "internalType": "address",
          "name": "spender",
          "type": "address"
        },
        {
          "internalType": "uint256",
          "name": "nonce",
          "type": "uint256"
        },
        {
          "internalType": "uint256",
          "name": "expiry",
          "type": "uint256"
        },
        {
          "internalType": "bool",
          "name": "allowed",
          "type": "bool"
        },
        {
          "internalType": "uint8",
          "name": "v",
          "type": "uint8"
        },
        {
          "internalType": "bytes32",
          "name": "r",
          "type": "bytes32"
        },
        {
          "internalType": "bytes32",
          "name": "s",
          "type": "bytes32"
        }
      ],
      "name": "permit",
      "outputs": [],
      "payable": false,
      "stateMutability": "nonpayable",
      "type": "function"
    },
    {
      "constant": false,
      "inputs": [
        {
          "internalType": "address",
          "name": "usr",
          "type": "address"
        },
        {
          "internalType": "uint256",
          "name": "wad",
          "type": "uint256"
        }
      ],
      "name": "pull",
      "outputs": [],
      "payable": false,
      "stateMutability": "nonpayable",
      "type": "function"
    },
    {
      "constant": false,
      "inputs": [
        {
          "internalType": "address",
          "name": "usr",
          "type": "address"
        },
        {
          "internalType": "uint256",
          "name": "wad",
          "type": "uint256"
        }
      ],
      "name": "push",
      "outputs": [],
      "payable": false,
      "stateMutability": "nonpayable",
      "type": "function"
    },
    {
      "constant": false,
      "inputs": [
        {
          "internalType": "address",
          "name": "guy",
          "type": "address"
        }
      ],
      "name": "rely",
      "outputs": [],
      "payable": false,
      "stateMutability": "nonpayable",
      "type": "function"
    },
    {
      "constant": true,
      "inputs": [],
      "name": "symbol",
      "outputs": [
        {
          "internalType": "string",
          "name": "",
          "type": "string"
        }
      ],
      "payable": false,
      "stateMutability": "view",
      "type": "function"
    },
    {
      "constant": true,
      "inputs": [],
      "name": "totalSupply",
      "outputs": [
        {
          "internalType": "uint256",
          "name": "",
          "type": "uint256"
        }
      ],
      "payable": false,
      "stateMutability": "view",
      "type": "function"
    },
    {
      "constant": false,
      "inputs": [
        {
          "internalType": "address",
          "name": "dst",
          "type": "address"
        },
        {
          "internalType": "uint256",
          "name": "wad",
          "type": "uint256"
        }
      ],
      "name": "transfer",
      "outputs": [
        {
          "internalType": "bool",
          "name": "",
          "type": "bool"
        }
      ],
      "payable": false,
      "stateMutability": "nonpayable",
      "type": "function"
    },
    {
      "constant": false,
      "inputs": [
        {
          "internalType": "address",
          "name": "src",
          "type": "address"
        },
        {
          "internalType": "address",
          "name": "dst",
          "type": "address"
        },
        {
          "internalType": "uint256",
          "name": "wad",
          "type": "uint256"
        }
      ],
      "name": "transferFrom",
      "outputs": [
        {
          "internalType": "bool",
          "name": "",
          "type": "bool"
        }
      ],
      "payable": false,
      "stateMutability": "nonpayable",
      "type": "function"
    },
    {
      "constant": true,
      "inputs": [],
      "name": "version",
      "outputs": [
        {
          "internalType": "string",
          "name": "",
          "type": "string"
        }
      ],
      "payable": false,
      "stateMutability": "view",
      "type": "function"
    },
    {
      "constant": true,
      "inputs": [
        {
          "internalType": "address",
          "name": "",
          "type": "address"
        }
      ],
      "name": "wards",
      "outputs": [
        {
          "internalType": "uint256",
          "name": "",
          "type": "uint256"
        }
      ],
      "payable": false,
      "stateMutability": "view",
      "type": "function"
    }
  ],
  "transactionHash": "0x3648a6f3fa64c4091235699b280971f4cc8198386ac9b88af54725e5dea33d5b",
  "args": [
    "11155111"
  ],
  "numDeployments": 1,
  "solcInputHash": "857202990231194bce174e395e10dc99",
  "bytecode": "0x608060405234801561001057600080fd5b506040516114203803806114208339818101604052602081101561003357600080fd5b5051336000908152602081905260409081902060019055518060526113ce8239604080519182900360520182208282018252600e83527f44616920537461626c65636f696e00000000000000000000000000000000000060209384015281518083018352600181527f3100000000000000000000000000000000000000000000000000000000000000908401528151808401919091527f0b1461ddc0c1d5ded79a1db0f74dae949050a7c0b28728c724b24958c27a328b818301527fc89efdaa54c0f20c7adf612882df0950f5a951637e0307cdcb4c672f298b8bc6606082015260808101949094523060a0808601919091528151808603909101815260c0909401905282519201919091206005555061127c806101526000396000f3fe608060405234801561001057600080fd5b506004361061018e5760003560e01c806370a08231116100de578063a9059cbb11610097578063bf353dbb11610071578063bf353dbb14610512578063c884ef8314610538578063dd62ed3e1461055e578063f2d5d56b1461058c5761018e565b8063a9059cbb14610484578063b753a98c146104b0578063bb35783b146104dc5761018e565b806370a08231146103845780637ecebe00146103aa5780638fcbaf0c146103d057806395d89b411461042a5780639c52a7f1146104325780639dc29fac146104585761018e565b8063270ef3851161014b5780633644e515116101255780633644e5151461032257806340c10f191461032a57806354fd4d501461035657806365fae35e1461035e5761018e565b8063270ef385146102f457806330adf81f146102fc578063313ce567146103045761018e565b806306fdde031461019357806308bca56614610212578063095ea7b314610240578063117803e31461028057806318160ddd146102a457806323b872dd146102be575b600080fd5b61019b6105b8565b60405160208082528190810183818151815260200191508051906020019080838360005b838110156101d75780820151838201526020016101bf565b50505050905090810190601f1680156102045780820380516001836020036101000a031916815260200191505b509250505060405180910390f35b61023e6004803603604081101561022857600080fd5b506001600160a01b0381351690602001356105e0565b005b61026c6004803603604081101561025657600080fd5b506001600160a01b038135169060200135610718565b604051901515815260200160405180910390f35b61028861078a565b6040516001600160a01b03909116815260200160405180910390f35b6102ac6107a2565b60405190815260200160405180910390f35b61026c600480360360608110156102d457600080fd5b506001600160a01b038135811691602081013590911690604001356107a8565b6102ac6109f5565b6102ac610a03565b61030c610a27565b60405160ff909116815260200160405180910390f35b6102ac610a2c565b61023e6004803603604081101561034057600080fd5b506001600160a01b038135169060200135610a32565b61019b610aad565b61023e6004803603602081101561037457600080fd5b50356001600160a01b0316610ac8565b6102ac6004803603602081101561039a57600080fd5b50356001600160a01b0316610b76565b6102ac600480360360208110156103c057600080fd5b50356001600160a01b0316610b8a565b61023e60048036036101008110156103e757600080fd5b506001600160a01b038135811691602081013590911690604081013590606081013590608081013515159060ff60a0820135169060c08101359060e00135610b9e565b61019b610eb8565b61023e6004803603602081101561044857600080fd5b50356001600160a01b0316610ed5565b61023e6004803603604081101561046e57600080fd5b506001600160a01b038135169060200135610f80565b61026c6004803603604081101561049a57600080fd5b506001600160a01b03813516906020013561119a565b61023e600480360360408110156104c657600080fd5b506001600160a01b0381351690602001356111ae565b61023e600480360360608110156104f257600080fd5b506001600160a01b038135811691602081013590911690604001356111be565b6102ac6004803603602081101561052857600080fd5b50356001600160a01b03166111cf565b61026c6004803603602081101561054e57600080fd5b50356001600160a01b03166111e3565b6102ac6004803603604081101561057457600080fd5b506001600160a01b03813581169160200135166111fa565b61023e600480360360408110156105a257600080fd5b506001600160a01b03813516906020013561121c565b60405160408082019052600e81526d2230b49029ba30b13632b1b7b4b760911b602082015281565b33733fa8f8958b90d370291f9bbddd617bb3e4f98a211461065f576001600160a01b03821660009081526006602052604090205460ff16156106525760405162461bcd60e51b815260206004820152600760248201526618db185a5b595960ca1b604482015260640160405180910390fd5b5069021e19e0c9bab24000005b6001600160a01b0382166000908152600660205260019060409020805460ff19169115159190911790556001600160a01b038216600090815260026020526106ac90604090205482611227565b6001600160a01b0383166000908152600260205260409020556001546106d29082611227565b6001556001600160a01b03821660007fddf252ad1be2c89b69c2b068fc378daa952ba7f163c4a11628f55a4df523b3ef8360405190815260200160405180910390a35050565b336000908152600360205281604082206001600160a01b038516600090815260209190915260409020556001600160a01b038316337f8c5be1e5ebec7d5bd14f71427d1e84f3dd0314c0f7b2291e5b200ac8c7c3b9258460405190815260200160405180910390a35060015b92915050565b733fa8f8958b90d370291f9bbddd617bb3e4f98a2181565b60015481565b6001600160a01b03831660009081526002602052816040822054101561080f5760405162461bcd60e51b81526020600482015260186024820152774461692f696e73756666696369656e742d62616c616e636560401b604482015260640160405180910390fd5b6001600160a01b038416331480159061085357506001600160a01b038416600090815260036020526000199060409020336000908152602091909152604090205414155b15610932576001600160a01b03841660009081526003602052829060409020336000908152602091909152604090205410156108d55760405162461bcd60e51b815260206004820152601a60248201527f4461692f696e73756666696369656e742d616c6c6f77616e6365000000000000604482015260640160405180910390fd5b6001600160a01b038416600090815260036020526109089060409020336000908152602091909152604090205483611237565b6001600160a01b038516600090815260036020526040902033600090815260209190915260409020555b6001600160a01b0384166000908152600260205261095590604090205483611237565b6001600160a01b0385166000908152600260205260409020556001600160a01b0383166000908152600260205261099190604090205483611227565b6001600160a01b0384166000908152600260205260409020556001600160a01b038084169085167fddf252ad1be2c89b69c2b068fc378daa952ba7f163c4a11628f55a4df523b3ef8460405190815260200160405180910390a35060019392505050565b69021e19e0c9bab240000081565b7fea2aa0a1be11a07ed86d755c93467f4f82362b452371d1ba94d1715123511acb81565b601281565b60055481565b33600090815260208190526040902054600114610a8a5760405162461bcd60e51b815260206004820152601260248201527111185a4bdb9bdd0b585d5d1a1bdc9a5e995960721b604482015260640160405180910390fd5b6001600160a01b038216600090815260026020526106ac90604090205482611227565b6040516040808201905260018152603160f81b602082015281565b33600090815260208190526040902054600114610b205760405162461bcd60e51b815260206004820152601260248201527111185a4bdb9bdd0b585d5d1a1bdc9a5e995960721b604482015260640160405180910390fd5b6001600160a01b0381166000908152602081905260019060409020555961012081016040526020815260e0602082015260e060006040830137602435600435336001600160e01b03196000351661012085a45050565b600260205280600052604060002054905081565b600460205280600052604060002054905081565b6005546000907fea2aa0a1be11a07ed86d755c93467f4f82362b452371d1ba94d1715123511acb8a8a8a8a8a60405160208101969096526001600160a01b03948516604080880191909152939094166060860152608085019190915260a084015290151560c083015260e090910190516020818303038152906040528051906020012060405161190160f01b6020820152602281019290925260428201526062016040516020818303038152906040528051906020012090506001600160a01b038916610ca95760405162461bcd60e51b815260206004820152601560248201527404461692f696e76616c69642d616464726573732d3605c1b604482015260640160405180910390fd5b60018185858560405160008152602001604052604051808581526020018460ff1660ff1681526020018381526020018281526020019450505050506020604051602081039080840390855afa158015610d06573d6000803e3d6000fd5b505050602060405103516001600160a01b0316896001600160a01b031614610d695760405162461bcd60e51b815260206004820152601260248201527111185a4bda5b9d985b1a590b5c195c9b5a5d60721b604482015260640160405180910390fd5b851580610d765750854211155b610dbb5760405162461bcd60e51b815260206004820152601260248201527111185a4bdc195c9b5a5d0b595e1c1a5c995960721b604482015260640160405180910390fd5b6001600160a01b03891660009081526004602052604090208054600181019091558714610e225760405162461bcd60e51b81526020600482015260116024820152704461692f696e76616c69642d6e6f6e636560781b604482015260640160405180910390fd5b600085610e30576000610e34565b6000195b6001600160a01b038b16600090815260036020529091508190604090206001600160a01b038b16600090815260209190915260409020556001600160a01b03808a16908b167f8c5be1e5ebec7d5bd14f71427d1e84f3dd0314c0f7b2291e5b200ac8c7c3b9258360405190815260200160405180910390a350505050505050505050565b60405160408082019052600381526244414960e81b602082015281565b33600090815260208190526040902054600114610f2d5760405162461bcd60e51b815260206004820152601260248201527111185a4bdb9bdd0b585d5d1a1bdc9a5e995960721b604482015260640160405180910390fd5b6001600160a01b0381166000908152602081905260408120555961012081016040526020815260e0602082015260e060006040830137602435600435336001600160e01b03196000351661012085a45050565b6001600160a01b03821660009081526002602052819060409020541015610fe85760405162461bcd60e51b81526020600482015260186024820152774461692f696e73756666696369656e742d62616c616e636560401b604482015260640160405180910390fd5b6001600160a01b038216331480159061102c57506001600160a01b038216600090815260036020526000199060409020336000908152602091909152604090205414155b1561110b576001600160a01b03821660009081526003602052819060409020336000908152602091909152604090205410156110ae5760405162461bcd60e51b815260206004820152601a60248201527f4461692f696e73756666696369656e742d616c6c6f77616e6365000000000000604482015260640160405180910390fd5b6001600160a01b038216600090815260036020526110e19060409020336000908152602091909152604090205482611237565b6001600160a01b038316600090815260036020526040902033600090815260209190915260409020555b6001600160a01b0382166000908152600260205261112e90604090205482611237565b6001600160a01b0383166000908152600260205260409020556001546111549082611237565b60015560006001600160a01b0383167fddf252ad1be2c89b69c2b068fc378daa952ba7f163c4a11628f55a4df523b3ef8360405190815260200160405180910390a35050565b60006111a73384846107a8565b9392505050565b6111b93383836107a8565b505050565b6111c98383836107a8565b50505050565b600060205280600052604060002054905081565b60066020528060005260406000205460ff16905081565b6003602052816000526040600020602052806000526040600020549150829050565b6111b98233836107a8565b8082018281101561078457600080fd5b8082038281111561078457600080fdfea265627a7a72315820a3308ff73e0772561ec6ae06dfb5bd8776ba7cf6d2eb223a90935eb6f39ae9d864736f6c634300050c0032454950373132446f6d61696e28737472696e67206e616d652c737472696e672076657273696f6e2c75696e7432353620636861696e49642c6164647265737320766572696679696e67436f6e747261637429",
  "devdoc": {
    "methods": {}
  },
  "userdoc": {
    "methods": {},
    "notice": "/// /nix/store/8xb41r4qd0cjb63wcrxf1qmfg88p0961-dss-6fd7de0/src/dai.sol"
  }
}