{
  "address": "0x8Fe29CF82bc48e70146b955107Ddba18DD61b272",
  "abi": [
    {
      "anonymous": false,
      "inputs": [
        {
          "indexed": true,
          "internalType": "address",
          "name": "owner",
          "type": "address"
        },
        {
          "indexed": true,
          "internalType": "address",
          "name": "spender",
          "type": "address"
        },
        {
          "indexed": false,
          "internalType": "uint256",
          "name": "value",
          "type": "uint256"
        }
      ],
      "name": "Approval",
      "type": "event"
    },
    {
      "anonymous": false,
      "inputs": [
        {
          "indexed": true,
          "internalType": "address",
          "name": "previousOwner",
          "type": "address"
        },
        {
          "indexed": true,
          "internalType": "address",
          "name": "newOwner",
          "type": "address"
        }
      ],
      "name": "OwnershipTransferred",
      "type": "event"
    },
    {
      "anonymous": false,
      "inputs": [
        {
          "indexed": true,
          "internalType": "address",
          "name": "from",
          "type": "address"
        },
        {
          "indexed": true,
          "internalType": "address",
          "name": "to",
          "type": "address"
        },
        {
          "indexed": false,
          "internalType": "uint256",
          "name": "value",
          "type": "uint256"
        }
      ],
      "name": "Transfer",
      "type": "event"
    },
    {
      "inputs": [],
      "name": "DOMAIN_SEPARATOR",
      "outputs": [
        {
          "internalType": "bytes32",
          "name": "",
          "type": "bytes32"
        }
      ],
      "stateMutability": "view",
      "type": "function"
    },
    {
      "inputs": [],
      "name": "PERMIT_TYPEHASH",
      "outputs": [
        {
          "internalType": "bytes32",
          "name": "",
          "type": "bytes32"
        }
      ],
      "stateMutability": "view",
      "type": "function"
    },
    {
      "inputs": [
        {
          "internalType": "address",
          "name": "",
          "type": "address"
        },
        {
          "internalType": "address",
          "name": "",
          "type": "address"
        }
      ],
      "name": "allowance",
      "outputs": [
        {
          "internalType": "uint256",
          "name": "",
          "type": "uint256"
        }
      ],
      "stateMutability": "view",
      "type": "function"
    },
    {
      "inputs": [
        {
          "internalType": "address",
          "name": "spender",
          "type": "address"
        },
        {
          "internalType": "uint256",
          "name": "value",
          "type": "uint256"
        }
      ],
      "name": "approve",
      "outputs": [
        {
          "internalType": "bool",
          "name": "",
          "type": "bool"
        }
      ],
      "stateMutability": "nonpayable",
      "type": "function"
    },
    {
      "inputs": [
        {
          "internalType": "address",
          "name": "",
          "type": "address"
        }
      ],
      "name": "balanceOf",
      "outputs": [
        {
          "internalType": "uint256",
          "name": "",
          "type": "uint256"
        }
      ],
      "stateMutability": "view",
      "type": "function"
    },
    {
      "inputs": [
        {
          "internalType": "address",
          "name": "from",
          "type": "address"
        },
        {
          "internalType": "uint256",
          "name": "value",
          "type": "uint256"
        }
      ],
      "name": "burnFrom",
      "outputs": [],
      "stateMutability": "nonpayable",
      "type": "function"
    },
    {
      "inputs": [],
      "name": "decimals",
      "outputs": [
        {
          "internalType": "uint8",
          "name": "",
          "type": "uint8"
        }
      ],
      "stateMutability": "view",
      "type": "function"
    },
    {
      "inputs": [
        {
          "internalType": "string",
          "name": "name",
          "type": "string"
        },
        {
          "internalType": "string",
          "name": "symbol",
          "type": "string"
        }
      ],
      "name": "initialize",
      "outputs": [
        {
          "internalType": "bool",
          "name": "",
          "type": "bool"
        }
      ],
      "stateMutability": "nonpayable",
      "type": "function"
    },
    {
      "inputs": [
        {
          "internalType": "address",
          "name": "recipient",
          "type": "address"
        },
        {
          "internalType": "uint256",
          "name": "amount",
          "type": "uint256"
        }
      ],
      "name": "mint",
      "outputs": [],
      "stateMutability": "nonpayable",
      "type": "function"
    },
    {
      "inputs": [],
      "name": "name",
      "outputs": [
        {
          "internalType": "string",
          "name": "",
          "type": "string"
        }
      ],
      "stateMutability": "view",
      "type": "function"
    },
    {
      "inputs": [
        {
          "internalType": "address",
          "name": "",
          "type": "address"
        }
      ],
      "name": "nonces",
      "outputs": [
        {
          "internalType": "uint256",
          "name": "",
          "type": "uint256"
        }
      ],
      "stateMutability": "view",
      "type": "function"
    },
    {
      "inputs": [],
      "name": "owner",
      "outputs": [
        {
          "internalType": "address",
          "name": "",
          "type": "address"
        }
      ],
      "stateMutability": "view",
      "type": "function"
    },
    {
      "inputs": [
        {
          "internalType": "address",
          "name": "owner",
          "type": "address"
        },
        {
          "internalType": "address",
          "name": "spender",
          "type": "address"
        },
        {
          "internalType": "uint256",
          "name": "value",
          "type": "uint256"
        },
        {
          "internalType": "uint256",
          "name": "deadline",
          "type": "uint256"
        },
        {
          "internalType": "uint8",
          "name": "v",
          "type": "uint8"
        },
        {
          "internalType": "bytes32",
          "name": "r",
          "type": "bytes32"
        },
        {
          "internalType": "bytes32",
          "name": "s",
          "type": "bytes32"
        }
      ],
      "name": "permit",
      "outputs": [],
      "stateMutability": "nonpayable",
      "type": "function"
    },
    {
      "inputs": [],
      "name": "renounceOwnership",
      "outputs": [],
      "stateMutability": "nonpayable",
      "type": "function"
    },
    {
      "inputs": [],
      "name": "symbol",
      "outputs": [
        {
          "internalType": "string",
          "name": "",
          "type": "string"
        }
      ],
      "stateMutability": "view",
      "type": "function"
    },
    {
      "inputs": [],
      "name": "totalSupply",
      "outputs": [
        {
          "internalType": "uint256",
          "name": "",
          "type": "uint256"
        }
      ],
      "stateMutability": "view",
      "type": "function"
    },
    {
      "inputs": [
        {
          "internalType": "address",
          "name": "to",
          "type": "address"
        },
        {
          "internalType": "uint256",
          "name": "value",
          "type": "uint256"
        }
      ],
      "name": "transfer",
      "outputs": [
        {
          "internalType": "bool",
          "name": "",
          "type": "bool"
        }
      ],
      "stateMutability": "nonpayable",
      "type": "function"
    },
    {
      "inputs": [
        {
          "internalType": "address",
          "name": "from",
          "type": "address"
        },
        {
          "internalType": "address",
          "name": "to",
          "type": "address"
        },
        {
          "internalType": "uint256",
          "name": "value",
          "type": "uint256"
        }
      ],
      "name": "transferFrom",
      "outputs": [
        {
          "internalType": "bool",
          "name": "",
          "type": "bool"
        }
      ],
      "stateMutability": "nonpayable",
      "type": "function"
    },
    {
      "inputs": [
        {
          "internalType": "address",
          "name": "newOwner",
          "type": "address"
        }
      ],
      "name": "transferOwnership",
      "outputs": [],
      "stateMutability": "nonpayable",
      "type": "function"
    }
  ],
  "transactionHash": "0xe3411e232e575fd48f354c209a9667dfe45f6db4a41423c953778b2a38bb2935",
  "args": [],
  "numDeployments": 1,
  "solcInputHash": "f5ce8fa10ad44994697b1bb6d7d61c67",
  "bytecode": "0x608060405234801561001057600080fd5b5061150f806100206000396000f3fe608060405234801561001057600080fd5b50600436106101215760003560e01c806370a08231116100ad57806395d89b411161007157806395d89b4114610460578063a9059cbb14610468578063d505accf14610494578063dd62ed3e146104e5578063f2fde38b1461051357610121565b806370a08231146103bc578063715018a6146103e257806379cc6790146103ea5780637ecebe00146104165780638da5cb5b1461043c57610121565b806330adf81f116100f457806330adf81f14610233578063313ce5671461023b5780633644e5151461025957806340c10f19146102615780634cd88b761461028f57610121565b806306fdde0314610126578063095ea7b3146101a357806318160ddd146101e357806323b872dd146101fd575b600080fd5b61012e610539565b6040805160208082528351818301528351919283929083019185019080838360005b83811015610168578181015183820152602001610150565b50505050905090810190601f1680156101955780820380516001836020036101000a031916815260200191505b509250505060405180910390f35b6101cf600480360360408110156101b957600080fd5b506001600160a01b0381351690602001356105c7565b604080519115158252519081900360200190f35b6101eb6105dd565b60408051918252519081900360200190f35b6101cf6004803603606081101561021357600080fd5b506001600160a01b038135811691602081013590911690604001356105e3565b6101eb610677565b61024361069b565b6040805160ff9092168252519081900360200190f35b6101eb6106a0565b61028d6004803603604081101561027757600080fd5b506001600160a01b0381351690602001356106a6565b005b6101cf600480360360408110156102a557600080fd5b8101906020810181356401000000008111156102c057600080fd5b8201836020820111156102d257600080fd5b803590602001918460018302840111640100000000831117156102f457600080fd5b91908080601f016020809104026020016040519081016040528093929190818152602001838380828437600092019190915250929594936020810193503591505064010000000081111561034757600080fd5b82018360208201111561035957600080fd5b8035906020019184600183028401116401000000008311171561037b57600080fd5b91908080601f0160208091040260200160405190810160405280939291908181526020018383808284376000920191909152509295506107d3945050505050565b6101eb600480360360208110156103d257600080fd5b50356001600160a01b0316610898565b61028d6108aa565b61028d6004803603604081101561040057600080fd5b506001600160a01b038135169060200135610968565b6101eb6004803603602081101561042c57600080fd5b50356001600160a01b03166109f5565b610444610a07565b604080516001600160a01b039092168252519081900360200190f35b61012e610a16565b6101cf6004803603604081101561047e57600080fd5b506001600160a01b038135169060200135610a71565b61028d600480360360e08110156104aa57600080fd5b506001600160a01b03813581169160208101359091169060408101359060608101359060ff6080820135169060a08101359060c00135610a7e565b6101eb600480360360408110156104fb57600080fd5b506001600160a01b0381358116916020013516610c80565b61028d6004803603602081101561052957600080fd5b50356001600160a01b0316610c9d565b6065805460408051602060026001851615610100026000190190941693909304601f810184900484028201840190925281815292918301828280156105bf5780601f10610594576101008083540402835291602001916105bf565b820191906000526020600020905b8154815290600101906020018083116105a257829003601f168201915b505050505081565b60006105d4338484610db2565b50600192915050565b60675481565b6001600160a01b038316600090815260696020908152604080832033845290915281205460001914610662576001600160a01b038416600090815260696020908152604080832033845290915290205461063d9083610e14565b6001600160a01b03851660009081526069602090815260408083203384529091529020555b61066d848484610e71565b5060019392505050565b7f6e71edae12b1b97f4d1f60370fef10105fa2faae0126114a169c64845d6126c981565b601281565b606a5481565b6106ae610ee1565b6001600160a01b03166106bf610a07565b6001600160a01b03161461071a576040805162461bcd60e51b815260206004820181905260248201527f4f776e61626c653a2063616c6c6572206973206e6f7420746865206f776e6572604482015290519081900360640190fd5b816001600160a01b038116301415610779576040805162461bcd60e51b815260206004820152601e60248201527f4c50546f6b656e3a2063616e6e6f742073656e6420746f20697473656c660000604482015290519081900360640190fd5b816107c4576040805162461bcd60e51b815260206004820152601660248201527504c50546f6b656e3a2063616e6e6f74206d696e7420360541b604482015290519081900360640190fd5b6107ce8383610ee5565b505050565b60008054610100900460ff16806107ed57506107ed610f70565b806107fb575060005460ff16155b6108365760405162461bcd60e51b815260040180806020018281038252602e8152602001806114ac602e913960400191505060405180910390fd5b600054610100900460ff16158015610861576000805460ff1961ff0019909116610100171660011790555b610869610f81565b610871611023565b61087b848461111c565b600191508015610891576000805461ff00191690555b5092915050565b60686020526000908152604090205481565b6108b2610ee1565b6001600160a01b03166108c3610a07565b6001600160a01b03161461091e576040805162461bcd60e51b815260206004820181905260248201527f4f776e61626c653a2063616c6c6572206973206e6f7420746865206f776e6572604482015290519081900360640190fd5b6033546040516000916001600160a01b0316907f8be0079c531659141344cd1fd0a4f28419497f9722a3daafe3b4186f6b6457e0908390a3603380546001600160a01b0319169055565b6001600160a01b0382166000908152606960209081526040808320338452909152902054600019146109e7576001600160a01b03821660009081526069602090815260408083203384529091529020546109c29082610e14565b6001600160a01b03831660009081526069602090815260408083203384529091529020555b6109f1828261124c565b5050565b606b6020526000908152604090205481565b6033546001600160a01b031690565b6066805460408051602060026001851615610100026000190190941693909304601f810184900484028201840190925281815292918301828280156105bf5780601f10610594576101008083540402835291602001916105bf565b60006105d4338484610e71565b42841015610ac8576040805162461bcd60e51b815260206004820152601260248201527114185a5c915490cc8c0e881156141254915160721b604482015290519081900360640190fd5b606a546001600160a01b038089166000818152606b602090815260408083208054600180820190925582517f6e71edae12b1b97f4d1f60370fef10105fa2faae0126114a169c64845d6126c98186015280840196909652958d166060860152608085018c905260a085019590955260c08085018b90528151808603909101815260e08501825280519083012061190160f01b6101008601526101028501969096526101228085019690965280518085039096018652610142840180825286519683019690962095839052610162840180825286905260ff89166101828501526101a284018890526101c28401879052519193926101e280820193601f1981019281900390910190855afa158015610be3573d6000803e3d6000fd5b5050604051601f1901519150506001600160a01b03811615801590610c195750886001600160a01b0316816001600160a01b0316145b610c6a576040805162461bcd60e51b815260206004820152601c60248201527f5061697245524332303a20494e56414c49445f5349474e415455524500000000604482015290519081900360640190fd5b610c75898989610db2565b505050505050505050565b606960209081526000928352604080842090915290825290205481565b610ca5610ee1565b6001600160a01b0316610cb6610a07565b6001600160a01b031614610d11576040805162461bcd60e51b815260206004820181905260248201527f4f776e61626c653a2063616c6c6572206973206e6f7420746865206f776e6572604482015290519081900360640190fd5b6001600160a01b038116610d565760405162461bcd60e51b81526004018080602001828103825260268152602001806114866026913960400191505060405180910390fd5b6033546040516001600160a01b038084169216907f8be0079c531659141344cd1fd0a4f28419497f9722a3daafe3b4186f6b6457e090600090a3603380546001600160a01b0319166001600160a01b0392909216919091179055565b6001600160a01b03808416600081815260696020908152604080832094871680845294825291829020859055815185815291517f8c5be1e5ebec7d5bd14f71427d1e84f3dd0314c0f7b2291e5b200ac8c7c3b9259281900390910190a3505050565b600082821115610e6b576040805162461bcd60e51b815260206004820152601e60248201527f536166654d6174683a207375627472616374696f6e206f766572666c6f770000604482015290519081900360640190fd5b50900390565b816001600160a01b038116301415610ed0576040805162461bcd60e51b815260206004820152601e60248201527f4c50546f6b656e3a2063616e6e6f742073656e6420746f20697473656c660000604482015290519081900360640190fd5b610edb8484846112dd565b50505050565b3390565b606754610ef2908261138b565b6067556001600160a01b038216600090815260686020526040902054610f18908261138b565b6001600160a01b03831660008181526068602090815260408083209490945583518581529351929391927fddf252ad1be2c89b69c2b068fc378daa952ba7f163c4a11628f55a4df523b3ef9281900390910190a35050565b6000610f7b306113ec565b15905090565b600054610100900460ff1680610f9a5750610f9a610f70565b80610fa8575060005460ff16155b610fe35760405162461bcd60e51b815260040180806020018281038252602e8152602001806114ac602e913960400191505060405180910390fd5b600054610100900460ff1615801561100e576000805460ff1961ff0019909116610100171660011790555b8015611020576000805461ff00191690555b50565b600054610100900460ff168061103c575061103c610f70565b8061104a575060005460ff16155b6110855760405162461bcd60e51b815260040180806020018281038252602e8152602001806114ac602e913960400191505060405180910390fd5b600054610100900460ff161580156110b0576000805460ff1961ff0019909116610100171660011790555b60006110ba610ee1565b603380546001600160a01b0319166001600160a01b038316908117909155604051919250906000907f8be0079c531659141344cd1fd0a4f28419497f9722a3daafe3b4186f6b6457e0908290a3508015611020576000805461ff001916905550565b815161112f9060659060208501906113f2565b5080516111439060669060208401906113f2565b5060004690507f8b73c3c69bb8fe3d512ecc4cf759cc79239f7b179b0ffacaa9a75d522b39400f606560405180828054600181600116156101000203166002900480156111c75780601f106111a55761010080835404028352918201916111c7565b820191906000526020600020905b8154815290600101906020018083116111b3575b505060408051918290038220828201825260018352603160f81b602093840152815180840196909652858201527fc89efdaa54c0f20c7adf612882df0950f5a951637e0307cdcb4c672f298b8bc6606086015260808501959095523060a0808601919091528551808603909101815260c090940190945250508051910120606a555050565b6001600160a01b03821660009081526068602052604090205461126f9082610e14565b6001600160a01b0383166000908152606860205260409020556067546112959082610e14565b6067556040805182815290516000916001600160a01b038516917fddf252ad1be2c89b69c2b068fc378daa952ba7f163c4a11628f55a4df523b3ef9181900360200190a35050565b6001600160a01b0383166000908152606860205260409020546113009082610e14565b6001600160a01b03808516600090815260686020526040808220939093559084168152205461132f908261138b565b6001600160a01b0380841660008181526068602090815260409182902094909455805185815290519193928716927fddf252ad1be2c89b69c2b068fc378daa952ba7f163c4a11628f55a4df523b3ef92918290030190a3505050565b6000828201838110156113e5576040805162461bcd60e51b815260206004820152601b60248201527f536166654d6174683a206164646974696f6e206f766572666c6f770000000000604482015290519081900360640190fd5b9392505050565b3b151590565b828054600181600116156101000203166002900490600052602060002090601f016020900481019282601f1061143357805160ff1916838001178555611460565b82800160010185558215611460579182015b82811115611460578251825591602001919060010190611445565b5061146c929150611470565b5090565b5b8082111561146c576000815560010161147156fe4f776e61626c653a206e6577206f776e657220697320746865207a65726f2061646472657373496e697469616c697a61626c653a20636f6e747261637420697320616c726561647920696e697469616c697a6564a2646970667358221220baaac67e57b50de7bc259e22c48c3735356cdcde88f23c473f20481e868ff56764736f6c634300060c0033",
  "devdoc": {
    "details": "Only Swap contracts should initialize and own LPToken contracts.",
    "kind": "dev",
    "methods": {
      "approve(address,uint256)": {
        "details": "Approves a spender to transfer tokens on behalf of the owner.",
        "params": {
          "spender": "The address of the spender to be approved.",
          "value": "The amount of tokens to be approved for transfer."
        },
        "returns": {
          "_0": "A boolean indicating whether the approval was successful or not."
        }
      },
      "burnFrom(address,uint256)": {
        "params": {
          "from": "address of account to burn tokens from",
          "value": "amount of tokens to burn"
        }
      },
      "initialize(string,string)": {
        "details": "The caller of this function will become the owner. A Swap contract should call this in its initializer function.",
        "params": {
          "name": "name of this token",
          "symbol": "symbol of this token"
        }
      },
      "mint(address,uint256)": {
        "details": "only owner can call this mint function",
        "params": {
          "amount": "amount of tokens to mint",
          "recipient": "address of account to receive the tokens"
        }
      },
      "owner()": {
        "details": "Returns the address of the current owner."
      },
      "permit(address,address,uint256,uint256,uint8,bytes32,bytes32)": {
        "details": "Approves a spender to transfer tokens on behalf of the owner, using a permit signature.",
        "params": {
          "deadline": "The deadline by which the permit must be used.",
          "owner": "The address of the owner of the tokens.",
          "r": "The R component of the permit signature.",
          "s": "The S component of the permit signature.",
          "spender": "The address of the spender to be approved.",
          "v": "The recovery byte of the permit signature.",
          "value": "The amount of tokens to be approved for transfer."
        }
      },
      "renounceOwnership()": {
        "details": "Leaves the contract without owner. It will not be possible to call `onlyOwner` functions anymore. Can only be called by the current owner. NOTE: Renouncing ownership will leave the contract without an owner, thereby removing any functionality that is only available to the owner."
      },
      "transfer(address,uint256)": {
        "details": "Transfers tokens from the caller's address to another address.",
        "params": {
          "to": "The address to which the tokens will be transferred.",
          "value": "The amount of tokens to be transferred."
        },
        "returns": {
          "_0": "A boolean indicating whether the transfer was successful or not."
        }
      },
      "transferFrom(address,address,uint256)": {
        "details": "Transfers tokens from one address to another, on behalf of the owner.",
        "params": {
          "from": "The address from which the tokens will be transferred.",
          "to": "The address to which the tokens will be transferred.",
          "value": "The amount of tokens to be transferred."
        },
        "returns": {
          "_0": "A boolean indicating whether the transfer was successful or not."
        }
      },
      "transferOwnership(address)": {
        "details": "Transfers ownership of the contract to a new account (`newOwner`). Can only be called by the current owner."
      }
    },
    "title": "Liquidity Provider Token",
    "version": 1
  },
  "userdoc": {
    "kind": "user",
    "methods": {
      "burnFrom(address,uint256)": {
        "notice": "Burns the given amount of LPToken from the specified account"
      },
      "initialize(string,string)": {
        "notice": "Initializes this LPToken contract with the given name and symbol"
      },
      "mint(address,uint256)": {
        "notice": "Mints the given amount of LPToken to the recipient."
      }
    },
    "notice": "This token is an ERC20 detailed token with added capability to be minted by the owner. It is used to represent user's shares when providing liquidity to swap contracts.",
    "version": 1
  },
  "storageLayout": {
    "storage": [
      {
        "astId": 492,
        "contract": "contracts/utils/LPToken.sol:LPToken",
        "label": "_initialized",
        "offset": 0,
        "slot": "0",
        "type": "t_bool"
      },
      {
        "astId": 495,
        "contract": "contracts/utils/LPToken.sol:LPToken",
        "label": "_initializing",
        "offset": 1,
        "slot": "0",
        "type": "t_bool"
      },
      {
        "astId": 839,
        "contract": "contracts/utils/LPToken.sol:LPToken",
        "label": "__gap",
        "offset": 0,
        "slot": "1",
        "type": "t_array(t_uint256)50_storage"
      },
      {
        "astId": 10,
        "contract": "contracts/utils/LPToken.sol:LPToken",
        "label": "_owner",
        "offset": 0,
        "slot": "51",
        "type": "t_address"
      },
      {
        "astId": 129,
        "contract": "contracts/utils/LPToken.sol:LPToken",
        "label": "__gap",
        "offset": 0,
        "slot": "52",
        "type": "t_array(t_uint256)49_storage"
      },
      {
        "astId": 9406,
        "contract": "contracts/utils/LPToken.sol:LPToken",
        "label": "name",
        "offset": 0,
        "slot": "101",
        "type": "t_string_storage"
      },
      {
        "astId": 9409,
        "contract": "contracts/utils/LPToken.sol:LPToken",
        "label": "symbol",
        "offset": 0,
        "slot": "102",
        "type": "t_string_storage"
      },
      {
        "astId": 9416,
        "contract": "contracts/utils/LPToken.sol:LPToken",
        "label": "totalSupply",
        "offset": 0,
        "slot": "103",
        "type": "t_uint256"
      },
      {
        "astId": 9421,
        "contract": "contracts/utils/LPToken.sol:LPToken",
        "label": "balanceOf",
        "offset": 0,
        "slot": "104",
        "type": "t_mapping(t_address,t_uint256)"
      },
      {
        "astId": 9428,
        "contract": "contracts/utils/LPToken.sol:LPToken",
        "label": "allowance",
        "offset": 0,
        "slot": "105",
        "type": "t_mapping(t_address,t_mapping(t_address,t_uint256))"
      },
      {
        "astId": 9435,
        "contract": "contracts/utils/LPToken.sol:LPToken",
        "label": "DOMAIN_SEPARATOR",
        "offset": 0,
        "slot": "106",
        "type": "t_bytes32"
      },
      {
        "astId": 9440,
        "contract": "contracts/utils/LPToken.sol:LPToken",
        "label": "nonces",
        "offset": 0,
        "slot": "107",
        "type": "t_mapping(t_address,t_uint256)"
      }
    ],
    "types": {
      "t_address": {
        "encoding": "inplace",
        "label": "address",
        "numberOfBytes": "20"
      },
      "t_array(t_uint256)49_storage": {
        "base": "t_uint256",
        "encoding": "inplace",
        "label": "uint256[49]",
        "numberOfBytes": "1568"
      },
      "t_array(t_uint256)50_storage": {
        "base": "t_uint256",
        "encoding": "inplace",
        "label": "uint256[50]",
        "numberOfBytes": "1600"
      },
      "t_bool": {
        "encoding": "inplace",
        "label": "bool",
        "numberOfBytes": "1"
      },
      "t_bytes32": {
        "encoding": "inplace",
        "label": "bytes32",
        "numberOfBytes": "32"
      },
      "t_mapping(t_address,t_mapping(t_address,t_uint256))": {
        "encoding": "mapping",
        "key": "t_address",
        "label": "mapping(address => mapping(address => uint256))",
        "numberOfBytes": "32",
        "value": "t_mapping(t_address,t_uint256)"
      },
      "t_mapping(t_address,t_uint256)": {
        "encoding": "mapping",
        "key": "t_address",
        "label": "mapping(address => uint256)",
        "numberOfBytes": "32",
        "value": "t_uint256"
      },
      "t_string_storage": {
        "encoding": "bytes",
        "label": "string",
        "numberOfBytes": "32"
      },
      "t_uint256": {
        "encoding": "inplace",
        "label": "uint256",
        "numberOfBytes": "32"
      }
    }
  }
}