{
  "address": "0x4C5cf2a80AE65d3434A38E2001087478A926F882",
  "abi": [
    {
      "inputs": [
        {
          "internalType": "address",
          "name": "_factory",
          "type": "address"
        },
        {
          "internalType": "address",
          "name": "_weth",
          "type": "address"
        }
      ],
      "stateMutability": "nonpayable",
      "type": "constructor"
    },
    {
      "anonymous": false,
      "inputs": [
        {
          "indexed": false,
          "internalType": "uint8",
          "name": "pairType",
          "type": "uint8"
        },
        {
          "indexed": false,
          "internalType": "address",
          "name": "router",
          "type": "address"
        }
      ],
      "name": "SetPairTypes",
      "type": "event"
    },
    {
      "inputs": [
        {
          "internalType": "uint8",
          "name": "_pairType",
          "type": "uint8"
        },
        {
          "internalType": "address[]",
          "name": "_tokens",
          "type": "address[]"
        },
        {
          "internalType": "uint256[]",
          "name": "_amountDesireds",
          "type": "uint256[]"
        },
        {
          "internalType": "uint256[]",
          "name": "_amountsMin",
          "type": "uint256[]"
        },
        {
          "internalType": "uint256",
          "name": "_minLiquidity",
          "type": "uint256"
        },
        {
          "internalType": "address",
          "name": "_to",
          "type": "address"
        },
        {
          "internalType": "uint256",
          "name": "_deadline",
          "type": "uint256"
        }
      ],
      "name": "addLiquidity",
      "outputs": [
        {
          "internalType": "uint256[]",
          "name": "_amounts",
          "type": "uint256[]"
        },
        {
          "internalType": "uint256",
          "name": "_liquidity",
          "type": "uint256"
        }
      ],
      "stateMutability": "nonpayable",
      "type": "function"
    },
    {
      "inputs": [
        {
          "internalType": "uint8",
          "name": "_pairType",
          "type": "uint8"
        },
        {
          "internalType": "address[]",
          "name": "_tokens",
          "type": "address[]"
        },
        {
          "internalType": "uint256[]",
          "name": "_amountDesireds",
          "type": "uint256[]"
        },
        {
          "internalType": "uint256[]",
          "name": "_amountsMin",
          "type": "uint256[]"
        },
        {
          "internalType": "uint256",
          "name": "_minLiquidity",
          "type": "uint256"
        },
        {
          "internalType": "address",
          "name": "_to",
          "type": "address"
        },
        {
          "internalType": "uint256",
          "name": "_deadline",
          "type": "uint256"
        }
      ],
      "name": "addLiquidityETH",
      "outputs": [
        {
          "internalType": "uint256[]",
          "name": "_amounts",
          "type": "uint256[]"
        },
        {
          "internalType": "uint256",
          "name": "_liquidity",
          "type": "uint256"
        }
      ],
      "stateMutability": "payable",
      "type": "function"
    },
    {
      "inputs": [],
      "name": "factory",
      "outputs": [
        {
          "internalType": "address",
          "name": "",
          "type": "address"
        }
      ],
      "stateMutability": "view",
      "type": "function"
    },
    {
      "inputs": [
        {
          "internalType": "uint256",
          "name": "_amountIn",
          "type": "uint256"
        },
        {
          "components": [
            {
              "internalType": "address",
              "name": "from",
              "type": "address"
            },
            {
              "internalType": "address",
              "name": "to",
              "type": "address"
            },
            {
              "internalType": "address",
              "name": "pair",
              "type": "address"
            }
          ],
          "internalType": "struct Router.Route[]",
          "name": "_routes",
          "type": "tuple[]"
        }
      ],
      "name": "getAmountsOut",
      "outputs": [
        {
          "internalType": "uint256",
          "name": "",
          "type": "uint256"
        }
      ],
      "stateMutability": "view",
      "type": "function"
    },
    {
      "inputs": [
        {
          "internalType": "uint256",
          "name": "_amountIn",
          "type": "uint256"
        },
        {
          "components": [
            {
              "internalType": "address",
              "name": "from",
              "type": "address"
            },
            {
              "internalType": "address",
              "name": "to",
              "type": "address"
            },
            {
              "internalType": "address",
              "name": "pair",
              "type": "address"
            }
          ],
          "internalType": "struct Router.Route[]",
          "name": "_routes",
          "type": "tuple[]"
        }
      ],
      "name": "getAmountsOutPath",
      "outputs": [
        {
          "internalType": "uint256[]",
          "name": "_amounts",
          "type": "uint256[]"
        }
      ],
      "stateMutability": "view",
      "type": "function"
    },
    {
      "inputs": [
        {
          "internalType": "address[]",
          "name": "_tokens",
          "type": "address[]"
        }
      ],
      "name": "getReserves",
      "outputs": [
        {
          "internalType": "uint256",
          "name": "_reserveA",
          "type": "uint256"
        },
        {
          "internalType": "uint256",
          "name": "_reserveB",
          "type": "uint256"
        }
      ],
      "stateMutability": "view",
      "type": "function"
    },
    {
      "inputs": [
        {
          "internalType": "address",
          "name": "_factory",
          "type": "address"
        },
        {
          "internalType": "address",
          "name": "_weth",
          "type": "address"
        }
      ],
      "name": "initialize",
      "outputs": [],
      "stateMutability": "nonpayable",
      "type": "function"
    },
    {
      "inputs": [
        {
          "internalType": "address[]",
          "name": "_tokens",
          "type": "address[]"
        },
        {
          "internalType": "uint8",
          "name": "_type",
          "type": "uint8"
        }
      ],
      "name": "pairFor",
      "outputs": [
        {
          "internalType": "address",
          "name": "_pair",
          "type": "address"
        },
        {
          "internalType": "bool",
          "name": "_has",
          "type": "bool"
        }
      ],
      "stateMutability": "view",
      "type": "function"
    },
    {
      "inputs": [
        {
          "internalType": "uint8",
          "name": "_pairType",
          "type": "uint8"
        }
      ],
      "name": "pairTypes",
      "outputs": [
        {
          "internalType": "address",
          "name": "",
          "type": "address"
        }
      ],
      "stateMutability": "view",
      "type": "function"
    },
    {
      "inputs": [
        {
          "internalType": "uint8",
          "name": "_pairType",
          "type": "uint8"
        },
        {
          "internalType": "address[]",
          "name": "_tokens",
          "type": "address[]"
        },
        {
          "internalType": "uint256[]",
          "name": "_amountDesireds",
          "type": "uint256[]"
        }
      ],
      "name": "quoteAddLiquidity",
      "outputs": [
        {
          "internalType": "uint256[]",
          "name": "_amountIn",
          "type": "uint256[]"
        },
        {
          "internalType": "uint256",
          "name": "liquidity",
          "type": "uint256"
        }
      ],
      "stateMutability": "view",
      "type": "function"
    },
    {
      "inputs": [
        {
          "internalType": "uint8",
          "name": "_pairType",
          "type": "uint8"
        },
        {
          "internalType": "address[]",
          "name": "_tokens",
          "type": "address[]"
        },
        {
          "internalType": "uint256",
          "name": "_liquidity",
          "type": "uint256"
        }
      ],
      "name": "quoteRemoveLiquidity",
      "outputs": [
        {
          "internalType": "uint256[]",
          "name": "_amounts",
          "type": "uint256[]"
        }
      ],
      "stateMutability": "view",
      "type": "function"
    },
    {
      "inputs": [
        {
          "internalType": "uint8",
          "name": "_pairType",
          "type": "uint8"
        },
        {
          "internalType": "address[]",
          "name": "_tokens",
          "type": "address[]"
        },
        {
          "internalType": "uint256[]",
          "name": "_amounts",
          "type": "uint256[]"
        }
      ],
      "name": "quoteRemoveLiquidityImbalance",
      "outputs": [
        {
          "internalType": "uint256",
          "name": "_amount",
          "type": "uint256"
        }
      ],
      "stateMutability": "view",
      "type": "function"
    },
    {
      "inputs": [
        {
          "internalType": "uint8",
          "name": "_pairType",
          "type": "uint8"
        },
        {
          "internalType": "address[]",
          "name": "_tokens",
          "type": "address[]"
        },
        {
          "internalType": "address",
          "name": "_token",
          "type": "address"
        },
        {
          "internalType": "uint256",
          "name": "_liquidity",
          "type": "uint256"
        }
      ],
      "name": "quoteRemoveLiquidityOneToken",
      "outputs": [
        {
          "internalType": "uint256",
          "name": "_amount",
          "type": "uint256"
        }
      ],
      "stateMutability": "view",
      "type": "function"
    },
    {
      "inputs": [
        {
          "internalType": "uint8",
          "name": "_pairType",
          "type": "uint8"
        },
        {
          "internalType": "address[]",
          "name": "_tokens",
          "type": "address[]"
        },
        {
          "internalType": "uint256",
          "name": "_liquidity",
          "type": "uint256"
        },
        {
          "internalType": "uint256[]",
          "name": "_amountsMin",
          "type": "uint256[]"
        },
        {
          "internalType": "address",
          "name": "_to",
          "type": "address"
        },
        {
          "internalType": "uint256",
          "name": "_deadline",
          "type": "uint256"
        }
      ],
      "name": "removeLiquidity",
      "outputs": [
        {
          "internalType": "uint256[]",
          "name": "_amounts",
          "type": "uint256[]"
        }
      ],
      "stateMutability": "nonpayable",
      "type": "function"
    },
    {
      "inputs": [
        {
          "internalType": "uint8",
          "name": "_pairType",
          "type": "uint8"
        },
        {
          "internalType": "address[]",
          "name": "_tokens",
          "type": "address[]"
        },
        {
          "internalType": "uint256",
          "name": "_liquidity",
          "type": "uint256"
        },
        {
          "internalType": "uint256[]",
          "name": "_amountsMin",
          "type": "uint256[]"
        },
        {
          "internalType": "address",
          "name": "_to",
          "type": "address"
        },
        {
          "internalType": "uint256",
          "name": "_deadline",
          "type": "uint256"
        }
      ],
      "name": "removeLiquidityETH",
      "outputs": [
        {
          "internalType": "uint256[]",
          "name": "_amounts",
          "type": "uint256[]"
        }
      ],
      "stateMutability": "nonpayable",
      "type": "function"
    },
    {
      "inputs": [
        {
          "internalType": "uint8",
          "name": "_pairType",
          "type": "uint8"
        },
        {
          "internalType": "address[]",
          "name": "_tokens",
          "type": "address[]"
        },
        {
          "internalType": "uint256",
          "name": "_liquidity",
          "type": "uint256"
        },
        {
          "internalType": "uint256[]",
          "name": "_amountsMin",
          "type": "uint256[]"
        },
        {
          "internalType": "address",
          "name": "_to",
          "type": "address"
        },
        {
          "internalType": "uint256",
          "name": "_deadline",
          "type": "uint256"
        },
        {
          "internalType": "bool",
          "name": "_approveMax",
          "type": "bool"
        },
        {
          "internalType": "uint8",
          "name": "_v",
          "type": "uint8"
        },
        {
          "internalType": "bytes32",
          "name": "_r",
          "type": "bytes32"
        },
        {
          "internalType": "bytes32",
          "name": "_s",
          "type": "bytes32"
        }
      ],
      "name": "removeLiquidityETHWithPermit",
      "outputs": [
        {
          "internalType": "uint256[]",
          "name": "_amounts",
          "type": "uint256[]"
        }
      ],
      "stateMutability": "nonpayable",
      "type": "function"
    },
    {
      "inputs": [
        {
          "internalType": "uint8",
          "name": "_pairType",
          "type": "uint8"
        },
        {
          "internalType": "address[]",
          "name": "_tokens",
          "type": "address[]"
        },
        {
          "internalType": "uint256[]",
          "name": "_amounts",
          "type": "uint256[]"
        },
        {
          "internalType": "uint256",
          "name": "_maxBurnAmount",
          "type": "uint256"
        },
        {
          "internalType": "address",
          "name": "_to",
          "type": "address"
        },
        {
          "internalType": "uint256",
          "name": "_deadline",
          "type": "uint256"
        }
      ],
      "name": "removeLiquidityImbalance",
      "outputs": [
        {
          "internalType": "uint256",
          "name": "_amount",
          "type": "uint256"
        }
      ],
      "stateMutability": "nonpayable",
      "type": "function"
    },
    {
      "inputs": [
        {
          "internalType": "uint8",
          "name": "_pairType",
          "type": "uint8"
        },
        {
          "internalType": "address[]",
          "name": "_tokens",
          "type": "address[]"
        },
        {
          "internalType": "uint256[]",
          "name": "_amounts",
          "type": "uint256[]"
        },
        {
          "internalType": "uint256",
          "name": "_maxBurnAmount",
          "type": "uint256"
        },
        {
          "internalType": "address",
          "name": "_to",
          "type": "address"
        },
        {
          "internalType": "uint256",
          "name": "_deadline",
          "type": "uint256"
        }
      ],
      "name": "removeLiquidityImbalanceETH",
      "outputs": [
        {
          "internalType": "uint256",
          "name": "_amount",
          "type": "uint256"
        }
      ],
      "stateMutability": "nonpayable",
      "type": "function"
    },
    {
      "inputs": [
        {
          "internalType": "uint8",
          "name": "_pairType",
          "type": "uint8"
        },
        {
          "internalType": "address[]",
          "name": "_tokens",
          "type": "address[]"
        },
        {
          "internalType": "uint256[]",
          "name": "_amounts",
          "type": "uint256[]"
        },
        {
          "internalType": "uint256",
          "name": "_maxBurnAmount",
          "type": "uint256"
        },
        {
          "internalType": "address",
          "name": "_to",
          "type": "address"
        },
        {
          "internalType": "uint256",
          "name": "_deadline",
          "type": "uint256"
        },
        {
          "internalType": "bool",
          "name": "_approveMax",
          "type": "bool"
        },
        {
          "internalType": "uint8",
          "name": "_v",
          "type": "uint8"
        },
        {
          "internalType": "bytes32",
          "name": "_r",
          "type": "bytes32"
        },
        {
          "internalType": "bytes32",
          "name": "_s",
          "type": "bytes32"
        }
      ],
      "name": "removeLiquidityImbalanceETHWithPermit",
      "outputs": [
        {
          "internalType": "uint256",
          "name": "_actualBurnAmount",
          "type": "uint256"
        }
      ],
      "stateMutability": "nonpayable",
      "type": "function"
    },
    {
      "inputs": [
        {
          "internalType": "uint8",
          "name": "_pairType",
          "type": "uint8"
        },
        {
          "internalType": "address[]",
          "name": "_tokens",
          "type": "address[]"
        },
        {
          "internalType": "uint256[]",
          "name": "_amounts",
          "type": "uint256[]"
        },
        {
          "internalType": "uint256",
          "name": "_maxBurnAmount",
          "type": "uint256"
        },
        {
          "internalType": "address",
          "name": "_to",
          "type": "address"
        },
        {
          "internalType": "uint256",
          "name": "_deadline",
          "type": "uint256"
        },
        {
          "internalType": "bool",
          "name": "_approveMax",
          "type": "bool"
        },
        {
          "internalType": "uint8",
          "name": "_v",
          "type": "uint8"
        },
        {
          "internalType": "bytes32",
          "name": "_r",
          "type": "bytes32"
        },
        {
          "internalType": "bytes32",
          "name": "_s",
          "type": "bytes32"
        }
      ],
      "name": "removeLiquidityImbalanceWithPermit",
      "outputs": [
        {
          "internalType": "uint256",
          "name": "_actualBurnAmount",
          "type": "uint256"
        }
      ],
      "stateMutability": "nonpayable",
      "type": "function"
    },
    {
      "inputs": [
        {
          "internalType": "uint8",
          "name": "_pairType",
          "type": "uint8"
        },
        {
          "internalType": "address[]",
          "name": "_tokens",
          "type": "address[]"
        },
        {
          "internalType": "uint256",
          "name": "_liquidity",
          "type": "uint256"
        },
        {
          "internalType": "address",
          "name": "_token",
          "type": "address"
        },
        {
          "internalType": "uint256",
          "name": "_minAmount",
          "type": "uint256"
        },
        {
          "internalType": "address",
          "name": "_to",
          "type": "address"
        },
        {
          "internalType": "uint256",
          "name": "_deadline",
          "type": "uint256"
        }
      ],
      "name": "removeLiquidityOneToken",
      "outputs": [
        {
          "internalType": "uint256",
          "name": "_amount",
          "type": "uint256"
        }
      ],
      "stateMutability": "nonpayable",
      "type": "function"
    },
    {
      "inputs": [
        {
          "internalType": "uint8",
          "name": "_pairType",
          "type": "uint8"
        },
        {
          "internalType": "address[]",
          "name": "_tokens",
          "type": "address[]"
        },
        {
          "internalType": "uint256",
          "name": "_liquidity",
          "type": "uint256"
        },
        {
          "internalType": "address",
          "name": "_token",
          "type": "address"
        },
        {
          "internalType": "uint256",
          "name": "_minAmount",
          "type": "uint256"
        },
        {
          "internalType": "address",
          "name": "_to",
          "type": "address"
        },
        {
          "internalType": "uint256",
          "name": "_deadline",
          "type": "uint256"
        }
      ],
      "name": "removeLiquidityOneTokenETH",
      "outputs": [
        {
          "internalType": "uint256",
          "name": "_amount",
          "type": "uint256"
        }
      ],
      "stateMutability": "nonpayable",
      "type": "function"
    },
    {
      "inputs": [
        {
          "internalType": "uint8",
          "name": "_pairType",
          "type": "uint8"
        },
        {
          "internalType": "address[]",
          "name": "_tokens",
          "type": "address[]"
        },
        {
          "internalType": "uint256",
          "name": "_liquidity",
          "type": "uint256"
        },
        {
          "internalType": "address",
          "name": "_token",
          "type": "address"
        },
        {
          "internalType": "uint256",
          "name": "_minAmount",
          "type": "uint256"
        },
        {
          "internalType": "address",
          "name": "_to",
          "type": "address"
        },
        {
          "internalType": "uint256",
          "name": "_deadline",
          "type": "uint256"
        },
        {
          "internalType": "bool",
          "name": "_approveMax",
          "type": "bool"
        },
        {
          "internalType": "uint8",
          "name": "_v",
          "type": "uint8"
        },
        {
          "internalType": "bytes32",
          "name": "_r",
          "type": "bytes32"
        },
        {
          "internalType": "bytes32",
          "name": "_s",
          "type": "bytes32"
        }
      ],
      "name": "removeLiquidityOneTokenETHWithPermit",
      "outputs": [
        {
          "internalType": "uint256",
          "name": "_tokenAmount",
          "type": "uint256"
        }
      ],
      "stateMutability": "nonpayable",
      "type": "function"
    },
    {
      "inputs": [
        {
          "internalType": "uint8",
          "name": "_pairType",
          "type": "uint8"
        },
        {
          "internalType": "address[]",
          "name": "_tokens",
          "type": "address[]"
        },
        {
          "internalType": "uint256",
          "name": "_liquidity",
          "type": "uint256"
        },
        {
          "internalType": "address",
          "name": "_token",
          "type": "address"
        },
        {
          "internalType": "uint256",
          "name": "_minAmount",
          "type": "uint256"
        },
        {
          "internalType": "address",
          "name": "_to",
          "type": "address"
        },
        {
          "internalType": "uint256",
          "name": "_deadline",
          "type": "uint256"
        },
        {
          "internalType": "bool",
          "name": "_approveMax",
          "type": "bool"
        },
        {
          "internalType": "uint8",
          "name": "_v",
          "type": "uint8"
        },
        {
          "internalType": "bytes32",
          "name": "_r",
          "type": "bytes32"
        },
        {
          "internalType": "bytes32",
          "name": "_s",
          "type": "bytes32"
        }
      ],
      "name": "removeLiquidityOneTokenWithPermit",
      "outputs": [
        {
          "internalType": "uint256",
          "name": "_tokenAmount",
          "type": "uint256"
        }
      ],
      "stateMutability": "nonpayable",
      "type": "function"
    },
    {
      "inputs": [
        {
          "internalType": "uint8",
          "name": "_pairType",
          "type": "uint8"
        },
        {
          "internalType": "address[]",
          "name": "_tokens",
          "type": "address[]"
        },
        {
          "internalType": "uint256",
          "name": "_liquidity",
          "type": "uint256"
        },
        {
          "internalType": "uint256[]",
          "name": "_amountsMin",
          "type": "uint256[]"
        },
        {
          "internalType": "address",
          "name": "_to",
          "type": "address"
        },
        {
          "internalType": "uint256",
          "name": "_deadline",
          "type": "uint256"
        },
        {
          "internalType": "bool",
          "name": "_approveMax",
          "type": "bool"
        },
        {
          "internalType": "uint8",
          "name": "_v",
          "type": "uint8"
        },
        {
          "internalType": "bytes32",
          "name": "_r",
          "type": "bytes32"
        },
        {
          "internalType": "bytes32",
          "name": "_s",
          "type": "bytes32"
        }
      ],
      "name": "removeLiquidityWithPermit",
      "outputs": [
        {
          "internalType": "uint256[]",
          "name": "_amounts",
          "type": "uint256[]"
        }
      ],
      "stateMutability": "nonpayable",
      "type": "function"
    },
    {
      "inputs": [
        {
          "internalType": "address",
          "name": "_pairRouter",
          "type": "address"
        }
      ],
      "name": "setPairTypes",
      "outputs": [],
      "stateMutability": "nonpayable",
      "type": "function"
    },
    {
      "inputs": [
        {
          "components": [
            {
              "internalType": "address",
              "name": "from",
              "type": "address"
            },
            {
              "internalType": "address",
              "name": "to",
              "type": "address"
            },
            {
              "internalType": "address",
              "name": "pair",
              "type": "address"
            }
          ],
          "internalType": "struct Router.Route[]",
          "name": "_routes",
          "type": "tuple[]"
        },
        {
          "internalType": "uint256",
          "name": "_amountIn",
          "type": "uint256"
        },
        {
          "internalType": "uint256",
          "name": "_amountOutMin",
          "type": "uint256"
        },
        {
          "internalType": "address",
          "name": "_to",
          "type": "address"
        },
        {
          "internalType": "uint256",
          "name": "_deadline",
          "type": "uint256"
        }
      ],
      "name": "swap",
      "outputs": [
        {
          "internalType": "uint256",
          "name": "_amountOut",
          "type": "uint256"
        }
      ],
      "stateMutability": "nonpayable",
      "type": "function"
    },
    {
      "inputs": [
        {
          "components": [
            {
              "internalType": "address",
              "name": "from",
              "type": "address"
            },
            {
              "internalType": "address",
              "name": "to",
              "type": "address"
            },
            {
              "internalType": "address",
              "name": "pair",
              "type": "address"
            }
          ],
          "internalType": "struct Router.Route[]",
          "name": "_routes",
          "type": "tuple[]"
        },
        {
          "internalType": "uint256",
          "name": "_amountIn",
          "type": "uint256"
        },
        {
          "internalType": "uint256",
          "name": "_amountOutMin",
          "type": "uint256"
        },
        {
          "internalType": "address",
          "name": "_to",
          "type": "address"
        },
        {
          "internalType": "uint256",
          "name": "_deadline",
          "type": "uint256"
        }
      ],
      "name": "swapETH",
      "outputs": [
        {
          "internalType": "uint256",
          "name": "_amountOut",
          "type": "uint256"
        }
      ],
      "stateMutability": "payable",
      "type": "function"
    },
    {
      "inputs": [],
      "name": "weth",
      "outputs": [
        {
          "internalType": "address",
          "name": "",
          "type": "address"
        }
      ],
      "stateMutability": "view",
      "type": "function"
    },
    {
      "stateMutability": "payable",
      "type": "receive"
    }
  ],
  "transactionHash": "0x5ec60c4a3e9118c38dda73683dc7fc2f012326900791953bb4bfcc89d6ee1ccd",
  "args": [
    "0xB09f8683ff7B4B3A5BcD90738AE1559ACfe318e5",
    "0x62fB5AaDdc4bd26C6DC50fa5dE679CAa6fa8B44b"
  ],
  "numDeployments": 1,
  "solcInputHash": "91a6f7d256e589938d50623d3d4bbee9",
  "bytecode": "0x60806040523480156200001157600080fd5b506040516200355938038062003559833981016040819052620000349162000144565b62000040828262000048565b5050620001e9565b600054610100900460ff16806200006457506200006462000120565b8062000073575060005460ff16155b6200009b5760405162461bcd60e51b8152600401620000929062000182565b60405180910390fd5b600054610100900460ff16158015620000c7576000805460ff1961ff0019909116610100171660011790555b6000805462010000600160b01b031916620100006001600160a01b038681169190910291909117909155600180546001600160a01b03191691841691909117905580156200011b576000805461ff00191690555b505050565b600062000138306200013e60201b620019ff1760201c565b15905090565b3b151590565b6000806040838503121562000157578182fd5b82516200016481620001d0565b60208401519092506200017781620001d0565b809150509250929050565b6020808252602e908201527f496e697469616c697a61626c653a20636f6e747261637420697320616c72656160408201526d191e481a5b9a5d1a585b1a5e995960921b606082015260800190565b6001600160a01b0381168114620001e657600080fd5b50565b61336080620001f96000396000f3fe6080604052600436106101c65760003560e01c806366282419116100f7578063bcec50a511610095578063e1c9664711610064578063e1c9664714610530578063f064343014610550578063f2898b1c14610570578063faf4bf8514610590576101e1565b8063bcec50a5146104bb578063bd4c9463146104db578063bf51c272146104fb578063c45a01551461051b576101e1565b806378f9a600116100d157806378f9a6001461043b5780639796b2c71461045b5780639f1e9fc51461047b578063ab71033d1461049b576101e1565b806366282419146103e857806366e56f6d146103fb578063738abdf41461041b576101e1565b80633e73064e11610164578063407a4b081161013e578063407a4b081461035a57806341048e9214610388578063485cc955146103a85780634baeb500146103c8576101e1565b80633e73064e146102f75780633fc8cef314610317578063401a77e214610339576101e1565b806321822df9116101a057806321822df914610269578063237c65f9146102895780633a519141146102b75780633bf9e788146102d7576101e1565b806305373e55146101e65780631420ad071461021c57806315351d5314610249576101e1565b366101e1576001546001600160a01b031633146101df57fe5b005b600080fd5b3480156101f257600080fd5b506102066102013660046128a7565b6105b0565b6040516102139190612e97565b60405180910390f35b34801561022857600080fd5b5061023c610237366004612470565b61068d565b6040516102139190613201565b34801561025557600080fd5b5061023c6102643660046127df565b610761565b34801561027557600080fd5b50610206610284366004612940565b610861565b34801561029557600080fd5b506102a96102a436600461218f565b6108dd565b604051610213929190612b24565b3480156102c357600080fd5b5061023c6102d23660046123f1565b6109f6565b3480156102e357600080fd5b5061023c6102f2366004612470565b610a94565b34801561030357600080fd5b506101df6103123660046120e5565b610af4565b34801561032357600080fd5b5061032c610c89565b6040516102139190612ac8565b61034c610347366004612582565b610c98565b604051610213929190612eaa565b34801561036657600080fd5b5061037a610375366004612155565b610d74565b60405161021392919061320a565b34801561039457600080fd5b506102066103a3366004612940565b610f43565b3480156103b457600080fd5b506101df6103c336600461211d565b610fac565b3480156103d457600080fd5b506102066103e33660046122e5565b611072565b61023c6103f63660046121d3565b611085565b34801561040757600080fd5b5061023c6104163660046122e5565b611465565b34801561042757600080fd5b5061034c610436366004612510565b6114b9565b34801561044757600080fd5b5061034c610456366004612582565b611520565b34801561046757600080fd5b5061023c610476366004612640565b611584565b34801561048757600080fd5b5061032c61049636600461234c565b6115ea565b3480156104a757600080fd5b5061023c6104b6366004612640565b611608565b3480156104c757600080fd5b5061023c6104d6366004612765565b61166e565b3480156104e757600080fd5b506102066104f63660046128a7565b6116ce565b34801561050757600080fd5b5061023c6105163660046121d3565b61172f565b34801561052757600080fd5b5061032c61187b565b34801561053c57600080fd5b5061023c61054b366004612765565b611890565b34801561055c57600080fd5b5061020661056b36600461270f565b6118f0565b34801561057c57600080fd5b5061023c61058b366004612384565b611953565b34801561059c57600080fd5b5061023c6105ab3660046127df565b611999565b60ff861660009081526002602052604090205460609087906001600160a01b03166105f65760405162461bcd60e51b81526004016105ed90612f4b565b60405180910390fd5b61066e63064c887460e01b888888888860405160240161061a959493929190612ddf565b60408051601f19818403018152918152602080830180516001600160e01b03166001600160e01b03199095169490941790935260ff8c1660009081526002909352909120546001600160a01b031690611a05565b806020019051810190610681919061223b565b98975050505050505050565b60ff871660009081526002602052604081205488906001600160a01b03166106c75760405162461bcd60e51b81526004016105ed90612f4b565b610741632bd8281b60e01b8989898989896040516024016106ed96959493929190612ba1565b60408051601f19818403018152918152602080830180516001600160e01b03166001600160e01b03199095169490941790935260ff8d1660009081526002909352909120546001600160a01b031690611a05565b80602001905181019061075491906122cd565b9998505050505050505050565b60ff8b166000908152600260205260408120546001600160a01b03166107995760405162461bcd60e51b81526004016105ed90612f4b565b61083e63577fe41860e01b8c8c8c8c8c8c8c8c8c8c6040516024016107c79a99989796959493929190612d76565b604051602081830303815290604052906001600160e01b0319166020820180516001600160e01b038381831617835250505050600260008f60ff1660ff16815260200190815260200160002060009054906101000a90046001600160a01b03166001600160a01b0316611a0590919063ffffffff16565b80602001905181019061085191906122cd565b9c9b505050505050505050505050565b60ff8a166000908152600260205260409020546060908b906001600160a01b031661089e5760405162461bcd60e51b81526004016105ed90612f4b565b6108ca63cb4c6dea60e01b8c8c8c8c8c8c8c8c8c6040516024016107c799989796959493929190612e28565b806020019051810190610851919061223b565b60008054604051637ec6b1e160e11b815282916201000090046001600160a01b03169063fd8d63c2906109169087908790600401612ceb565b60206040518083038186803b15801561092e57600080fd5b505afa158015610942573d6000803e3d6000fd5b505050506040513d601f19601f820116820180604052508101906109669190612101565b60005460405163e5e31b1360e01b81529193506201000090046001600160a01b03169063e5e31b139061099d908590600401612ac8565b60206040518083038186803b1580156109b557600080fd5b505afa1580156109c9573d6000803e3d6000fd5b505050506040513d601f19601f820116820180604052508101906109ed91906122b1565b90509250929050565b60ff85166000908152600260205260408082205490516001600160a01b0390911690606090610a7e9063048241a960e31b90610a3c908a908a908a908a90602401612b6f565b60408051601f198184030181529190526020810180516001600160e01b03166001600160e01b0319909316929092179091526001600160a01b03841690611a2a565b90508080602001905181019061068191906122cd565b60ff871660009081526002602052604081205488906001600160a01b0316610ace5760405162461bcd60e51b81526004016105ed90612f4b565b610741636fa99f3d60e01b8989898989896040516024016106ed96959493929190612ba1565b600060029054906101000a90046001600160a01b03166001600160a01b031663481c6a756040518163ffffffff1660e01b815260040160206040518083038186803b158015610b4257600080fd5b505afa158015610b56573d6000803e3d6000fd5b505050506040513d601f19601f82011682018060405250810190610b7a9190612101565b6001600160a01b0316336001600160a01b031614610baa5760405162461bcd60e51b81526004016105ed90612ef0565b6000816001600160a01b031663508d1e6b6040518163ffffffff1660e01b815260040160206040518083038186803b158015610be557600080fd5b505afa158015610bf9573d6000803e3d6000fd5b505050506040513d601f19601f82011682018060405250810190610c1d9190612368565b60ff81166000908152600260205260409081902080546001600160a01b0319166001600160a01b038616179055519091507fa96932fdd7d627843f64506b722b21f0611a80e606fe738f2800519566ebd9bd90610c7d9083908590613218565b60405180910390a15050565b6001546001600160a01b031690565b60ff87166000908152600260205260408120546060919089906001600160a01b0316610cd65760405162461bcd60e51b81526004016105ed90612f4b565b610d50634011b1f860e01b8a8a8a8a8a8a604051602401610cfc96959493929190612c1d565b60408051601f19818403018152918152602080830180516001600160e01b03166001600160e01b03199095169490941790935260ff8e1660009081526002909352909120546001600160a01b031690611a05565b806020019051810190610d63919061226d565b909b909a5098505050505050505050565b60008054604051637ec6b1e160e11b815282918291620100009091046001600160a01b03169063fd8d63c290610db1908790600190600401612ceb565b60206040518083038186803b158015610dc957600080fd5b505afa158015610ddd573d6000803e3d6000fd5b505050506040513d601f19601f82011682018060405250810190610e019190612101565b60005460405163e5e31b1360e01b81529192506201000090046001600160a01b03169063e5e31b1390610e38908490600401612ac8565b60206040518083038186803b158015610e5057600080fd5b505afa158015610e64573d6000803e3d6000fd5b505050506040513d601f19601f82011682018060405250810190610e8891906122b1565b15610f3d57600160005260026020527fe90b7bceb6e7df5418fb78d8ee546e97c83a08bbccc01a0644d599ccd2a7c2e0546040516313afa9cb60e11b81526001600160a01b039091169063275f539690610ee89084908890600401612b00565b604080518083038186803b158015610eff57600080fd5b505afa158015610f13573d6000803e3d6000fd5b505050506040513d601f19601f82011682018060405250810190610f379190612329565b90935091505b50915091565b60ff8a166000908152600260205260409020546060908b906001600160a01b0316610f805760405162461bcd60e51b81526004016105ed90612f4b565b6108ca63ce2da95560e01b8c8c8c8c8c8c8c8c8c6040516024016107c799989796959493929190612e28565b600054610100900460ff1680610fc55750610fc5611a4f565b80610fd3575060005460ff16155b610fef5760405162461bcd60e51b81526004016105ed90612fcd565b600054610100900460ff1615801561101a576000805460ff1961ff0019909116610100171660011790555b6000805462010000600160b01b031916620100006001600160a01b038681169190910291909117909155600180546001600160a01b031916918416919091179055801561106d576000805461ff00191690555b505050565b606061107e8383611a60565b9392505050565b600060606110938688611a60565b905084816001835103815181106110a657fe5b602002602001015110156110cc5760405162461bcd60e51b81526004016105ed906130a4565b60015487516001600160a01b039091169088906000906110e857fe5b6020026020010151600001516001600160a01b03161415611190578534146111225760405162461bcd60e51b81526004016105ed90612f82565b600160009054906101000a90046001600160a01b03166001600160a01b031663d0e30db0346040518263ffffffff1660e01b81526004016000604051808303818588803b15801561117257600080fd5b505af1158015611186573d6000803e3d6000fd5b50505050506111e6565b34156111ae5760405162461bcd60e51b81526004016105ed9061301b565b6111e63330888a6000815181106111c157fe5b6020026020010151600001516001600160a01b0316611bd0909392919063ffffffff16565b60005b875181101561138c57600088828151811061120057fe5b6020026020010151604001516001600160a01b031663508d1e6b6040518163ffffffff1660e01b815260040160206040518083038186803b15801561124457600080fd5b505afa158015611258573d6000803e3d6000fd5b505050506040513d601f19601f8201168201806040525081019061127c9190612368565b8951909150309060001901831480156112c557506001548a516001600160a01b03909116908b90859081106112ad57fe5b6020026020010151602001516001600160a01b031614155b156112cd5750855b611381630d005d1e60e01b8b85815181106112e457fe5b60200260200101518686815181106112f857fe5b602002602001015187876001018151811061130f57fe5b6020026020010151858b60405160240161132d9594939291906131b1565b60408051601f19818403018152918152602080830180516001600160e01b03166001600160e01b03199095169490941790935260ff861660009081526002909352909120546001600160a01b031690611a05565b5050506001016111e9565b508060018251038151811061139d57fe5b602090810291909101015160015488519193506001600160a01b031690889060001981019081106113ca57fe5b6020026020010151602001516001600160a01b0316141561145b57600154604051632e1a7d4d60e01b81526001600160a01b0390911690632e1a7d4d90611415908590600401613201565b600060405180830381600087803b15801561142f57600080fd5b505af1158015611443573d6000803e3d6000fd5b5061145b925050506001600160a01b03851683611cc1565b5095945050505050565b60006001825110156114895760405162461bcd60e51b81526004016105ed90612f1d565b60606114958484611a60565b9050806001825103815181106114a757fe5b60200260200101519150505b92915050565b60ff8316600090815260026020526040808220549051606092916001600160a01b03169083906114fc906327954bfd60e11b90610a3c9089908990602401612bef565b905080806020019051810190611512919061226d565b909890975095505050505050565b60ff87166000908152600260205260408120546060919089906001600160a01b031661155e5760405162461bcd60e51b81526004016105ed90612f4b565b610d5063601e0ae860e01b8a8a8a8a8a8a604051602401610cfc96959493929190612c1d565b60ff8a166000908152600260205260408120548b906001600160a01b03166115be5760405162461bcd60e51b81526004016105ed90612f4b565b61083e638935322960e01b8c8c8c8c8c8c8c8c8c6040516024016107c799989796959493929190612c7e565b60ff166000908152600260205260409020546001600160a01b031690565b60ff8a166000908152600260205260408120548b906001600160a01b03166116425760405162461bcd60e51b81526004016105ed90612f4b565b61083e63740e383060e01b8c8c8c8c8c8c8c8c8c6040516024016107c799989796959493929190612c7e565b60ff871660009081526002602052604081205488906001600160a01b03166116a85760405162461bcd60e51b81526004016105ed90612f4b565b6107416329c1331b60e01b8989898989896040516024016106ed96959493929190612d32565b60ff861660009081526002602052604090205460609087906001600160a01b031661170b5760405162461bcd60e51b81526004016105ed90612f4b565b61066e6382b22fad60e01b888888888860405160240161061a959493929190612ddf565b6000606061173d8688611a60565b9050848160018351038151811061175057fe5b602002602001015110156117765760405162461bcd60e51b81526004016105ed906130a4565b6117893330888a6000815181106111c157fe5b60005b87518110156118565760008882815181106117a357fe5b6020026020010151604001516001600160a01b031663508d1e6b6040518163ffffffff1660e01b815260040160206040518083038186803b1580156117e757600080fd5b505afa1580156117fb573d6000803e3d6000fd5b505050506040513d601f19601f8201168201806040525081019061181f9190612368565b89519091503090600019018314156118345750855b61184b630d005d1e60e01b8b85815181106112e457fe5b50505060010161178c565b508060018251038151811061186757fe5b602002602001015191505095945050505050565b6000546201000090046001600160a01b031681565b60ff871660009081526002602052604081205488906001600160a01b03166118ca5760405162461bcd60e51b81526004016105ed90612f4b565b61074163f792351660e01b8989898989896040516024016106ed96959493929190612d32565b60ff8316600090815260026020526040908190205490516060916001600160a01b031690829061193390630596cda360e21b90610a3c9088908890602401612d10565b905080806020019051810190611949919061223b565b9695505050505050565b60ff85166000908152600260205260408082205490516001600160a01b0390911690606090610a7e90631bc0504760e21b90610a3c908a908a908a908a90602401612b3f565b60ff8b166000908152600260205260408120546001600160a01b03166119d15760405162461bcd60e51b81526004016105ed90612f4b565b61083e63a3df3dc960e01b8c8c8c8c8c8c8c8c8c8c6040516024016107c79a99989796959493929190612d76565b3b151590565b606061107e838360405180606001604052806027815260200161330460279139611d4e565b606061107e83836040518060600160405280602581526020016132df60259139611de1565b6000611a5a306119ff565b15905090565b606081516001016001600160401b0381118015611a7c57600080fd5b50604051908082528060200260200182016040528015611aa6578160200160208202803683370190505b5090508281600081518110611ab757fe5b60200260200101818152505060005b8251811015611bc957828181518110611adb57fe5b6020026020010151604001516001600160a01b0316634aa06652848381518110611b0157fe5b602002602001015160000151858481518110611b1957fe5b602002602001015160200151858581518110611b3157fe5b60200260200101516040518463ffffffff1660e01b8152600401611b5793929190612adc565b60206040518083038186803b158015611b6f57600080fd5b505afa158015611b83573d6000803e3d6000fd5b505050506040513d601f19601f82011682018060405250810190611ba791906122cd565b828260010181518110611bb657fe5b6020908102919091010152600101611ac6565b5092915050565b60006060856001600160a01b03166323b872dd868686604051602401611bf893929190612adc565b6040516020818303038152906040529060e01b6020820180516001600160e01b038381831617835250505050604051611c319190612aac565b6000604051808303816000865af19150503d8060008114611c6e576040519150601f19603f3d011682016040523d82523d6000602084013e611c73565b606091505b5091509150818015611c9d575080511580611c9d575080806020019051810190611c9d91906122b1565b611cb95760405162461bcd60e51b81526004016105ed9061316d565b505050505050565b604080516000808252602082019092526001600160a01b038416908390604051611ceb9190612aac565b60006040518083038185875af1925050503d8060008114611d28576040519150601f19603f3d011682016040523d82523d6000602084013e611d2d565b606091505b505090508061106d5760405162461bcd60e51b81526004016105ed9061312a565b6060611d59846119ff565b611d755760405162461bcd60e51b81526004016105ed9061305e565b60006060856001600160a01b031685604051611d919190612aac565b600060405180830381855af49150503d8060008114611dcc576040519150601f19603f3d011682016040523d82523d6000602084013e611dd1565b606091505b5091509150611949828286611e5f565b6060611dec846119ff565b611e085760405162461bcd60e51b81526004016105ed906130e6565b60006060856001600160a01b031685604051611e249190612aac565b600060405180830381855afa9150503d8060008114611dcc576040519150601f19603f3d011682016040523d82523d6000602084013e611dd1565b60608315611e6e57508161107e565b825115611e7e5782518084602001fd5b8160405162461bcd60e51b81526004016105ed9190612ebd565b80356114b3816132a9565b60008083601f840112611eb4578182fd5b5081356001600160401b03811115611eca578182fd5b6020830191508360208083028501011115611ee457600080fd5b9250929050565b600082601f830112611efb578081fd5b8135611f0e611f098261325a565b613234565b818152915060208083019084810181840286018201871015611f2f57600080fd5b60005b84811015611f57578135611f45816132a9565b84529282019290820190600101611f32565b505050505092915050565b600082601f830112611f72578081fd5b8135611f80611f098261325a565b8181529150602080830190848101606080850287018301881015611fa357600080fd5b6000805b868110156120065782848b031215611fbd578182fd5b611fc683613234565b611fd08b86611e98565b8152611fde8b878701611e98565b868201526040611ff08c828801611e98565b9082015286529484019492820192600101611fa7565b5050505050505092915050565b600082601f830112612023578081fd5b8135612031611f098261325a565b81815291506020808301908481018184028601820187101561205257600080fd5b60005b84811015611f5757813584529282019290820190600101612055565b600082601f830112612081578081fd5b815161208f611f098261325a565b8181529150602080830190848101818402860182018710156120b057600080fd5b60005b84811015611f57578151845292820192908201906001016120b3565b80356114b3816132c1565b80356114b3816132cf565b6000602082840312156120f6578081fd5b813561107e816132a9565b600060208284031215612112578081fd5b815161107e816132a9565b6000806040838503121561212f578081fd5b823561213a816132a9565b9150602083013561214a816132a9565b809150509250929050565b600060208284031215612166578081fd5b81356001600160401b0381111561217b578182fd5b61218784828501611eeb565b949350505050565b600080604083850312156121a1578182fd5b82356001600160401b038111156121b6578283fd5b6121c285828601611eeb565b925050602083013561214a816132cf565b600080600080600060a086880312156121ea578081fd5b85356001600160401b038111156121ff578182fd5b61220b88828901611f62565b9550506020860135935060408601359250606086013561222a816132a9565b949793965091946080013592915050565b60006020828403121561224c578081fd5b81516001600160401b03811115612261578182fd5b61218784828501612071565b6000806040838503121561227f578081fd5b82516001600160401b03811115612294578182fd5b6122a085828601612071565b925050602083015190509250929050565b6000602082840312156122c2578081fd5b815161107e816132c1565b6000602082840312156122de578081fd5b5051919050565b600080604083850312156122f7578182fd5b8235915060208301356001600160401b03811115612313578182fd5b61231f85828601611f62565b9150509250929050565b6000806040838503121561233b578182fd5b505080516020909101519092909150565b60006020828403121561235d578081fd5b813561107e816132cf565b600060208284031215612379578081fd5b815161107e816132cf565b60008060008060006080868803121561239b578283fd5b85356123a6816132cf565b945060208601356001600160401b038111156123c0578384fd5b6123cc88828901611ea3565b90955093505060408601356123e0816132a9565b949793965091946060013592915050565b600080600080600060608688031215612408578283fd5b8535612413816132cf565b945060208601356001600160401b038082111561242e578485fd5b61243a89838a01611ea3565b90965094506040880135915080821115612452578283fd5b5061245f88828901611ea3565b969995985093965092949392505050565b600080600080600080600060c0888a03121561248a578485fd5b8735612495816132cf565b965060208801356001600160401b03808211156124b0578687fd5b6124bc8b838c01611eeb565b975060408a01359150808211156124d1578687fd5b506124de8a828b01611ea3565b9096509450506060880135925060808801356124f9816132a9565b8092505060a0880135905092959891949750929550565b600080600060608486031215612524578081fd5b833561252f816132cf565b925060208401356001600160401b038082111561254a578283fd5b61255687838801611eeb565b9350604086013591508082111561256b578283fd5b5061257886828701612013565b9150509250925092565b600080600080600080600060e0888a03121561259c578081fd5b87356125a7816132cf565b965060208801356001600160401b03808211156125c2578283fd5b6125ce8b838c01611eeb565b975060408a01359150808211156125e3578283fd5b6125ef8b838c01612013565b965060608a0135915080821115612604578283fd5b506126118a828b01612013565b9450506080880135925060a0880135612629816132a9565b8092505060c0880135905092959891949750929550565b6000806000806000806000806000806101408b8d03121561265f578384fd5b6126698c8c6120da565b995060208b01356001600160401b0380821115612684578586fd5b6126908e838f01611eeb565b9a5060408d01359150808211156126a5578586fd5b506126b28d828e01612013565b98505060608b013596506126c98c60808d01611e98565b955060a08b013594506126df8c60c08d016120cf565b93506126ee8c60e08d016120da565b92506101008b013591506101208b013590509295989b9194979a5092959850565b600080600060608486031215612723578081fd5b833561272e816132cf565b925060208401356001600160401b03811115612748578182fd5b61275486828701611eeb565b925050604084013590509250925092565b600080600080600080600060e0888a03121561277f578081fd5b873561278a816132cf565b965060208801356001600160401b038111156127a4578182fd5b6127b08a828b01611eeb565b9650506040880135945060608801356127c8816132a9565b93506080880135925060a0880135612629816132a9565b60008060008060008060008060008060006101608c8e031215612800578485fd5b8b3561280b816132cf565b9a5060208c01356001600160401b03811115612825578586fd5b6128318e828f01611eeb565b9a505060408c0135985060608c0135612849816132a9565b975060808c0135965061285f8d60a08e01611e98565b955060c08c013594506128758d60e08e016120cf565b93506128858d6101008e016120da565b92506101208c013591506101408c013590509295989b509295989b9093969950565b60008060008060008060c087890312156128bf578384fd5b86356128ca816132cf565b955060208701356001600160401b03808211156128e5578586fd5b6128f18a838b01611eeb565b965060408901359550606089013591508082111561290d578384fd5b5061291a89828a01612013565b935050608087013561292b816132a9565b8092505060a087013590509295509295509295565b6000806000806000806000806000806101408b8d03121561295f578384fd5b6129698c8c6120da565b995060208b01356001600160401b0380821115612984578586fd5b6129908e838f01611eeb565b9a5060408d0135995060608d01359150808211156129ac578586fd5b506129b98d828e01612013565b9750506126c98c60808d01611e98565b60008284526020808501945082825b85811015612a065781356129eb816132a9565b6001600160a01b0316875295820195908201906001016129d8565b509495945050505050565b6000815180845260208085019450808401835b83811015612a065781516001600160a01b031687529582019590820190600101612a24565b81835260006001600160fb1b03831115612a61578081fd5b6020830280836020870137939093016020019283525090919050565b6000815180845260208085019450808401835b83811015612a0657815187529582019590820190600101612a90565b60008251612abe818460208701613279565b9190910192915050565b6001600160a01b0391909116815260200190565b6001600160a01b039384168152919092166020820152604081019190915260600190565b6001600160a01b038316815260406020820181905260009061218790830184612a11565b6001600160a01b039290921682521515602082015260400190565b600060608252612b536060830186886129c9565b6001600160a01b03949094166020830152506040015292915050565b600060408252612b836040830186886129c9565b8281036020840152612b96818587612a49565b979650505050505050565b600060a08252612bb460a0830189612a11565b8281036020840152612bc781888a612a49565b604084019690965250506001600160a01b039290921660608301526080909101529392505050565b600060408252612c026040830185612a11565b8281036020840152612c148185612a7d565b95945050505050565b600060c08252612c3060c0830189612a11565b8281036020840152612c428189612a7d565b90508281036040840152612c568188612a7d565b606084019690965250506001600160a01b0392909216608083015260a0909101529392505050565b6000610120808352612c928184018d612a11565b90508281036020840152612ca6818c612a7d565b604084019a909a5250506001600160a01b03969096166060870152608086019490945291151560a085015260ff1660c084015260e08301526101009091015292915050565b600060408252612cfe6040830185612a11565b905060ff831660208301529392505050565b600060408252612d236040830185612a11565b90508260208301529392505050565b600060c08252612d4560c0830189612a11565b6020830197909752506001600160a01b03948516604082015260608101939093529216608082015260a00152919050565b6000610140808352612d8a8184018e612a11565b602084019c909c5250506001600160a01b039889166040820152606081019790975294909616608086015260a0850192909252151560c084015260ff1660e08301526101008201929092526101200152919050565b600060a08252612df260a0830188612a11565b8660208401528281036040840152612e0a8187612a7d565b6001600160a01b039590951660608401525050608001529392505050565b6000610120808352612e3c8184018d612a11565b90508a60208401528281036040840152612e56818b612a7d565b6001600160a01b039990991660608401525050608081019590955292151560a085015260ff9190911660c084015260e0830152610100909101529392505050565b60006020825261107e6020830184612a7d565b600060408252612d236040830185612a7d565b6000602082528251806020840152612edc816040850160208701613279565b601f01601f19169190910160400192915050565b6020808252601390820152722937baba32b91d103737ba1036b0b730b3b2b960691b604082015260600190565b6020808252601490820152730a4deeae8cae47440929cac82989288bea082a8960631b604082015260600190565b60208082526019908201527f526f757465723a20696e76616c69642070616972207479706500000000000000604082015260600190565b6020808252602b908201527f526f757465723a206d73672e76616c7565206973206e6f7420657175616c207460408201526a37902fb0b6b7bab73a24b760a91b606082015260800190565b6020808252602e908201527f496e697469616c697a61626c653a20636f6e747261637420697320616c72656160408201526d191e481a5b9a5d1a585b1a5e995960921b606082015260800190565b60208082526023908201527f526f757465723a206d73672e76616c7565206973206e6f7420657175616c207460408201526206f20360ec1b606082015260800190565b60208082526026908201527f416464726573733a2064656c65676174652063616c6c20746f206e6f6e2d636f6040820152651b9d1c9858dd60d21b606082015260800190565b60208082526022908201527f526f757465723a20494e53554646494349454e545f4f55545055545f414d4f55604082015261139560f21b606082015260800190565b60208082526024908201527f416464726573733a207374617469632063616c6c20746f206e6f6e2d636f6e746040820152631c9858dd60e21b606082015260800190565b60208082526023908201527f5472616e7366657248656c7065723a204554485f5452414e534645525f46414960408201526213115160ea1b606082015260800190565b60208082526024908201527f5472616e7366657248656c7065723a205452414e534645525f46524f4d5f46416040820152631253115160e21b606082015260800190565b85516001600160a01b0390811682526020808801518216908301526040968701518116968201969096526060810194909452608084019290925290921660a082015260c081019190915260e00190565b90815260200190565b918252602082015260400190565b60ff9290921682526001600160a01b0316602082015260400190565b6040518181016001600160401b038111828210171561325257600080fd5b604052919050565b60006001600160401b0382111561326f578081fd5b5060209081020190565b60005b8381101561329457818101518382015260200161327c565b838111156132a3576000848401525b50505050565b6001600160a01b03811681146132be57600080fd5b50565b80151581146132be57600080fd5b60ff811681146132be57600080fdfe416464726573733a206c6f772d6c6576656c207374617469632063616c6c206661696c6564416464726573733a206c6f772d6c6576656c2064656c65676174652063616c6c206661696c6564a26469706673582212201be60c75a7ff3a164b5321019d3c6eb2cae0acc73e8cd0619b426fbe8a12e32264736f6c634300060c0033",
  "devdoc": {
    "details": "This contract handles the routing of tokens in the dForce AMM ecosystem",
    "events": {
      "SetPairTypes(uint8,address)": {
        "details": "Event emitted when a pair type is set"
      }
    },
    "kind": "dev",
    "methods": {
      "addLiquidity(uint8,address[],uint256[],uint256[],uint256,address,uint256)": {
        "details": "Adds liquidity to a given pair",
        "params": {
          "_amountDesireds": "The desired amounts of each token to add liquidity for",
          "_amountsMin": "The minimum amounts of each token to add liquidity for",
          "_deadline": "The deadline for the transaction",
          "_minLiquidity": "The minimum liquidity to add",
          "_pairType": "The pair type",
          "_to": "The address to send the liquidity to",
          "_tokens": "The tokens to add liquidity for"
        },
        "returns": {
          "_amounts": "The amounts of tokens added",
          "_liquidity": "The amount of liquidity added"
        }
      },
      "addLiquidityETH(uint8,address[],uint256[],uint256[],uint256,address,uint256)": {
        "details": "Adds liquidity to a given pair with ETH",
        "params": {
          "_amountDesireds": "The desired amounts of each token to add liquidity for",
          "_amountsMin": "The minimum amounts of each token to add liquidity for",
          "_deadline": "The deadline for the transaction",
          "_minLiquidity": "The minimum liquidity to add",
          "_pairType": "The pair type",
          "_to": "The address to send the liquidity to",
          "_tokens": "The tokens to add liquidity for"
        },
        "returns": {
          "_amounts": "The amounts of tokens added",
          "_liquidity": "The amount of liquidity added"
        }
      },
      "constructor": {
        "details": "Constructor function for the Router contract",
        "params": {
          "_factory": "Address of the factory contract",
          "_weth": "Address of the WETH contract"
        }
      },
      "getAmountsOut(uint256,(address,address,address)[])": {
        "details": "Returns the amount of tokens that will be received for a given input amount and route",
        "params": {
          "_amountIn": "The input amount",
          "_routes": "The route to take"
        }
      },
      "getAmountsOutPath(uint256,(address,address,address)[])": {
        "details": "Returns the amount of tokens that will be received for a given input amount and route",
        "params": {
          "_amountIn": "The input amount",
          "_routes": "The route to take"
        }
      },
      "getReserves(address[])": {
        "details": "Returns the reserves of the volatile pair for the given tokens",
        "params": {
          "_tokens": "The tokens to get the reserves for"
        },
        "returns": {
          "_reserveA": "The reserve of token A",
          "_reserveB": "The reserve of token B"
        }
      },
      "initialize(address,address)": {
        "details": "Initializes the Router contract",
        "params": {
          "_factory": "Address of the factory contract",
          "_weth": "Address of the WETH contract"
        }
      },
      "pairFor(address[],uint8)": {
        "details": "Returns the address of the pair for the given tokens and pair type",
        "params": {
          "_tokens": "The tokens to get the pair address for",
          "_type": "The pair type"
        },
        "returns": {
          "_has": "Whether or not the pair exists",
          "_pair": "The address of the pair"
        }
      },
      "pairTypes(uint8)": {
        "details": "Returns the address of the router contract for a given pair type",
        "params": {
          "_pairType": "The pair type"
        }
      },
      "quoteAddLiquidity(uint8,address[],uint256[])": {
        "details": "Returns the amount of tokens required to add liquidity to a given pair",
        "params": {
          "_amountDesireds": "The desired amounts of each token to add liquidity for",
          "_pairType": "The pair type",
          "_tokens": "The tokens to add liquidity for"
        }
      },
      "quoteRemoveLiquidity(uint8,address[],uint256)": {
        "details": "Returns the amount of tokens that will be received when removing liquidity from a given pair",
        "params": {
          "_liquidity": "The amount of liquidity to remove",
          "_pairType": "The pair type",
          "_tokens": "The tokens to remove liquidity for"
        }
      },
      "quoteRemoveLiquidityImbalance(uint8,address[],uint256[])": {
        "details": "Returns the amount of tokens that will be removed when removing liquidity from a given pair",
        "params": {
          "_amounts": "The desired amounts of each token to remove liquidity for",
          "_pairType": "The pair type",
          "_tokens": "The tokens to remove liquidity for"
        }
      },
      "quoteRemoveLiquidityOneToken(uint8,address[],address,uint256)": {
        "details": "Returns the amount of a specific token that will be received when removing liquidity from a given pair",
        "params": {
          "_liquidity": "The amount of liquidity to remove",
          "_pairType": "The pair type",
          "_token": "The token to receive",
          "_tokens": "The tokens to remove liquidity for"
        }
      },
      "removeLiquidity(uint8,address[],uint256,uint256[],address,uint256)": {
        "details": "Removes liquidity from a given pair",
        "params": {
          "_amountsMin": "The minimum amounts of each token to receive",
          "_deadline": "The deadline for the transaction",
          "_liquidity": "The amount of liquidity to remove",
          "_pairType": "The pair type",
          "_to": "The address to send the tokens to",
          "_tokens": "The tokens to remove liquidity for"
        },
        "returns": {
          "_amounts": "The amounts of tokens received"
        }
      },
      "removeLiquidityETH(uint8,address[],uint256,uint256[],address,uint256)": {
        "details": "Removes liquidity from a given pair with ETH",
        "params": {
          "_amountsMin": "The minimum amounts of each token to receive",
          "_deadline": "The deadline for the transaction",
          "_liquidity": "The amount of liquidity to remove",
          "_pairType": "The pair type",
          "_to": "The address to send the tokens to",
          "_tokens": "The tokens to remove liquidity for"
        },
        "returns": {
          "_amounts": "The amounts of tokens received"
        }
      },
      "removeLiquidityETHWithPermit(uint8,address[],uint256,uint256[],address,uint256,bool,uint8,bytes32,bytes32)": {
        "details": "Removes liquidity from a given pair with a permit",
        "params": {
          "_amountsMin": "The minimum amounts of each token to remove",
          "_approveMax": "Whether to approve the maximum amount",
          "_deadline": "The deadline for the transaction",
          "_liquidity": "The amount of liquidity to remove",
          "_pairType": "The pair type",
          "_r": "The r value of the permit signature",
          "_s": "The s value of the permit signature",
          "_to": "The address to send the tokens to",
          "_tokens": "The tokens to remove liquidity for",
          "_v": "The v value of the permit signature"
        },
        "returns": {
          "_amounts": "The amounts of tokens removed"
        }
      },
      "removeLiquidityImbalance(uint8,address[],uint256[],uint256,address,uint256)": {
        "details": "Removes liquidity from a given pair with an imbalance of tokens",
        "params": {
          "_amounts": "The amounts of each token to remove",
          "_deadline": "The deadline for the transaction",
          "_maxBurnAmount": "The maximum amount of liquidity to remove",
          "_pairType": "The pair type",
          "_to": "The address to send the tokens to",
          "_tokens": "The tokens to remove liquidity for"
        },
        "returns": {
          "_amount": "The amount of liquidity removed"
        }
      },
      "removeLiquidityImbalanceETH(uint8,address[],uint256[],uint256,address,uint256)": {
        "details": "Removes liquidity from a given pair with an imbalance of ETH and tokens",
        "params": {
          "_amounts": "The amounts of each token to remove",
          "_deadline": "The deadline for the transaction",
          "_maxBurnAmount": "The maximum amount of liquidity to remove",
          "_pairType": "The type of pair",
          "_to": "The address to send the tokens to",
          "_tokens": "The tokens to remove liquidity for"
        },
        "returns": {
          "_amount": "The amount of liquidity removed"
        }
      },
      "removeLiquidityImbalanceETHWithPermit(uint8,address[],uint256[],uint256,address,uint256,bool,uint8,bytes32,bytes32)": {
        "details": "Removes liquidity imbalance for multiple tokens with a permit",
        "params": {
          "_amounts": "The amounts of tokens to remove",
          "_approveMax": "Whether to approve the maximum amount",
          "_deadline": "The deadline for the transaction",
          "_maxBurnAmount": "The maximum amount of liquidity to remove",
          "_pairType": "The type of pair",
          "_r": "The r value of the permit signature",
          "_s": "The s value of the permit signature",
          "_to": "The address to send the tokens to",
          "_tokens": "The tokens to remove liquidity for",
          "_v": "The v value of the permit signature"
        },
        "returns": {
          "_actualBurnAmount": "The actual amount of liquidity removed"
        }
      },
      "removeLiquidityImbalanceWithPermit(uint8,address[],uint256[],uint256,address,uint256,bool,uint8,bytes32,bytes32)": {
        "details": "Removes liquidity imbalance for multiple tokens with a permit",
        "params": {
          "_amounts": "The amounts of tokens to remove",
          "_approveMax": "Whether to approve the maximum amount",
          "_deadline": "The deadline for the transaction",
          "_maxBurnAmount": "The maximum amount of liquidity to remove",
          "_pairType": "The type of pair",
          "_r": "The r value of the permit signature",
          "_s": "The s value of the permit signature",
          "_to": "The address to send the tokens to",
          "_tokens": "The tokens to remove liquidity for",
          "_v": "The v value of the permit signature"
        },
        "returns": {
          "_actualBurnAmount": "The actual amount of liquidity removed"
        }
      },
      "removeLiquidityOneToken(uint8,address[],uint256,address,uint256,address,uint256)": {
        "details": "Removes liquidity for a single token from a given pair",
        "params": {
          "_deadline": "The deadline for the transaction",
          "_liquidity": "The amount of liquidity to remove",
          "_minAmount": "The minimum amount of token to receive",
          "_pairType": "The pair type",
          "_to": "The address to send the token to",
          "_token": "The token to receive",
          "_tokens": "The tokens to remove liquidity for"
        },
        "returns": {
          "_amount": "The amount of token received"
        }
      },
      "removeLiquidityOneTokenETH(uint8,address[],uint256,address,uint256,address,uint256)": {
        "details": "Removes liquidity for a single token from a given pair with ETH",
        "params": {
          "_deadline": "The deadline for the transaction",
          "_liquidity": "The amount of liquidity to remove",
          "_minAmount": "The minimum amount of token to receive",
          "_pairType": "The pair type",
          "_to": "The address to send the token to",
          "_token": "The token to receive",
          "_tokens": "The tokens to remove liquidity for"
        },
        "returns": {
          "_amount": "The amount of token received"
        }
      },
      "removeLiquidityOneTokenETHWithPermit(uint8,address[],uint256,address,uint256,address,uint256,bool,uint8,bytes32,bytes32)": {
        "details": "Removes liquidity for a single token with a permit",
        "params": {
          "_approveMax": "Whether to approve the maximum amount",
          "_deadline": "The deadline for the transaction",
          "_liquidity": "The amount of liquidity to remove",
          "_minAmount": "The minimum amount of tokens to remove",
          "_pairType": "The type of pair",
          "_r": "The r value of the permit signature",
          "_s": "The s value of the permit signature",
          "_to": "The address to send the tokens to",
          "_token": "The token to remove liquidity for",
          "_tokens": "The tokens to remove liquidity for",
          "_v": "The v value of the permit signature"
        },
        "returns": {
          "_tokenAmount": "The amount of tokens removed"
        }
      },
      "removeLiquidityOneTokenWithPermit(uint8,address[],uint256,address,uint256,address,uint256,bool,uint8,bytes32,bytes32)": {
        "details": "Removes liquidity for a single token with a permit",
        "params": {
          "_approveMax": "Whether to approve the maximum amount",
          "_deadline": "The deadline for the transaction",
          "_liquidity": "The amount of liquidity to remove",
          "_minAmount": "The minimum amount of tokens to remove",
          "_pairType": "The type of pair",
          "_r": "The r value of the permit signature",
          "_s": "The s value of the permit signature",
          "_to": "The address to send the tokens to",
          "_token": "The token to remove liquidity for",
          "_tokens": "The tokens to remove liquidity for",
          "_v": "The v value of the permit signature"
        },
        "returns": {
          "_tokenAmount": "The amount of tokens removed"
        }
      },
      "removeLiquidityWithPermit(uint8,address[],uint256,uint256[],address,uint256,bool,uint8,bytes32,bytes32)": {
        "details": "Removes liquidity from a given pair with a permit",
        "params": {
          "_amountsMin": "The minimum amounts of each token to remove",
          "_approveMax": "Whether to approve the maximum amount",
          "_deadline": "The deadline for the transaction",
          "_liquidity": "The amount of liquidity to remove",
          "_pairType": "The pair type",
          "_r": "The r value of the permit signature",
          "_s": "The s value of the permit signature",
          "_to": "The address to send the tokens to",
          "_tokens": "The tokens to remove liquidity for",
          "_v": "The v value of the permit signature"
        },
        "returns": {
          "_amounts": "The amounts of tokens removed"
        }
      },
      "setPairTypes(address)": {
        "details": "Sets the pair types for the router contract",
        "params": {
          "_pairRouter": "The address of the pair router contract"
        }
      },
      "swap((address,address,address)[],uint256,uint256,address,uint256)": {
        "details": "Swaps tokens through multiple pairs",
        "params": {
          "_amountIn": "The amount of tokens to swap",
          "_amountOutMin": "The minimum amount of tokens to receive",
          "_deadline": "The deadline for the transaction",
          "_routes": "The routes to swap through",
          "_to": "The address to send the swapped tokens to"
        },
        "returns": {
          "_amountOut": "The amount of tokens received"
        }
      },
      "swapETH((address,address,address)[],uint256,uint256,address,uint256)": {
        "details": "Swaps ETH for tokens through multiple pairs",
        "params": {
          "_amountIn": "The amount of ETH to swap",
          "_amountOutMin": "The minimum amount of tokens to receive",
          "_deadline": "The deadline for the transaction",
          "_routes": "The routes to swap through",
          "_to": "The address to send the swapped tokens to"
        },
        "returns": {
          "_amountOut": "The amount of tokens received"
        }
      },
      "weth()": {
        "details": "Returns the address of the WETH contract"
      }
    },
    "stateVariables": {
      "factory": {
        "details": "Address of the factory contract"
      },
      "pairTypes_": {
        "details": "Mapping of pair types to their respective router contracts"
      },
      "weth_": {
        "details": "Address of the WETH contract"
      }
    },
    "title": "Router contract",
    "version": 1
  },
  "userdoc": {
    "kind": "user",
    "methods": {},
    "version": 1
  },
  "storageLayout": {
    "storage": [
      {
        "astId": 492,
        "contract": "contracts/Router.sol:Router",
        "label": "_initialized",
        "offset": 0,
        "slot": "0",
        "type": "t_bool"
      },
      {
        "astId": 495,
        "contract": "contracts/Router.sol:Router",
        "label": "_initializing",
        "offset": 1,
        "slot": "0",
        "type": "t_bool"
      },
      {
        "astId": 4548,
        "contract": "contracts/Router.sol:Router",
        "label": "factory",
        "offset": 2,
        "slot": "0",
        "type": "t_address"
      },
      {
        "astId": 4551,
        "contract": "contracts/Router.sol:Router",
        "label": "weth_",
        "offset": 0,
        "slot": "1",
        "type": "t_contract(IWETH)11147"
      },
      {
        "astId": 4556,
        "contract": "contracts/Router.sol:Router",
        "label": "pairTypes_",
        "offset": 0,
        "slot": "2",
        "type": "t_mapping(t_uint8,t_address)"
      }
    ],
    "types": {
      "t_address": {
        "encoding": "inplace",
        "label": "address",
        "numberOfBytes": "20"
      },
      "t_bool": {
        "encoding": "inplace",
        "label": "bool",
        "numberOfBytes": "1"
      },
      "t_contract(IWETH)11147": {
        "encoding": "inplace",
        "label": "contract IWETH",
        "numberOfBytes": "20"
      },
      "t_mapping(t_uint8,t_address)": {
        "encoding": "mapping",
        "key": "t_uint8",
        "label": "mapping(uint8 => address)",
        "numberOfBytes": "32",
        "value": "t_address"
      },
      "t_uint8": {
        "encoding": "inplace",
        "label": "uint8",
        "numberOfBytes": "1"
      }
    }
  }
}