{
  "address": "0x09AC6Ad2Bac2eFa327113c81e5B2C29915f07EB6",
  "abi": [
    {
      "anonymous": false,
      "inputs": [
        {
          "indexed": true,
          "internalType": "address",
          "name": "provider",
          "type": "address"
        },
        {
          "indexed": false,
          "internalType": "uint256[]",
          "name": "tokenAmounts",
          "type": "uint256[]"
        },
        {
          "indexed": false,
          "internalType": "uint256[]",
          "name": "fees",
          "type": "uint256[]"
        },
        {
          "indexed": false,
          "internalType": "uint256",
          "name": "invariant",
          "type": "uint256"
        },
        {
          "indexed": false,
          "internalType": "uint256",
          "name": "lpTokenSupply",
          "type": "uint256"
        }
      ],
      "name": "AddLiquidity",
      "type": "event"
    },
    {
      "anonymous": false,
      "inputs": [
        {
          "indexed": false,
          "internalType": "uint256",
          "name": "newAdminFee",
          "type": "uint256"
        }
      ],
      "name": "NewAdminFee",
      "type": "event"
    },
    {
      "anonymous": false,
      "inputs": [
        {
          "indexed": false,
          "internalType": "uint256",
          "name": "newSwapFee",
          "type": "uint256"
        }
      ],
      "name": "NewSwapFee",
      "type": "event"
    },
    {
      "anonymous": false,
      "inputs": [
        {
          "indexed": false,
          "internalType": "uint256",
          "name": "newWithdrawFee",
          "type": "uint256"
        }
      ],
      "name": "NewWithdrawFee",
      "type": "event"
    },
    {
      "anonymous": false,
      "inputs": [
        {
          "indexed": false,
          "internalType": "uint256",
          "name": "oldA",
          "type": "uint256"
        },
        {
          "indexed": false,
          "internalType": "uint256",
          "name": "newA",
          "type": "uint256"
        },
        {
          "indexed": false,
          "internalType": "uint256",
          "name": "initialTime",
          "type": "uint256"
        },
        {
          "indexed": false,
          "internalType": "uint256",
          "name": "futureTime",
          "type": "uint256"
        }
      ],
      "name": "RampA",
      "type": "event"
    },
    {
      "anonymous": false,
      "inputs": [
        {
          "indexed": true,
          "internalType": "address",
          "name": "provider",
          "type": "address"
        },
        {
          "indexed": false,
          "internalType": "uint256[]",
          "name": "tokenAmounts",
          "type": "uint256[]"
        },
        {
          "indexed": false,
          "internalType": "uint256",
          "name": "lpTokenSupply",
          "type": "uint256"
        }
      ],
      "name": "RemoveLiquidity",
      "type": "event"
    },
    {
      "anonymous": false,
      "inputs": [
        {
          "indexed": true,
          "internalType": "address",
          "name": "provider",
          "type": "address"
        },
        {
          "indexed": false,
          "internalType": "uint256[]",
          "name": "tokenAmounts",
          "type": "uint256[]"
        },
        {
          "indexed": false,
          "internalType": "uint256[]",
          "name": "fees",
          "type": "uint256[]"
        },
        {
          "indexed": false,
          "internalType": "uint256",
          "name": "invariant",
          "type": "uint256"
        },
        {
          "indexed": false,
          "internalType": "uint256",
          "name": "lpTokenSupply",
          "type": "uint256"
        }
      ],
      "name": "RemoveLiquidityImbalance",
      "type": "event"
    },
    {
      "anonymous": false,
      "inputs": [
        {
          "indexed": true,
          "internalType": "address",
          "name": "provider",
          "type": "address"
        },
        {
          "indexed": false,
          "internalType": "uint256",
          "name": "lpTokenAmount",
          "type": "uint256"
        },
        {
          "indexed": false,
          "internalType": "uint256",
          "name": "lpTokenSupply",
          "type": "uint256"
        },
        {
          "indexed": false,
          "internalType": "uint256",
          "name": "boughtId",
          "type": "uint256"
        },
        {
          "indexed": false,
          "internalType": "uint256",
          "name": "tokensBought",
          "type": "uint256"
        }
      ],
      "name": "RemoveLiquidityOne",
      "type": "event"
    },
    {
      "anonymous": false,
      "inputs": [
        {
          "indexed": false,
          "internalType": "uint256",
          "name": "currentA",
          "type": "uint256"
        },
        {
          "indexed": false,
          "internalType": "uint256",
          "name": "time",
          "type": "uint256"
        }
      ],
      "name": "StopRampA",
      "type": "event"
    },
    {
      "anonymous": false,
      "inputs": [
        {
          "indexed": false,
          "internalType": "address[]",
          "name": "tokens",
          "type": "address[]"
        },
        {
          "indexed": false,
          "internalType": "uint256[]",
          "name": "swapFees",
          "type": "uint256[]"
        }
      ],
      "name": "SwapFee",
      "type": "event"
    },
    {
      "anonymous": false,
      "inputs": [
        {
          "indexed": true,
          "internalType": "address",
          "name": "buyer",
          "type": "address"
        },
        {
          "indexed": false,
          "internalType": "uint256",
          "name": "tokensSold",
          "type": "uint256"
        },
        {
          "indexed": false,
          "internalType": "uint256",
          "name": "tokensBought",
          "type": "uint256"
        },
        {
          "indexed": false,
          "internalType": "uint128",
          "name": "soldId",
          "type": "uint128"
        },
        {
          "indexed": false,
          "internalType": "uint128",
          "name": "boughtId",
          "type": "uint128"
        }
      ],
      "name": "TokenSwap",
      "type": "event"
    },
    {
      "inputs": [],
      "name": "AUTH",
      "outputs": [
        {
          "internalType": "bool",
          "name": "",
          "type": "bool"
        }
      ],
      "stateMutability": "view",
      "type": "function"
    },
    {
      "inputs": [],
      "name": "PAIR_TYPE",
      "outputs": [
        {
          "internalType": "uint8",
          "name": "",
          "type": "uint8"
        }
      ],
      "stateMutability": "view",
      "type": "function"
    },
    {
      "inputs": [
        {
          "internalType": "address[]",
          "name": "_tokens",
          "type": "address[]"
        },
        {
          "internalType": "uint256[]",
          "name": "_amounts",
          "type": "uint256[]"
        },
        {
          "internalType": "uint256",
          "name": "_minToMint",
          "type": "uint256"
        },
        {
          "internalType": "address",
          "name": "_receiver",
          "type": "address"
        },
        {
          "internalType": "uint256",
          "name": "_deadline",
          "type": "uint256"
        }
      ],
      "name": "addLiquidity",
      "outputs": [
        {
          "internalType": "uint256",
          "name": "",
          "type": "uint256"
        }
      ],
      "stateMutability": "nonpayable",
      "type": "function"
    },
    {
      "inputs": [
        {
          "internalType": "address[]",
          "name": "_tokens",
          "type": "address[]"
        },
        {
          "internalType": "uint256",
          "name": "_amount",
          "type": "uint256"
        }
      ],
      "name": "calculateRemoveLiquidity",
      "outputs": [
        {
          "internalType": "uint256[]",
          "name": "",
          "type": "uint256[]"
        }
      ],
      "stateMutability": "view",
      "type": "function"
    },
    {
      "inputs": [
        {
          "internalType": "address",
          "name": "_token",
          "type": "address"
        },
        {
          "internalType": "uint256",
          "name": "_tokenAmount",
          "type": "uint256"
        }
      ],
      "name": "calculateRemoveLiquidityOneToken",
      "outputs": [
        {
          "internalType": "uint256",
          "name": "",
          "type": "uint256"
        }
      ],
      "stateMutability": "view",
      "type": "function"
    },
    {
      "inputs": [
        {
          "internalType": "address[]",
          "name": "_tokens",
          "type": "address[]"
        },
        {
          "internalType": "uint256[]",
          "name": "_amounts",
          "type": "uint256[]"
        },
        {
          "internalType": "bool",
          "name": "_deposit",
          "type": "bool"
        }
      ],
      "name": "calculateTokenAmount",
      "outputs": [
        {
          "internalType": "uint256",
          "name": "",
          "type": "uint256"
        }
      ],
      "stateMutability": "view",
      "type": "function"
    },
    {
      "inputs": [],
      "name": "claimFees",
      "outputs": [
        {
          "internalType": "uint256[]",
          "name": "",
          "type": "uint256[]"
        }
      ],
      "stateMutability": "nonpayable",
      "type": "function"
    },
    {
      "inputs": [],
      "name": "factory",
      "outputs": [
        {
          "internalType": "address",
          "name": "",
          "type": "address"
        }
      ],
      "stateMutability": "view",
      "type": "function"
    },
    {
      "inputs": [],
      "name": "getA",
      "outputs": [
        {
          "internalType": "uint256",
          "name": "",
          "type": "uint256"
        }
      ],
      "stateMutability": "view",
      "type": "function"
    },
    {
      "inputs": [],
      "name": "getAPrecise",
      "outputs": [
        {
          "internalType": "uint256",
          "name": "",
          "type": "uint256"
        }
      ],
      "stateMutability": "view",
      "type": "function"
    },
    {
      "inputs": [
        {
          "internalType": "uint256",
          "name": "_index",
          "type": "uint256"
        }
      ],
      "name": "getAdminBalance",
      "outputs": [
        {
          "internalType": "uint256",
          "name": "",
          "type": "uint256"
        }
      ],
      "stateMutability": "view",
      "type": "function"
    },
    {
      "inputs": [
        {
          "internalType": "address",
          "name": "_tokenFrom",
          "type": "address"
        },
        {
          "internalType": "address",
          "name": "_tokenTo",
          "type": "address"
        },
        {
          "internalType": "uint256",
          "name": "_dx",
          "type": "uint256"
        }
      ],
      "name": "getAmountOut",
      "outputs": [
        {
          "internalType": "uint256",
          "name": "",
          "type": "uint256"
        }
      ],
      "stateMutability": "view",
      "type": "function"
    },
    {
      "inputs": [
        {
          "internalType": "uint8",
          "name": "_index",
          "type": "uint8"
        }
      ],
      "name": "getToken",
      "outputs": [
        {
          "internalType": "address",
          "name": "",
          "type": "address"
        }
      ],
      "stateMutability": "view",
      "type": "function"
    },
    {
      "inputs": [
        {
          "internalType": "uint8",
          "name": "_index",
          "type": "uint8"
        }
      ],
      "name": "getTokenBalance",
      "outputs": [
        {
          "internalType": "uint256",
          "name": "",
          "type": "uint256"
        }
      ],
      "stateMutability": "view",
      "type": "function"
    },
    {
      "inputs": [],
      "name": "getTokenBalances",
      "outputs": [
        {
          "internalType": "uint256[]",
          "name": "",
          "type": "uint256[]"
        }
      ],
      "stateMutability": "view",
      "type": "function"
    },
    {
      "inputs": [
        {
          "internalType": "address",
          "name": "_tokenAddress",
          "type": "address"
        }
      ],
      "name": "getTokenIndex",
      "outputs": [
        {
          "internalType": "uint8",
          "name": "",
          "type": "uint8"
        }
      ],
      "stateMutability": "view",
      "type": "function"
    },
    {
      "inputs": [],
      "name": "getVirtualPrice",
      "outputs": [
        {
          "internalType": "uint256",
          "name": "",
          "type": "uint256"
        }
      ],
      "stateMutability": "view",
      "type": "function"
    },
    {
      "inputs": [
        {
          "internalType": "address[]",
          "name": "_tokens",
          "type": "address[]"
        },
        {
          "internalType": "bytes",
          "name": "_data",
          "type": "bytes"
        }
      ],
      "name": "initialize",
      "outputs": [],
      "stateMutability": "nonpayable",
      "type": "function"
    },
    {
      "inputs": [],
      "name": "lpToken",
      "outputs": [
        {
          "internalType": "address",
          "name": "",
          "type": "address"
        }
      ],
      "stateMutability": "view",
      "type": "function"
    },
    {
      "inputs": [
        {
          "internalType": "uint256",
          "name": "_futureA",
          "type": "uint256"
        },
        {
          "internalType": "uint256",
          "name": "_futureTime",
          "type": "uint256"
        }
      ],
      "name": "rampA",
      "outputs": [],
      "stateMutability": "nonpayable",
      "type": "function"
    },
    {
      "inputs": [
        {
          "internalType": "uint256",
          "name": "_amount",
          "type": "uint256"
        },
        {
          "internalType": "address[]",
          "name": "_tokens",
          "type": "address[]"
        },
        {
          "internalType": "uint256[]",
          "name": "_minAmounts",
          "type": "uint256[]"
        },
        {
          "internalType": "address",
          "name": "_receiver",
          "type": "address"
        },
        {
          "internalType": "uint256",
          "name": "_deadline",
          "type": "uint256"
        }
      ],
      "name": "removeLiquidity",
      "outputs": [
        {
          "internalType": "uint256[]",
          "name": "",
          "type": "uint256[]"
        }
      ],
      "stateMutability": "nonpayable",
      "type": "function"
    },
    {
      "inputs": [
        {
          "internalType": "address[]",
          "name": "_tokens",
          "type": "address[]"
        },
        {
          "internalType": "uint256[]",
          "name": "_amounts",
          "type": "uint256[]"
        },
        {
          "internalType": "uint256",
          "name": "_maxBurnAmount",
          "type": "uint256"
        },
        {
          "internalType": "address",
          "name": "_receiver",
          "type": "address"
        },
        {
          "internalType": "uint256",
          "name": "_deadline",
          "type": "uint256"
        }
      ],
      "name": "removeLiquidityImbalance",
      "outputs": [
        {
          "internalType": "uint256",
          "name": "",
          "type": "uint256"
        }
      ],
      "stateMutability": "nonpayable",
      "type": "function"
    },
    {
      "inputs": [
        {
          "internalType": "uint256",
          "name": "_tokenAmount",
          "type": "uint256"
        },
        {
          "internalType": "address",
          "name": "_token",
          "type": "address"
        },
        {
          "internalType": "uint256",
          "name": "_minAmount",
          "type": "uint256"
        },
        {
          "internalType": "address",
          "name": "_receiver",
          "type": "address"
        },
        {
          "internalType": "uint256",
          "name": "_deadline",
          "type": "uint256"
        }
      ],
      "name": "removeLiquidityOneToken",
      "outputs": [
        {
          "internalType": "uint256",
          "name": "",
          "type": "uint256"
        }
      ],
      "stateMutability": "nonpayable",
      "type": "function"
    },
    {
      "inputs": [
        {
          "internalType": "uint256",
          "name": "_newAdminFee",
          "type": "uint256"
        }
      ],
      "name": "setAdminFeeRate",
      "outputs": [],
      "stateMutability": "nonpayable",
      "type": "function"
    },
    {
      "inputs": [
        {
          "internalType": "uint256",
          "name": "_newSwapFee",
          "type": "uint256"
        }
      ],
      "name": "setSwapFee",
      "outputs": [],
      "stateMutability": "nonpayable",
      "type": "function"
    },
    {
      "inputs": [],
      "name": "stopRampA",
      "outputs": [],
      "stateMutability": "nonpayable",
      "type": "function"
    },
    {
      "inputs": [
        {
          "internalType": "address",
          "name": "_tokenFrom",
          "type": "address"
        },
        {
          "internalType": "address",
          "name": "_tokenTo",
          "type": "address"
        },
        {
          "internalType": "uint256",
          "name": "_dx",
          "type": "uint256"
        },
        {
          "internalType": "uint256",
          "name": "_minDy",
          "type": "uint256"
        },
        {
          "internalType": "address",
          "name": "_receiver",
          "type": "address"
        },
        {
          "internalType": "uint256",
          "name": "_deadline",
          "type": "uint256"
        }
      ],
      "name": "swap",
      "outputs": [
        {
          "internalType": "uint256",
          "name": "",
          "type": "uint256"
        }
      ],
      "stateMutability": "nonpayable",
      "type": "function"
    },
    {
      "inputs": [],
      "name": "swapStorage",
      "outputs": [
        {
          "internalType": "uint256",
          "name": "initialA",
          "type": "uint256"
        },
        {
          "internalType": "uint256",
          "name": "futureA",
          "type": "uint256"
        },
        {
          "internalType": "uint256",
          "name": "initialATime",
          "type": "uint256"
        },
        {
          "internalType": "uint256",
          "name": "futureATime",
          "type": "uint256"
        },
        {
          "internalType": "uint256",
          "name": "swapFee",
          "type": "uint256"
        },
        {
          "internalType": "uint256",
          "name": "adminFee",
          "type": "uint256"
        },
        {
          "internalType": "contract LPToken",
          "name": "lpToken",
          "type": "address"
        }
      ],
      "stateMutability": "view",
      "type": "function"
    },
    {
      "inputs": [],
      "name": "tokens",
      "outputs": [
        {
          "internalType": "address[]",
          "name": "_tokens",
          "type": "address[]"
        }
      ],
      "stateMutability": "view",
      "type": "function"
    }
  ],
  "transactionHash": "0x10ebbf559f7e9616456caccd9ae2192afdb1302070500667d98509fb008dc0e8",
  "args": [],
  "numDeployments": 1,
  "solcInputHash": "4445b41a317a0ab4fbb6b2f9e899721f",
  "bytecode": "0x608060405234801561001057600080fd5b5061324c806100206000396000f3fe608060405234801561001057600080fd5b50600436106101cf5760003560e01c80637f9731b211610104578063c45a0155116100a2578063dfb56c2411610071578063dfb56c2414610798578063e25aa5fa1461086c578063e69e24a814610874578063ef0a712f14610932576101cf565b8063c45a015514610778578063c4db7fa014610780578063d294f09314610788578063d46300fd14610790576101cf565b80639908fc8b116100de5780639908fc8b146107035780639d63848a1461074b578063a1dc903114610753578063b36a5af31461075b576101cf565b80637f9731b2146105f057806382b86600146106c357806391ceb3eb146106e3576101cf565b8063508d1e6b116101715780635fd65f0f1161014b5780635fd65f0f1461046e5780635fe192c6146104b757806366c0bd24146104f75780636fa99f3d1461051d576101cf565b8063508d1e6b14610409578063593d132c146104275780635fcbd2851461044a576101cf565b806334e19907116101ad57806334e19907146102ca5780633c1a4cb0146102e95780634aa06652146103155780634bd92a0d1461034b576101cf565b80630a5623fb146101d45780630ba81959146101f05780632a94e3f71461020a575b600080fd5b6101dc61094f565b604080519115158252519081900360200190f35b6101f8610954565b60408051918252519081900360200190f35b6101f86004803603606081101561022057600080fd5b810190602081018135600160201b81111561023a57600080fd5b82018360208201111561024c57600080fd5b803590602001918460208302840111600160201b8311171561026d57600080fd5b919390929091602081019035600160201b81111561028a57600080fd5b82018360208201111561029c57600080fd5b803590602001918460208302840111600160201b831117156102bd57600080fd5b91935091503515156109d9565b6102e7600480360360208110156102e057600080fd5b5035610abe565b005b6101f8600480360360408110156102ff57600080fd5b506001600160a01b038135169060200135610bff565b6101f86004803603606081101561032b57600080fd5b506001600160a01b03813581169160208101359091169060400135610cab565b6103b96004803603604081101561036157600080fd5b810190602081018135600160201b81111561037b57600080fd5b82018360208201111561038d57600080fd5b803590602001918460208302840111600160201b831117156103ae57600080fd5b919350915035610d6c565b60408051602080825283518183015283519192839290830191858101910280838360005b838110156103f55781810151838201526020016103dd565b505050509050019250505060405180910390f35b610411610f47565b6040805160ff9092168252519081900360200190f35b6102e76004803603604081101561043d57600080fd5b5080359060200135610f4c565b610452611095565b604080516001600160a01b039092168252519081900360200190f35b6104766110a4565b604080519788526020880196909652868601949094526060860192909252608085015260a08401526001600160a01b031660c0830152519081900360e00190f35b6101f8600480360360a08110156104cd57600080fd5b508035906001600160a01b03602082013581169160408101359160608201351690608001356110c5565b6104116004803603602081101561050d57600080fd5b50356001600160a01b0316611222565b6101f8600480360360a081101561053357600080fd5b810190602081018135600160201b81111561054d57600080fd5b82018360208201111561055f57600080fd5b803590602001918460208302840111600160201b8311171561058057600080fd5b919390929091602081019035600160201b81111561059d57600080fd5b8201836020820111156105af57600080fd5b803590602001918460208302840111600160201b831117156105d057600080fd5b91935091508035906001600160a01b0360208201351690604001356112af565b6101f8600480360360a081101561060657600080fd5b810190602081018135600160201b81111561062057600080fd5b82018360208201111561063257600080fd5b803590602001918460208302840111600160201b8311171561065357600080fd5b919390929091602081019035600160201b81111561067057600080fd5b82018360208201111561068257600080fd5b803590602001918460208302840111600160201b831117156106a357600080fd5b91935091508035906001600160a01b03602082013516906040013561143d565b610452600480360360208110156106d957600080fd5b503560ff166114fc565b6101f8600480360360208110156106f957600080fd5b503560ff16611584565b6101f8600480360360c081101561071957600080fd5b506001600160a01b03813581169160208101358216916040820135916060810135916080820135169060a00135611603565b6103b9611770565b6103b9611821565b6102e76004803603602081101561077157600080fd5b503561187c565b6104526119a2565b6102e76119b7565b6103b9611af0565b6101f8611ca3565b6103b9600480360360a08110156107ae57600080fd5b81359190810190604081016020820135600160201b8111156107cf57600080fd5b8201836020820111156107e157600080fd5b803590602001918460208302840111600160201b8311171561080257600080fd5b919390929091602081019035600160201b81111561081f57600080fd5b82018360208201111561083157600080fd5b803590602001918460208302840111600160201b8311171561085257600080fd5b91935091506001600160a01b038135169060200135611cf7565b6101f8611f24565b6102e76004803603604081101561088a57600080fd5b810190602081018135600160201b8111156108a457600080fd5b8201836020820111156108b657600080fd5b803590602001918460208302840111600160201b831117156108d757600080fd5b919390929091602081019035600160201b8111156108f457600080fd5b82018360208201111561090657600080fd5b803590602001918460018302840111600160201b8311171561092757600080fd5b509092509050611f78565b6101f86004803603602081101561094857600080fd5b5035612486565b600181565b60006002736502fc116Ba82B14E5cb2a3B39D5caE155D01D3D63c9b64dcb90916040518263ffffffff1660e01b81526004018082815260200191505060206040518083038186803b1580156109a857600080fd5b505af41580156109bc573d6000803e3d6000fd5b505050506040513d60208110156109d257600080fd5b5051905090565b600073fCc3582b6C240b2F8552cC8bd664998Cd88E8DDc63834b49106002610a0389898989612514565b6040516001600160e01b031960e085901b1681526004810183815287151560448301526060602483019081528351606484015283518993608401906020868101910280838360005b83811015610a63578181015183820152602001610a4b565b5050505090500194505050505060206040518083038186803b158015610a8857600080fd5b505af4158015610a9c573d6000803e3d6000fd5b505050506040513d6020811015610ab257600080fd5b50519695505050505050565b6000546040805163481c6a7560e01b8152905133926201000090046001600160a01b03169163481c6a75916004808301926020929190829003018186803b158015610b0857600080fd5b505afa158015610b1c573d6000803e3d6000fd5b505050506040513d6020811015610b3257600080fd5b50516001600160a01b031614610b8b576040805162461bcd60e51b815260206004820152601960248201527829ba30b13632a830b4b91d101d103737ba1036b0b730b3b2b960391b604482015290519081900360640190fd5b6040805163119f861b60e21b81526002600482015260248101839052905173fCc3582b6C240b2F8552cC8bd664998Cd88E8DDc9163467e186c916044808301926000929190829003018186803b158015610be457600080fd5b505af4158015610bf8573d6000803e3d6000fd5b5050505050565b6001600160a01b0382166000908152600c6020908152604080832054815163703493a160e11b8152600260048201526024810186905260ff9091166044820152905173fCc3582b6C240b2F8552cC8bd664998Cd88E8DDc9263e06927429260648082019391829003018186803b158015610c7857600080fd5b505af4158015610c8c573d6000803e3d6000fd5b505050506040513d6020811015610ca257600080fd5b50519392505050565b6001600160a01b038084166000908152600c602090815260408083205493861683528083205481516312c8d80f60e21b81526002600482015260ff9586166024820152941660448501526064840185905251919273fCc3582b6C240b2F8552cC8bd664998Cd88E8DDc92634b23603c92608480840193919291829003018186803b158015610d3857600080fd5b505af4158015610d4c573d6000803e3d6000fd5b505050506040513d6020811015610d6257600080fd5b5051949350505050565b606080600273fCc3582b6C240b2F8552cC8bd664998Cd88E8DDc6370703e4a9091856040518363ffffffff1660e01b8152600401808381526020018281526020019250505060006040518083038186803b158015610dc957600080fd5b505af4158015610ddd573d6000803e3d6000fd5b505050506040513d6000823e601f3d908101601f191682016040526020811015610e0657600080fd5b8101908080516040519392919084600160201b821115610e2557600080fd5b908301906020820185811115610e3a57600080fd5b82518660208202830111600160201b82111715610e5657600080fd5b82525081516020918201928201910280838360005b83811015610e83578181015183820152602001610e6b565b5050505090500160405250505090506060815167ffffffffffffffff81118015610eac57600080fd5b50604051908082528060200260200182016040528015610ed6578160200160208202803683370190505b50905060005b85811015610f3d5782610f09888884818110610ef457fe5b905060200201356001600160a01b0316611222565b60ff1681518110610f1657fe5b6020026020010151828281518110610f2a57fe5b6020908102919091010152600101610edc565b5095945050505050565b600381565b6000546040805163481c6a7560e01b8152905133926201000090046001600160a01b03169163481c6a75916004808301926020929190829003018186803b158015610f9657600080fd5b505afa158015610faa573d6000803e3d6000fd5b505050506040513d6020811015610fc057600080fd5b50516001600160a01b031614611019576040805162461bcd60e51b815260206004820152601960248201527829ba30b13632a830b4b91d101d103737ba1036b0b730b3b2b960391b604482015290519081900360640190fd5b604080516358fdd79b60e01b81526002600482015260248101849052604481018390529051736502fc116Ba82B14E5cb2a3B39D5caE155D01D3D916358fdd79b916064808301926000929190829003018186803b15801561107957600080fd5b505af415801561108d573d6000803e3d6000fd5b505050505050565b6008546001600160a01b031690565b6002546003546004546005546006546007546008546001600160a01b031687565b6000600154600114611113576040805162461bcd60e51b815260206004820152601260248201527114dd18589b1954185a5c8e881313d0d2d15160721b604482015290519081900360640190fd5b6000600155814281101561115c576040805162461bcd60e51b815260206004820152601c60248201526000805160206130b8833981519152604482015290519081900360640190fd5b6001600160a01b038087166000908152600c6020908152604091829020548251630f28f48560e41b815260026004820152602481018c905260ff9091166044820152606481018990529287166084840152905173fCc3582b6C240b2F8552cC8bd664998Cd88E8DDc9263f28f48509260a4808301939192829003018186803b1580156111e757600080fd5b505af41580156111fb573d6000803e3d6000fd5b505050506040513d602081101561121157600080fd5b505160018055979650505050505050565b6001600160a01b0381166000818152600c6020526040812054909160ff9091169061124c826114fc565b6001600160a01b0316146112a7576040805162461bcd60e51b815260206004820181905260248201527f537461626c65506169723a20546f6b656e20646f6573206e6f74206578697374604482015290519081900360640190fd5b90505b919050565b60006001546001146112fd576040805162461bcd60e51b815260206004820152601260248201527114dd18589b1954185a5c8e881313d0d2d15160721b604482015290519081900360640190fd5b60006001558142811015611346576040805162461bcd60e51b815260206004820152601c60248201526000805160206130b8833981519152604482015290519081900360640190fd5b73fCc3582b6C240b2F8552cC8bd664998Cd88E8DDc63b3bcd4c9600261136e8c8c8c8c612514565b88886040518563ffffffff1660e01b81526004018085815260200180602001848152602001836001600160a01b03168152602001828103825285818151815260200191508051906020019060200280838360005b838110156113da5781810151838201526020016113c2565b505050509050019550505050505060206040518083038186803b15801561140057600080fd5b505af4158015611414573d6000803e3d6000fd5b505050506040513d602081101561142a57600080fd5b5051600180559998505050505050505050565b600060015460011461148b576040805162461bcd60e51b815260206004820152601260248201527114dd18589b1954185a5c8e881313d0d2d15160721b604482015290519081900360640190fd5b600060015581428110156114d4576040805162461bcd60e51b815260206004820152601c60248201526000805160206130b8833981519152604482015290519081900360640190fd5b73fCc3582b6C240b2F8552cC8bd664998Cd88E8DDc6324160996600261136e8c8c8c8c612514565b60095460009060ff831610611558576040805162461bcd60e51b815260206004820152601860248201527f537461626c65506169723a204f7574206f662072616e67650000000000000000604482015290519081900360640190fd5b6009805460ff841690811061156957fe5b6000918252602090912001546001600160a01b031692915050565b60095460009060ff8316106115e0576040805162461bcd60e51b815260206004820152601e60248201527f537461626c65506169723a20496e646578206f7574206f662072616e67650000604482015290519081900360640190fd5b600b805460ff84169081106115f157fe5b90600052602060002001549050919050565b6000600154600114611651576040805162461bcd60e51b815260206004820152601260248201527114dd18589b1954185a5c8e881313d0d2d15160721b604482015290519081900360640190fd5b6000600155814281101561169a576040805162461bcd60e51b815260206004820152601c60248201526000805160206130b8833981519152604482015290519081900360640190fd5b6001600160a01b038089166000908152600c60209081526040808320548b851684529281902054815163f356255360e01b81526002600482015260ff948516602482015293166044840152606483018a90526084830189905292871660a4830152915173fCc3582b6C240b2F8552cC8bd664998Cd88E8DDc9263f35625539260c48082019391829003018186803b15801561173457600080fd5b505af4158015611748573d6000803e3d6000fd5b505050506040513d602081101561175e57600080fd5b50516001805598975050505050505050565b60095460609067ffffffffffffffff8111801561178c57600080fd5b506040519080825280602002602001820160405280156117b6578160200160208202803683370190505b50905060005b815181101561181d5760098054829081106117d357fe5b9060005260206000200160009054906101000a90046001600160a01b03168282815181106117fd57fe5b6001600160a01b03909216602092830291909101909101526001016117bc565b5090565b6060600260090180548060200260200160405190810160405280929190818152602001828054801561187257602002820191906000526020600020905b81548152602001906001019080831161185e575b5050505050905090565b6000546040805163481c6a7560e01b8152905133926201000090046001600160a01b03169163481c6a75916004808301926020929190829003018186803b1580156118c657600080fd5b505afa1580156118da573d6000803e3d6000fd5b505050506040513d60208110156118f057600080fd5b50516001600160a01b031614611949576040805162461bcd60e51b815260206004820152601960248201527829ba30b13632a830b4b91d101d103737ba1036b0b730b3b2b960391b604482015290519081900360640190fd5b60408051633823393b60e11b81526002600482015260248101839052905173fCc3582b6C240b2F8552cC8bd664998Cd88E8DDc916370467276916044808301926000929190829003018186803b158015610be457600080fd5b6000546201000090046001600160a01b031681565b6000546040805163481c6a7560e01b8152905133926201000090046001600160a01b03169163481c6a75916004808301926020929190829003018186803b158015611a0157600080fd5b505afa158015611a15573d6000803e3d6000fd5b505050506040513d6020811015611a2b57600080fd5b50516001600160a01b031614611a84576040805162461bcd60e51b815260206004820152601960248201527829ba30b13632a830b4b91d101d103737ba1036b0b730b3b2b960391b604482015290519081900360640190fd5b604080516378a7108f60e11b8152600260048201529051736502fc116Ba82B14E5cb2a3B39D5caE155D01D3D9163f14e211e916024808301926000929190829003018186803b158015611ad657600080fd5b505af4158015611aea573d6000803e3d6000fd5b50505050565b6060600273fCc3582b6C240b2F8552cC8bd664998Cd88E8DDc6324c5c7519091600060029054906101000a90046001600160a01b03166001600160a01b031663481c6a756040518163ffffffff1660e01b815260040160206040518083038186803b158015611b5e57600080fd5b505afa158015611b72573d6000803e3d6000fd5b505050506040513d6020811015611b8857600080fd5b5051604080516001600160e01b031960e086901b16815260048101939093526001600160a01b039091166024830152516044808301926000929190829003018186803b158015611bd757600080fd5b505af4158015611beb573d6000803e3d6000fd5b505050506040513d6000823e601f3d908101601f191682016040526020811015611c1457600080fd5b8101908080516040519392919084600160201b821115611c3357600080fd5b908301906020820185811115611c4857600080fd5b82518660208202830111600160201b82111715611c6457600080fd5b82525081516020918201928201910280838360005b83811015611c91578181015183820152602001611c79565b50505050905001604052505050905090565b60006002736502fc116Ba82B14E5cb2a3B39D5caE155D01D3D63b0a14cfc90916040518263ffffffff1660e01b81526004018082815260200191505060206040518083038186803b1580156109a857600080fd5b6060600154600114611d45576040805162461bcd60e51b815260206004820152601260248201527114dd18589b1954185a5c8e881313d0d2d15160721b604482015290519081900360640190fd5b60006001558142811015611d8e576040805162461bcd60e51b815260206004820152601c60248201526000805160206130b8833981519152604482015290519081900360640190fd5b73fCc3582b6C240b2F8552cC8bd664998Cd88E8DDc63abbce08360028b611db78c8c8c8c612514565b6040516001600160e01b031960e086901b16815260048101848152602482018490526001600160a01b038b1660648301526080604483019081528351608484015283518c9360a401906020868101910280838360005b83811015611e25578181015183820152602001611e0d565b505050509050019550505050505060006040518083038186803b158015611e4b57600080fd5b505af4158015611e5f573d6000803e3d6000fd5b505050506040513d6000823e601f3d908101601f191682016040526020811015611e8857600080fd5b8101908080516040519392919084600160201b821115611ea757600080fd5b908301906020820185811115611ebc57600080fd5b82518660208202830111600160201b82111715611ed857600080fd5b82525081516020918201928201910280838360005b83811015611f05578181015183820152602001611eed565b5050505090500160405250505091505060018055979650505050505050565b6000600273fCc3582b6C240b2F8552cC8bd664998Cd88E8DDc6371906c2c90916040518263ffffffff1660e01b81526004018082815260200191505060206040518083038186803b1580156109a857600080fd5b600054610100900460ff1680611f915750611f916125b1565b80611f9f575060005460ff16155b611fda5760405162461bcd60e51b815260040180806020018281038252602e815260200180613170602e913960400191505060405180910390fd5b600054610100900460ff16158015612005576000805460ff1961ff0019909116610100171660011790555b6000805462010000600160b01b031916336201000002179055600180805560408051808201825260148152730322337b931b29020a6a69029ba30b136329016960651b60208083019190915282518084018452600581526473414d4d2d60d81b818301528351808501909452938352602d60f81b90830152919060608767ffffffffffffffff8111801561209857600080fd5b506040519080825280602002602001820160405280156120c2578160200160208202803683370190505b50905060005b888110156123ca578989828181106120dc57fe5b905060200201356001600160a01b03166001600160a01b031663313ce5676040518163ffffffff1660e01b815260040160206040518083038186803b15801561212457600080fd5b505afa158015612138573d6000803e3d6000fd5b505050506040513d602081101561214e57600080fd5b5051825183908390811061215e57fe5b602002602001019060ff16908160ff168152505060606121a18b8b8481811061218357fe5b905060200201356001600160a01b03166001600160a01b03166125c2565b90506000198a018214156121c2576040518060200160405280600081525093505b8581856040516020018084805190602001908083835b602083106121f75780518252601f1990920191602091820191016121d8565b51815160209384036101000a600019018019909216911617905286519190930192860191508083835b6020831061223f5780518252601f199092019160209182019101612220565b51815160209384036101000a600019018019909216911617905285519190930192850191508083835b602083106122875780518252601f199092019160209182019101612268565b6001836020036101000a038019825116818451168082178552505050505050905001935050505060405160208183030381529060405295508481856040516020018084805190602001908083835b602083106122f45780518252601f1990920191602091820191016122d5565b51815160209384036101000a600019018019909216911617905286519190930192860191508083835b6020831061233c5780518252601f19909201916020918201910161231d565b51815160209384036101000a600019018019909216911617905285519190930192850191508083835b602083106123845780518252601f199092019160209182019101612365565b6001836020036101000a038019825116818451168082178552505050505050905001935050505060405160208183030381529060405294505080806001019150506120c8565b506000806000808a8a60808110156123e157600080fd5b8101908080359060200190929190803590602001909291908035906020019092919080356001600160a01b0316906020019092919050505093509350935093506124668d8d808060200260200160405190810160405280939291908181526020018383602002808284376000920191909152508992508c91508b9050868989886127a3565b50505050505050508015610bf8576000805461ff00191690555050505050565b6000600273fCc3582b6C240b2F8552cC8bd664998Cd88E8DDc637d0481609091846040518363ffffffff1660e01b8152600401808381526020018281526020019250505060206040518083038186803b1580156124e257600080fd5b505af41580156124f6573d6000803e3d6000fd5b505050506040513d602081101561250c57600080fd5b505192915050565b60608167ffffffffffffffff8111801561252d57600080fd5b50604051908082528060200260200182016040528015612557578160200160208202803683370190505b50905060005b848110156125a85783838281811061257157fe5b9050602002013582612588888885818110610ef457fe5b60ff168151811061259557fe5b602090810291909101015260010161255d565b50949350505050565b60006125bc30612edd565b15905090565b60606001600160a01b038216156112aa5760408051600481526024810182526020810180516001600160e01b03166395d89b4160e01b178152915181516000936060936001600160a01b038816939092909182918083835b602083106126395780518252601f19909201916020918201910161261a565b6001836020036101000a038019825116818451168082178552505050505050905001915050600060405180830381855afa9150503d8060008114612699576040519150601f19603f3d011682016040523d82523d6000602084013e61269e565b606091505b5091509150811561279c57805160201461277a578080602001905160208110156126c757600080fd5b8101908080516040519392919084600160201b8211156126e657600080fd5b9083019060208201858111156126fb57600080fd5b8251600160201b81118282018810171561271457600080fd5b82525081516020918201929091019080838360005b83811015612741578181015183820152602001612729565b50505050905090810190601f16801561276e5780820380516001836020036101000a031916815260200191505b50604052505050612799565b61279981806020019051602081101561279257600080fd5b5051612ee3565b92505b5050919050565b60018851116127e35760405162461bcd60e51b81526004018080602001828103825260258152602001806130d86025913960400191505060405180910390fd5b6020885111156128245760405162461bcd60e51b81526004018080602001828103825260258152602001806131256025913960400191505060405180910390fd5b86518851146128645760405162461bcd60e51b815260040180806020018281038252602b8152602001806131ec602b913960400191505060405180910390fd5b6060875167ffffffffffffffff8111801561287e57600080fd5b506040519080825280602002602001820160405280156128a8578160200160208202803683370190505b5090506060885167ffffffffffffffff811180156128c557600080fd5b506040519080825280602002602001820160405280156128ef578160200160208202803683370190505b50905060005b8a518160ff161015612bab5760ff8116156129de57600c60008c8360ff168151811061291d57fe5b6020908102919091018101516001600160a01b031682528101919091526040016000205460ff1615801561298d57508a8160ff168151811061295b57fe5b60200260200101516001600160a01b03168b60008151811061297957fe5b60200260200101516001600160a01b031614155b6129de576040805162461bcd60e51b815260206004820152601c60248201527f537461626c65506169723a204475706c696361746520746f6b656e7300000000604482015290519081900360640190fd5b60006001600160a01b03168b8260ff16815181106129f857fe5b60200260200101516001600160a01b031614158015612a3f5750306001600160a01b03168b8260ff1681518110612a2b57fe5b60200260200101516001600160a01b031614155b612a7a5760405162461bcd60e51b81526004018080602001828103825260298152602001806131c36029913960400191505060405180910390fd5b601260ff168a8260ff1681518110612a8e57fe5b602002602001015160ff161115612ad65760405162461bcd60e51b815260040180806020018281038252602681526020018061314a6026913960400191505060405180910390fd5b898160ff1681518110612ae557fe5b602002602001015160ff16601260ff1603600a0a838260ff1681518110612b0857fe5b6020026020010181815250508a8160ff1681518110612b2357fe5b6020026020010151828260ff1681518110612b3a57fe5b60200260200101906001600160a01b031690816001600160a01b03168152505080600c60008d8460ff1681518110612b6e57fe5b6020908102919091018101516001600160a01b03168252810191909152604001600020805460ff191660ff929092169190911790556001016128f5565b50620f42408610612c03576040805162461bcd60e51b815260206004820152601e60248201527f537461626c65506169723a205f612065786365656473206d6178696d756d0000604482015290519081900360640190fd5b6305f5e1008510612c5b576040805162461bcd60e51b815260206004820181905260248201527f537461626c65506169723a205f6665652065786365656473206d6178696d756d604482015290519081900360640190fd5b6402540be4008410612c9e5760405162461bcd60e51b815260040180806020018281038252602581526020018061319e6025913960400191505060405180910390fd5b6000612ca984612f3e565b9050806001600160a01b0316634cd88b768a8a6040518363ffffffff1660e01b8152600401808060200180602001838103835285818151815260200191508051906020019080838360005b83811015612d0c578181015183820152602001612cf4565b50505050905090810190601f168015612d395780820380516001836020036101000a031916815260200191505b50838103825284518152845160209182019186019080838360005b83811015612d6c578181015183820152602001612d54565b50505050905090810190601f168015612d995780820380516001836020036101000a031916815260200191505b50945050505050602060405180830381600087803b158015612dba57600080fd5b505af1158015612dce573d6000803e3d6000fd5b505050506040513d6020811015612de457600080fd5b5051612e215760405162461bcd60e51b81526004018080602001828103825260288152602001806130fd6028913960400191505060405180910390fd5b600880546001600160a01b0319166001600160a01b0383161790558151612e4f906009906020850190612fdb565b508251612e6390600a90602086019061303c565b508a5167ffffffffffffffff81118015612e7c57600080fd5b50604051908082528060200260200182016040528015612ea6578160200160208202803683370190505b508051612ebb91600b9160209091019061303c565b5050505060649390930260028190556003556006919091556007555050505050565b3b151590565b606060005b828160ff1660208110612ef757fe5b1a60f81b6001600160f81b03191615801590612f16575060208160ff16105b15612f2357600101612ee8565b60405191506040820160405280825282602083015250919050565b6000604051733d602d80600a3d3981f3363d3d373d3d3d363d7360601b81528260601b60148201526e5af43d82803e903d91602b57fd5bf360881b60288201526037816000f09150506001600160a01b0381166112aa576040805162461bcd60e51b8152602060048201526016602482015275115490cc4c4d8dce8818dc99585d194819985a5b195960521b604482015290519081900360640190fd5b828054828255906000526020600020908101928215613030579160200282015b8281111561303057825182546001600160a01b0319166001600160a01b03909116178255602090920191600190910190612ffb565b5061181d929150613083565b828054828255906000526020600020908101928215613077579160200282015b8281111561307757825182559160200191906001019061305c565b5061181d9291506130a2565b5b8082111561181d5780546001600160a01b0319168155600101613084565b5b8082111561181d57600081556001016130a356fe537461626c65506169723a20446561646c696e65206e6f74206d657400000000537461626c65506169723a205f706f6f6c6564546f6b656e732e6c656e677468203c3d2031537461626c65506169723a20636f756c64206e6f7420696e6974206c70546f6b656e20636c6f6e65537461626c65506169723a205f706f6f6c6564546f6b656e732e6c656e677468203e203332537461626c65506169723a20546f6b656e20646563696d616c732065786365656473206d6178496e697469616c697a61626c653a20636f6e747261637420697320616c726561647920696e697469616c697a6564537461626c65506169723a205f61646d696e4665652065786365656473206d6178696d756d537461626c65506169723a20546865203020616464726573732069736e277420616e204552432d3230537461626c65506169723a205f706f6f6c6564546f6b656e7320646563696d616c73206d69736d61746368a2646970667358221220bc18f70d81ca5403e97425cda4bcf3db40779ff7aa69c7aff4ea45439a72c3ec64736f6c634300060c0033",
  "deployedBytecode": "0x608060405234801561001057600080fd5b50600436106101cf5760003560e01c80637f9731b211610104578063c45a0155116100a2578063dfb56c2411610071578063dfb56c2414610798578063e25aa5fa1461086c578063e69e24a814610874578063ef0a712f14610932576101cf565b8063c45a015514610778578063c4db7fa014610780578063d294f09314610788578063d46300fd14610790576101cf565b80639908fc8b116100de5780639908fc8b146107035780639d63848a1461074b578063a1dc903114610753578063b36a5af31461075b576101cf565b80637f9731b2146105f057806382b86600146106c357806391ceb3eb146106e3576101cf565b8063508d1e6b116101715780635fd65f0f1161014b5780635fd65f0f1461046e5780635fe192c6146104b757806366c0bd24146104f75780636fa99f3d1461051d576101cf565b8063508d1e6b14610409578063593d132c146104275780635fcbd2851461044a576101cf565b806334e19907116101ad57806334e19907146102ca5780633c1a4cb0146102e95780634aa06652146103155780634bd92a0d1461034b576101cf565b80630a5623fb146101d45780630ba81959146101f05780632a94e3f71461020a575b600080fd5b6101dc61094f565b604080519115158252519081900360200190f35b6101f8610954565b60408051918252519081900360200190f35b6101f86004803603606081101561022057600080fd5b810190602081018135600160201b81111561023a57600080fd5b82018360208201111561024c57600080fd5b803590602001918460208302840111600160201b8311171561026d57600080fd5b919390929091602081019035600160201b81111561028a57600080fd5b82018360208201111561029c57600080fd5b803590602001918460208302840111600160201b831117156102bd57600080fd5b91935091503515156109d9565b6102e7600480360360208110156102e057600080fd5b5035610abe565b005b6101f8600480360360408110156102ff57600080fd5b506001600160a01b038135169060200135610bff565b6101f86004803603606081101561032b57600080fd5b506001600160a01b03813581169160208101359091169060400135610cab565b6103b96004803603604081101561036157600080fd5b810190602081018135600160201b81111561037b57600080fd5b82018360208201111561038d57600080fd5b803590602001918460208302840111600160201b831117156103ae57600080fd5b919350915035610d6c565b60408051602080825283518183015283519192839290830191858101910280838360005b838110156103f55781810151838201526020016103dd565b505050509050019250505060405180910390f35b610411610f47565b6040805160ff9092168252519081900360200190f35b6102e76004803603604081101561043d57600080fd5b5080359060200135610f4c565b610452611095565b604080516001600160a01b039092168252519081900360200190f35b6104766110a4565b604080519788526020880196909652868601949094526060860192909252608085015260a08401526001600160a01b031660c0830152519081900360e00190f35b6101f8600480360360a08110156104cd57600080fd5b508035906001600160a01b03602082013581169160408101359160608201351690608001356110c5565b6104116004803603602081101561050d57600080fd5b50356001600160a01b0316611222565b6101f8600480360360a081101561053357600080fd5b810190602081018135600160201b81111561054d57600080fd5b82018360208201111561055f57600080fd5b803590602001918460208302840111600160201b8311171561058057600080fd5b919390929091602081019035600160201b81111561059d57600080fd5b8201836020820111156105af57600080fd5b803590602001918460208302840111600160201b831117156105d057600080fd5b91935091508035906001600160a01b0360208201351690604001356112af565b6101f8600480360360a081101561060657600080fd5b810190602081018135600160201b81111561062057600080fd5b82018360208201111561063257600080fd5b803590602001918460208302840111600160201b8311171561065357600080fd5b919390929091602081019035600160201b81111561067057600080fd5b82018360208201111561068257600080fd5b803590602001918460208302840111600160201b831117156106a357600080fd5b91935091508035906001600160a01b03602082013516906040013561143d565b610452600480360360208110156106d957600080fd5b503560ff166114fc565b6101f8600480360360208110156106f957600080fd5b503560ff16611584565b6101f8600480360360c081101561071957600080fd5b506001600160a01b03813581169160208101358216916040820135916060810135916080820135169060a00135611603565b6103b9611770565b6103b9611821565b6102e76004803603602081101561077157600080fd5b503561187c565b6104526119a2565b6102e76119b7565b6103b9611af0565b6101f8611ca3565b6103b9600480360360a08110156107ae57600080fd5b81359190810190604081016020820135600160201b8111156107cf57600080fd5b8201836020820111156107e157600080fd5b803590602001918460208302840111600160201b8311171561080257600080fd5b919390929091602081019035600160201b81111561081f57600080fd5b82018360208201111561083157600080fd5b803590602001918460208302840111600160201b8311171561085257600080fd5b91935091506001600160a01b038135169060200135611cf7565b6101f8611f24565b6102e76004803603604081101561088a57600080fd5b810190602081018135600160201b8111156108a457600080fd5b8201836020820111156108b657600080fd5b803590602001918460208302840111600160201b831117156108d757600080fd5b919390929091602081019035600160201b8111156108f457600080fd5b82018360208201111561090657600080fd5b803590602001918460018302840111600160201b8311171561092757600080fd5b509092509050611f78565b6101f86004803603602081101561094857600080fd5b5035612486565b600181565b6000600273__$9cac7a001514a364c469a45260332873dd$__63c9b64dcb90916040518263ffffffff1660e01b81526004018082815260200191505060206040518083038186803b1580156109a857600080fd5b505af41580156109bc573d6000803e3d6000fd5b505050506040513d60208110156109d257600080fd5b5051905090565b600073__$4f9bc9d987b626ebf927a63757d74ce646$__63834b49106002610a0389898989612514565b6040516001600160e01b031960e085901b1681526004810183815287151560448301526060602483019081528351606484015283518993608401906020868101910280838360005b83811015610a63578181015183820152602001610a4b565b5050505090500194505050505060206040518083038186803b158015610a8857600080fd5b505af4158015610a9c573d6000803e3d6000fd5b505050506040513d6020811015610ab257600080fd5b50519695505050505050565b6000546040805163481c6a7560e01b8152905133926201000090046001600160a01b03169163481c6a75916004808301926020929190829003018186803b158015610b0857600080fd5b505afa158015610b1c573d6000803e3d6000fd5b505050506040513d6020811015610b3257600080fd5b50516001600160a01b031614610b8b576040805162461bcd60e51b815260206004820152601960248201527829ba30b13632a830b4b91d101d103737ba1036b0b730b3b2b960391b604482015290519081900360640190fd5b6040805163119f861b60e21b81526002600482015260248101839052905173__$4f9bc9d987b626ebf927a63757d74ce646$__9163467e186c916044808301926000929190829003018186803b158015610be457600080fd5b505af4158015610bf8573d6000803e3d6000fd5b5050505050565b6001600160a01b0382166000908152600c6020908152604080832054815163703493a160e11b8152600260048201526024810186905260ff9091166044820152905173__$4f9bc9d987b626ebf927a63757d74ce646$__9263e06927429260648082019391829003018186803b158015610c7857600080fd5b505af4158015610c8c573d6000803e3d6000fd5b505050506040513d6020811015610ca257600080fd5b50519392505050565b6001600160a01b038084166000908152600c602090815260408083205493861683528083205481516312c8d80f60e21b81526002600482015260ff9586166024820152941660448501526064840185905251919273__$4f9bc9d987b626ebf927a63757d74ce646$__92634b23603c92608480840193919291829003018186803b158015610d3857600080fd5b505af4158015610d4c573d6000803e3d6000fd5b505050506040513d6020811015610d6257600080fd5b5051949350505050565b606080600273__$4f9bc9d987b626ebf927a63757d74ce646$__6370703e4a9091856040518363ffffffff1660e01b8152600401808381526020018281526020019250505060006040518083038186803b158015610dc957600080fd5b505af4158015610ddd573d6000803e3d6000fd5b505050506040513d6000823e601f3d908101601f191682016040526020811015610e0657600080fd5b8101908080516040519392919084600160201b821115610e2557600080fd5b908301906020820185811115610e3a57600080fd5b82518660208202830111600160201b82111715610e5657600080fd5b82525081516020918201928201910280838360005b83811015610e83578181015183820152602001610e6b565b5050505090500160405250505090506060815167ffffffffffffffff81118015610eac57600080fd5b50604051908082528060200260200182016040528015610ed6578160200160208202803683370190505b50905060005b85811015610f3d5782610f09888884818110610ef457fe5b905060200201356001600160a01b0316611222565b60ff1681518110610f1657fe5b6020026020010151828281518110610f2a57fe5b6020908102919091010152600101610edc565b5095945050505050565b600381565b6000546040805163481c6a7560e01b8152905133926201000090046001600160a01b03169163481c6a75916004808301926020929190829003018186803b158015610f9657600080fd5b505afa158015610faa573d6000803e3d6000fd5b505050506040513d6020811015610fc057600080fd5b50516001600160a01b031614611019576040805162461bcd60e51b815260206004820152601960248201527829ba30b13632a830b4b91d101d103737ba1036b0b730b3b2b960391b604482015290519081900360640190fd5b604080516358fdd79b60e01b8152600260048201526024810184905260448101839052905173__$9cac7a001514a364c469a45260332873dd$__916358fdd79b916064808301926000929190829003018186803b15801561107957600080fd5b505af415801561108d573d6000803e3d6000fd5b505050505050565b6008546001600160a01b031690565b6002546003546004546005546006546007546008546001600160a01b031687565b6000600154600114611113576040805162461bcd60e51b815260206004820152601260248201527114dd18589b1954185a5c8e881313d0d2d15160721b604482015290519081900360640190fd5b6000600155814281101561115c576040805162461bcd60e51b815260206004820152601c60248201526000805160206130b8833981519152604482015290519081900360640190fd5b6001600160a01b038087166000908152600c6020908152604091829020548251630f28f48560e41b815260026004820152602481018c905260ff9091166044820152606481018990529287166084840152905173__$4f9bc9d987b626ebf927a63757d74ce646$__9263f28f48509260a4808301939192829003018186803b1580156111e757600080fd5b505af41580156111fb573d6000803e3d6000fd5b505050506040513d602081101561121157600080fd5b505160018055979650505050505050565b6001600160a01b0381166000818152600c6020526040812054909160ff9091169061124c826114fc565b6001600160a01b0316146112a7576040805162461bcd60e51b815260206004820181905260248201527f537461626c65506169723a20546f6b656e20646f6573206e6f74206578697374604482015290519081900360640190fd5b90505b919050565b60006001546001146112fd576040805162461bcd60e51b815260206004820152601260248201527114dd18589b1954185a5c8e881313d0d2d15160721b604482015290519081900360640190fd5b60006001558142811015611346576040805162461bcd60e51b815260206004820152601c60248201526000805160206130b8833981519152604482015290519081900360640190fd5b73__$4f9bc9d987b626ebf927a63757d74ce646$__63b3bcd4c9600261136e8c8c8c8c612514565b88886040518563ffffffff1660e01b81526004018085815260200180602001848152602001836001600160a01b03168152602001828103825285818151815260200191508051906020019060200280838360005b838110156113da5781810151838201526020016113c2565b505050509050019550505050505060206040518083038186803b15801561140057600080fd5b505af4158015611414573d6000803e3d6000fd5b505050506040513d602081101561142a57600080fd5b5051600180559998505050505050505050565b600060015460011461148b576040805162461bcd60e51b815260206004820152601260248201527114dd18589b1954185a5c8e881313d0d2d15160721b604482015290519081900360640190fd5b600060015581428110156114d4576040805162461bcd60e51b815260206004820152601c60248201526000805160206130b8833981519152604482015290519081900360640190fd5b73__$4f9bc9d987b626ebf927a63757d74ce646$__6324160996600261136e8c8c8c8c612514565b60095460009060ff831610611558576040805162461bcd60e51b815260206004820152601860248201527f537461626c65506169723a204f7574206f662072616e67650000000000000000604482015290519081900360640190fd5b6009805460ff841690811061156957fe5b6000918252602090912001546001600160a01b031692915050565b60095460009060ff8316106115e0576040805162461bcd60e51b815260206004820152601e60248201527f537461626c65506169723a20496e646578206f7574206f662072616e67650000604482015290519081900360640190fd5b600b805460ff84169081106115f157fe5b90600052602060002001549050919050565b6000600154600114611651576040805162461bcd60e51b815260206004820152601260248201527114dd18589b1954185a5c8e881313d0d2d15160721b604482015290519081900360640190fd5b6000600155814281101561169a576040805162461bcd60e51b815260206004820152601c60248201526000805160206130b8833981519152604482015290519081900360640190fd5b6001600160a01b038089166000908152600c60209081526040808320548b851684529281902054815163f356255360e01b81526002600482015260ff948516602482015293166044840152606483018a90526084830189905292871660a4830152915173__$4f9bc9d987b626ebf927a63757d74ce646$__9263f35625539260c48082019391829003018186803b15801561173457600080fd5b505af4158015611748573d6000803e3d6000fd5b505050506040513d602081101561175e57600080fd5b50516001805598975050505050505050565b60095460609067ffffffffffffffff8111801561178c57600080fd5b506040519080825280602002602001820160405280156117b6578160200160208202803683370190505b50905060005b815181101561181d5760098054829081106117d357fe5b9060005260206000200160009054906101000a90046001600160a01b03168282815181106117fd57fe5b6001600160a01b03909216602092830291909101909101526001016117bc565b5090565b6060600260090180548060200260200160405190810160405280929190818152602001828054801561187257602002820191906000526020600020905b81548152602001906001019080831161185e575b5050505050905090565b6000546040805163481c6a7560e01b8152905133926201000090046001600160a01b03169163481c6a75916004808301926020929190829003018186803b1580156118c657600080fd5b505afa1580156118da573d6000803e3d6000fd5b505050506040513d60208110156118f057600080fd5b50516001600160a01b031614611949576040805162461bcd60e51b815260206004820152601960248201527829ba30b13632a830b4b91d101d103737ba1036b0b730b3b2b960391b604482015290519081900360640190fd5b60408051633823393b60e11b81526002600482015260248101839052905173__$4f9bc9d987b626ebf927a63757d74ce646$__916370467276916044808301926000929190829003018186803b158015610be457600080fd5b6000546201000090046001600160a01b031681565b6000546040805163481c6a7560e01b8152905133926201000090046001600160a01b03169163481c6a75916004808301926020929190829003018186803b158015611a0157600080fd5b505afa158015611a15573d6000803e3d6000fd5b505050506040513d6020811015611a2b57600080fd5b50516001600160a01b031614611a84576040805162461bcd60e51b815260206004820152601960248201527829ba30b13632a830b4b91d101d103737ba1036b0b730b3b2b960391b604482015290519081900360640190fd5b604080516378a7108f60e11b815260026004820152905173__$9cac7a001514a364c469a45260332873dd$__9163f14e211e916024808301926000929190829003018186803b158015611ad657600080fd5b505af4158015611aea573d6000803e3d6000fd5b50505050565b6060600273__$4f9bc9d987b626ebf927a63757d74ce646$__6324c5c7519091600060029054906101000a90046001600160a01b03166001600160a01b031663481c6a756040518163ffffffff1660e01b815260040160206040518083038186803b158015611b5e57600080fd5b505afa158015611b72573d6000803e3d6000fd5b505050506040513d6020811015611b8857600080fd5b5051604080516001600160e01b031960e086901b16815260048101939093526001600160a01b039091166024830152516044808301926000929190829003018186803b158015611bd757600080fd5b505af4158015611beb573d6000803e3d6000fd5b505050506040513d6000823e601f3d908101601f191682016040526020811015611c1457600080fd5b8101908080516040519392919084600160201b821115611c3357600080fd5b908301906020820185811115611c4857600080fd5b82518660208202830111600160201b82111715611c6457600080fd5b82525081516020918201928201910280838360005b83811015611c91578181015183820152602001611c79565b50505050905001604052505050905090565b6000600273__$9cac7a001514a364c469a45260332873dd$__63b0a14cfc90916040518263ffffffff1660e01b81526004018082815260200191505060206040518083038186803b1580156109a857600080fd5b6060600154600114611d45576040805162461bcd60e51b815260206004820152601260248201527114dd18589b1954185a5c8e881313d0d2d15160721b604482015290519081900360640190fd5b60006001558142811015611d8e576040805162461bcd60e51b815260206004820152601c60248201526000805160206130b8833981519152604482015290519081900360640190fd5b73__$4f9bc9d987b626ebf927a63757d74ce646$__63abbce08360028b611db78c8c8c8c612514565b6040516001600160e01b031960e086901b16815260048101848152602482018490526001600160a01b038b1660648301526080604483019081528351608484015283518c9360a401906020868101910280838360005b83811015611e25578181015183820152602001611e0d565b505050509050019550505050505060006040518083038186803b158015611e4b57600080fd5b505af4158015611e5f573d6000803e3d6000fd5b505050506040513d6000823e601f3d908101601f191682016040526020811015611e8857600080fd5b8101908080516040519392919084600160201b821115611ea757600080fd5b908301906020820185811115611ebc57600080fd5b82518660208202830111600160201b82111715611ed857600080fd5b82525081516020918201928201910280838360005b83811015611f05578181015183820152602001611eed565b5050505090500160405250505091505060018055979650505050505050565b6000600273__$4f9bc9d987b626ebf927a63757d74ce646$__6371906c2c90916040518263ffffffff1660e01b81526004018082815260200191505060206040518083038186803b1580156109a857600080fd5b600054610100900460ff1680611f915750611f916125b1565b80611f9f575060005460ff16155b611fda5760405162461bcd60e51b815260040180806020018281038252602e815260200180613170602e913960400191505060405180910390fd5b600054610100900460ff16158015612005576000805460ff1961ff0019909116610100171660011790555b6000805462010000600160b01b031916336201000002179055600180805560408051808201825260148152730322337b931b29020a6a69029ba30b136329016960651b60208083019190915282518084018452600581526473414d4d2d60d81b818301528351808501909452938352602d60f81b90830152919060608767ffffffffffffffff8111801561209857600080fd5b506040519080825280602002602001820160405280156120c2578160200160208202803683370190505b50905060005b888110156123ca578989828181106120dc57fe5b905060200201356001600160a01b03166001600160a01b031663313ce5676040518163ffffffff1660e01b815260040160206040518083038186803b15801561212457600080fd5b505afa158015612138573d6000803e3d6000fd5b505050506040513d602081101561214e57600080fd5b5051825183908390811061215e57fe5b602002602001019060ff16908160ff168152505060606121a18b8b8481811061218357fe5b905060200201356001600160a01b03166001600160a01b03166125c2565b90506000198a018214156121c2576040518060200160405280600081525093505b8581856040516020018084805190602001908083835b602083106121f75780518252601f1990920191602091820191016121d8565b51815160209384036101000a600019018019909216911617905286519190930192860191508083835b6020831061223f5780518252601f199092019160209182019101612220565b51815160209384036101000a600019018019909216911617905285519190930192850191508083835b602083106122875780518252601f199092019160209182019101612268565b6001836020036101000a038019825116818451168082178552505050505050905001935050505060405160208183030381529060405295508481856040516020018084805190602001908083835b602083106122f45780518252601f1990920191602091820191016122d5565b51815160209384036101000a600019018019909216911617905286519190930192860191508083835b6020831061233c5780518252601f19909201916020918201910161231d565b51815160209384036101000a600019018019909216911617905285519190930192850191508083835b602083106123845780518252601f199092019160209182019101612365565b6001836020036101000a038019825116818451168082178552505050505050905001935050505060405160208183030381529060405294505080806001019150506120c8565b506000806000808a8a60808110156123e157600080fd5b8101908080359060200190929190803590602001909291908035906020019092919080356001600160a01b0316906020019092919050505093509350935093506124668d8d808060200260200160405190810160405280939291908181526020018383602002808284376000920191909152508992508c91508b9050868989886127a3565b50505050505050508015610bf8576000805461ff00191690555050505050565b6000600273__$4f9bc9d987b626ebf927a63757d74ce646$__637d0481609091846040518363ffffffff1660e01b8152600401808381526020018281526020019250505060206040518083038186803b1580156124e257600080fd5b505af41580156124f6573d6000803e3d6000fd5b505050506040513d602081101561250c57600080fd5b505192915050565b60608167ffffffffffffffff8111801561252d57600080fd5b50604051908082528060200260200182016040528015612557578160200160208202803683370190505b50905060005b848110156125a85783838281811061257157fe5b9050602002013582612588888885818110610ef457fe5b60ff168151811061259557fe5b602090810291909101015260010161255d565b50949350505050565b60006125bc30612edd565b15905090565b60606001600160a01b038216156112aa5760408051600481526024810182526020810180516001600160e01b03166395d89b4160e01b178152915181516000936060936001600160a01b038816939092909182918083835b602083106126395780518252601f19909201916020918201910161261a565b6001836020036101000a038019825116818451168082178552505050505050905001915050600060405180830381855afa9150503d8060008114612699576040519150601f19603f3d011682016040523d82523d6000602084013e61269e565b606091505b5091509150811561279c57805160201461277a578080602001905160208110156126c757600080fd5b8101908080516040519392919084600160201b8211156126e657600080fd5b9083019060208201858111156126fb57600080fd5b8251600160201b81118282018810171561271457600080fd5b82525081516020918201929091019080838360005b83811015612741578181015183820152602001612729565b50505050905090810190601f16801561276e5780820380516001836020036101000a031916815260200191505b50604052505050612799565b61279981806020019051602081101561279257600080fd5b5051612ee3565b92505b5050919050565b60018851116127e35760405162461bcd60e51b81526004018080602001828103825260258152602001806130d86025913960400191505060405180910390fd5b6020885111156128245760405162461bcd60e51b81526004018080602001828103825260258152602001806131256025913960400191505060405180910390fd5b86518851146128645760405162461bcd60e51b815260040180806020018281038252602b8152602001806131ec602b913960400191505060405180910390fd5b6060875167ffffffffffffffff8111801561287e57600080fd5b506040519080825280602002602001820160405280156128a8578160200160208202803683370190505b5090506060885167ffffffffffffffff811180156128c557600080fd5b506040519080825280602002602001820160405280156128ef578160200160208202803683370190505b50905060005b8a518160ff161015612bab5760ff8116156129de57600c60008c8360ff168151811061291d57fe5b6020908102919091018101516001600160a01b031682528101919091526040016000205460ff1615801561298d57508a8160ff168151811061295b57fe5b60200260200101516001600160a01b03168b60008151811061297957fe5b60200260200101516001600160a01b031614155b6129de576040805162461bcd60e51b815260206004820152601c60248201527f537461626c65506169723a204475706c696361746520746f6b656e7300000000604482015290519081900360640190fd5b60006001600160a01b03168b8260ff16815181106129f857fe5b60200260200101516001600160a01b031614158015612a3f5750306001600160a01b03168b8260ff1681518110612a2b57fe5b60200260200101516001600160a01b031614155b612a7a5760405162461bcd60e51b81526004018080602001828103825260298152602001806131c36029913960400191505060405180910390fd5b601260ff168a8260ff1681518110612a8e57fe5b602002602001015160ff161115612ad65760405162461bcd60e51b815260040180806020018281038252602681526020018061314a6026913960400191505060405180910390fd5b898160ff1681518110612ae557fe5b602002602001015160ff16601260ff1603600a0a838260ff1681518110612b0857fe5b6020026020010181815250508a8160ff1681518110612b2357fe5b6020026020010151828260ff1681518110612b3a57fe5b60200260200101906001600160a01b031690816001600160a01b03168152505080600c60008d8460ff1681518110612b6e57fe5b6020908102919091018101516001600160a01b03168252810191909152604001600020805460ff191660ff929092169190911790556001016128f5565b50620f42408610612c03576040805162461bcd60e51b815260206004820152601e60248201527f537461626c65506169723a205f612065786365656473206d6178696d756d0000604482015290519081900360640190fd5b6305f5e1008510612c5b576040805162461bcd60e51b815260206004820181905260248201527f537461626c65506169723a205f6665652065786365656473206d6178696d756d604482015290519081900360640190fd5b6402540be4008410612c9e5760405162461bcd60e51b815260040180806020018281038252602581526020018061319e6025913960400191505060405180910390fd5b6000612ca984612f3e565b9050806001600160a01b0316634cd88b768a8a6040518363ffffffff1660e01b8152600401808060200180602001838103835285818151815260200191508051906020019080838360005b83811015612d0c578181015183820152602001612cf4565b50505050905090810190601f168015612d395780820380516001836020036101000a031916815260200191505b50838103825284518152845160209182019186019080838360005b83811015612d6c578181015183820152602001612d54565b50505050905090810190601f168015612d995780820380516001836020036101000a031916815260200191505b50945050505050602060405180830381600087803b158015612dba57600080fd5b505af1158015612dce573d6000803e3d6000fd5b505050506040513d6020811015612de457600080fd5b5051612e215760405162461bcd60e51b81526004018080602001828103825260288152602001806130fd6028913960400191505060405180910390fd5b600880546001600160a01b0319166001600160a01b0383161790558151612e4f906009906020850190612fdb565b508251612e6390600a90602086019061303c565b508a5167ffffffffffffffff81118015612e7c57600080fd5b50604051908082528060200260200182016040528015612ea6578160200160208202803683370190505b508051612ebb91600b9160209091019061303c565b5050505060649390930260028190556003556006919091556007555050505050565b3b151590565b606060005b828160ff1660208110612ef757fe5b1a60f81b6001600160f81b03191615801590612f16575060208160ff16105b15612f2357600101612ee8565b60405191506040820160405280825282602083015250919050565b6000604051733d602d80600a3d3981f3363d3d373d3d3d363d7360601b81528260601b60148201526e5af43d82803e903d91602b57fd5bf360881b60288201526037816000f09150506001600160a01b0381166112aa576040805162461bcd60e51b8152602060048201526016602482015275115490cc4c4d8dce8818dc99585d194819985a5b195960521b604482015290519081900360640190fd5b828054828255906000526020600020908101928215613030579160200282015b8281111561303057825182546001600160a01b0319166001600160a01b03909116178255602090920191600190910190612ffb565b5061181d929150613083565b828054828255906000526020600020908101928215613077579160200282015b8281111561307757825182559160200191906001019061305c565b5061181d9291506130a2565b5b8082111561181d5780546001600160a01b0319168155600101613084565b5b8082111561181d57600081556001016130a356fe537461626c65506169723a20446561646c696e65206e6f74206d657400000000537461626c65506169723a205f706f6f6c6564546f6b656e732e6c656e677468203c3d2031537461626c65506169723a20636f756c64206e6f7420696e6974206c70546f6b656e20636c6f6e65537461626c65506169723a205f706f6f6c6564546f6b656e732e6c656e677468203e203332537461626c65506169723a20546f6b656e20646563696d616c732065786365656473206d6178496e697469616c697a61626c653a20636f6e747261637420697320616c726561647920696e697469616c697a6564537461626c65506169723a205f61646d696e4665652065786365656473206d6178696d756d537461626c65506169723a20546865203020616464726573732069736e277420616e204552432d3230537461626c65506169723a205f706f6f6c6564546f6b656e7320646563696d616c73206d69736d61746368a2646970667358221220bc18f70d81ca5403e97425cda4bcf3db40779ff7aa69c7aff4ea45439a72c3ec64736f6c634300060c0033",
  "libraries": {
    "SwapUtils": "0xfCc3582b6C240b2F8552cC8bd664998Cd88E8DDc",
    "AmplificationUtils": "0x6502fc116Ba82B14E5cb2a3B39D5caE155D01D3D"
  },
  "devdoc": {
    "details": "Most of the logic is stored as a library `SwapUtils` for the sake of reducing contract's deployment size.",
    "events": {
      "AddLiquidity(address,uint256[],uint256[],uint256,uint256)": {
        "details": "Event emitted when liquidity is added to the pool.",
        "params": {
          "fees": "The fees paid for adding liquidity.",
          "invariant": "The invariant of the pool.",
          "lpTokenSupply": "The total supply of LP tokens.",
          "provider": "The address of the liquidity provider.",
          "tokenAmounts": "The amounts of tokens added."
        }
      },
      "NewAdminFee(uint256)": {
        "details": "Event emitted when the admin fee is updated.",
        "params": {
          "newAdminFee": "The new admin fee."
        }
      },
      "NewSwapFee(uint256)": {
        "details": "Event emitted when the swap fee is updated.",
        "params": {
          "newSwapFee": "The new swap fee."
        }
      },
      "NewWithdrawFee(uint256)": {
        "details": "Event emitted when the withdraw fee is updated.",
        "params": {
          "newWithdrawFee": "The new withdraw fee."
        }
      },
      "RampA(uint256,uint256,uint256,uint256)": {
        "details": "Event emitted when the amplification coefficient is ramped.",
        "params": {
          "futureTime": "The future time.",
          "initialTime": "The initial time.",
          "newA": "The new amplification coefficient.",
          "oldA": "The old amplification coefficient."
        }
      },
      "RemoveLiquidity(address,uint256[],uint256)": {
        "details": "Event emitted when liquidity is removed from the pool.",
        "params": {
          "lpTokenSupply": "The total supply of LP tokens.",
          "provider": "The address of the liquidity provider.",
          "tokenAmounts": "The amounts of tokens removed."
        }
      },
      "RemoveLiquidityImbalance(address,uint256[],uint256[],uint256,uint256)": {
        "details": "Event emitted when liquidity is removed from the pool in an imbalanced way.",
        "params": {
          "fees": "The fees paid for removing liquidity.",
          "invariant": "The invariant of the pool.",
          "lpTokenSupply": "The total supply of LP tokens.",
          "provider": "The address of the liquidity provider.",
          "tokenAmounts": "The amounts of tokens removed."
        }
      },
      "RemoveLiquidityOne(address,uint256,uint256,uint256,uint256)": {
        "details": "Event emitted when a single asset is removed from the pool.",
        "params": {
          "boughtId": "The ID of the bought token.",
          "lpTokenAmount": "The amount of LP tokens burned.",
          "lpTokenSupply": "The total supply of LP tokens.",
          "provider": "The address of the liquidity provider.",
          "tokensBought": "The amount of tokens bought."
        }
      },
      "StopRampA(uint256,uint256)": {
        "details": "Event emitted when the amplification coefficient ramp is stopped.",
        "params": {
          "currentA": "The current amplification coefficient.",
          "time": "The time."
        }
      },
      "SwapFee(address[],uint256[])": {
        "details": "Event emitted when the swap fees are updated.",
        "params": {
          "swapFees": "The new swap fees.",
          "tokens": "The tokens in the pool."
        }
      },
      "TokenSwap(address,uint256,uint256,uint128,uint128)": {
        "details": "Event emitted when a token swap occurs.",
        "params": {
          "boughtId": "The ID of the bought token.",
          "buyer": "The address of the buyer.",
          "soldId": "The ID of the sold token.",
          "tokensBought": "The amount of tokens bought.",
          "tokensSold": "The amount of tokens sold."
        }
      }
    },
    "kind": "dev",
    "methods": {
      "addLiquidity(address[],uint256[],uint256,address,uint256)": {
        "params": {
          "_amounts": "the amounts of each token to add, in their native precision,corresponding to param _tokens",
          "_deadline": "latest timestamp to accept this transaction",
          "_minToMint": "the minimum LP tokens adding this amount of liquidity should mint, otherwise revert. Handy for front-running mitigation",
          "_receiver": "recipient address",
          "_tokens": "token address list"
        },
        "returns": {
          "_0": "amount of LP token user minted and received"
        }
      },
      "calculateRemoveLiquidity(address[],uint256)": {
        "params": {
          "_amount": "the amount of LP tokens that would be burned on withdrawal",
          "_tokens": "token address list"
        },
        "returns": {
          "_0": "array of token balances that the user will receive"
        }
      },
      "calculateRemoveLiquidityOneToken(address,uint256)": {
        "params": {
          "_token": "address of tokens that will be withdrawn",
          "_tokenAmount": "the amount of LP token to burn"
        },
        "returns": {
          "_0": "calculated amount of underlying token available to withdraw"
        }
      },
      "calculateTokenAmount(address[],uint256[],bool)": {
        "details": "This shouldn't be used outside frontends for user estimates.",
        "params": {
          "_amounts": "an array of token amounts to deposit or withdrawal, corresponding to param _tokens. The amount should be in each pooled token's native precision. If a token charges a fee on transfers, use the amount that gets transferred after the fee.",
          "_deposit": "whether this is a deposit or a withdrawal",
          "_tokens": "an array of all token addresses for the pair,"
        },
        "returns": {
          "_0": "token amount the user will receive"
        }
      },
      "getA()": {
        "details": "See the StableSwap paper for details",
        "returns": {
          "_0": "A parameter"
        }
      },
      "getAPrecise()": {
        "details": "See the StableSwap paper for details",
        "returns": {
          "_0": "A parameter in its raw precision form"
        }
      },
      "getAdminBalance(uint256)": {
        "params": {
          "_index": "Index of the pooled token"
        },
        "returns": {
          "_0": "admin's token balance in the token's precision"
        }
      },
      "getAmountOut(address,address,uint256)": {
        "params": {
          "_dx": "the amount of tokens the user wants to sell. If the token charges a fee on transfers, use the amount that gets transferred after the fee.",
          "_tokenFrom": "the token address the user wants to sell",
          "_tokenTo": "the token address the user wants to buy"
        },
        "returns": {
          "_0": "amount of tokens the user will receive"
        }
      },
      "getToken(uint8)": {
        "params": {
          "_index": "the index of the token"
        },
        "returns": {
          "_0": "address of the token at given index"
        }
      },
      "getTokenBalance(uint8)": {
        "params": {
          "_index": "the index of the token"
        },
        "returns": {
          "_0": "current balance of the pooled token at given index with token's native precision"
        }
      },
      "getTokenBalances()": {
        "returns": {
          "_0": "current balances of the pooled tokens"
        }
      },
      "getTokenIndex(address)": {
        "params": {
          "_tokenAddress": "address of the token"
        },
        "returns": {
          "_0": "the index of the given token address"
        }
      },
      "getVirtualPrice()": {
        "returns": {
          "_0": "the virtual price, scaled to the POOL_PRECISION_DECIMALS"
        }
      },
      "initialize(address[],bytes)": {
        "details": "Initializes this StablePair contract with the given parameters.",
        "params": {
          "_data": "encoded parameters for the StablePair contract",
          "_tokens": "an array of ERC20s this pool will accept"
        }
      },
      "lpToken()": {
        "returns": {
          "_0": "lpToken addresse"
        }
      },
      "rampA(uint256,uint256)": {
        "params": {
          "_futureA": "the new A to ramp towards",
          "_futureTime": "timestamp when the new A should be reached"
        }
      },
      "removeLiquidity(uint256,address[],uint256[],address,uint256)": {
        "details": "Liquidity can always be removed, even when the pool is paused.",
        "params": {
          "_amount": "the amount of LP tokens to burn",
          "_deadline": "latest timestamp to accept this transaction",
          "_minAmounts": "the minimum amounts of each token in the pool        acceptable for this burn. Useful as a front-running mitigation",
          "_receiver": "recipient address",
          "_tokens": "token address list"
        },
        "returns": {
          "_0": "amounts of tokens user received"
        }
      },
      "removeLiquidityImbalance(address[],uint256[],uint256,address,uint256)": {
        "params": {
          "_amounts": "how much of each token to withdraw",
          "_deadline": "latest timestamp to accept this transaction",
          "_maxBurnAmount": "the max LP token provider is willing to pay to remove liquidity. Useful as a front-running mitigation.",
          "_receiver": "recipient address",
          "_tokens": "token address list"
        },
        "returns": {
          "_0": "amount of LP tokens burned"
        }
      },
      "removeLiquidityOneToken(uint256,address,uint256,address,uint256)": {
        "params": {
          "_deadline": "latest timestamp to accept this transaction",
          "_minAmount": "the minimum amount to withdraw, otherwise revert",
          "_receiver": "recipient address",
          "_token": "address of the token you want to receive",
          "_tokenAmount": "the amount of the token you want to receive"
        },
        "returns": {
          "_0": "amount of chosen token user received"
        }
      },
      "setAdminFeeRate(uint256)": {
        "params": {
          "_newAdminFee": "new admin fee to be applied on future transactions"
        }
      },
      "setSwapFee(uint256)": {
        "params": {
          "_newSwapFee": "new swap fee to be applied on future transactions"
        }
      },
      "swap(address,address,uint256,uint256,address,uint256)": {
        "params": {
          "_deadline": "latest timestamp to accept this transaction",
          "_dx": "the amount of tokens the user wants to swap from",
          "_minDy": "the min amount the user would like to receive, or revert.",
          "_receiver": "recipient address",
          "_tokenFrom": "the token address the user wants to sell",
          "_tokenTo": "the token address the user wants to buy"
        }
      },
      "tokens()": {
        "returns": {
          "_tokens": "all token addresses"
        }
      }
    },
    "title": "Swap - A StableSwap implementation in solidity.",
    "version": 1
  },
  "userdoc": {
    "kind": "user",
    "methods": {
      "addLiquidity(address[],uint256[],uint256,address,uint256)": {
        "notice": "Add liquidity to the pool with the given amounts of tokens"
      },
      "calculateRemoveLiquidity(address[],uint256)": {
        "notice": "A simple method to calculate amount of each underlying tokens that is returned upon burning given amount of LP tokens"
      },
      "calculateRemoveLiquidityOneToken(address,uint256)": {
        "notice": "Calculate the amount of underlying token available to withdraw when withdrawing via only single token"
      },
      "calculateTokenAmount(address[],uint256[],bool)": {
        "notice": "A simple method to calculate prices from deposits or withdrawals, excluding fees but including slippage. This is helpful as an input into the various \"min\" parameters on calls to fight front-running"
      },
      "claimFees()": {
        "notice": "Withdraw all admin fees to the contract factory manager"
      },
      "getA()": {
        "notice": "Return A, the amplification coefficient * n * (n - 1)"
      },
      "getAPrecise()": {
        "notice": "Return A in its raw precision form"
      },
      "getAdminBalance(uint256)": {
        "notice": "This function reads the accumulated amount of admin fees of the token with given index"
      },
      "getAmountOut(address,address,uint256)": {
        "notice": "Calculate amount of tokens you receive on swap"
      },
      "getToken(uint8)": {
        "notice": "Return address of the pooled token at given index. Reverts if _tokenIndex is out of range."
      },
      "getTokenBalance(uint8)": {
        "notice": "Return current balance of the pooled token at given index"
      },
      "getTokenBalances()": {
        "notice": "Return current balances of the pooled tokens"
      },
      "getTokenIndex(address)": {
        "notice": "Return the index of the given token address. Reverts if no matching token is found."
      },
      "getVirtualPrice()": {
        "notice": "Get the virtual price, to help calculate profit"
      },
      "lpToken()": {
        "notice": "Query lpToken addresse."
      },
      "rampA(uint256,uint256)": {
        "notice": "Start ramping up or down A parameter towards given futureA and futureTime Checks if the change is too rapid, and commits the new A value only when it falls under the limit range."
      },
      "removeLiquidity(uint256,address[],uint256[],address,uint256)": {
        "notice": "Burn LP tokens to remove liquidity from the pool. Withdraw fee that decays linearly over period of 4 weeks since last deposit will apply."
      },
      "removeLiquidityImbalance(address[],uint256[],uint256,address,uint256)": {
        "notice": "Remove liquidity from the pool, weighted differently than the pool's current balances. Withdraw fee that decays linearly over period of 4 weeks since last deposit will apply."
      },
      "removeLiquidityOneToken(uint256,address,uint256,address,uint256)": {
        "notice": "Remove liquidity from the pool all in one token. Withdraw fee that decays linearly over period of 4 weeks since last deposit will apply."
      },
      "setAdminFeeRate(uint256)": {
        "notice": "Update the admin fee. Admin fee takes portion of the swap fee."
      },
      "setSwapFee(uint256)": {
        "notice": "Update the swap fee to be applied on swaps"
      },
      "stopRampA()": {
        "notice": "Stop ramping A immediately. Reverts if ramp A is already stopped."
      },
      "swap(address,address,uint256,uint256,address,uint256)": {
        "notice": "Calculate amount of tokens you receive on swap"
      },
      "tokens()": {
        "notice": "Query all token addresses in pair."
      }
    },
    "notice": "This contract is responsible for custody of closely pegged assets (eg. group of stablecoins) and automatic market making system. Users become an LP (Liquidity Provider) by depositing their tokens in desired ratios for an exchange of the pool token that represents their share of the pool. Users can burn pool tokens and withdraw their share of token(s). Each time a swap between the pooled tokens happens, a set fee incurs which effectively gets distributed to the LPs. In case of emergencies, admin can pause additional deposits, swaps, or single-asset withdraws - which stops the ratio of the tokens in the pool from changing. Users can always withdraw their tokens via multi-asset withdraws.",
    "version": 1
  },
  "storageLayout": {
    "storage": [
      {
        "astId": 492,
        "contract": "contracts/StablePair.sol:StablePair",
        "label": "_initialized",
        "offset": 0,
        "slot": "0",
        "type": "t_bool"
      },
      {
        "astId": 495,
        "contract": "contracts/StablePair.sol:StablePair",
        "label": "_initializing",
        "offset": 1,
        "slot": "0",
        "type": "t_bool"
      },
      {
        "astId": 7585,
        "contract": "contracts/StablePair.sol:StablePair",
        "label": "factory",
        "offset": 2,
        "slot": "0",
        "type": "t_address"
      },
      {
        "astId": 7587,
        "contract": "contracts/StablePair.sol:StablePair",
        "label": "unlocked_",
        "offset": 0,
        "slot": "1",
        "type": "t_uint256"
      },
      {
        "astId": 7589,
        "contract": "contracts/StablePair.sol:StablePair",
        "label": "swapStorage",
        "offset": 0,
        "slot": "2",
        "type": "t_struct(Swap)16945_storage"
      },
      {
        "astId": 7593,
        "contract": "contracts/StablePair.sol:StablePair",
        "label": "tokenIndexes_",
        "offset": 0,
        "slot": "12",
        "type": "t_mapping(t_address,t_uint8)"
      }
    ],
    "types": {
      "t_address": {
        "encoding": "inplace",
        "label": "address",
        "numberOfBytes": "20"
      },
      "t_array(t_contract(IERC20)2822)dyn_storage": {
        "base": "t_contract(IERC20)2822",
        "encoding": "dynamic_array",
        "label": "contract IERC20[]",
        "numberOfBytes": "32"
      },
      "t_array(t_uint256)dyn_storage": {
        "base": "t_uint256",
        "encoding": "dynamic_array",
        "label": "uint256[]",
        "numberOfBytes": "32"
      },
      "t_bool": {
        "encoding": "inplace",
        "label": "bool",
        "numberOfBytes": "1"
      },
      "t_contract(IERC20)2822": {
        "encoding": "inplace",
        "label": "contract IERC20",
        "numberOfBytes": "20"
      },
      "t_contract(LPToken)16700": {
        "encoding": "inplace",
        "label": "contract LPToken",
        "numberOfBytes": "20"
      },
      "t_mapping(t_address,t_uint8)": {
        "encoding": "mapping",
        "key": "t_address",
        "label": "mapping(address => uint8)",
        "numberOfBytes": "32",
        "value": "t_uint8"
      },
      "t_struct(Swap)16945_storage": {
        "encoding": "inplace",
        "label": "struct SwapUtils.Swap",
        "members": [
          {
            "astId": 16923,
            "contract": "contracts/StablePair.sol:StablePair",
            "label": "initialA",
            "offset": 0,
            "slot": "0",
            "type": "t_uint256"
          },
          {
            "astId": 16925,
            "contract": "contracts/StablePair.sol:StablePair",
            "label": "futureA",
            "offset": 0,
            "slot": "1",
            "type": "t_uint256"
          },
          {
            "astId": 16927,
            "contract": "contracts/StablePair.sol:StablePair",
            "label": "initialATime",
            "offset": 0,
            "slot": "2",
            "type": "t_uint256"
          },
          {
            "astId": 16929,
            "contract": "contracts/StablePair.sol:StablePair",
            "label": "futureATime",
            "offset": 0,
            "slot": "3",
            "type": "t_uint256"
          },
          {
            "astId": 16931,
            "contract": "contracts/StablePair.sol:StablePair",
            "label": "swapFee",
            "offset": 0,
            "slot": "4",
            "type": "t_uint256"
          },
          {
            "astId": 16933,
            "contract": "contracts/StablePair.sol:StablePair",
            "label": "adminFee",
            "offset": 0,
            "slot": "5",
            "type": "t_uint256"
          },
          {
            "astId": 16935,
            "contract": "contracts/StablePair.sol:StablePair",
            "label": "lpToken",
            "offset": 0,
            "slot": "6",
            "type": "t_contract(LPToken)16700"
          },
          {
            "astId": 16938,
            "contract": "contracts/StablePair.sol:StablePair",
            "label": "pooledTokens",
            "offset": 0,
            "slot": "7",
            "type": "t_array(t_contract(IERC20)2822)dyn_storage"
          },
          {
            "astId": 16941,
            "contract": "contracts/StablePair.sol:StablePair",
            "label": "tokenPrecisionMultipliers",
            "offset": 0,
            "slot": "8",
            "type": "t_array(t_uint256)dyn_storage"
          },
          {
            "astId": 16944,
            "contract": "contracts/StablePair.sol:StablePair",
            "label": "balances",
            "offset": 0,
            "slot": "9",
            "type": "t_array(t_uint256)dyn_storage"
          }
        ],
        "numberOfBytes": "320"
      },
      "t_uint256": {
        "encoding": "inplace",
        "label": "uint256",
        "numberOfBytes": "32"
      },
      "t_uint8": {
        "encoding": "inplace",
        "label": "uint8",
        "numberOfBytes": "1"
      }
    }
  }
}