{
  "address": "0x83E3485f6492c890795D5aFEcD8D473f30ec8e0C",
  "abi": [
    {
      "anonymous": false,
      "inputs": [
        {
          "indexed": true,
          "internalType": "address",
          "name": "provider",
          "type": "address"
        },
        {
          "indexed": false,
          "internalType": "uint256[]",
          "name": "tokenAmounts",
          "type": "uint256[]"
        },
        {
          "indexed": false,
          "internalType": "uint256[]",
          "name": "fees",
          "type": "uint256[]"
        },
        {
          "indexed": false,
          "internalType": "uint256",
          "name": "invariant",
          "type": "uint256"
        },
        {
          "indexed": false,
          "internalType": "uint256",
          "name": "lpTokenSupply",
          "type": "uint256"
        }
      ],
      "name": "AddLiquidity",
      "type": "event"
    },
    {
      "anonymous": false,
      "inputs": [
        {
          "indexed": false,
          "internalType": "uint256",
          "name": "newAdminFee",
          "type": "uint256"
        }
      ],
      "name": "NewAdminFee",
      "type": "event"
    },
    {
      "anonymous": false,
      "inputs": [
        {
          "indexed": false,
          "internalType": "uint256",
          "name": "newSwapFee",
          "type": "uint256"
        }
      ],
      "name": "NewSwapFee",
      "type": "event"
    },
    {
      "anonymous": false,
      "inputs": [
        {
          "indexed": true,
          "internalType": "address",
          "name": "provider",
          "type": "address"
        },
        {
          "indexed": false,
          "internalType": "uint256[]",
          "name": "tokenAmounts",
          "type": "uint256[]"
        },
        {
          "indexed": false,
          "internalType": "uint256",
          "name": "lpTokenSupply",
          "type": "uint256"
        }
      ],
      "name": "RemoveLiquidity",
      "type": "event"
    },
    {
      "anonymous": false,
      "inputs": [
        {
          "indexed": true,
          "internalType": "address",
          "name": "provider",
          "type": "address"
        },
        {
          "indexed": false,
          "internalType": "uint256[]",
          "name": "tokenAmounts",
          "type": "uint256[]"
        },
        {
          "indexed": false,
          "internalType": "uint256[]",
          "name": "fees",
          "type": "uint256[]"
        },
        {
          "indexed": false,
          "internalType": "uint256",
          "name": "invariant",
          "type": "uint256"
        },
        {
          "indexed": false,
          "internalType": "uint256",
          "name": "lpTokenSupply",
          "type": "uint256"
        }
      ],
      "name": "RemoveLiquidityImbalance",
      "type": "event"
    },
    {
      "anonymous": false,
      "inputs": [
        {
          "indexed": true,
          "internalType": "address",
          "name": "provider",
          "type": "address"
        },
        {
          "indexed": false,
          "internalType": "uint256",
          "name": "lpTokenAmount",
          "type": "uint256"
        },
        {
          "indexed": false,
          "internalType": "uint256",
          "name": "lpTokenSupply",
          "type": "uint256"
        },
        {
          "indexed": false,
          "internalType": "uint256",
          "name": "boughtId",
          "type": "uint256"
        },
        {
          "indexed": false,
          "internalType": "uint256",
          "name": "tokensBought",
          "type": "uint256"
        }
      ],
      "name": "RemoveLiquidityOne",
      "type": "event"
    },
    {
      "anonymous": false,
      "inputs": [
        {
          "indexed": false,
          "internalType": "address[]",
          "name": "tokens",
          "type": "address[]"
        },
        {
          "indexed": false,
          "internalType": "uint256[]",
          "name": "swapFees",
          "type": "uint256[]"
        }
      ],
      "name": "SwapFee",
      "type": "event"
    },
    {
      "anonymous": false,
      "inputs": [
        {
          "indexed": true,
          "internalType": "address",
          "name": "buyer",
          "type": "address"
        },
        {
          "indexed": false,
          "internalType": "uint256",
          "name": "tokensSold",
          "type": "uint256"
        },
        {
          "indexed": false,
          "internalType": "uint256",
          "name": "tokensBought",
          "type": "uint256"
        },
        {
          "indexed": false,
          "internalType": "uint128",
          "name": "soldId",
          "type": "uint128"
        },
        {
          "indexed": false,
          "internalType": "uint128",
          "name": "boughtId",
          "type": "uint128"
        }
      ],
      "name": "TokenSwap",
      "type": "event"
    },
    {
      "inputs": [],
      "name": "MAX_ADMIN_FEE",
      "outputs": [
        {
          "internalType": "uint256",
          "name": "",
          "type": "uint256"
        }
      ],
      "stateMutability": "view",
      "type": "function"
    },
    {
      "inputs": [],
      "name": "MAX_SWAP_FEE",
      "outputs": [
        {
          "internalType": "uint256",
          "name": "",
          "type": "uint256"
        }
      ],
      "stateMutability": "view",
      "type": "function"
    },
    {
      "inputs": [],
      "name": "POOL_PRECISION_DECIMALS",
      "outputs": [
        {
          "internalType": "uint8",
          "name": "",
          "type": "uint8"
        }
      ],
      "stateMutability": "view",
      "type": "function"
    }
  ],
  "transactionHash": "0xd7c54b2d33af8b827863c03be7a5243e5a37834392a229c0de3aeffffdc0cc34",
  "args": [],
  "numDeployments": 1,
  "solcInputHash": "24ad0da1a7e8d4a12bd9e29887f6536c",
  "bytecode": "0x61473d610026600b82828239805160001a60731461001957fe5b30600052607381538281f3fe73000000000000000000000000000000000000000030146080604052600436106101155760003560e01c80637d048160116100ac578063b3bcd4c91161007b578063b3bcd4c9146104a0578063e069274214610531578063f28f48501461055d578063f3562553146105ab578063f3de03621461060457610115565b80637d0481601461036e578063834b491014610391578063ab3d854414610408578063abbce0831461041057610115565b80634b23603c116100e85780634b23603c146102c857806370467276146102fe57806370703e4a1461032e57806371906c2c1461035157610115565b80630296ab501461011a578063241609961461013857806324c5c7511461020d578063467e186c14610296575b600080fd5b61012261060c565b6040805160ff9092168252519081900360200190f35b81801561014457600080fd5b506101fb6004803603608081101561015b57600080fd5b81359190810190604081016020820135600160201b81111561017c57600080fd5b82018360208201111561018e57600080fd5b803590602001918460208302840111600160201b831117156101af57600080fd5b91908080602002602001604051908101604052809392919081815260200183836020028082843760009201919091525092955050823593505050602001356001600160a01b0316610611565b60408051918252519081900360200190f35b81801561021957600080fd5b506102466004803603604081101561023057600080fd5b50803590602001356001600160a01b0316611189565b60408051602080825283518183015283519192839290830191858101910280838360005b8381101561028257818101518382015260200161026a565b505050509050019250505060405180910390f35b8180156102a257600080fd5b506102c6600480360360408110156102b957600080fd5b508035906020013561130b565b005b6101fb600480360360808110156102de57600080fd5b5080359060ff602082013581169160408101359091169060600135611394565b81801561030a57600080fd5b506102c66004803603604081101561032157600080fd5b50803590602001356113ff565b6102466004803603604081101561034457600080fd5b5080359060200135611489565b6101fb6004803603602081101561036757600080fd5b503561156a565b6101fb6004803603604081101561038457600080fd5b5080359060200135611641565b6101fb600480360360608110156103a757600080fd5b81359190810190604081016020820135600160201b8111156103c857600080fd5b8201836020820111156103da57600080fd5b803590602001918460208302840111600160201b831117156103fb57600080fd5b9193509150351515611712565b6101fb611978565b81801561041c57600080fd5b506102466004803603608081101561043357600080fd5b813591602081013591810190606081016040820135600160201b81111561045957600080fd5b82018360208201111561046b57600080fd5b803590602001918460208302840111600160201b8311171561048c57600080fd5b9193509150356001600160a01b0316611980565b8180156104ac57600080fd5b506101fb600480360360808110156104c357600080fd5b81359190810190604081016020820135600160201b8111156104e457600080fd5b8201836020820111156104f657600080fd5b803590602001918460208302840111600160201b8311171561051757600080fd5b9193509150803590602001356001600160a01b0316611ded565b6101fb6004803603606081101561054757600080fd5b508035906020810135906040013560ff166127b6565b81801561056957600080fd5b506101fb600480360360a081101561058057600080fd5b50803590602081013590604081013560ff1690606081013590608001356001600160a01b0316612840565b8180156105b757600080fd5b506101fb600480360360c08110156105ce57600080fd5b50803590602081013560ff9081169160408101359091169060608101359060808101359060a001356001600160a01b0316612d3c565b6101fb61328f565b601281565b600060608560070180548060200260200160405190810160405280929190818152602001828054801561066d57602002820191906000526020600020905b81546001600160a01b0316815260019091019060200180831161064f575b5050505050905080518551146106ca576040805162461bcd60e51b815260206004820181905260248201527f416d6f756e7473206d757374206d6174636820706f6f6c656420746f6b656e73604482015290519081900360640190fd5b6106d261454e565b6040518061010001604052806000815260200160008152602001600081526020016106fc89613298565b81526020018860060160009054906101000a90046001600160a01b03166001600160a01b03168152602001600081526020018860090180548060200260200160405190810160405280929190818152602001828054801561077c57602002820191906000526020600020905b815481526020019060010190808311610768575b50505050508152602001886008018054806020026020016040519081016040528092919081815260200182805480156107d457602002820191906000526020600020905b8154815260200190600101908083116107c0575b5050505050815250905080608001516001600160a01b03166318160ddd6040518163ffffffff1660e01b815260040160206040518083038186803b15801561081b57600080fd5b505afa15801561082f573d6000803e3d6000fd5b505050506040513d602081101561084557600080fd5b505160a0820181905215610875576108726108688260c001518360e001516132a3565b8260600151613391565b81525b6060825167ffffffffffffffff8111801561088f57600080fd5b506040519080825280602002602001820160405280156108b9578160200160208202803683370190505b50905060005b8351811015610b415760a08301511515806108ed575060008882815181106108e357fe5b6020026020010151115b61093e576040805162461bcd60e51b815260206004820152601e60248201527f4d75737420737570706c7920616c6c20746f6b656e7320696e20706f6f6c0000604482015290519081900360640190fd5b87818151811061094a57fe5b6020026020010151600014610ae557600084828151811061096757fe5b60200260200101516001600160a01b03166370a08231306040518263ffffffff1660e01b815260040180826001600160a01b0316815260200191505060206040518083038186803b1580156109bb57600080fd5b505afa1580156109cf573d6000803e3d6000fd5b505050506040513d60208110156109e557600080fd5b50518951909150610a3590339030908c9086908110610a0057fe5b6020026020010151888681518110610a1457fe5b60200260200101516001600160a01b03166134f3909392919063ffffffff16565b610acb81868481518110610a4557fe5b60200260200101516001600160a01b03166370a08231306040518263ffffffff1660e01b815260040180826001600160a01b0316815260200191505060206040518083038186803b158015610a9957600080fd5b505afa158015610aad573d6000803e3d6000fd5b505050506040513d6020811015610ac357600080fd5b505190613553565b898381518110610ad757fe5b602002602001018181525050505b610b22888281518110610af457fe5b60200260200101518460c001518381518110610b0c57fe5b60200260200101516135b090919063ffffffff16565b828281518110610b2e57fe5b60209081029190910101526001016108bf565b50610b5d610b53828460e001516132a3565b8360600151613391565b60208301819052825110610bac576040805162461bcd60e51b8152602060048201526011602482015270442073686f756c6420696e63726561736560781b604482015290519081900360640190fd5b60208201516040830152825160609067ffffffffffffffff81118015610bd157600080fd5b50604051908082528060200260200182016040528015610bfb578160200160208202803683370190505b5090508260a00151600014610f6a576000610c1b8a60040154865161360a565b9050610c2561459c565b825167ffffffffffffffff81118015610c3d57600080fd5b50604051908082528060200260200182016040528015610c67578160200160208202803683370190505b506040820152825167ffffffffffffffff81118015610c8557600080fd5b50604051908082528060200260200182016040528015610caf578160200160208202803683370190505b50606082015260058b0154815260005b8651811015610e90576000610d068760000151610d008960c001518581518110610ce557fe5b60200260200101518a6020015161362590919063ffffffff16565b9061367e565b9050610d416402540be400610d00610d3a898681518110610d2357fe5b6020026020010151856136e590919063ffffffff16565b8790613625565b858381518110610d4d57fe5b602002602001018181525050610d8c6402540be400610d008560000151888681518110610d7657fe5b602002602001015161362590919063ffffffff16565b602084018190528651610dbc9190889085908110610da657fe5b602002602001015161355390919063ffffffff16565b8d6009018381548110610dcb57fe5b9060005260206000200181905550610dfc858381518110610de857fe5b6020026020010151878481518110610da657fe5b868381518110610e0857fe5b602002602001018181525050878281518110610e2057fe5b602002602001015183604001518381518110610e3857fe5b60200260200101906001600160a01b031690816001600160a01b031681525050610e6c8360200151868481518110610da657fe5b83606001518381518110610e7c57fe5b602090810291909101015250600101610cbf565b5060008051602061465483398151915281604001518260600151604051808060200180602001838103835285818151815260200191508051906020019060200280838360005b83811015610eee578181015183820152602001610ed6565b50505050905001838103825284818151815260200191508051906020019060200280838360005b83811015610f2d578181015183820152602001610f15565b5050505090500194505050505060405180910390a1610f5d610f53858760e001516132a3565b8660600151613391565b604086015250610f819050565b8151610f7f9060098b019060208501906145c4565b505b60008360a0015160001415610f9b57506020830151610fc3565b835160a08501516040860151610fc09291610d0091610fba9084613553565b90613625565b90505b87811015611018576040805162461bcd60e51b815260206004820152601b60248201527f436f756c646e2774206d696e74206d696e207265717565737465640000000000604482015290519081900360640190fd5b83608001516001600160a01b03166340c10f1988836040518363ffffffff1660e01b815260040180836001600160a01b0316815260200182815260200192505050600060405180830381600087803b15801561107357600080fd5b505af1158015611087573d6000803e3d6000fd5b50505050866001600160a01b03167f189c623b666b1b45b83d7178f39b8c087cb09774317ca2f53c2d3c3726f222a28a8487602001516110d4868a60a001516135b090919063ffffffff16565b604051808060200180602001858152602001848152602001838103835287818151815260200191508051906020019060200280838360005b8381101561112457818101518382015260200161110c565b50505050905001838103825286818151815260200191508051906020019060200280838360005b8381101561116357818101518382015260200161114b565b50505050905001965050505050505060405180910390a29450505050505b949350505050565b606080836007018054806020026020016040519081016040528092919081815260200182805480156111e457602002820191906000526020600020905b81546001600160a01b031681526001909101906020018083116111c6575b505050505090506060815167ffffffffffffffff8111801561120557600080fd5b5060405190808252806020026020018201604052801561122f578160200160208202803683370190505b50905060005b825181101561130057600083828151811061124c57fe5b6020026020010151905060006112c288600901848154811061126a57fe5b9060005260206000200154836001600160a01b03166370a08231306040518263ffffffff1660e01b815260040180826001600160a01b0316815260200191505060206040518083038186803b158015610a9957600080fd5b9050808484815181106112d157fe5b602090810291909101015280156112f6576112f66001600160a01b03831688836136fd565b5050600101611235565b509150505b92915050565b6305f5e100811115611356576040805162461bcd60e51b815260206004820152600f60248201526e08ccaca40d2e640e8dede40d0d2ced608b1b604482015290519081900360640190fd5b600482018190556040805182815290517fd88ea5155021c6f8dafa1a741e173f595cdf77ce7c17d43342131d7f06afdfe59181900360200190a15050565b60006113f585858585896009018054806020026020016040519081016040528092919081815260200182805480156113eb57602002820191906000526020600020905b8154815260200190600101908083116113d7575b5050505050613754565b5095945050505050565b6402540be40081111561144b576040805162461bcd60e51b815260206004820152600f60248201526e08ccaca40d2e640e8dede40d0d2ced608b1b604482015290519081900360640190fd5b600582018190556040805182815290517fab599d640ca80cde2b09b128a4154a8dfe608cb80f4c9399c8b954b01fd35f389181900360200190a15050565b6060611563836009018054806020026020016040519081016040528092919081815260200182805480156114dc57602002820191906000526020600020905b8154815260200190600101908083116114c8575b5050505050838560060160009054906101000a90046001600160a01b03166001600160a01b03166318160ddd6040518163ffffffff1660e01b815260040160206040518083038186803b15801561153257600080fd5b505afa158015611546573d6000803e3d6000fd5b505050506040513d602081101561155c57600080fd5b50516138f7565b9392505050565b600080611587611579846139dd565b61158285613298565b613391565b905060008360060160009054906101000a90046001600160a01b031690506000816001600160a01b03166318160ddd6040518163ffffffff1660e01b815260040160206040518083038186803b1580156115e057600080fd5b505afa1580156115f4573d6000803e3d6000fd5b505050506040513d602081101561160a57600080fd5b5051905080156116345761162a81610d0085670de0b6b3a7640000613625565b935050505061163c565b600093505050505b919050565b60078201546000908210611697576040805162461bcd60e51b8152602060048201526018602482015277546f6b656e20696e646578206f7574206f662072616e676560401b604482015290519081900360640190fd5b6115638360090183815481106116a957fe5b90600052602060002001548460070184815481106116c357fe5b60009182526020918290200154604080516370a0823160e01b815230600482015290516001600160a01b03909216926370a0823192602480840193829003018186803b158015610a9957600080fd5b60008061171e86613298565b905060608660090180548060200260200160405190810160405280929190818152602001828054801561177057602002820191906000526020600020905b81548152602001906001019080831161175c575b505050505090506060876008018054806020026020016040519081016040528092919081815260200182805480156117c757602002820191906000526020600020905b8154815260200190600101908083116117b3575b5050505050905060006117e36117dd84846132a3565b85613391565b905060005b83518110156118a95786156118365761181989898381811061180657fe5b90506020020135858381518110610b0c57fe5b84828151811061182557fe5b6020026020010181815250506118a1565b61188889898381811061184557fe5b905060200201356040518060600160405280602381526020016146e56023913986848151811061187157fe5b6020026020010151613a8d9092919063ffffffff16565b84828151811061189457fe5b6020026020010181815250505b6001016117e8565b5060006118bf6118b985856132a3565b86613391565b905060008a60060160009054906101000a90046001600160a01b03166001600160a01b03166318160ddd6040518163ffffffff1660e01b815260040160206040518083038186803b15801561191357600080fd5b505afa158015611927573d6000803e3d6000fd5b505050506040513d602081101561193d57600080fd5b5051905087156119665761195983610d0083610fba8684613553565b9650505050505050611181565b61195983610d0083610fba8387613553565b6305f5e10081565b6006850154600786018054604080516020808402820181019092528281526060946001600160a01b031693859391929091908301828280156119eb57602002820191906000526020600020905b81546001600160a01b031681526001909101906020018083116119cd575b50505050509050816001600160a01b03166370a08231336040518263ffffffff1660e01b815260040180826001600160a01b0316815260200191505060206040518083038186803b158015611a3f57600080fd5b505afa158015611a53573d6000803e3d6000fd5b505050506040513d6020811015611a6957600080fd5b5051871115611aaf576040805162461bcd60e51b815260206004820152600d60248201526c1f2628173130b630b731b2a7b360991b604482015290519081900360640190fd5b80518514611b04576040805162461bcd60e51b815260206004820181905260248201527f6d696e416d6f756e7473206d757374206d6174636820706f6f6c546f6b656e73604482015290519081900360640190fd5b606088600901805480602002602001604051908101604052809291908181526020018280548015611b5457602002820191906000526020600020905b815481526020019060010190808311611b40575b505050505090506000836001600160a01b03166318160ddd6040518163ffffffff1660e01b815260040160206040518083038186803b158015611b9657600080fd5b505afa158015611baa573d6000803e3d6000fd5b505050506040513d6020811015611bc057600080fd5b505190506060611bd1838b846138f7565b905060005b8151811015611ce557898982818110611beb57fe5b90506020020135828281518110611bfe57fe5b60200260200101511015611c59576040805162461bcd60e51b815260206004820152601a60248201527f616d6f756e74735b695d203c206d696e416d6f756e74735b695d000000000000604482015290519081900360640190fd5b611c7c828281518110611c6857fe5b6020026020010151858381518110610da657fe5b8c6009018281548110611c8b57fe5b9060005260206000200181905550611cdd88838381518110611ca957fe5b6020026020010151878481518110611cbd57fe5b60200260200101516001600160a01b03166136fd9092919063ffffffff16565b600101611bd6565b506040805163079cc67960e41b8152336004820152602481018c905290516001600160a01b038716916379cc679091604480830192600092919082900301818387803b158015611d3457600080fd5b505af1158015611d48573d6000803e3d6000fd5b5050506001600160a01b03881690507f88d38ed598fdd809c2bf01ee49cd24b7fdabf379a83d29567952b60324d58cef82611d83858e613553565b6040518080602001838152602001828103825284818151815260200191508051906020019060200280838360005b83811015611dc9578181015183820152602001611db1565b50505050905001935050505060405180910390a29450505050505b95945050505050565b6000611df761454e565b604051806101000160405280600081526020016000815260200160008152602001611e2189613298565b81526020018860060160009054906101000a90046001600160a01b03166001600160a01b031681526020016000815260200188600901805480602002602001604051908101604052809291908181526020018280548015611ea157602002820191906000526020600020905b815481526020019060010190808311611e8d575b5050505050815260200188600801805480602002602001604051908101604052809291908181526020018280548015611ef957602002820191906000526020600020905b815481526020019060010190808311611ee5575b5050505050815250905080608001516001600160a01b03166318160ddd6040518163ffffffff1660e01b815260040160206040518083038186803b158015611f4057600080fd5b505afa158015611f54573d6000803e3d6000fd5b505050506040513d6020811015611f6a57600080fd5b505160a08201526007870180546040805160208381028201810190925282815260609390929091830182828015611fca57602002820191906000526020600020905b81546001600160a01b03168152600190910190602001808311611fac575b5050505050905080518787905014612029576040805162461bcd60e51b815260206004820181905260248201527f416d6f756e74732073686f756c64206d6174636820706f6f6c20746f6b656e73604482015290519081900360640190fd5b81608001516001600160a01b03166370a08231336040518263ffffffff1660e01b815260040180826001600160a01b0316815260200191505060206040518083038186803b15801561207a57600080fd5b505afa15801561208e573d6000803e3d6000fd5b505050506040513d60208110156120a457600080fd5b505185118015906120b457508415155b6120f5576040805162461bcd60e51b815260206004820152600d60248201526c1f2628173130b630b731b2a7b360991b604482015290519081900360640190fd5b60006121068960040154835161360a565b90506060825167ffffffffffffffff8111801561212257600080fd5b5060405190808252806020026020018201604052801561214c578160200160208202803683370190505b5090506060835167ffffffffffffffff8111801561216957600080fd5b50604051908082528060200260200182016040528015612193578160200160208202803683370190505b5090506121ab610f538660c001518760e001516132a3565b855260005b8451811015612217576121f88b8b838181106121c857fe5b905060200201356040518060600160405280602381526020016146e5602391398860c00151848151811061187157fe5b82828151811061220457fe5b60209081029190910101526001016121b0565b50612229610f53828760e001516132a3565b602086015261223661459c565b825167ffffffffffffffff8111801561224e57600080fd5b50604051908082528060200260200182016040528015612278578160200160208202803683370190505b506040820152825167ffffffffffffffff8111801561229657600080fd5b506040519080825280602002602001820160405280156122c0578160200160208202803683370190505b50606082015260058c0154815260005b85518110156124745760006123118860000151610d008a60c0015185815181106122f657fe5b60200260200101518b6020015161362590919063ffffffff16565b9050600061233b85848151811061232457fe5b6020026020010151836136e590919063ffffffff16565b90506123506402540be400610d008984613625565b86848151811061235c57fe5b6020026020010181815250506123856402540be400610d008660000151898781518110610d7657fe5b60208501819052855161239f9190879086908110610da657fe5b8f60090184815481106123ae57fe5b90600052602060002001819055506123df8684815181106123cb57fe5b6020026020010151868581518110610da657fe5b8584815181106123eb57fe5b60200260200101818152505087838151811061240357fe5b60200260200101518460400151848151811061241b57fe5b60200260200101906001600160a01b031690816001600160a01b03168152505061244f8460200151878581518110610da657fe5b8460600151848151811061245f57fe5b602090810291909101015250506001016122d0565b5060008051602061465483398151915281604001518260600151604051808060200180602001838103835285818151815260200191508051906020019060200280838360005b838110156124d25781810151838201526020016124ba565b50505050905001838103825284818151815260200191508051906020019060200280838360005b838110156125115781810151838201526020016124f9565b5050505090500194505050505060405180910390a1612541612537838860e001516132a3565b8760600151613391565b60408701819052865160a08801516000945061256a93509091610d009190610fba908490613553565b9050806125be576040805162461bcd60e51b815260206004820152601b60248201527f4275726e7420616d6f756e742063616e6e6f74206265207a65726f0000000000604482015290519081900360640190fd5b6125c98160016135b0565b905087811115612620576040805162461bcd60e51b815260206004820152601b60248201527f746f6b656e416d6f756e74203e206d61784275726e416d6f756e740000000000604482015290519081900360640190fd5b84608001516001600160a01b03166379cc679033836040518363ffffffff1660e01b815260040180836001600160a01b0316815260200182815260200192505050600060405180830381600087803b15801561267b57600080fd5b505af115801561268f573d6000803e3d6000fd5b5050505060005b84518110156126ca576126c2888c8c848181106126af57fe5b90506020020135878481518110611cbd57fe5b600101612696565b50866001600160a01b03167f3631c28b1f9dd213e0319fb167b554d76b6c283a41143eb400a0d1adb1af17558b8b858960200151612715878c60a0015161355390919063ffffffff16565b60405180806020018060200185815260200184815260200183810383528888828181526020019250602002808284376000838201819052601f909101601f19169092018581038452885181528851602091820193828b0193509102908190849084905b83811015612790578181015183820152602001612778565b5050505090500197505050505050505060405180910390a29a9950505050505050505050565b6000806113f58585858860060160009054906101000a90046001600160a01b03166001600160a01b03166318160ddd6040518163ffffffff1660e01b815260040160206040518083038186803b15801561280f57600080fd5b505afa158015612823573d6000803e3d6000fd5b505050506040513d602081101561283957600080fd5b5051613b24565b6006850154600786018054604080516020808402820181019092528281526000946001600160a01b03169360609391929091908301828280156128ac57602002820191906000526020600020905b81546001600160a01b0316815260019091019060200180831161288e575b50505050509050816001600160a01b03166370a08231336040518263ffffffff1660e01b815260040180826001600160a01b0316815260200191505060206040518083038186803b15801561290057600080fd5b505afa158015612914573d6000803e3d6000fd5b505050506040513d602081101561292a57600080fd5b5051871115612970576040805162461bcd60e51b815260206004820152600d60248201526c1f2628173130b630b731b2a7b360991b604482015290519081900360640190fd5b80518660ff16106129ba576040805162461bcd60e51b815260206004820152600f60248201526e151bdad95b881b9bdd08199bdd5b99608a1b604482015290519081900360640190fd5b6000826001600160a01b03166318160ddd6040518163ffffffff1660e01b815260040160206040518083038186803b1580156129f557600080fd5b505afa158015612a09573d6000803e3d6000fd5b505050506040513d6020811015612a1f57600080fd5b50519050600080612a328b8b8b86613b24565b9150915087821015612a7c576040805162461bcd60e51b815260206004820152600e60248201526d191e480f081b5a5b905b5bdd5b9d60921b604482015290519081900360640190fd5b6000612a9e6402540be400610d008e600501548561362590919063ffffffff16565b9050612ad8612aad84836135b0565b8d6009018c60ff1681548110612abf57fe5b906000526020600020015461355390919063ffffffff16565b8c6009018b60ff1681548110612aea57fe5b60009182526020822001919091556040805163079cc67960e41b8152336004820152602481018e905290516001600160a01b038916926379cc6790926044808201939182900301818387803b158015612b4257600080fd5b505af1158015612b56573d6000803e3d6000fd5b50505050612b6e8884878d60ff1681518110611cbd57fe5b604080518c81526020810186905260ff8c16818301526060810185905290516001600160a01b038a16917f43fb02998f4e03da2e0e6fff53fdbf0c40a9f45f145dc377fc30615d7d7a8a64919081900360800190a2612bcb61459c565b604080516001808252818301909252906020808301908036833750505060408281019190915280516001808252818301909252906020808301908036833750505060608201528551869060ff8d16908110612c2257fe5b60200260200101518160400151600081518110612c3b57fe5b6001600160a01b0390921660209283029190910190910152612c5d8383613553565b8160600151600081518110612c6e57fe5b60200260200101818152505060008051602061465483398151915281604001518260600151604051808060200180602001838103835285818151815260200191508051906020019060200280838360005b83811015612cd7578181015183820152602001612cbf565b50505050905001838103825284818151815260200191508051906020019060200280838360005b83811015612d16578181015183820152602001612cfe565b5050505090500194505050505060405180910390a150919b9a5050505050505050505050565b600080876007018760ff1681548110612d5157fe5b60009182526020918290200154604080516370a0823160e01b815233600482015290516001600160a01b03909216935083926370a0823192602480840193829003018186803b158015612da357600080fd5b505afa158015612db7573d6000803e3d6000fd5b505050506040513d6020811015612dcd57600080fd5b5051851115612e23576040805162461bcd60e51b815260206004820152601d60248201527f43616e6e6f742073776170206d6f7265207468616e20796f75206f776e000000604482015290519081900360640190fd5b6000816001600160a01b03166370a08231306040518263ffffffff1660e01b815260040180826001600160a01b0316815260200191505060206040518083038186803b158015612e7257600080fd5b505afa158015612e86573d6000803e3d6000fd5b505050506040513d6020811015612e9c57600080fd5b50519050612eb56001600160a01b0383163330896134f3565b612f0681836001600160a01b03166370a08231306040518263ffffffff1660e01b815260040180826001600160a01b0316815260200191505060206040518083038186803b158015610a9957600080fd5b95505050600080606089600901805480602002602001604051908101604052809291908181526020018280548015612f5d57602002820191906000526020600020905b815481526020019060010190808311612f49575b50505050509050612f718a8a8a8a85613754565b909350915085831015612fcb576040805162461bcd60e51b815260206004820181905260248201527f53776170206469646e277420726573756c7420696e206d696e20746f6b656e73604482015290519081900360640190fd5b600061300d8b6008018a60ff1681548110612fe257fe5b9060005260206000200154610d006402540be400610d008f600501548861362590919063ffffffff16565b905061302288838c60ff1681518110610b0c57fe5b8b6009018b60ff168154811061303457fe5b906000526020600020018190555061305f8161305986858d60ff1681518110610da657fe5b90613553565b8b6009018a60ff168154811061307157fe5b90600052602060002001819055506130b286858d6007018c60ff168154811061309657fe5b6000918252602090912001546001600160a01b031691906136fd565b604080518981526020810186905260ff808d16828401528b16606082015290516001600160a01b038816917fc6c1e0630dbe9130cc068028486c0d118ddcea348550819defd5cb8c257f8a38919081900360800190a261311061459c565b6040805160018082528183019092529060208083019080368337505050604082810191909152805160018082528183019092529060208083019080368337505050606082015260078c01805460ff8c1690811061316957fe5b6000918252602082200154604083015180516001600160a01b0390921692909161318f57fe5b6001600160a01b03909216602092830291909101909101526131b18483613553565b81606001516000815181106131c257fe5b60200260200101818152505060008051602061465483398151915281604001518260600151604051808060200180602001838103835285818151815260200191508051906020019060200280838360005b8381101561322b578181015183820152602001613213565b50505050905001838103825284818151815260200191508051906020019060200280838360005b8381101561326a578181015183820152602001613252565b5050505090500194505050505060405180910390a150929a9950505050505050505050565b6402540be40081565b600061130582613b86565b815181516060919081146132fe576040805162461bcd60e51b815260206004820152601f60248201527f42616c616e636573206d757374206d61746368206d756c7469706c6965727300604482015290519081900360640190fd5b60608167ffffffffffffffff8111801561331757600080fd5b50604051908082528060200260200182016040528015613341578160200160208202803683370190505b50905060005b828110156113005761337285828151811061335e57fe5b6020026020010151878381518110610d7657fe5b82828151811061337e57fe5b6020908102919091010152600101613347565b815160009081805b828110156133d1576133c78682815181106133b057fe5b6020026020010151836135b090919063ffffffff16565b9150600101613399565b50806133e257600092505050611305565b600081816133f08786613625565b905060005b6101008110156134af578260005b878110156134325761342861341e898d8481518110610d7657fe5b610d008488613625565b9150600101613403565b50929350839261348661346661344d83610fba8b60016135b0565b6134606064610d0089610fba8a84613553565b906135b0565b610d0086610fba613477868d613625565b6134606064610d008b8f613625565b93506134928486613c1b565b156134a65783975050505050505050611305565b506001016133f5565b506040805162461bcd60e51b81526020600482015260136024820152724420646f6573206e6f7420636f6e766572676560681b604482015290519081900360640190fd5b604080516001600160a01b0380861660248301528416604482015260648082018490528251808303909101815260849091019091526020810180516001600160e01b03166323b872dd60e01b17905261354d908590613c32565b50505050565b6000828211156135aa576040805162461bcd60e51b815260206004820152601e60248201527f536166654d6174683a207375627472616374696f6e206f766572666c6f770000604482015290519081900360640190fd5b50900390565b600082820183811015611563576040805162461bcd60e51b815260206004820152601b60248201527f536166654d6174683a206164646974696f6e206f766572666c6f770000000000604482015290519081900360640190fd5b600061156361361f6004610fba856001613553565b610d0085855b60008261363457506000611305565b8282028284828161364157fe5b04146115635760405162461bcd60e51b815260040180806020018281038252602181526020018061469a6021913960400191505060405180910390fd5b60008082116136d4576040805162461bcd60e51b815260206004820152601a60248201527f536166654d6174683a206469766973696f6e206279207a65726f000000000000604482015290519081900360640190fd5b8183816136dd57fe5b049392505050565b6000818311156136f85750808203611305565b500390565b604080516001600160a01b038416602482015260448082018490528251808303909101815260649091019091526020810180516001600160e01b031663a9059cbb60e01b17905261374f908490613c32565b505050565b6000806060876008018054806020026020016040519081016040528092919081815260200182805480156137a757602002820191906000526020600020905b815481526020019060010190808311613793575b5050505050905060606137ba85836132a3565b905080518860ff161080156137d2575080518760ff16105b61381e576040805162461bcd60e51b8152602060048201526018602482015277546f6b656e20696e646578206f7574206f662072616e676560401b604482015290519081900360640190fd5b6000613863828a60ff168151811061383257fe5b6020026020010151613460858c60ff168151811061384c57fe5b60200260200101518a61362590919063ffffffff16565b9050600061387c6138738c613298565b8b8b8587613ce3565b9050613896600161305983868d60ff1681518110610da657fe5b95506138b86402540be400610d008d600401548961362590919063ffffffff16565b94506138e7848a60ff16815181106138cc57fe5b6020026020010151610d00878961355390919063ffffffff16565b9550505050509550959350505050565b60608183111561394e576040805162461bcd60e51b815260206004820152601a60248201527f43616e6e6f742065786365656420746f74616c20737570706c79000000000000604482015290519081900360640190fd5b6060845167ffffffffffffffff8111801561396857600080fd5b50604051908082528060200260200182016040528015613992578160200160208202803683370190505b50905060005b85518110156139d4576139b584610d0087898581518110610d7657fe5b8282815181106139c157fe5b6020908102919091010152600101613998565b50949350505050565b606061130582600901805480602002602001604051908101604052809291908181526020018280548015613a3057602002820191906000526020600020905b815481526020019060010190808311613a1c575b505050505083600801805480602002602001604051908101604052809291908181526020018280548015613a8357602002820191906000526020600020905b815481526020019060010190808311613a6f575b50505050506132a3565b60008184841115613b1c5760405162461bcd60e51b81526004018080602001828103825283818151815260200191508051906020019080838360005b83811015613ae1578181015183820152602001613ac9565b50505050905090810190601f168015613b0e5780820380516001836020036101000a031916815260200191505b509250505060405180910390fd5b505050900390565b6000806000806000613b3889888a89613f22565b8093508194508295505050506000613b75846130598c6008018b60ff1681548110613b5f57fe5b600091825260209091200154610d008688613553565b939a93995092975050505050505050565b600381015460018201546000919042821115613c12576002840154845480831115613be457613bd9613bd2613bbb8685613553565b610d00613bc84287613553565b610fba8887613553565b82906135b0565b94505050505061163c565b613bd9613c0b613bf48685613553565b610d00613c014287613553565b610fba8689613553565b8290613553565b915061163c9050565b60006001613c2984846136e5565b11159392505050565b6060613c87826040518060400160405280602081526020017f5361666545524332303a206c6f772d6c6576656c2063616c6c206661696c6564815250856001600160a01b03166142189092919063ffffffff16565b80519091501561374f57808060200190516020811015613ca657600080fd5b505161374f5760405162461bcd60e51b815260040180806020018281038252602a8152602001806146bb602a913960400191505060405180910390fd5b805160009060ff8681169086161415613d43576040805162461bcd60e51b815260206004820152601d60248201527f43616e277420636f6d7061726520746f6b656e20746f20697473656c66000000604482015290519081900360640190fd5b808660ff16108015613d575750808560ff16105b613da1576040805162461bcd60e51b8152602060048201526016602482015275151bdad95b9cc81b5d5cdd081899481a5b881c1bdbdb60521b604482015290519081900360640190fd5b6000613dad8489613391565b905080600080613dbd858c613625565b90506000805b86811015613e36578b60ff16811415613dde57899150613e08565b8a60ff168114613e0357888181518110613df457fe5b60200260200101519150613e08565b613e2e565b613e1284836135b0565b9350613e2b613e218389613625565b610d008789613625565b94505b600101613dc3565b50613e53613e448388613625565b610d006064610fba888a613625565b93506000613e70613e6984610d00896064613625565b85906135b0565b9050600086815b610100811015613ed4579091508190613eaa613e9c8a61305987613460876002613625565b610d008a6134608680613625565b9150613eb68284613c1b565b15613ecc57509850611de4975050505050505050565b600101613e77565b506040805162461bcd60e51b815260206004820152601e60248201527f417070726f78696d6174696f6e20646964206e6f7420636f6e76657267650000604482015290519081900360640190fd5b60008060006060613f32886139dd565b905080518760ff1610613f87576040805162461bcd60e51b8152602060048201526018602482015277546f6b656e20696e646578206f7574206f662072616e676560401b604482015290519081900360640190fd5b613f8f61460f565b6040518060a001604052806000815260200160008152602001600081526020016000815260200160008152509050613fc689613298565b60808201819052613fd8908390613391565b808252613ff890613ff0908890610d00908b90613625565b825190613553565b60208201528151829060ff8a1690811061400e57fe5b602002602001015187111561406a576040805162461bcd60e51b815260206004820152601a60248201527f5769746864726177206578636565647320617661696c61626c65000000000000604482015290519081900360640190fd5b61407e816080015189848460200151614227565b6040820152815160609067ffffffffffffffff8111801561409e57600080fd5b506040519080825280602002602001820160405280156140c8578160200160208202803683370190505b5090506140da8a60040154845161360a565b606083015260005b835181101561418e5760008482815181106140f957fe5b6020026020010151905061416e613c0b6402540be400610d0087606001518f60ff16871461414757885160208a01516141429161413b91610d00908a90613625565b8790613553565b610fba565b610fba89604001516130598b60000151610d008d602001518b61362590919063ffffffff16565b83838151811061417a57fe5b6020908102919091010152506001016140e2565b5060006141b76141a884608001518c858760200151614227565b838c60ff1681518110610da657fe5b90506141e58b6008018b60ff16815481106141ce57fe5b600091825260209091200154610d00836001613553565b9050808360400151858c60ff16815181106141fc57fe5b6020026020010151965096509650505050509450945094915050565b60606111818484600085614386565b815160009060ff85168111614275576040805162461bcd60e51b815260206004820152600f60248201526e151bdad95b881b9bdd08199bdd5b99608a1b604482015290519081900360640190fd5b826000806142838985613625565b905060005b848110156142ea578860ff1681146142e2576142c08882815181106142a957fe5b6020026020010151846135b090919063ffffffff16565b92506142df6142d5868a8481518110610d7657fe5b610d00868a613625565b93505b600101614288565b506143076142f88286613625565b610d006064610fba878b613625565b9250600061432461431d83610d008a6064613625565b84906135b0565b9050600087815b610100811015613ed457909150819061435e6143508b61305987613460876002613625565b610d00896134608680613625565b915061436a8284613c1b565b1561437e5750965061118195505050505050565b60010161432b565b6060824710156143c75760405162461bcd60e51b81526004018080602001828103825260268152602001806146746026913960400191505060405180910390fd5b6143d0856144e2565b614421576040805162461bcd60e51b815260206004820152601d60248201527f416464726573733a2063616c6c20746f206e6f6e2d636f6e7472616374000000604482015290519081900360640190fd5b60006060866001600160a01b031685876040518082805190602001908083835b602083106144605780518252601f199092019160209182019101614441565b6001836020036101000a03801982511681845116808217855250505050505090500191505060006040518083038185875af1925050503d80600081146144c2576040519150601f19603f3d011682016040523d82523d6000602084013e6144c7565b606091505b50915091506144d78282866144e8565b979650505050505050565b3b151590565b606083156144f7575081611563565b8251156145075782518084602001fd5b60405162461bcd60e51b8152602060048201818152845160248401528451859391928392604401919085019080838360008315613ae1578181015183820152602001613ac9565b6040518061010001604052806000815260200160008152602001600081526020016000815260200160006001600160a01b031681526020016000815260200160608152602001606081525090565b6040518060800160405280600081526020016000815260200160608152602001606081525090565b8280548282559060005260206000209081019282156145ff579160200282015b828111156145ff5782518255916020019190600101906145e4565b5061460b92915061463e565b5090565b6040518060a0016040528060008152602001600081526020016000815260200160008152602001600081525090565b5b8082111561460b576000815560010161463f56fe5dadb1eefca890521b338a7cdaa3dd8b1397864c6c10ccd091a282dc391282eb416464726573733a20696e73756666696369656e742062616c616e636520666f722063616c6c536166654d6174683a206d756c7469706c69636174696f6e206f766572666c6f775361666545524332303a204552433230206f7065726174696f6e20646964206e6f74207375636365656443616e6e6f74207769746864726177206d6f7265207468616e20617661696c61626c65a26469706673582212201694cfef63684e3711f85bc6a2ea3ce5fdcf6956422a8e719b91cd4540f5358364736f6c634300060c0033",
  "devdoc": {
    "details": "Contracts relying on this library must initialize SwapUtils.Swap struct then use this library for SwapUtils.Swap struct. Note that this library contains both functions called by users and admins. Admin functions should be protected within contracts using this library.",
    "kind": "dev",
    "methods": {
      "addLiquidity(SwapUtils.Swap storage,uint256[],uint256,address)": {
        "params": {
          "amounts": "the amounts of each token to add, in their native precision",
          "minToMint": "the minimum LP tokens adding this amount of liquidity should mint, otherwise revert. Handy for front-running mitigation allowed addresses. If the pool is not in the guarded launch phase, this parameter will be ignored.",
          "receiver": "recipient address",
          "self": "Swap struct to read from and write to"
        },
        "returns": {
          "_0": "amount of LP token user received"
        }
      },
      "calculateRemoveLiquidity(SwapUtils.Swap storage,uint256)": {
        "params": {
          "amount": "the amount of LP tokens that would to be burned on withdrawal"
        },
        "returns": {
          "_0": "array of amounts of tokens user will receive"
        }
      },
      "calculateSwap(SwapUtils.Swap storage,uint8,uint8,uint256)": {
        "params": {
          "dx": "the number of tokens to sell. If the token charges a fee on transfers, use the amount that gets transferred after the fee.",
          "self": "Swap struct to read from",
          "tokenIndexFrom": "the token to sell",
          "tokenIndexTo": "the token to buy"
        },
        "returns": {
          "dy": "the number of tokens the user will get"
        }
      },
      "calculateTokenAmount(SwapUtils.Swap storage,uint256[],bool)": {
        "details": "This shouldn't be used outside frontends for user estimates.",
        "params": {
          "amounts": "an array of token amounts to deposit or withdrawal, corresponding to pooledTokens. The amount should be in each pooled token's native precision. If a token charges a fee on transfers, use the amount that gets transferred after the fee.",
          "deposit": "whether this is a deposit or a withdrawal",
          "self": "Swap struct to read from"
        },
        "returns": {
          "_0": "if deposit was true, total amount of lp token that will be minted and if deposit was false, total amount of lp token that will be burned"
        }
      },
      "calculateWithdrawOneToken(SwapUtils.Swap storage,uint256,uint8)": {
        "params": {
          "self": "Swap struct to read from",
          "tokenAmount": "the amount to withdraw in the pool's precision",
          "tokenIndex": "which token will be withdrawn"
        },
        "returns": {
          "_0": "the amount of token user will receive"
        }
      },
      "getAdminBalance(SwapUtils.Swap storage,uint256)": {
        "params": {
          "index": "Index of the pooled token",
          "self": "Swap struct to read from"
        },
        "returns": {
          "_0": "admin balance in the token's precision"
        }
      },
      "getVirtualPrice(SwapUtils.Swap storage)": {
        "params": {
          "self": "Swap struct to read from"
        },
        "returns": {
          "_0": "the virtual price, scaled to precision of POOL_PRECISION_DECIMALS"
        }
      },
      "removeLiquidity(SwapUtils.Swap storage,uint256,uint256[],address)": {
        "details": "Liquidity can always be removed, even when the pool is paused.",
        "params": {
          "amount": "the amount of LP tokens to burn",
          "minAmounts": "the minimum amounts of each token in the pool acceptable for this burn. Useful as a front-running mitigation",
          "receiver": "recipient address",
          "self": "Swap struct to read from and write to"
        },
        "returns": {
          "_0": "amounts of tokens the user received"
        }
      },
      "removeLiquidityImbalance(SwapUtils.Swap storage,uint256[],uint256,address)": {
        "params": {
          "amounts": "how much of each token to withdraw",
          "maxBurnAmount": "the max LP token provider is willing to pay to remove liquidity. Useful as a front-running mitigation.",
          "receiver": "recipient address",
          "self": "Swap struct to read from and write to"
        },
        "returns": {
          "_0": "actual amount of LP tokens burned in the withdrawal"
        }
      },
      "removeLiquidityOneToken(SwapUtils.Swap storage,uint256,uint8,uint256,address)": {
        "params": {
          "minAmount": "the minimum amount to withdraw, otherwise revert",
          "receiver": "recipient address",
          "self": "Swap struct to read from and write to",
          "tokenAmount": "the amount of the lp tokens to burn",
          "tokenIndex": "the index of the token you want to receive"
        },
        "returns": {
          "_0": "amount chosen token that user received"
        }
      },
      "setAdminFee(SwapUtils.Swap storage,uint256)": {
        "details": "adminFee cannot be higher than 100% of the swap fee",
        "params": {
          "newAdminFee": "new admin fee to be applied on future transactions",
          "self": "Swap struct to update"
        }
      },
      "setSwapFee(SwapUtils.Swap storage,uint256)": {
        "details": "fee cannot be higher than 1% of each swap",
        "params": {
          "newSwapFee": "new swap fee to be applied on future transactions",
          "self": "Swap struct to update"
        }
      },
      "swap(SwapUtils.Swap storage,uint8,uint8,uint256,uint256,address)": {
        "params": {
          "dx": "the amount of tokens the user wants to sell",
          "minDy": "the min amount the user would like to receive, or revert.",
          "self": "Swap struct to read from and write to",
          "tokenIndexFrom": "the token the user wants to sell",
          "tokenIndexTo": "the token the user wants to buy"
        },
        "returns": {
          "_0": "amount of token user received on swap"
        }
      },
      "withdrawAdminFees(SwapUtils.Swap storage,address)": {
        "params": {
          "self": "Swap struct to withdraw fees from",
          "to": "Address to send the fees to"
        }
      }
    },
    "title": "SwapUtils library",
    "version": 1
  },
  "userdoc": {
    "kind": "user",
    "methods": {
      "addLiquidity(SwapUtils.Swap storage,uint256[],uint256,address)": {
        "notice": "Add liquidity to the pool"
      },
      "calculateRemoveLiquidity(SwapUtils.Swap storage,uint256)": {
        "notice": "A simple method to calculate amount of each underlying tokens that is returned upon burning given amount of LP tokens"
      },
      "calculateSwap(SwapUtils.Swap storage,uint8,uint8,uint256)": {
        "notice": "Externally calculates a swap between two tokens."
      },
      "calculateTokenAmount(SwapUtils.Swap storage,uint256[],bool)": {
        "notice": "A simple method to calculate prices from deposits or withdrawals, excluding fees but including slippage. This is helpful as an input into the various \"min\" parameters on calls to fight front-running"
      },
      "calculateWithdrawOneToken(SwapUtils.Swap storage,uint256,uint8)": {
        "notice": "Calculate the dy, the amount of selected token that user receives and the fee of withdrawing in one token"
      },
      "getAdminBalance(SwapUtils.Swap storage,uint256)": {
        "notice": "return accumulated amount of admin fees of the token with given index"
      },
      "getVirtualPrice(SwapUtils.Swap storage)": {
        "notice": "Get the virtual price, to help calculate profit"
      },
      "removeLiquidity(SwapUtils.Swap storage,uint256,uint256[],address)": {
        "notice": "Burn LP tokens to remove liquidity from the pool."
      },
      "removeLiquidityImbalance(SwapUtils.Swap storage,uint256[],uint256,address)": {
        "notice": "Remove liquidity from the pool, weighted differently than the pool's current balances."
      },
      "removeLiquidityOneToken(SwapUtils.Swap storage,uint256,uint8,uint256,address)": {
        "notice": "Remove liquidity from the pool all in one token."
      },
      "setAdminFee(SwapUtils.Swap storage,uint256)": {
        "notice": "Sets the admin fee"
      },
      "setSwapFee(SwapUtils.Swap storage,uint256)": {
        "notice": "update the swap fee"
      },
      "swap(SwapUtils.Swap storage,uint8,uint8,uint256,uint256,address)": {
        "notice": "swap two tokens in the pool"
      },
      "withdrawAdminFees(SwapUtils.Swap storage,address)": {
        "notice": "withdraw all admin fees to a given address"
      }
    },
    "notice": "A library to be used within Swap.sol. Contains functions responsible for custody and AMM functionalities.",
    "version": 1
  },
  "storageLayout": {
    "storage": [],
    "types": null
  }
}