{
  "address": "0x4F87C24Db4aD3d5219750dA4e154D3f3f03694F2",
  "abi": [
    {
      "inputs": [
        {
          "internalType": "address",
          "name": "_factory",
          "type": "address"
        },
        {
          "internalType": "address",
          "name": "_weth",
          "type": "address"
        }
      ],
      "stateMutability": "nonpayable",
      "type": "constructor"
    },
    {
      "inputs": [],
      "name": "PAIR_TYPE",
      "outputs": [
        {
          "internalType": "uint8",
          "name": "",
          "type": "uint8"
        }
      ],
      "stateMutability": "view",
      "type": "function"
    },
    {
      "inputs": [
        {
          "internalType": "address[]",
          "name": "_tokens",
          "type": "address[]"
        },
        {
          "internalType": "uint256[]",
          "name": "_amountDesireds",
          "type": "uint256[]"
        },
        {
          "internalType": "uint256[]",
          "name": "_amountsMin",
          "type": "uint256[]"
        },
        {
          "internalType": "uint256",
          "name": "_minLiquidity",
          "type": "uint256"
        },
        {
          "internalType": "address",
          "name": "_to",
          "type": "address"
        },
        {
          "internalType": "uint256",
          "name": "_deadline",
          "type": "uint256"
        }
      ],
      "name": "addLiquidity",
      "outputs": [
        {
          "internalType": "uint256[]",
          "name": "_amounts",
          "type": "uint256[]"
        },
        {
          "internalType": "uint256",
          "name": "_liquidity",
          "type": "uint256"
        }
      ],
      "stateMutability": "nonpayable",
      "type": "function"
    },
    {
      "inputs": [
        {
          "internalType": "address[]",
          "name": "_tokens",
          "type": "address[]"
        },
        {
          "internalType": "uint256[]",
          "name": "_amountDesireds",
          "type": "uint256[]"
        },
        {
          "internalType": "uint256[]",
          "name": "_amountsMin",
          "type": "uint256[]"
        },
        {
          "internalType": "uint256",
          "name": "_minLiquidity",
          "type": "uint256"
        },
        {
          "internalType": "address",
          "name": "_to",
          "type": "address"
        },
        {
          "internalType": "uint256",
          "name": "_deadline",
          "type": "uint256"
        }
      ],
      "name": "addLiquidityETH",
      "outputs": [
        {
          "internalType": "uint256[]",
          "name": "_amounts",
          "type": "uint256[]"
        },
        {
          "internalType": "uint256",
          "name": "_liquidity",
          "type": "uint256"
        }
      ],
      "stateMutability": "payable",
      "type": "function"
    },
    {
      "inputs": [],
      "name": "factory",
      "outputs": [
        {
          "internalType": "address",
          "name": "",
          "type": "address"
        }
      ],
      "stateMutability": "view",
      "type": "function"
    },
    {
      "inputs": [
        {
          "internalType": "address",
          "name": "_pair",
          "type": "address"
        },
        {
          "internalType": "address[]",
          "name": "_tokens",
          "type": "address[]"
        }
      ],
      "name": "getReserves",
      "outputs": [
        {
          "internalType": "uint256",
          "name": "_reserveA",
          "type": "uint256"
        },
        {
          "internalType": "uint256",
          "name": "_reserveB",
          "type": "uint256"
        }
      ],
      "stateMutability": "view",
      "type": "function"
    },
    {
      "inputs": [
        {
          "internalType": "address[]",
          "name": "_tokens",
          "type": "address[]"
        },
        {
          "internalType": "uint256[]",
          "name": "_amountDesireds",
          "type": "uint256[]"
        }
      ],
      "name": "quoteAddLiquidity",
      "outputs": [
        {
          "internalType": "uint256[]",
          "name": "_amountsIn",
          "type": "uint256[]"
        },
        {
          "internalType": "uint256",
          "name": "_liquidity",
          "type": "uint256"
        }
      ],
      "stateMutability": "view",
      "type": "function"
    },
    {
      "inputs": [
        {
          "internalType": "address[]",
          "name": "_tokens",
          "type": "address[]"
        },
        {
          "internalType": "uint256",
          "name": "_liquidity",
          "type": "uint256"
        }
      ],
      "name": "quoteRemoveLiquidity",
      "outputs": [
        {
          "internalType": "uint256[]",
          "name": "_amounts",
          "type": "uint256[]"
        }
      ],
      "stateMutability": "view",
      "type": "function"
    },
    {
      "inputs": [
        {
          "internalType": "address[]",
          "name": "_tokens",
          "type": "address[]"
        },
        {
          "internalType": "uint256",
          "name": "_liquidity",
          "type": "uint256"
        },
        {
          "internalType": "uint256[]",
          "name": "_amountsMin",
          "type": "uint256[]"
        },
        {
          "internalType": "address",
          "name": "_to",
          "type": "address"
        },
        {
          "internalType": "uint256",
          "name": "_deadline",
          "type": "uint256"
        }
      ],
      "name": "removeLiquidity",
      "outputs": [
        {
          "internalType": "uint256[]",
          "name": "_amounts",
          "type": "uint256[]"
        }
      ],
      "stateMutability": "nonpayable",
      "type": "function"
    },
    {
      "inputs": [
        {
          "internalType": "address[]",
          "name": "_tokens",
          "type": "address[]"
        },
        {
          "internalType": "uint256",
          "name": "_liquidity",
          "type": "uint256"
        },
        {
          "internalType": "uint256[]",
          "name": "_amountsMin",
          "type": "uint256[]"
        },
        {
          "internalType": "address",
          "name": "_to",
          "type": "address"
        },
        {
          "internalType": "uint256",
          "name": "_deadline",
          "type": "uint256"
        }
      ],
      "name": "removeLiquidityETH",
      "outputs": [
        {
          "internalType": "uint256[]",
          "name": "_amounts",
          "type": "uint256[]"
        }
      ],
      "stateMutability": "nonpayable",
      "type": "function"
    },
    {
      "inputs": [
        {
          "internalType": "address[]",
          "name": "_tokens",
          "type": "address[]"
        },
        {
          "internalType": "uint256",
          "name": "_liquidity",
          "type": "uint256"
        },
        {
          "internalType": "uint256[]",
          "name": "_amountsMin",
          "type": "uint256[]"
        },
        {
          "internalType": "address",
          "name": "_to",
          "type": "address"
        },
        {
          "internalType": "uint256",
          "name": "_deadline",
          "type": "uint256"
        },
        {
          "internalType": "bool",
          "name": "_approveMax",
          "type": "bool"
        },
        {
          "internalType": "uint8",
          "name": "_v",
          "type": "uint8"
        },
        {
          "internalType": "bytes32",
          "name": "_r",
          "type": "bytes32"
        },
        {
          "internalType": "bytes32",
          "name": "_s",
          "type": "bytes32"
        }
      ],
      "name": "removeLiquidityETHWithPermit",
      "outputs": [
        {
          "internalType": "uint256[]",
          "name": "_amounts",
          "type": "uint256[]"
        }
      ],
      "stateMutability": "nonpayable",
      "type": "function"
    },
    {
      "inputs": [
        {
          "internalType": "address[]",
          "name": "_tokens",
          "type": "address[]"
        },
        {
          "internalType": "uint256",
          "name": "_liquidity",
          "type": "uint256"
        },
        {
          "internalType": "uint256[]",
          "name": "_amountMin",
          "type": "uint256[]"
        },
        {
          "internalType": "address",
          "name": "_to",
          "type": "address"
        },
        {
          "internalType": "uint256",
          "name": "_deadline",
          "type": "uint256"
        },
        {
          "internalType": "bool",
          "name": "_approveMax",
          "type": "bool"
        },
        {
          "internalType": "uint8",
          "name": "_v",
          "type": "uint8"
        },
        {
          "internalType": "bytes32",
          "name": "_r",
          "type": "bytes32"
        },
        {
          "internalType": "bytes32",
          "name": "_s",
          "type": "bytes32"
        }
      ],
      "name": "removeLiquidityWithPermit",
      "outputs": [
        {
          "internalType": "uint256[]",
          "name": "_amounts",
          "type": "uint256[]"
        }
      ],
      "stateMutability": "nonpayable",
      "type": "function"
    },
    {
      "inputs": [
        {
          "components": [
            {
              "internalType": "address",
              "name": "from",
              "type": "address"
            },
            {
              "internalType": "address",
              "name": "to",
              "type": "address"
            },
            {
              "internalType": "address",
              "name": "pair",
              "type": "address"
            }
          ],
          "internalType": "struct IPairRouter.Route",
          "name": "_route",
          "type": "tuple"
        },
        {
          "internalType": "uint256",
          "name": "_amountIn",
          "type": "uint256"
        },
        {
          "internalType": "uint256",
          "name": "_amountOut",
          "type": "uint256"
        },
        {
          "internalType": "address",
          "name": "_to",
          "type": "address"
        },
        {
          "internalType": "uint256",
          "name": "_deadline",
          "type": "uint256"
        }
      ],
      "name": "swap",
      "outputs": [
        {
          "internalType": "uint256",
          "name": "",
          "type": "uint256"
        }
      ],
      "stateMutability": "payable",
      "type": "function"
    },
    {
      "inputs": [],
      "name": "weth",
      "outputs": [
        {
          "internalType": "address",
          "name": "",
          "type": "address"
        }
      ],
      "stateMutability": "view",
      "type": "function"
    }
  ],
  "transactionHash": "0xc1a85613d02fd44443865bad0f7bf397d1d2092661979974145f38ba5301c554",
  "args": [
    "0xB09f8683ff7B4B3A5BcD90738AE1559ACfe318e5",
    "0x62fB5AaDdc4bd26C6DC50fa5dE679CAa6fa8B44b"
  ],
  "numDeployments": 1,
  "solcInputHash": "91a6f7d256e589938d50623d3d4bbee9",
  "bytecode": "0x60c06040523480156200001157600080fd5b506040516200313b3803806200313b833981016040819052620000349162000053565b6001600160601b0319606092831b8116608052911b1660a052620000aa565b6000806040838503121562000066578182fd5b8251620000738162000091565b6020840151909250620000868162000091565b809150509250929050565b6001600160a01b0381168114620000a757600080fd5b50565b60805160601c60a05160601c61300862000133600039806105ad52806106e5528061074852806107cf528061103b528061109e52508061030852806103d9528061064c52806109e85280610aa15280610e8a528061118c52806111b5528061127f52806112df528061139652806116e25280611b135280611bb55280611c6352506130086000f3fe6080604052600436106100c25760003560e01c80634f2a97fa1161007f57806382b22fad1161005957806382b22fad14610210578063c45a015514610230578063cb4c6dea14610245578063ce2da95514610265576100c2565b80634f2a97fa146101ae578063508d1e6b146101ce578063601e0ae8146101f0576100c2565b8063064c8874146100c75780630d005d1e146100fd578063165b368c1461011d578063275f53961461013d5780633fc8cef31461016b5780634011b1f81461018d575b600080fd5b3480156100d357600080fd5b506100e76100e23660046125c4565b610285565b6040516100f49190612a48565b60405180910390f35b61011061010b366004612724565b6102c8565b6040516100f49190612ece565b34801561012957600080fd5b506100e76101383660046124cf565b610302565b34801561014957600080fd5b5061015d610158366004612418565b610593565b6040516100f4929190612ed7565b34801561017757600080fd5b506101806105ab565b6040516100f491906128ff565b6101a061019b366004612519565b6105cf565b6040516100f4929190612a5b565b3480156101ba57600080fd5b506101a06101c9366004612466565b61099c565b3480156101da57600080fd5b506101e3610e08565b6040516100f49190612f12565b3480156101fc57600080fd5b506101a061020b366004612519565b610e0d565b34801561021c57600080fd5b506100e761022b3660046125c4565b610ffb565b34801561023c57600080fd5b5061018061118a565b34801561025157600080fd5b506100e7610260366004612649565b6111ae565b34801561027157600080fd5b506100e7610280366004612649565b611278565b606081428110156102b15760405162461bcd60e51b81526004016102a890612d88565b60405180910390fd5b6102bd878787876112d9565b979650505050505050565b600081428110156102eb5760405162461bcd60e51b81526004016102a890612d88565b6102f7878787876116c6565b509295945050505050565b606060007f00000000000000000000000000000000000000000000000000000000000000006001600160a01b031663fd8d63c2868660016040518463ffffffff1660e01b815260040161035793929190612991565b60206040518083038186803b15801561036f57600080fd5b505afa158015610383573d6000803e3d6000fd5b505050506040513d601f19601f820116820180604052508101906103a791906123fc565b6040805160028082526060820183529293509190602083019080368337505060405163e5e31b1360e01b8152919350507f00000000000000000000000000000000000000000000000000000000000000006001600160a01b03169063e5e31b13906104169084906004016128ff565b60206040518083038186803b15801561042e57600080fd5b505afa158015610442573d6000803e3d6000fd5b505050506040513d601f19601f820116820180604052508101906104669190612708565b610470575061058c565b6000806104b0838888808060200260200160405190810160405280939291908181526020018383602002808284376000920191909152506118c592505050565b915091506000836001600160a01b03166318160ddd6040518163ffffffff1660e01b815260040160206040518083038186803b1580156104ef57600080fd5b505afa158015610503573d6000803e3d6000fd5b505050506040513d601f19601f82011682018060405250810190610527919061280a565b90508015610587578061053a8785611a1f565b8161054157fe5b048560008151811061054f57fe5b6020908102919091010152806105658784611a1f565b8161056c57fe5b048560018151811061057a57fe5b6020026020010181815250505b505050505b9392505050565b6000806105a084846118c5565b909590945092505050565b7f000000000000000000000000000000000000000000000000000000000000000090565b6060600082428110156105f45760405162461bcd60e51b81526004016102a890612d88565b879250610602898989611a62565b8460008151811061060f57fe5b602002602001018560018151811061062357fe5b602090810291909101019190915252604051637ec6b1e160e11b81526000906001600160a01b037f0000000000000000000000000000000000000000000000000000000000000000169063fd8d63c290610684908d906001906004016129eb565b60206040518083038186803b15801561069c57600080fd5b505afa1580156106b0573d6000803e3d6000fd5b505050506040513d601f19601f820116820180604052508101906106d491906123fc565b90506000805b8b518110156108d9577f00000000000000000000000000000000000000000000000000000000000000006001600160a01b03168c828151811061071957fe5b60200260200101516001600160a01b0316141561088b5785818151811061073c57fe5b602002602001015191507f00000000000000000000000000000000000000000000000000000000000000006001600160a01b031663d0e30db087838151811061078157fe5b60200260200101516040518263ffffffff1660e01b81526004016000604051808303818588803b1580156107b457600080fd5b505af11580156107c8573d6000803e3d6000fd5b50505050507f00000000000000000000000000000000000000000000000000000000000000006001600160a01b031663a9059cbb8488848151811061080957fe5b60200260200101516040518363ffffffff1660e01b815260040161082e929190612978565b602060405180830381600087803b15801561084857600080fd5b505af115801561085c573d6000803e3d6000fd5b505050506040513d601f19601f820116820180604052508101906108809190612708565b61088657fe5b6108d1565b6108d1338488848151811061089c57fe5b60200260200101518f85815181106108b057fe5b60200260200101516001600160a01b0316611eaa909392919063ffffffff16565b6001016106da565b506040516335313c2160e11b81526001600160a01b03831690636a62784290610906908a906004016128ff565b602060405180830381600087803b15801561092057600080fd5b505af1158015610934573d6000803e3d6000fd5b505050506040513d601f19601f82011682018060405250810190610958919061280a565b93508784101561097a5760405162461bcd60e51b81526004016102a890612cb7565b8034111561098e5761098e33823403611f9b565b505050965096945050505050565b606060008267ffffffffffffffff811180156109b757600080fd5b506040519080825280602002602001820160405280156109e1578160200160208202803683370190505b50915060007f00000000000000000000000000000000000000000000000000000000000000006001600160a01b031663fd8d63c2888860016040518463ffffffff1660e01b8152600401610a3793929190612991565b60206040518083038186803b158015610a4f57600080fd5b505afa158015610a63573d6000803e3d6000fd5b505050506040513d601f19601f82011682018060405250810190610a8791906123fc565b60405163e5e31b1360e01b81529091506001600160a01b037f0000000000000000000000000000000000000000000000000000000000000000169063e5e31b1390610ad69084906004016128ff565b60206040518083038186803b158015610aee57600080fd5b505afa158015610b02573d6000803e3d6000fd5b505050506040513d601f19601f82011682018060405250810190610b269190612708565b610b305750610dff565b600080806001600160a01b03841615610bf957836001600160a01b03166318160ddd6040518163ffffffff1660e01b815260040160206040518083038186803b158015610b7c57600080fd5b505afa158015610b90573d6000803e3d6000fd5b505050506040513d601f19601f82011682018060405250810190610bb4919061280a565b9050610bf3848b8b808060200260200160405190810160405280939291908181526020018383602002808284376000920191909152506118c592505050565b90935091505b82158015610c05575081155b15610c9c57878780806020026020016040519081016040528093929190818152602001838360200280828437600092019190915250508251929850610c95926103e89250610c8f9150610c8a908a906001908110610c5f57fe5b60200260200101518a600081518110610c7457fe5b6020026020010151611a1f90919063ffffffff16565b61202d565b9061207f565b9450610dfa565b6000610cbc89896000818110610cae57fe5b9050602002013585856120a7565b905088886001818110610ccb57fe5b905060200201358111610d5e5788886000818110610ce557fe5b905060200201358188600081518110610cfa57fe5b6020026020010189600181518110610d0e57fe5b6020026020010182815250828152505050610d57610d3d85610d37858b600081518110610c7457fe5b9061210f565b610d5285610d37868c600181518110610c7457fe5b612141565b9550610df8565b6000610d7e8a8a6001818110610d7057fe5b9050602002013585876120a7565b9050808a8a6001818110610d8e57fe5b9050602002013589600081518110610da257fe5b602002602001018a600181518110610db657fe5b6020026020010182815250828152505050610df4610ddf86610d37868c600081518110610c7457fe5b610d5286610d37878d600181518110610c7457fe5b9650505b505b505050505b94509492505050565b600190565b606060008242811015610e325760405162461bcd60e51b81526004016102a890612d88565b879250610e40898989611a62565b84600081518110610e4d57fe5b6020026020010185600181518110610e6157fe5b602090810291909101019190915252604051637ec6b1e160e11b81526000906001600160a01b037f0000000000000000000000000000000000000000000000000000000000000000169063fd8d63c290610ec2908d906001906004016129eb565b60206040518083038186803b158015610eda57600080fd5b505afa158015610eee573d6000803e3d6000fd5b505050506040513d601f19601f82011682018060405250810190610f1291906123fc565b905060005b8a51811015610f4d57610f453383878481518110610f3157fe5b60200260200101518e85815181106108b057fe5b600101610f17565b506040516335313c2160e11b81526001600160a01b03821690636a62784290610f7a9089906004016128ff565b602060405180830381600087803b158015610f9457600080fd5b505af1158015610fa8573d6000803e3d6000fd5b505050506040513d601f19601f82011682018060405250810190610fcc919061280a565b925086831015610fee5760405162461bcd60e51b81526004016102a890612cb7565b5050965096945050505050565b6060814281101561101e5760405162461bcd60e51b81526004016102a890612d88565b61102a878787306112d9565b91506000805b885181101561116b577f00000000000000000000000000000000000000000000000000000000000000006001600160a01b031689828151811061106f57fe5b60200260200101516001600160a01b0316141561111f5783818151811061109257fe5b602002602001015191507f00000000000000000000000000000000000000000000000000000000000000006001600160a01b0316632e1a7d4d836040518263ffffffff1660e01b81526004016110e89190612ece565b600060405180830381600087803b15801561110257600080fd5b505af1158015611116573d6000803e3d6000fd5b50505050611163565b6111638685838151811061112f57fe5b60200260200101518b848151811061114357fe5b60200260200101516001600160a01b03166121579092919063ffffffff16565b600101611030565b5061117f6001600160a01b03861682611f9b565b505095945050505050565b7f000000000000000000000000000000000000000000000000000000000000000090565b606061125d7f00000000000000000000000000000000000000000000000000000000000000006001600160a01b031663fd8d63c28c60016040518363ffffffff1660e01b81526004016112029291906129eb565b60206040518083038186803b15801561121a57600080fd5b505afa15801561122e573d6000803e3d6000fd5b505050506040513d601f19601f8201168201806040525081019061125291906123fc565b8a8888888888612245565b61126a8a8a8a8a8a610285565b9a9950505050505050505050565b60606112cc7f00000000000000000000000000000000000000000000000000000000000000006001600160a01b031663fd8d63c28c60016040518363ffffffff1660e01b81526004016112029291906129eb565b61126a8a8a8a8a8a610ffb565b606060007f00000000000000000000000000000000000000000000000000000000000000006001600160a01b031663fd8d63c28760016040518363ffffffff1660e01b815260040161132c9291906129eb565b60206040518083038186803b15801561134457600080fd5b505afa158015611358573d6000803e3d6000fd5b505050506040513d601f19601f8201168201806040525081019061137c91906123fc565b60405163e5e31b1360e01b81529091506001600160a01b037f0000000000000000000000000000000000000000000000000000000000000000169063e5e31b13906113cb9084906004016128ff565b60206040518083038186803b1580156113e357600080fd5b505afa1580156113f7573d6000803e3d6000fd5b505050506040513d601f19601f8201168201806040525081019061141b9190612708565b6114375760405162461bcd60e51b81526004016102a890612ab4565b6040516323b872dd60e01b81526001600160a01b038216906323b872dd9061146790339085908a90600401612913565b602060405180830381600087803b15801561148157600080fd5b505af1158015611495573d6000803e3d6000fd5b505050506040513d601f19601f820116820180604052508101906114b99190612708565b50600080826001600160a01b03166389afcb44866040518263ffffffff1660e01b81526004016114e991906128ff565b6040805180830381600087803b15801561150257600080fd5b505af1158015611516573d6000803e3d6000fd5b505050506040513d601f19601f8201168201806040525081019061153a9190612822565b915091506000836001600160a01b0316630dfe16816040518163ffffffff1660e01b815260040160206040518083038186803b15801561157957600080fd5b505afa15801561158d573d6000803e3d6000fd5b505050506040513d601f19601f820116820180604052508101906115b191906123fc565b9050865167ffffffffffffffff811180156115cb57600080fd5b506040519080825280602002602001820160405280156115f5578160200160208202803683370190505b5094508860008151811061160557fe5b60200260200101516001600160a01b0316816001600160a01b03161461162c57818361162f565b82825b8660008151811061163c57fe5b602002602001018760018151811061165057fe5b60209081029190910101919091525260005b85518110156116b95787818151811061167757fe5b602002602001015186828151811061168b57fe5b602002602001015110156116b15760405162461bcd60e51b81526004016102a890612d43565b600101611662565b5050505050949350505050565b604080850151905163e5e31b1360e01b81526001600160a01b037f0000000000000000000000000000000000000000000000000000000000000000169163e5e31b139161171691906004016128ff565b60206040518083038186803b15801561172e57600080fd5b505afa158015611742573d6000803e3d6000fd5b505050506040513d601f19601f820116820180604052508101906117669190612708565b6117825760405162461bcd60e51b81526004016102a890612ab4565b600084604001516001600160a01b0316630dfe16816040518163ffffffff1660e01b815260040160206040518083038186803b1580156117c157600080fd5b505afa1580156117d5573d6000803e3d6000fd5b505050506040513d601f19601f820116820180604052508101906117f991906123fc565b9050600080826001600160a01b031687600001516001600160a01b03161461182357846000611827565b6000855b60408901518951929450909250611848916001600160a01b03169088612157565b604087810151815160008152602081019283905263022c0d9f60e01b9092526001600160a01b03169063022c0d9f9061188a9085908590899060248101612ee5565b600060405180830381600087803b1580156118a457600080fd5b505af11580156118b8573d6000803e3d6000fd5b5050505050505050505050565b6000806000846001600160a01b0316630dfe16816040518163ffffffff1660e01b815260040160206040518083038186803b15801561190357600080fd5b505afa158015611917573d6000803e3d6000fd5b505050506040513d601f19601f8201168201806040525081019061193b91906123fc565b9050600080866001600160a01b0316630902f1ac6040518163ffffffff1660e01b815260040160606040518083038186803b15801561197957600080fd5b505afa15801561198d573d6000803e3d6000fd5b505050506040513d601f19601f820116820180604052508101906119b191906127b6565b5091509150826001600160a01b0316866000815181106119cd57fe5b60200260200101516001600160a01b0316146119fc57806001600160701b0316826001600160701b0316611a11565b816001600160701b0316816001600160701b03165b909890975095505050505050565b600082611a2e57506000611a5c565b82820282848281611a3b57fe5b0414611a595760405162461bcd60e51b81526004016102a890612d02565b90505b92915050565b60008082600081518110611a7257fe5b602002602001015184600081518110611a8757fe5b60200260200101511015611aad5760405162461bcd60e51b81526004016102a890612c38565b82600181518110611aba57fe5b602002602001015184600181518110611acf57fe5b60200260200101511015611af55760405162461bcd60e51b81526004016102a890612b31565b604051637ec6b1e160e11b8152600090819081906001600160a01b037f0000000000000000000000000000000000000000000000000000000000000000169063fd8d63c290611b4b908b906001906004016129eb565b60206040518083038186803b158015611b6357600080fd5b505afa158015611b77573d6000803e3d6000fd5b505050506040513d601f19601f82011682018060405250810190611b9b91906123fc565b60405163e5e31b1360e01b81529091506001600160a01b037f0000000000000000000000000000000000000000000000000000000000000000169063e5e31b1390611bea9084906004016128ff565b60206040518083038186803b158015611c0257600080fd5b505afa158015611c16573d6000803e3d6000fd5b505050506040513d601f19601f82011682018060405250810190611c3a9190612708565b611cf55760408051600081526020810191829052632a422c2b60e21b9091526001600160a01b037f0000000000000000000000000000000000000000000000000000000000000000169063a908b0ac90611c9c908b9060019060248101612a10565b602060405180830381600087803b158015611cb657600080fd5b505af1158015611cca573d6000803e3d6000fd5b505050506040513d601f19601f82011682018060405250810190611cee91906123fc565b9050611d05565b611cff81896118c5565b90935091505b6001600160a01b038116611d2b5760405162461bcd60e51b81526004016102a890612dbf565b82158015611d37575081155b15611d735786600081518110611d4957fe5b602002602001015187600181518110611d5e57fe5b60200260200101518095508196505050611e9f565b6000611d9488600081518110611d8557fe5b602002602001015185856120a7565b905087600181518110611da357fe5b60200260200101518111611e085786600181518110611dbe57fe5b6020026020010151811015611de55760405162461bcd60e51b81526004016102a890612bf3565b87600081518110611df257fe5b6020026020010151818096508197505050611e9d565b6000611e2989600181518110611e1a57fe5b602002602001015185876120a7565b905088600081518110611e3857fe5b6020026020010151811115611e4957fe5b87600081518110611e5657fe5b6020026020010151811015611e7d5760405162461bcd60e51b81526004016102a890612e89565b8089600181518110611e8b57fe5b60200260200101518097508198505050505b505b505050935093915050565b60006060856001600160a01b03166323b872dd868686604051602401611ed293929190612913565b6040516020818303038152906040529060e01b6020820180516001600160e01b038381831617835250505050604051611f0b91906128e3565b6000604051808303816000865af19150503d8060008114611f48576040519150601f19603f3d011682016040523d82523d6000602084013e611f4d565b606091505b5091509150818015611f77575080511580611f77575080806020019051810190611f779190612708565b611f935760405162461bcd60e51b81526004016102a890612e45565b505050505050565b604080516000808252602082019092526001600160a01b038416908390604051611fc591906128e3565b60006040518083038185875af1925050503d8060008114612002576040519150601f19603f3d011682016040523d82523d6000602084013e612007565b606091505b50509050806120285760405162461bcd60e51b81526004016102a890612e02565b505050565b60006003821115612070575080600160028204015b8181101561206a5780915060028182858161205957fe5b04018161206257fe5b049050612042565b5061207a565b811561207a575060015b919050565b6000828211156120a15760405162461bcd60e51b81526004016102a890612bbc565b50900390565b60008084116120c85760405162461bcd60e51b81526004016102a890612b79565b6000831180156120d85750600082115b6120f45760405162461bcd60e51b81526004016102a890612aeb565b826120ff8584611a1f565b8161210657fe5b04949350505050565b60008082116121305760405162461bcd60e51b81526004016102a890612c80565b81838161213957fe5b049392505050565b6000818310612150578161058c565b5090919050565b60006060846001600160a01b031663a9059cbb858560405160240161217d929190612978565b6040516020818303038152906040529060e01b6020820180516001600160e01b0383818316178352505050506040516121b691906128e3565b6000604051808303816000865af19150503d80600081146121f3576040519150601f19603f3d011682016040523d82523d6000602084013e6121f8565b606091505b50915091508180156122225750805115806122225750808060200190518101906122229190612708565b61223e5760405162461bcd60e51b81526004016102a890612a7d565b5050505050565b6000846122525786612256565b6000195b60405163d505accf60e01b81529091506001600160a01b0389169063d505accf90612291903390309086908c908b908b908b90600401612937565b600060405180830381600087803b1580156122ab57600080fd5b505af11580156122bf573d6000803e3d6000fd5b505050505050505050505050565b60008083601f8401126122de578182fd5b50813567ffffffffffffffff8111156122f5578182fd5b602083019150836020808302850101111561230f57600080fd5b9250929050565b600082601f830112612326578081fd5b813561233961233482612f47565b612f20565b81815291506020808301908481018184028601820187101561235a57600080fd5b60005b8481101561238257813561237081612f97565b8452928201929082019060010161235d565b505050505092915050565b600082601f83011261239d578081fd5b81356123ab61233482612f47565b8181529150602080830190848101818402860182018710156123cc57600080fd5b60005b84811015612382578135845292820192908201906001016123cf565b803560ff81168114611a5c57600080fd5b60006020828403121561240d578081fd5b8151611a5981612f97565b6000806040838503121561242a578081fd5b823561243581612f97565b9150602083013567ffffffffffffffff811115612450578182fd5b61245c85828601612316565b9150509250929050565b6000806000806040858703121561247b578182fd5b843567ffffffffffffffff80821115612492578384fd5b61249e888389016122cd565b909650945060208701359150808211156124b6578384fd5b506124c3878288016122cd565b95989497509550505050565b6000806000604084860312156124e3578283fd5b833567ffffffffffffffff8111156124f9578384fd5b612505868287016122cd565b909790965060209590950135949350505050565b60008060008060008060c08789031215612531578182fd5b863567ffffffffffffffff80821115612548578384fd5b6125548a838b01612316565b97506020890135915080821115612569578384fd5b6125758a838b0161238d565b9650604089013591508082111561258a578384fd5b5061259789828a0161238d565b9450506060870135925060808701356125af81612f97565b8092505060a087013590509295509295509295565b600080600080600060a086880312156125db578081fd5b853567ffffffffffffffff808211156125f2578283fd5b6125fe89838a01612316565b965060208801359550604088013591508082111561261a578283fd5b506126278882890161238d565b935050606086013561263881612f97565b949793965091946080013592915050565b60008060008060008060008060006101208a8c031215612667578283fd5b893567ffffffffffffffff8082111561267e578485fd5b61268a8d838e01612316565b9a5060208c0135995060408c01359150808211156126a6578485fd5b506126b38c828d0161238d565b97505060608a01356126c481612f97565b955060808a0135945060a08a01356126db81612faf565b93506126ea8b60c08c016123eb565b925060e08a013591506101008a013590509295985092959850929598565b600060208284031215612719578081fd5b8151611a5981612faf565b600080600080600085870360e081121561273c578384fd5b6060811215612749578384fd5b506127546060612f20565b863561275f81612f97565b8152602087013561276f81612f97565b6020820152604087013561278281612f97565b60408201529450606086013593506080860135925060a08601356127a581612f97565b9497939650919460c0013592915050565b6000806000606084860312156127ca578081fd5b83516127d581612fbd565b60208501519093506127e681612fbd565b604085015190925063ffffffff811681146127ff578182fd5b809150509250925092565b60006020828403121561281b578081fd5b5051919050565b60008060408385031215612834578182fd5b505080516020909101519092909150565b6000815180845260208085019450808401835b8381101561287d5781516001600160a01b031687529582019590820190600101612858565b509495945050505050565b6000815180845260208085019450808401835b8381101561287d5781518752958201959082019060010161289b565b600081518084526128cf816020860160208601612f67565b601f01601f19169290920160200192915050565b600082516128f5818460208701612f67565b9190910192915050565b6001600160a01b0391909116815260200190565b6001600160a01b039384168152919092166020820152604081019190915260600190565b6001600160a01b0397881681529590961660208601526040850193909352606084019190915260ff16608083015260a082015260c081019190915260e00190565b6001600160a01b03929092168252602082015260400190565b6040808252810183905260008460608301825b868110156129d457602083356129b981612f97565b6001600160a01b0316835292830192909101906001016129a4565b50809250505060ff83166020830152949350505050565b6000604082526129fe6040830185612845565b905060ff831660208301529392505050565b600060608252612a236060830186612845565b60ff851660208401528281036040840152612a3e81856128b7565b9695505050505050565b60006020825261058c6020830184612888565b600060408252612a6e6040830185612888565b90508260208301529392505050565b6020808252601f908201527f5472616e7366657248656c7065723a205452414e534645525f4641494c454400604082015260600190565b6020808252601b908201527f566f6c6174696c65526f757465723a206973206e6f7420706169720000000000604082015260600190565b60208082526026908201527f566f6c6174696c65526f757465723a20494e53554646494349454e545f4c495160408201526555494449545960d01b606082015260800190565b60208082526028908201527f566f6c6174696c65526f757465723a20746f6b656e5b315d2064657369726564604082015267081a5b9d985b1a5960c21b606082015260800190565b60208082526023908201527f566f6c6174696c65526f757465723a20494e53554646494349454e545f414d4f60408201526215539560ea1b606082015260800190565b6020808252601e908201527f536166654d6174683a207375627472616374696f6e206f766572666c6f770000604082015260600190565b60208082526025908201527f566f6c6174696c65526f757465723a20494e53554646494349454e545f425f416040820152641353d5539560da1b606082015260800190565b60208082526028908201527f566f6c6174696c65526f757465723a20746f6b656e5b305d2064657369726564604082015267081a5b9d985b1a5960c21b606082015260800190565b6020808252601a908201527f536166654d6174683a206469766973696f6e206279207a65726f000000000000604082015260600190565b6020808252602b908201527f566f6c6174696c65526f757465723a20436f756c646e2774206d696e74206d6960408201526a1b881c995c5d595cdd195960aa1b606082015260800190565b60208082526021908201527f536166654d6174683a206d756c7469706c69636174696f6e206f766572666c6f6040820152607760f81b606082015260800190565b60208082526025908201527f566f6c6174696c65526f757465723a205f616d6f756e74203c205f616d6f756e6040820152643a39a6b4b760d91b606082015260800190565b60208082526017908201527f566f6c6174696c65526f757465723a2045585049524544000000000000000000604082015260600190565b60208082526023908201527f566f6c6174696c65526f757465723a207061697220646f6573206e6f742065786040820152621a5cdd60ea1b606082015260800190565b60208082526023908201527f5472616e7366657248656c7065723a204554485f5452414e534645525f46414960408201526213115160ea1b606082015260800190565b60208082526024908201527f5472616e7366657248656c7065723a205452414e534645525f46524f4d5f46416040820152631253115160e21b606082015260800190565b60208082526025908201527f566f6c6174696c65526f757465723a20494e53554646494349454e545f415f416040820152641353d5539560da1b606082015260800190565b90815260200190565b918252602082015260400190565b600085825284602083015260018060a01b038416604083015260806060830152612a3e60808301846128b7565b60ff91909116815260200190565b60405181810167ffffffffffffffff81118282101715612f3f57600080fd5b604052919050565b600067ffffffffffffffff821115612f5d578081fd5b5060209081020190565b60005b83811015612f82578181015183820152602001612f6a565b83811115612f91576000848401525b50505050565b6001600160a01b0381168114612fac57600080fd5b50565b8015158114612fac57600080fd5b6001600160701b0381168114612fac57600080fdfea2646970667358221220080f16a7a3afab0c266e2973d8fb532706a11f300913ec3cb1f5bab4ce399b8f64736f6c634300060c0033",
  "devdoc": {
    "kind": "dev",
    "methods": {
      "PAIR_TYPE()": {
        "details": "Returns the pair type for volatile pairs",
        "returns": {
          "_0": "Pair type"
        }
      },
      "addLiquidity(address[],uint256[],uint256[],uint256,address,uint256)": {
        "details": "Adds liquidity to a pair of tokens",
        "params": {
          "_amountDesireds": "Array of desired amounts of each token",
          "_amountsMin": "Array of minimum amounts of each token",
          "_deadline": "Timestamp after which the transaction will revert",
          "_minLiquidity": "Minimum amount of liquidity to mint",
          "_to": "Address to receive the minted liquidity",
          "_tokens": "Array of token addresses"
        },
        "returns": {
          "_amounts": "Amounts of tokens added to the liquidity pool",
          "_liquidity": "Amount of liquidity minted"
        }
      },
      "addLiquidityETH(address[],uint256[],uint256[],uint256,address,uint256)": {
        "details": "Adds liquidity to a pair of tokens",
        "params": {
          "_amountDesireds": "Array of desired amounts of each token",
          "_amountsMin": "Array of minimum amounts of each token",
          "_deadline": "Timestamp after which the transaction will revert",
          "_minLiquidity": "Minimum amount of liquidity to mint",
          "_to": "Address to receive the minted liquidity",
          "_tokens": "Array of token addresses"
        },
        "returns": {
          "_amounts": "Amounts of tokens added to the liquidity pool",
          "_liquidity": "Amount of liquidity minted"
        }
      },
      "constructor": {
        "details": "Constructor function for VolatileRouter",
        "params": {
          "_factory": "Address of the factory contract",
          "_weth": "Address of the Wrapped Ether contract"
        }
      },
      "factory()": {
        "details": "Returns the address of the factory contract",
        "returns": {
          "_0": "Factory contract address"
        }
      },
      "getReserves(address,address[])": {
        "details": "Returns the reserves of the given pair and tokens",
        "params": {
          "_pair": "Address of the pair contract",
          "_tokens": "Array of token addresses"
        },
        "returns": {
          "_reserveA": "Reserve of token A",
          "_reserveB": "Reserve of token B"
        }
      },
      "quoteAddLiquidity(address[],uint256[])": {
        "details": "Calculates the optimal amount of token A and token B to add to a pair given desired amounts of each",
        "params": {
          "_amountDesireds": "Array of desired amounts of each token",
          "_tokens": "Array of token addresses"
        },
        "returns": {
          "_amountsIn": "Array of amounts of each token to add",
          "_liquidity": "Amount of liquidity to add"
        }
      },
      "quoteRemoveLiquidity(address[],uint256)": {
        "details": "Calculates the amount of tokens to receive upon removing liquidity from a pair",
        "params": {
          "_liquidity": "Amount of liquidity to remove",
          "_tokens": "Array of token addresses"
        },
        "returns": {
          "_amounts": "Array of amounts of each token to receive"
        }
      },
      "removeLiquidity(address[],uint256,uint256[],address,uint256)": {
        "details": "Removes liquidity from a pair of tokens",
        "params": {
          "_amountsMin": "Array of minimum amounts of each token to receive",
          "_deadline": "Timestamp after which the transaction will revert",
          "_liquidity": "Amount of liquidity to remove",
          "_to": "Address to receive the tokens",
          "_tokens": "Array of token addresses"
        },
        "returns": {
          "_amounts": "Amounts of tokens received"
        }
      },
      "removeLiquidityETH(address[],uint256,uint256[],address,uint256)": {
        "details": "Removes liquidity from a pair of tokens with ETH",
        "params": {
          "_amountsMin": "Array of minimum amounts of each token to receive",
          "_deadline": "Timestamp after which the transaction will revert",
          "_liquidity": "Amount of liquidity to remove",
          "_to": "Address to receive the tokens",
          "_tokens": "Array of token addresses"
        },
        "returns": {
          "_amounts": "Amounts of tokens received"
        }
      },
      "removeLiquidityETHWithPermit(address[],uint256,uint256[],address,uint256,bool,uint8,bytes32,bytes32)": {
        "details": "Removes liquidity from a pair of tokens with ETH and permit functionality",
        "params": {
          "_amountsMin": "Array of minimum amounts of each token to receive",
          "_approveMax": "Whether to approve the maximum amount or not",
          "_deadline": "Timestamp after which the transaction will revert",
          "_liquidity": "Amount of liquidity to remove",
          "_r": "ECDSA signature parameter r",
          "_s": "ECDSA signature parameter s",
          "_to": "Address to receive the tokens",
          "_tokens": "Array of token addresses",
          "_v": "ECDSA signature parameter v"
        },
        "returns": {
          "_amounts": "Amounts of tokens received"
        }
      },
      "removeLiquidityWithPermit(address[],uint256,uint256[],address,uint256,bool,uint8,bytes32,bytes32)": {
        "details": "Removes liquidity from a pair of tokens with permit functionality",
        "params": {
          "_amountMin": "Array of minimum amounts of each token to receive",
          "_approveMax": "Whether to approve the maximum amount or not",
          "_deadline": "Timestamp after which the transaction will revert",
          "_liquidity": "Amount of liquidity to remove",
          "_r": "ECDSA signature parameter r",
          "_s": "ECDSA signature parameter s",
          "_to": "Address to receive the tokens",
          "_tokens": "Array of token addresses",
          "_v": "ECDSA signature parameter v"
        },
        "returns": {
          "_amounts": "Amounts of tokens received"
        }
      },
      "swap((address,address,address),uint256,uint256,address,uint256)": {
        "details": "Swaps tokens according to the given route",
        "params": {
          "_amountIn": "Amount of tokens to swap",
          "_amountOut": "Expected amount of tokens to receive",
          "_deadline": "Timestamp after which the transaction will revert",
          "_route": "Route containing the pair and the token to swap from",
          "_to": "Address to receive the swapped tokens"
        },
        "returns": {
          "_0": "Amount of tokens received"
        }
      },
      "weth()": {
        "details": "Returns the address of the Wrapped Ether contract",
        "returns": {
          "_0": "Wrapped Ether contract address"
        }
      }
    },
    "title": "VolatileRouter",
    "version": 1
  },
  "userdoc": {
    "kind": "user",
    "methods": {},
    "notice": "Router contract for volatile pairs",
    "version": 1
  },
  "storageLayout": {
    "storage": [],
    "types": null
  }
}