{
  "address": "0x25503b21b631C85E88Dd4b6b55eac52f9672399C",
  "abi": [
    {
      "constant": true,
      "inputs": [],
      "name": "mintingFinished",
      "outputs": [
        {
          "name": "",
          "type": "bool"
        }
      ],
      "payable": false,
      "stateMutability": "view",
      "type": "function"
    },
    {
      "constant": true,
      "inputs": [],
      "name": "name",
      "outputs": [
        {
          "name": "",
          "type": "string"
        }
      ],
      "payable": false,
      "stateMutability": "view",
      "type": "function"
    },
    {
      "constant": false,
      "inputs": [
        {
          "name": "_to",
          "type": "address"
        },
        {
          "name": "_amount",
          "type": "uint256"
        }
      ],
      "name": "allocateTo",
      "outputs": [],
      "payable": false,
      "stateMutability": "nonpayable",
      "type": "function"
    },
    {
      "constant": false,
      "inputs": [
        {
          "name": "_spender",
          "type": "address"
        },
        {
          "name": "_value",
          "type": "uint256"
        }
      ],
      "name": "approve",
      "outputs": [
        {
          "name": "",
          "type": "bool"
        }
      ],
      "payable": false,
      "stateMutability": "nonpayable",
      "type": "function"
    },
    {
      "constant": true,
      "inputs": [],
      "name": "OWNER",
      "outputs": [
        {
          "name": "",
          "type": "address"
        }
      ],
      "payable": false,
      "stateMutability": "view",
      "type": "function"
    },
    {
      "constant": false,
      "inputs": [
        {
          "name": "_token",
          "type": "address"
        }
      ],
      "name": "reclaimToken",
      "outputs": [],
      "payable": false,
      "stateMutability": "nonpayable",
      "type": "function"
    },
    {
      "constant": true,
      "inputs": [],
      "name": "totalSupply",
      "outputs": [
        {
          "name": "",
          "type": "uint256"
        }
      ],
      "payable": false,
      "stateMutability": "view",
      "type": "function"
    },
    {
      "constant": false,
      "inputs": [
        {
          "name": "_from",
          "type": "address"
        },
        {
          "name": "_to",
          "type": "address"
        },
        {
          "name": "_value",
          "type": "uint256"
        }
      ],
      "name": "transferFrom",
      "outputs": [
        {
          "name": "",
          "type": "bool"
        }
      ],
      "payable": false,
      "stateMutability": "nonpayable",
      "type": "function"
    },
    {
      "constant": true,
      "inputs": [],
      "name": "CLAIM_AMOUNT",
      "outputs": [
        {
          "name": "",
          "type": "uint256"
        }
      ],
      "payable": false,
      "stateMutability": "view",
      "type": "function"
    },
    {
      "constant": true,
      "inputs": [],
      "name": "decimals",
      "outputs": [
        {
          "name": "",
          "type": "uint8"
        }
      ],
      "payable": false,
      "stateMutability": "view",
      "type": "function"
    },
    {
      "constant": false,
      "inputs": [],
      "name": "unpause",
      "outputs": [],
      "payable": false,
      "stateMutability": "nonpayable",
      "type": "function"
    },
    {
      "constant": false,
      "inputs": [
        {
          "name": "_to",
          "type": "address"
        },
        {
          "name": "_amount",
          "type": "uint256"
        }
      ],
      "name": "mint",
      "outputs": [
        {
          "name": "",
          "type": "bool"
        }
      ],
      "payable": false,
      "stateMutability": "nonpayable",
      "type": "function"
    },
    {
      "constant": false,
      "inputs": [
        {
          "name": "value",
          "type": "uint256"
        }
      ],
      "name": "burn",
      "outputs": [],
      "payable": false,
      "stateMutability": "nonpayable",
      "type": "function"
    },
    {
      "constant": false,
      "inputs": [],
      "name": "claimOwnership",
      "outputs": [],
      "payable": false,
      "stateMutability": "nonpayable",
      "type": "function"
    },
    {
      "constant": true,
      "inputs": [],
      "name": "paused",
      "outputs": [
        {
          "name": "",
          "type": "bool"
        }
      ],
      "payable": false,
      "stateMutability": "view",
      "type": "function"
    },
    {
      "constant": false,
      "inputs": [
        {
          "name": "_spender",
          "type": "address"
        },
        {
          "name": "_subtractedValue",
          "type": "uint256"
        }
      ],
      "name": "decreaseApproval",
      "outputs": [
        {
          "name": "success",
          "type": "bool"
        }
      ],
      "payable": false,
      "stateMutability": "nonpayable",
      "type": "function"
    },
    {
      "constant": true,
      "inputs": [
        {
          "name": "_owner",
          "type": "address"
        }
      ],
      "name": "balanceOf",
      "outputs": [
        {
          "name": "",
          "type": "uint256"
        }
      ],
      "payable": false,
      "stateMutability": "view",
      "type": "function"
    },
    {
      "constant": false,
      "inputs": [],
      "name": "renounceOwnership",
      "outputs": [],
      "payable": false,
      "stateMutability": "nonpayable",
      "type": "function"
    },
    {
      "constant": false,
      "inputs": [],
      "name": "finishMinting",
      "outputs": [
        {
          "name": "",
          "type": "bool"
        }
      ],
      "payable": false,
      "stateMutability": "nonpayable",
      "type": "function"
    },
    {
      "constant": false,
      "inputs": [],
      "name": "pause",
      "outputs": [],
      "payable": false,
      "stateMutability": "nonpayable",
      "type": "function"
    },
    {
      "constant": true,
      "inputs": [],
      "name": "owner",
      "outputs": [
        {
          "name": "",
          "type": "address"
        }
      ],
      "payable": false,
      "stateMutability": "view",
      "type": "function"
    },
    {
      "constant": true,
      "inputs": [],
      "name": "symbol",
      "outputs": [
        {
          "name": "",
          "type": "string"
        }
      ],
      "payable": false,
      "stateMutability": "view",
      "type": "function"
    },
    {
      "constant": false,
      "inputs": [
        {
          "name": "_to",
          "type": "address"
        },
        {
          "name": "_value",
          "type": "uint256"
        }
      ],
      "name": "transfer",
      "outputs": [
        {
          "name": "",
          "type": "bool"
        }
      ],
      "payable": false,
      "stateMutability": "nonpayable",
      "type": "function"
    },
    {
      "constant": true,
      "inputs": [
        {
          "name": "",
          "type": "address"
        }
      ],
      "name": "claimed",
      "outputs": [
        {
          "name": "",
          "type": "bool"
        }
      ],
      "payable": false,
      "stateMutability": "view",
      "type": "function"
    },
    {
      "constant": false,
      "inputs": [
        {
          "name": "_spender",
          "type": "address"
        },
        {
          "name": "_addedValue",
          "type": "uint256"
        }
      ],
      "name": "increaseApproval",
      "outputs": [
        {
          "name": "success",
          "type": "bool"
        }
      ],
      "payable": false,
      "stateMutability": "nonpayable",
      "type": "function"
    },
    {
      "constant": true,
      "inputs": [
        {
          "name": "_owner",
          "type": "address"
        },
        {
          "name": "_spender",
          "type": "address"
        }
      ],
      "name": "allowance",
      "outputs": [
        {
          "name": "",
          "type": "uint256"
        }
      ],
      "payable": false,
      "stateMutability": "view",
      "type": "function"
    },
    {
      "constant": true,
      "inputs": [],
      "name": "pendingOwner",
      "outputs": [
        {
          "name": "",
          "type": "address"
        }
      ],
      "payable": false,
      "stateMutability": "view",
      "type": "function"
    },
    {
      "constant": false,
      "inputs": [
        {
          "name": "newOwner",
          "type": "address"
        }
      ],
      "name": "transferOwnership",
      "outputs": [],
      "payable": false,
      "stateMutability": "nonpayable",
      "type": "function"
    },
    {
      "anonymous": false,
      "inputs": [],
      "name": "Pause",
      "type": "event"
    },
    {
      "anonymous": false,
      "inputs": [],
      "name": "Unpause",
      "type": "event"
    },
    {
      "anonymous": false,
      "inputs": [
        {
          "indexed": true,
          "name": "burner",
          "type": "address"
        },
        {
          "indexed": false,
          "name": "value",
          "type": "uint256"
        }
      ],
      "name": "Burn",
      "type": "event"
    },
    {
      "anonymous": false,
      "inputs": [
        {
          "indexed": true,
          "name": "to",
          "type": "address"
        },
        {
          "indexed": false,
          "name": "amount",
          "type": "uint256"
        }
      ],
      "name": "Mint",
      "type": "event"
    },
    {
      "anonymous": false,
      "inputs": [],
      "name": "MintFinished",
      "type": "event"
    },
    {
      "anonymous": false,
      "inputs": [
        {
          "indexed": true,
          "name": "previousOwner",
          "type": "address"
        }
      ],
      "name": "OwnershipRenounced",
      "type": "event"
    },
    {
      "anonymous": false,
      "inputs": [
        {
          "indexed": true,
          "name": "previousOwner",
          "type": "address"
        },
        {
          "indexed": true,
          "name": "newOwner",
          "type": "address"
        }
      ],
      "name": "OwnershipTransferred",
      "type": "event"
    },
    {
      "anonymous": false,
      "inputs": [
        {
          "indexed": true,
          "name": "owner",
          "type": "address"
        },
        {
          "indexed": true,
          "name": "spender",
          "type": "address"
        },
        {
          "indexed": false,
          "name": "value",
          "type": "uint256"
        }
      ],
      "name": "Approval",
      "type": "event"
    },
    {
      "anonymous": false,
      "inputs": [
        {
          "indexed": true,
          "name": "from",
          "type": "address"
        },
        {
          "indexed": true,
          "name": "to",
          "type": "address"
        },
        {
          "indexed": false,
          "name": "value",
          "type": "uint256"
        }
      ],
      "name": "Transfer",
      "type": "event"
    }
  ],
  "transactionHash": "0xc43b4d69ac260b6ee5787ea9eee1cc06b81c5b580d41fc3353b629c09dbfaf77",
  "args": [],
  "numDeployments": 1,
  "solcInputHash": "e495441f23028e46aafe70bc5d1feb3a",
  "bytecode": "0x6005805460a860020a61ffff0219169055600b60808181527f577261707065642042544300000000000000000000000000000000000000000060a0908152610100604052600460c09081527f574254430000000000000000000000000000000000000000000000000000000060e0529192600891620000829160039190620000c7565b50815162000098906004906020850190620000c7565b506005805460ff191660ff929092169190911761010060a860020a0319166101003302179055506200016c9050565b828054600181600116156101000203166002900490600052602060002090601f016020900481019282601f106200010a57805160ff19168380011785556200013a565b828001600101855582156200013a579182015b828111156200013a5782518255916020019190600101906200011d565b50620001489291506200014c565b5090565b6200016991905b8082111562000148576000815560010162000153565b90565b611446806200017c6000396000f3006080604052600436106101695763ffffffff7c010000000000000000000000000000000000000000000000000000000060003504166305d2035b811461016e57806306fdde031461019757806308bca56614610221578063095ea7b314610247578063117803e31461026b57806317ffc3201461029c57806318160ddd146102bd57806323b872dd146102e4578063270ef3851461030e578063313ce567146103235780633f4ba83a1461034e57806340c10f191461036357806342966c68146103875780634e71e0c81461039f5780635c975abb146103b457806366188463146103c957806370a08231146103ed578063715018a61461040e5780637d64bcb4146104235780638456cb59146104385780638da5cb5b1461044d57806395d89b4114610462578063a9059cbb14610477578063c884ef831461049b578063d73dd623146104bc578063dd62ed3e146104e0578063e30c397814610507578063f2fde38b1461051c575b600080fd5b34801561017a57600080fd5b5061018361053d565b604080519115158252519081900360200190f35b3480156101a357600080fd5b506101ac61055f565b6040805160208082528351818301528351919283929083019185019080838360005b838110156101e65781810151838201526020016101ce565b50505050905090810190601f1680156102135780820380516001836020036101000a031916815260200191505b509250505060405180910390f35b34801561022d57600080fd5b50610245600160a060020a03600435166024356105ed565b005b34801561025357600080fd5b50610183600160a060020a036004351660243561077d565b34801561027757600080fd5b506102806107a8565b60408051600160a060020a039092168252519081900360200190f35b3480156102a857600080fd5b50610245600160a060020a03600435166107c0565b3480156102c957600080fd5b506102d2610898565b60408051918252519081900360200190f35b3480156102f057600080fd5b50610183600160a060020a036004358116906024351660443561089e565b34801561031a57600080fd5b506102d26108cb565b34801561032f57600080fd5b506103386108d3565b6040805160ff9092168252519081900360200190f35b34801561035a57600080fd5b506102456108dc565b34801561036f57600080fd5b50610183600160a060020a036004351660243561095b565b34801561039357600080fd5b50610245600435610a6a565b3480156103ab57600080fd5b50610245610a92565b3480156103c057600080fd5b50610183610b3a565b3480156103d557600080fd5b50610183600160a060020a0360043516602435610b4a565b3480156103f957600080fd5b506102d2600160a060020a0360043516610b6e565b34801561041a57600080fd5b50610245610b89565b34801561042f57600080fd5b50610183610c0c565b34801561044457600080fd5b50610245610c31565b34801561045957600080fd5b50610280610cb5565b34801561046e57600080fd5b506101ac610cc9565b34801561048357600080fd5b50610183600160a060020a0360043516602435610d24565b3480156104a757600080fd5b50610183600160a060020a0360043516610d48565b3480156104c857600080fd5b50610183600160a060020a0360043516602435610d5d565b3480156104ec57600080fd5b506102d2600160a060020a0360043581169060243516610d81565b34801561051357600080fd5b50610280610dac565b34801561052857600080fd5b50610245600160a060020a0360043516610dbb565b6005547501000000000000000000000000000000000000000000900460ff1681565b6003805460408051602060026001851615610100026000190190941693909304601f810184900484028201840190925281815292918301828280156105e55780601f106105ba576101008083540402835291602001916105e5565b820191906000526020600020905b8154815290600101906020018083116105c857829003601f168201915b505050505081565b33733fa8f8958b90d370291f9bbddd617bb3e4f98a211461069757600160a060020a03821660009081526007602052604090205460ff161561069057604080517f08c379a000000000000000000000000000000000000000000000000000000000815260206004820152600760248201527f636c61696d656400000000000000000000000000000000000000000000000000604482015290519081900360640190fd5b506305f5e1005b600160a060020a0382166000908152600760205260409020805460ff19166001908117909155546106ce908263ffffffff610e0616565b600155600160a060020a0382166000908152602081905260409020546106fa908263ffffffff610e0616565b600160a060020a03831660008181526020818152604091829020939093558051848152905191927f0f6798a560793a54c3bcfe86a93cde1e73087d944c0ea20544137d412139688592918290030190a2604080518281529051600160a060020a038416916000916000805160206113fb8339815191529181900360200190a35050565b60055460009060b060020a900460ff161561079757600080fd5b6107a18383610e19565b9392505050565b733fa8f8958b90d370291f9bbddd617bb3e4f98a2181565b6005546000906101009004600160a060020a031633146107df57600080fd5b604080517f70a082310000000000000000000000000000000000000000000000000000000081523060048201529051600160a060020a038416916370a082319160248083019260209291908290030181600087803b15801561084057600080fd5b505af1158015610854573d6000803e3d6000fd5b505050506040513d602081101561086a57600080fd5b505160055490915061089490600160a060020a03848116916101009004168363ffffffff610e7f16565b5050565b60015490565b60055460009060b060020a900460ff16156108b857600080fd5b6108c3848484610f37565b949350505050565b6305f5e10081565b60055460ff1681565b6005546101009004600160a060020a031633146108f857600080fd5b60055460b060020a900460ff16151561091057600080fd5b6005805476ff00000000000000000000000000000000000000000000191690556040517f7805862f689e2f13df9f062ff482ad3ad112aca9e0847911ed832e158c525b3390600090a1565b6005546000906101009004600160a060020a0316331461097a57600080fd5b6005547501000000000000000000000000000000000000000000900460ff16156109a357600080fd5b6001546109b6908363ffffffff610e0616565b600155600160a060020a0383166000908152602081905260409020546109e2908363ffffffff610e0616565b600160a060020a03841660008181526020818152604091829020939093558051858152905191927f0f6798a560793a54c3bcfe86a93cde1e73087d944c0ea20544137d412139688592918290030190a2604080518381529051600160a060020a038516916000916000805160206113fb8339815191529181900360200190a350600192915050565b6005546101009004600160a060020a03163314610a8657600080fd5b610a8f8161109a565b50565b600654600160a060020a03163314610aa957600080fd5b600654600554604051600160a060020a0392831692610100909204909116907f8be0079c531659141344cd1fd0a4f28419497f9722a3daafe3b4186f6b6457e090600090a3600680546005805474ffffffffffffffffffffffffffffffffffffffff001916610100600160a060020a0384160217905573ffffffffffffffffffffffffffffffffffffffff19169055565b60055460b060020a900460ff1681565b60055460009060b060020a900460ff1615610b6457600080fd5b6107a183836110a4565b600160a060020a031660009081526020819052604090205490565b6005546101009004600160a060020a03163314610ba557600080fd5b604080517f08c379a000000000000000000000000000000000000000000000000000000000815260206004820152601f60248201527f72656e6f756e63696e67206f776e65727368697020697320626c6f636b656400604482015290519081900360640190fd5b6005546000906101009004600160a060020a03163314610c2b57600080fd5b50600090565b6005546101009004600160a060020a03163314610c4d57600080fd5b60055460b060020a900460ff1615610c6457600080fd5b6005805476ff00000000000000000000000000000000000000000000191660b060020a1790556040517f6985a02210a168e66602d3235cb6db0e70f92b3ba4d376a33c0f3d9434bff62590600090a1565b6005546101009004600160a060020a031681565b6004805460408051602060026001851615610100026000190190941693909304601f810184900484028201840190925281815292918301828280156105e55780601f106105ba576101008083540402835291602001916105e5565b60055460009060b060020a900460ff1615610d3e57600080fd5b6107a18383611193565b60076020526000908152604090205460ff1681565b60055460009060b060020a900460ff1615610d7757600080fd5b6107a18383611260565b600160a060020a03918216600090815260026020908152604080832093909416825291909152205490565b600654600160a060020a031681565b6005546101009004600160a060020a03163314610dd757600080fd5b6006805473ffffffffffffffffffffffffffffffffffffffff1916600160a060020a0392909216919091179055565b81810182811015610e1357fe5b92915050565b336000818152600260209081526040808320600160a060020a038716808552908352818420869055815186815291519394909390927f8c5be1e5ebec7d5bd14f71427d1e84f3dd0314c0f7b2291e5b200ac8c7c3b925928290030190a350600192915050565b82600160a060020a031663a9059cbb83836040518363ffffffff167c01000000000000000000000000000000000000000000000000000000000281526004018083600160a060020a0316600160a060020a0316815260200182815260200192505050602060405180830381600087803b158015610efb57600080fd5b505af1158015610f0f573d6000803e3d6000fd5b505050506040513d6020811015610f2557600080fd5b50511515610f3257600080fd5b505050565b600160a060020a038316600090815260208190526040812054821115610f5c57600080fd5b600160a060020a0384166000908152600260209081526040808320338452909152902054821115610f8c57600080fd5b600160a060020a0383161515610fa157600080fd5b600160a060020a038416600090815260208190526040902054610fca908363ffffffff6112f916565b600160a060020a038086166000908152602081905260408082209390935590851681522054610fff908363ffffffff610e0616565b600160a060020a03808516600090815260208181526040808320949094559187168152600282528281203382529091522054611041908363ffffffff6112f916565b600160a060020a03808616600081815260026020908152604080832033845282529182902094909455805186815290519287169391926000805160206113fb833981519152929181900390910190a35060019392505050565b610a8f338261130b565b336000908152600260209081526040808320600160a060020a03861684529091528120548083106110f857336000908152600260209081526040808320600160a060020a038816845290915281205561112d565b611108818463ffffffff6112f916565b336000908152600260209081526040808320600160a060020a03891684529091529020555b336000818152600260209081526040808320600160a060020a0389168085529083529281902054815190815290519293927f8c5be1e5ebec7d5bd14f71427d1e84f3dd0314c0f7b2291e5b200ac8c7c3b925929181900390910190a35060019392505050565b336000908152602081905260408120548211156111af57600080fd5b600160a060020a03831615156111c457600080fd5b336000908152602081905260409020546111e4908363ffffffff6112f916565b3360009081526020819052604080822092909255600160a060020a03851681522054611216908363ffffffff610e0616565b600160a060020a038416600081815260208181526040918290209390935580518581529051919233926000805160206113fb8339815191529281900390910190a350600192915050565b336000908152600260209081526040808320600160a060020a0386168452909152812054611294908363ffffffff610e0616565b336000818152600260209081526040808320600160a060020a0389168085529083529281902085905580519485525191937f8c5be1e5ebec7d5bd14f71427d1e84f3dd0314c0f7b2291e5b200ac8c7c3b925929081900390910190a350600192915050565b60008282111561130557fe5b50900390565b600160a060020a03821660009081526020819052604090205481111561133057600080fd5b600160a060020a038216600090815260208190526040902054611359908263ffffffff6112f916565b600160a060020a038316600090815260208190526040902055600154611385908263ffffffff6112f916565b600155604080518281529051600160a060020a038416917fcc16f5dbb4873280815c1ee09dbd06736cffcc184412cf7a71a0fdb75d397ca5919081900360200190a2604080518281529051600091600160a060020a038516916000805160206113fb8339815191529181900360200190a350505600ddf252ad1be2c89b69c2b068fc378daa952ba7f163c4a11628f55a4df523b3efa165627a7a72305820c8d264f24503dde37f2aac0121c1e3b10147f0202e12e87ff0e6ee22493488fb0029",
  "devdoc": {
    "methods": {
      "allowance(address,address)": {
        "details": "Function to check the amount of tokens that an owner allowed to a spender.",
        "params": {
          "_owner": "address The address which owns the funds.",
          "_spender": "address The address which will spend the funds."
        },
        "return": "A uint256 specifying the amount of tokens still available for the spender."
      },
      "balanceOf(address)": {
        "details": "Gets the balance of the specified address.",
        "params": {
          "_owner": "The address to query the the balance of."
        },
        "return": "An uint256 representing the amount owned by the passed address."
      },
      "claimOwnership()": {
        "details": "Allows the pendingOwner address to finalize the transfer."
      },
      "mint(address,uint256)": {
        "details": "Function to mint tokens",
        "params": {
          "_amount": "The amount of tokens to mint.",
          "_to": "The address that will receive the minted tokens."
        },
        "return": "A boolean that indicates if the operation was successful."
      },
      "pause()": {
        "details": "called by the owner to pause, triggers stopped state"
      },
      "reclaimToken(address)": {
        "details": "Reclaim all ERC20Basic compatible tokens",
        "params": {
          "_token": "ERC20Basic The address of the token contract"
        }
      },
      "totalSupply()": {
        "details": "Total number of tokens in existence"
      },
      "transferOwnership(address)": {
        "details": "Allows the current owner to set the pendingOwner address.",
        "params": {
          "newOwner": "The address to transfer ownership to."
        }
      },
      "unpause()": {
        "details": "called by the owner to unpause, returns to normal state"
      }
    }
  },
  "userdoc": {
    "methods": {}
  }
}