{
  "address": "0x3BbB16351059D7405b2C41D9Fb9B89d71A8A1A4f",
  "abi": [
    {
      "anonymous": false,
      "inputs": [
        {
          "indexed": true,
          "internalType": "address",
          "name": "provider",
          "type": "address"
        },
        {
          "indexed": false,
          "internalType": "uint256[]",
          "name": "tokenAmounts",
          "type": "uint256[]"
        },
        {
          "indexed": false,
          "internalType": "uint256[]",
          "name": "fees",
          "type": "uint256[]"
        },
        {
          "indexed": false,
          "internalType": "uint256",
          "name": "invariant",
          "type": "uint256"
        },
        {
          "indexed": false,
          "internalType": "uint256",
          "name": "lpTokenSupply",
          "type": "uint256"
        }
      ],
      "name": "AddLiquidity",
      "type": "event"
    },
    {
      "anonymous": false,
      "inputs": [
        {
          "indexed": false,
          "internalType": "uint256",
          "name": "newAdminFee",
          "type": "uint256"
        }
      ],
      "name": "NewAdminFee",
      "type": "event"
    },
    {
      "anonymous": false,
      "inputs": [
        {
          "indexed": false,
          "internalType": "uint256",
          "name": "newSwapFee",
          "type": "uint256"
        }
      ],
      "name": "NewSwapFee",
      "type": "event"
    },
    {
      "anonymous": false,
      "inputs": [
        {
          "indexed": true,
          "internalType": "address",
          "name": "provider",
          "type": "address"
        },
        {
          "indexed": false,
          "internalType": "uint256[]",
          "name": "tokenAmounts",
          "type": "uint256[]"
        },
        {
          "indexed": false,
          "internalType": "uint256",
          "name": "lpTokenSupply",
          "type": "uint256"
        }
      ],
      "name": "RemoveLiquidity",
      "type": "event"
    },
    {
      "anonymous": false,
      "inputs": [
        {
          "indexed": true,
          "internalType": "address",
          "name": "provider",
          "type": "address"
        },
        {
          "indexed": false,
          "internalType": "uint256[]",
          "name": "tokenAmounts",
          "type": "uint256[]"
        },
        {
          "indexed": false,
          "internalType": "uint256[]",
          "name": "fees",
          "type": "uint256[]"
        },
        {
          "indexed": false,
          "internalType": "uint256",
          "name": "invariant",
          "type": "uint256"
        },
        {
          "indexed": false,
          "internalType": "uint256",
          "name": "lpTokenSupply",
          "type": "uint256"
        }
      ],
      "name": "RemoveLiquidityImbalance",
      "type": "event"
    },
    {
      "anonymous": false,
      "inputs": [
        {
          "indexed": true,
          "internalType": "address",
          "name": "provider",
          "type": "address"
        },
        {
          "indexed": false,
          "internalType": "uint256",
          "name": "lpTokenAmount",
          "type": "uint256"
        },
        {
          "indexed": false,
          "internalType": "uint256",
          "name": "lpTokenSupply",
          "type": "uint256"
        },
        {
          "indexed": false,
          "internalType": "uint256",
          "name": "boughtId",
          "type": "uint256"
        },
        {
          "indexed": false,
          "internalType": "uint256",
          "name": "tokensBought",
          "type": "uint256"
        }
      ],
      "name": "RemoveLiquidityOne",
      "type": "event"
    },
    {
      "anonymous": false,
      "inputs": [
        {
          "indexed": false,
          "internalType": "address[]",
          "name": "tokens",
          "type": "address[]"
        },
        {
          "indexed": false,
          "internalType": "uint256[]",
          "name": "swapFees",
          "type": "uint256[]"
        }
      ],
      "name": "SwapFee",
      "type": "event"
    },
    {
      "anonymous": false,
      "inputs": [
        {
          "indexed": true,
          "internalType": "address",
          "name": "buyer",
          "type": "address"
        },
        {
          "indexed": false,
          "internalType": "uint256",
          "name": "tokensSold",
          "type": "uint256"
        },
        {
          "indexed": false,
          "internalType": "uint256",
          "name": "tokensBought",
          "type": "uint256"
        },
        {
          "indexed": false,
          "internalType": "uint128",
          "name": "soldId",
          "type": "uint128"
        },
        {
          "indexed": false,
          "internalType": "uint128",
          "name": "boughtId",
          "type": "uint128"
        }
      ],
      "name": "TokenSwap",
      "type": "event"
    },
    {
      "inputs": [],
      "name": "MAX_ADMIN_FEE",
      "outputs": [
        {
          "internalType": "uint256",
          "name": "",
          "type": "uint256"
        }
      ],
      "stateMutability": "view",
      "type": "function"
    },
    {
      "inputs": [],
      "name": "MAX_SWAP_FEE",
      "outputs": [
        {
          "internalType": "uint256",
          "name": "",
          "type": "uint256"
        }
      ],
      "stateMutability": "view",
      "type": "function"
    },
    {
      "inputs": [],
      "name": "POOL_PRECISION_DECIMALS",
      "outputs": [
        {
          "internalType": "uint8",
          "name": "",
          "type": "uint8"
        }
      ],
      "stateMutability": "view",
      "type": "function"
    }
  ],
  "transactionHash": "0x322fc503cbef8b9c33c3973ef3c7ae60f3361f7479ba5e322b547063f4571e1e",
  "args": [],
  "numDeployments": 1,
  "solcInputHash": "9b21e319764618c9d948ab61837fddc4",
  "bytecode": "0x614bdb610026600b82828239805160001a60731461001957fe5b30600052607381538281f3fe73000000000000000000000000000000000000000030146080604052600436106101155760003560e01c80637d048160116100ac578063b3bcd4c91161007b578063b3bcd4c9146104a0578063e069274214610531578063f28f48501461055d578063f3562553146105ab578063f3de03621461060457610115565b80637d0481601461036e578063834b491014610391578063ab3d854414610408578063abbce0831461041057610115565b80634b23603c116100e85780634b23603c146102c857806370467276146102fe57806370703e4a1461032e57806371906c2c1461035157610115565b80630296ab501461011a578063241609961461013857806324c5c7511461020d578063467e186c14610296575b600080fd5b61012261060c565b6040805160ff9092168252519081900360200190f35b81801561014457600080fd5b506101fb6004803603608081101561015b57600080fd5b81359190810190604081016020820135600160201b81111561017c57600080fd5b82018360208201111561018e57600080fd5b803590602001918460208302840111600160201b831117156101af57600080fd5b91908080602002602001604051908101604052809392919081815260200183836020028082843760009201919091525092955050823593505050602001356001600160a01b0316610611565b60408051918252519081900360200190f35b81801561021957600080fd5b506102466004803603604081101561023057600080fd5b50803590602001356001600160a01b0316611185565b60408051602080825283518183015283519192839290830191858101910280838360005b8381101561028257818101518382015260200161026a565b505050509050019250505060405180910390f35b8180156102a257600080fd5b506102c6600480360360408110156102b957600080fd5b5080359060200135611306565b005b6101fb600480360360808110156102de57600080fd5b5080359060ff60208201358116916040810135909116906060013561138f565b81801561030a57600080fd5b506102c66004803603604081101561032157600080fd5b50803590602001356113fa565b6102466004803603604081101561034457600080fd5b5080359060200135611484565b6101fb6004803603602081101561036757600080fd5b5035611565565b6101fb6004803603604081101561038457600080fd5b508035906020013561163c565b6101fb600480360360608110156103a757600080fd5b81359190810190604081016020820135600160201b8111156103c857600080fd5b8201836020820111156103da57600080fd5b803590602001918460208302840111600160201b831117156103fb57600080fd5b919350915035151561170d565b6101fb611961565b81801561041c57600080fd5b506102466004803603608081101561043357600080fd5b813591602081013591810190606081016040820135600160201b81111561045957600080fd5b82018360208201111561046b57600080fd5b803590602001918460208302840111600160201b8311171561048c57600080fd5b9193509150356001600160a01b0316611969565b8180156104ac57600080fd5b506101fb600480360360808110156104c357600080fd5b81359190810190604081016020820135600160201b8111156104e457600080fd5b8201836020820111156104f657600080fd5b803590602001918460208302840111600160201b8311171561051757600080fd5b9193509150803590602001356001600160a01b0316611dd6565b6101fb6004803603606081101561054757600080fd5b508035906020810135906040013560ff1661279b565b81801561056957600080fd5b506101fb600480360360a081101561058057600080fd5b50803590602081013590604081013560ff1690606081013590608001356001600160a01b0316612825565b8180156105b757600080fd5b506101fb600480360360c08110156105ce57600080fd5b50803590602081013560ff9081169160408101359091169060608101359060808101359060a001356001600160a01b0316612d21565b6101fb613274565b601281565b600060608560070180548060200260200160405190810160405280929190818152602001828054801561066d57602002820191906000526020600020905b81546001600160a01b0316815260019091019060200180831161064f575b5050505050905080518551146106ca576040805162461bcd60e51b815260206004820181905260248201527f416d6f756e7473206d757374206d6174636820706f6f6c656420746f6b656e73604482015290519081900360640190fd5b6106d26149ec565b6040518061010001604052806000815260200160008152602001600081526020016106fc8961327d565b81526020018860060160009054906101000a90046001600160a01b03166001600160a01b03168152602001600081526020018860090180548060200260200160405190810160405280929190818152602001828054801561077c57602002820191906000526020600020905b815481526020019060010190808311610768575b50505050508152602001886008018054806020026020016040519081016040528092919081815260200182805480156107d457602002820191906000526020600020905b8154815260200190600101908083116107c0575b5050505050815250905080608001516001600160a01b03166318160ddd6040518163ffffffff1660e01b815260040160206040518083038186803b15801561081b57600080fd5b505afa15801561082f573d6000803e3d6000fd5b505050506040513d602081101561084557600080fd5b505160a0820181905215610875576108726108688260c001518360e00151613288565b8260600151613375565b81525b606082516001600160401b038111801561088e57600080fd5b506040519080825280602002602001820160405280156108b8578160200160208202803683370190505b50905060005b8351811015610b405760a08301511515806108ec575060008882815181106108e257fe5b6020026020010151115b61093d576040805162461bcd60e51b815260206004820152601e60248201527f4d75737420737570706c7920616c6c20746f6b656e7320696e20706f6f6c0000604482015290519081900360640190fd5b87818151811061094957fe5b6020026020010151600014610ae457600084828151811061096657fe5b60200260200101516001600160a01b03166370a08231306040518263ffffffff1660e01b815260040180826001600160a01b0316815260200191505060206040518083038186803b1580156109ba57600080fd5b505afa1580156109ce573d6000803e3d6000fd5b505050506040513d60208110156109e457600080fd5b50518951909150610a3490339030908c90869081106109ff57fe5b6020026020010151888681518110610a1357fe5b60200260200101516001600160a01b03166134d7909392919063ffffffff16565b610aca81868481518110610a4457fe5b60200260200101516001600160a01b03166370a08231306040518263ffffffff1660e01b815260040180826001600160a01b0316815260200191505060206040518083038186803b158015610a9857600080fd5b505afa158015610aac573d6000803e3d6000fd5b505050506040513d6020811015610ac257600080fd5b505190613537565b898381518110610ad657fe5b602002602001018181525050505b610b21888281518110610af357fe5b60200260200101518460c001518381518110610b0b57fe5b602002602001015161359490919063ffffffff16565b828281518110610b2d57fe5b60209081029190910101526001016108be565b50610b5c610b52828460e00151613288565b8360600151613375565b60208301819052825110610bab576040805162461bcd60e51b8152602060048201526011602482015270442073686f756c6420696e63726561736560781b604482015290519081900360640190fd5b6020820151604083015282516060906001600160401b0381118015610bcf57600080fd5b50604051908082528060200260200182016040528015610bf9578160200160208202803683370190505b5090508260a00151600014610f66576000610c198a6004015486516135ee565b9050610c23614a3a565b82516001600160401b0381118015610c3a57600080fd5b50604051908082528060200260200182016040528015610c64578160200160208202803683370190505b50604082015282516001600160401b0381118015610c8157600080fd5b50604051908082528060200260200182016040528015610cab578160200160208202803683370190505b50606082015260058b0154815260005b8651811015610e8c576000610d028760000151610cfc8960c001518581518110610ce157fe5b60200260200101518a6020015161360990919063ffffffff16565b90613662565b9050610d3d6402540be400610cfc610d36898681518110610d1f57fe5b6020026020010151856136c990919063ffffffff16565b8790613609565b858381518110610d4957fe5b602002602001018181525050610d886402540be400610cfc8560000151888681518110610d7257fe5b602002602001015161360990919063ffffffff16565b602084018190528651610db89190889085908110610da257fe5b602002602001015161353790919063ffffffff16565b8d6009018381548110610dc757fe5b9060005260206000200181905550610df8858381518110610de457fe5b6020026020010151878481518110610da257fe5b868381518110610e0457fe5b602002602001018181525050878281518110610e1c57fe5b602002602001015183604001518381518110610e3457fe5b60200260200101906001600160a01b031690816001600160a01b031681525050610e688360200151868481518110610da257fe5b83606001518381518110610e7857fe5b602090810291909101015250600101610cbb565b50600080516020614af283398151915281604001518260600151604051808060200180602001838103835285818151815260200191508051906020019060200280838360005b83811015610eea578181015183820152602001610ed2565b50505050905001838103825284818151815260200191508051906020019060200280838360005b83811015610f29578181015183820152602001610f11565b5050505090500194505050505060405180910390a1610f59610f4f858760e00151613288565b8660600151613375565b604086015250610f7d9050565b8151610f7b9060098b01906020850190614a62565b505b60008360a0015160001415610f9757506020830151610fbf565b835160a08501516040860151610fbc9291610cfc91610fb69084613537565b90613609565b90505b87811015611014576040805162461bcd60e51b815260206004820152601b60248201527f436f756c646e2774206d696e74206d696e207265717565737465640000000000604482015290519081900360640190fd5b83608001516001600160a01b03166340c10f1988836040518363ffffffff1660e01b815260040180836001600160a01b0316815260200182815260200192505050600060405180830381600087803b15801561106f57600080fd5b505af1158015611083573d6000803e3d6000fd5b50505050866001600160a01b03167f189c623b666b1b45b83d7178f39b8c087cb09774317ca2f53c2d3c3726f222a28a8487602001516110d0868a60a0015161359490919063ffffffff16565b604051808060200180602001858152602001848152602001838103835287818151815260200191508051906020019060200280838360005b83811015611120578181015183820152602001611108565b50505050905001838103825286818151815260200191508051906020019060200280838360005b8381101561115f578181015183820152602001611147565b50505050905001965050505050505060405180910390a29450505050505b949350505050565b606080836007018054806020026020016040519081016040528092919081815260200182805480156111e057602002820191906000526020600020905b81546001600160a01b031681526001909101906020018083116111c2575b50505050509050606081516001600160401b038111801561120057600080fd5b5060405190808252806020026020018201604052801561122a578160200160208202803683370190505b50905060005b82518110156112fb57600083828151811061124757fe5b6020026020010151905060006112bd88600901848154811061126557fe5b9060005260206000200154836001600160a01b03166370a08231306040518263ffffffff1660e01b815260040180826001600160a01b0316815260200191505060206040518083038186803b158015610a9857600080fd5b9050808484815181106112cc57fe5b602090810291909101015280156112f1576112f16001600160a01b03831688836136e1565b5050600101611230565b509150505b92915050565b6305f5e100811115611351576040805162461bcd60e51b815260206004820152600f60248201526e08ccaca40d2e640e8dede40d0d2ced608b1b604482015290519081900360640190fd5b600482018190556040805182815290517fd88ea5155021c6f8dafa1a741e173f595cdf77ce7c17d43342131d7f06afdfe59181900360200190a15050565b60006113f085858585896009018054806020026020016040519081016040528092919081815260200182805480156113e657602002820191906000526020600020905b8154815260200190600101908083116113d2575b5050505050613738565b5095945050505050565b6402540be400811115611446576040805162461bcd60e51b815260206004820152600f60248201526e08ccaca40d2e640e8dede40d0d2ced608b1b604482015290519081900360640190fd5b600582018190556040805182815290517fab599d640ca80cde2b09b128a4154a8dfe608cb80f4c9399c8b954b01fd35f389181900360200190a15050565b606061155e836009018054806020026020016040519081016040528092919081815260200182805480156114d757602002820191906000526020600020905b8154815260200190600101908083116114c3575b5050505050838560060160009054906101000a90046001600160a01b03166001600160a01b03166318160ddd6040518163ffffffff1660e01b815260040160206040518083038186803b15801561152d57600080fd5b505afa158015611541573d6000803e3d6000fd5b505050506040513d602081101561155757600080fd5b50516138db565b9392505050565b600080611582611574846139c0565b61157d8561327d565b613375565b905060008360060160009054906101000a90046001600160a01b031690506000816001600160a01b03166318160ddd6040518163ffffffff1660e01b815260040160206040518083038186803b1580156115db57600080fd5b505afa1580156115ef573d6000803e3d6000fd5b505050506040513d602081101561160557600080fd5b50519050801561162f5761162581610cfc85670de0b6b3a7640000613609565b9350505050611637565b600093505050505b919050565b60078201546000908210611692576040805162461bcd60e51b8152602060048201526018602482015277546f6b656e20696e646578206f7574206f662072616e676560401b604482015290519081900360640190fd5b61155e8360090183815481106116a457fe5b90600052602060002001548460070184815481106116be57fe5b60009182526020918290200154604080516370a0823160e01b815230600482015290516001600160a01b03909216926370a0823192602480840193829003018186803b158015610a9857600080fd5b600081156117595761175285858580806020026020016040519081016040528093929190818152602001838360200280828437600092019190915250613a7092505050565b905061117d565b60006117648661327d565b90506060866009018054806020026020016040519081016040528092919081815260200182805480156117b657602002820191906000526020600020905b8154815260200190600101908083116117a2575b5050505050905060608760080180548060200260200160405190810160405280929190818152602001828054801561180d57602002820191906000526020600020905b8154815260200190600101908083116117f9575b5050505050905060006118296118238484613288565b85613375565b905060005b83518110156118a85761188989898381811061184657fe5b90506020020135604051806060016040528060238152602001614b836023913986848151811061187257fe5b6020026020010151613f379092919063ffffffff16565b84828151811061189557fe5b602090810291909101015260010161182e565b5060006118be6118b88585613288565b86613375565b905060008a60060160009054906101000a90046001600160a01b03166001600160a01b03166318160ddd6040518163ffffffff1660e01b815260040160206040518083038186803b15801561191257600080fd5b505afa158015611926573d6000803e3d6000fd5b505050506040513d602081101561193c57600080fd5b5051905061195283610cfc83610fb68387613537565b9b9a5050505050505050505050565b6305f5e10081565b6006850154600786018054604080516020808402820181019092528281526060946001600160a01b031693859391929091908301828280156119d457602002820191906000526020600020905b81546001600160a01b031681526001909101906020018083116119b6575b50505050509050816001600160a01b03166370a08231336040518263ffffffff1660e01b815260040180826001600160a01b0316815260200191505060206040518083038186803b158015611a2857600080fd5b505afa158015611a3c573d6000803e3d6000fd5b505050506040513d6020811015611a5257600080fd5b5051871115611a98576040805162461bcd60e51b815260206004820152600d60248201526c1f2628173130b630b731b2a7b360991b604482015290519081900360640190fd5b80518514611aed576040805162461bcd60e51b815260206004820181905260248201527f6d696e416d6f756e7473206d757374206d6174636820706f6f6c546f6b656e73604482015290519081900360640190fd5b606088600901805480602002602001604051908101604052809291908181526020018280548015611b3d57602002820191906000526020600020905b815481526020019060010190808311611b29575b505050505090506000836001600160a01b03166318160ddd6040518163ffffffff1660e01b815260040160206040518083038186803b158015611b7f57600080fd5b505afa158015611b93573d6000803e3d6000fd5b505050506040513d6020811015611ba957600080fd5b505190506060611bba838b846138db565b905060005b8151811015611cce57898982818110611bd457fe5b90506020020135828281518110611be757fe5b60200260200101511015611c42576040805162461bcd60e51b815260206004820152601a60248201527f616d6f756e74735b695d203c206d696e416d6f756e74735b695d000000000000604482015290519081900360640190fd5b611c65828281518110611c5157fe5b6020026020010151858381518110610da257fe5b8c6009018281548110611c7457fe5b9060005260206000200181905550611cc688838381518110611c9257fe5b6020026020010151878481518110611ca657fe5b60200260200101516001600160a01b03166136e19092919063ffffffff16565b600101611bbf565b506040805163079cc67960e41b8152336004820152602481018c905290516001600160a01b038716916379cc679091604480830192600092919082900301818387803b158015611d1d57600080fd5b505af1158015611d31573d6000803e3d6000fd5b5050506001600160a01b03881690507f88d38ed598fdd809c2bf01ee49cd24b7fdabf379a83d29567952b60324d58cef82611d6c858e613537565b6040518080602001838152602001828103825284818151815260200191508051906020019060200280838360005b83811015611db2578181015183820152602001611d9a565b50505050905001935050505060405180910390a29450505050505b95945050505050565b6000611de06149ec565b604051806101000160405280600081526020016000815260200160008152602001611e0a8961327d565b81526020018860060160009054906101000a90046001600160a01b03166001600160a01b031681526020016000815260200188600901805480602002602001604051908101604052809291908181526020018280548015611e8a57602002820191906000526020600020905b815481526020019060010190808311611e76575b5050505050815260200188600801805480602002602001604051908101604052809291908181526020018280548015611ee257602002820191906000526020600020905b815481526020019060010190808311611ece575b5050505050815250905080608001516001600160a01b03166318160ddd6040518163ffffffff1660e01b815260040160206040518083038186803b158015611f2957600080fd5b505afa158015611f3d573d6000803e3d6000fd5b505050506040513d6020811015611f5357600080fd5b505160a08201526007870180546040805160208381028201810190925282815260609390929091830182828015611fb357602002820191906000526020600020905b81546001600160a01b03168152600190910190602001808311611f95575b5050505050905080518787905014612012576040805162461bcd60e51b815260206004820181905260248201527f416d6f756e74732073686f756c64206d6174636820706f6f6c20746f6b656e73604482015290519081900360640190fd5b81608001516001600160a01b03166370a08231336040518263ffffffff1660e01b815260040180826001600160a01b0316815260200191505060206040518083038186803b15801561206357600080fd5b505afa158015612077573d6000803e3d6000fd5b505050506040513d602081101561208d57600080fd5b5051851180159061209d57508415155b6120de576040805162461bcd60e51b815260206004820152600d60248201526c1f2628173130b630b731b2a7b360991b604482015290519081900360640190fd5b60006120ef896004015483516135ee565b9050606082516001600160401b038111801561210a57600080fd5b50604051908082528060200260200182016040528015612134578160200160208202803683370190505b509050606083516001600160401b038111801561215057600080fd5b5060405190808252806020026020018201604052801561217a578160200160208202803683370190505b509050612192610f4f8660c001518760e00151613288565b855260005b84518110156121fe576121df8b8b838181106121af57fe5b90506020020135604051806060016040528060238152602001614b83602391398860c00151848151811061187257fe5b8282815181106121eb57fe5b6020908102919091010152600101612197565b50612210610f4f828760e00151613288565b602086015261221d614a3a565b82516001600160401b038111801561223457600080fd5b5060405190808252806020026020018201604052801561225e578160200160208202803683370190505b50604082015282516001600160401b038111801561227b57600080fd5b506040519080825280602002602001820160405280156122a5578160200160208202803683370190505b50606082015260058c0154815260005b85518110156124595760006122f68860000151610cfc8a60c0015185815181106122db57fe5b60200260200101518b6020015161360990919063ffffffff16565b9050600061232085848151811061230957fe5b6020026020010151836136c990919063ffffffff16565b90506123356402540be400610cfc8984613609565b86848151811061234157fe5b60200260200101818152505061236a6402540be400610cfc8660000151898781518110610d7257fe5b6020850181905285516123849190879086908110610da257fe5b8f600901848154811061239357fe5b90600052602060002001819055506123c48684815181106123b057fe5b6020026020010151868581518110610da257fe5b8584815181106123d057fe5b6020026020010181815250508783815181106123e857fe5b60200260200101518460400151848151811061240057fe5b60200260200101906001600160a01b031690816001600160a01b0316815250506124348460200151878581518110610da257fe5b8460600151848151811061244457fe5b602090810291909101015250506001016122b5565b50600080516020614af283398151915281604001518260600151604051808060200180602001838103835285818151815260200191508051906020019060200280838360005b838110156124b757818101518382015260200161249f565b50505050905001838103825284818151815260200191508051906020019060200280838360005b838110156124f65781810151838201526020016124de565b5050505090500194505050505060405180910390a161252661251c838860e00151613288565b8760600151613375565b60408701819052865160a08801516000945061254f93509091610cfc9190610fb6908490613537565b9050806125a3576040805162461bcd60e51b815260206004820152601b60248201527f4275726e7420616d6f756e742063616e6e6f74206265207a65726f0000000000604482015290519081900360640190fd5b6125ae816001613594565b905087811115612605576040805162461bcd60e51b815260206004820152601b60248201527f746f6b656e416d6f756e74203e206d61784275726e416d6f756e740000000000604482015290519081900360640190fd5b84608001516001600160a01b03166379cc679033836040518363ffffffff1660e01b815260040180836001600160a01b0316815260200182815260200192505050600060405180830381600087803b15801561266057600080fd5b505af1158015612674573d6000803e3d6000fd5b5050505060005b84518110156126af576126a7888c8c8481811061269457fe5b90506020020135878481518110611ca657fe5b60010161267b565b50866001600160a01b03167f3631c28b1f9dd213e0319fb167b554d76b6c283a41143eb400a0d1adb1af17558b8b8589602001516126fa878c60a0015161353790919063ffffffff16565b60405180806020018060200185815260200184815260200183810383528888828181526020019250602002808284376000838201819052601f909101601f19169092018581038452885181528851602091820193828b0193509102908190849084905b8381101561277557818101518382015260200161275d565b5050505090500197505050505050505060405180910390a29a9950505050505050505050565b6000806113f08585858860060160009054906101000a90046001600160a01b03166001600160a01b03166318160ddd6040518163ffffffff1660e01b815260040160206040518083038186803b1580156127f457600080fd5b505afa158015612808573d6000803e3d6000fd5b505050506040513d602081101561281e57600080fd5b5051613fce565b6006850154600786018054604080516020808402820181019092528281526000946001600160a01b031693606093919290919083018282801561289157602002820191906000526020600020905b81546001600160a01b03168152600190910190602001808311612873575b50505050509050816001600160a01b03166370a08231336040518263ffffffff1660e01b815260040180826001600160a01b0316815260200191505060206040518083038186803b1580156128e557600080fd5b505afa1580156128f9573d6000803e3d6000fd5b505050506040513d602081101561290f57600080fd5b5051871115612955576040805162461bcd60e51b815260206004820152600d60248201526c1f2628173130b630b731b2a7b360991b604482015290519081900360640190fd5b80518660ff161061299f576040805162461bcd60e51b815260206004820152600f60248201526e151bdad95b881b9bdd08199bdd5b99608a1b604482015290519081900360640190fd5b6000826001600160a01b03166318160ddd6040518163ffffffff1660e01b815260040160206040518083038186803b1580156129da57600080fd5b505afa1580156129ee573d6000803e3d6000fd5b505050506040513d6020811015612a0457600080fd5b50519050600080612a178b8b8b86613fce565b9150915087821015612a61576040805162461bcd60e51b815260206004820152600e60248201526d191e480f081b5a5b905b5bdd5b9d60921b604482015290519081900360640190fd5b6000612a836402540be400610cfc8e600501548561360990919063ffffffff16565b9050612abd612a928483613594565b8d6009018c60ff1681548110612aa457fe5b906000526020600020015461353790919063ffffffff16565b8c6009018b60ff1681548110612acf57fe5b60009182526020822001919091556040805163079cc67960e41b8152336004820152602481018e905290516001600160a01b038916926379cc6790926044808201939182900301818387803b158015612b2757600080fd5b505af1158015612b3b573d6000803e3d6000fd5b50505050612b538884878d60ff1681518110611ca657fe5b604080518c81526020810186905260ff8c16818301526060810185905290516001600160a01b038a16917f43fb02998f4e03da2e0e6fff53fdbf0c40a9f45f145dc377fc30615d7d7a8a64919081900360800190a2612bb0614a3a565b604080516001808252818301909252906020808301908036833750505060408281019190915280516001808252818301909252906020808301908036833750505060608201528551869060ff8d16908110612c0757fe5b60200260200101518160400151600081518110612c2057fe5b6001600160a01b0390921660209283029190910190910152612c428383613537565b8160600151600081518110612c5357fe5b602002602001018181525050600080516020614af283398151915281604001518260600151604051808060200180602001838103835285818151815260200191508051906020019060200280838360005b83811015612cbc578181015183820152602001612ca4565b50505050905001838103825284818151815260200191508051906020019060200280838360005b83811015612cfb578181015183820152602001612ce3565b5050505090500194505050505060405180910390a150919b9a5050505050505050505050565b600080876007018760ff1681548110612d3657fe5b60009182526020918290200154604080516370a0823160e01b815233600482015290516001600160a01b03909216935083926370a0823192602480840193829003018186803b158015612d8857600080fd5b505afa158015612d9c573d6000803e3d6000fd5b505050506040513d6020811015612db257600080fd5b5051851115612e08576040805162461bcd60e51b815260206004820152601d60248201527f43616e6e6f742073776170206d6f7265207468616e20796f75206f776e000000604482015290519081900360640190fd5b6000816001600160a01b03166370a08231306040518263ffffffff1660e01b815260040180826001600160a01b0316815260200191505060206040518083038186803b158015612e5757600080fd5b505afa158015612e6b573d6000803e3d6000fd5b505050506040513d6020811015612e8157600080fd5b50519050612e9a6001600160a01b0383163330896134d7565b612eeb81836001600160a01b03166370a08231306040518263ffffffff1660e01b815260040180826001600160a01b0316815260200191505060206040518083038186803b158015610a9857600080fd5b95505050600080606089600901805480602002602001604051908101604052809291908181526020018280548015612f4257602002820191906000526020600020905b815481526020019060010190808311612f2e575b50505050509050612f568a8a8a8a85613738565b909350915085831015612fb0576040805162461bcd60e51b815260206004820181905260248201527f53776170206469646e277420726573756c7420696e206d696e20746f6b656e73604482015290519081900360640190fd5b6000612ff28b6008018a60ff1681548110612fc757fe5b9060005260206000200154610cfc6402540be400610cfc8f600501548861360990919063ffffffff16565b905061300788838c60ff1681518110610b0b57fe5b8b6009018b60ff168154811061301957fe5b90600052602060002001819055506130448161303e86858d60ff1681518110610da257fe5b90613537565b8b6009018a60ff168154811061305657fe5b906000526020600020018190555061309786858d6007018c60ff168154811061307b57fe5b6000918252602090912001546001600160a01b031691906136e1565b604080518981526020810186905260ff808d16828401528b16606082015290516001600160a01b038816917fc6c1e0630dbe9130cc068028486c0d118ddcea348550819defd5cb8c257f8a38919081900360800190a26130f5614a3a565b6040805160018082528183019092529060208083019080368337505050604082810191909152805160018082528183019092529060208083019080368337505050606082015260078c01805460ff8c1690811061314e57fe5b6000918252602082200154604083015180516001600160a01b0390921692909161317457fe5b6001600160a01b03909216602092830291909101909101526131968483613537565b81606001516000815181106131a757fe5b602002602001018181525050600080516020614af283398151915281604001518260600151604051808060200180602001838103835285818151815260200191508051906020019060200280838360005b838110156132105781810151838201526020016131f8565b50505050905001838103825284818151815260200191508051906020019060200280838360005b8381101561324f578181015183820152602001613237565b5050505090500194505050505060405180910390a150929a9950505050505050505050565b6402540be40081565b600061130082614030565b815181516060919081146132e3576040805162461bcd60e51b815260206004820152601f60248201527f42616c616e636573206d757374206d61746368206d756c7469706c6965727300604482015290519081900360640190fd5b6060816001600160401b03811180156132fb57600080fd5b50604051908082528060200260200182016040528015613325578160200160208202803683370190505b50905060005b828110156112fb5761335685828151811061334257fe5b6020026020010151878381518110610d7257fe5b82828151811061336257fe5b602090810291909101015260010161332b565b815160009081805b828110156133b5576133ab86828151811061339457fe5b60200260200101518361359490919063ffffffff16565b915060010161337d565b50806133c657600092505050611300565b600081816133d48786613609565b905060005b610100811015613493578260005b878110156134165761340c613402898d8481518110610d7257fe5b610cfc8488613609565b91506001016133e7565b50929350839261346a61344a61343183610fb68b6001613594565b6134446064610cfc89610fb68a84613537565b90613594565b610cfc86610fb661345b868d613609565b6134446064610cfc8b8f613609565b935061347684866140c5565b1561348a5783975050505050505050611300565b506001016133d9565b506040805162461bcd60e51b81526020600482015260136024820152724420646f6573206e6f7420636f6e766572676560681b604482015290519081900360640190fd5b604080516001600160a01b0380861660248301528416604482015260648082018490528251808303909101815260849091019091526020810180516001600160e01b03166323b872dd60e01b1790526135319085906140dc565b50505050565b60008282111561358e576040805162461bcd60e51b815260206004820152601e60248201527f536166654d6174683a207375627472616374696f6e206f766572666c6f770000604482015290519081900360640190fd5b50900390565b60008282018381101561155e576040805162461bcd60e51b815260206004820152601b60248201527f536166654d6174683a206164646974696f6e206f766572666c6f770000000000604482015290519081900360640190fd5b600061155e6136036004610fb6856001613537565b610cfc85855b60008261361857506000611300565b8282028284828161362557fe5b041461155e5760405162461bcd60e51b8152600401808060200182810382526021815260200180614b386021913960400191505060405180910390fd5b60008082116136b8576040805162461bcd60e51b815260206004820152601a60248201527f536166654d6174683a206469766973696f6e206279207a65726f000000000000604482015290519081900360640190fd5b8183816136c157fe5b049392505050565b6000818311156136dc5750808203611300565b500390565b604080516001600160a01b038416602482015260448082018490528251808303909101815260649091019091526020810180516001600160e01b031663a9059cbb60e01b1790526137339084906140dc565b505050565b60008060608760080180548060200260200160405190810160405280929190818152602001828054801561378b57602002820191906000526020600020905b815481526020019060010190808311613777575b50505050509050606061379e8583613288565b905080518860ff161080156137b6575080518760ff16105b613802576040805162461bcd60e51b8152602060048201526018602482015277546f6b656e20696e646578206f7574206f662072616e676560401b604482015290519081900360640190fd5b6000613847828a60ff168151811061381657fe5b6020026020010151613444858c60ff168151811061383057fe5b60200260200101518a61360990919063ffffffff16565b905060006138606138578c61327d565b8b8b858761418d565b905061387a600161303e83868d60ff1681518110610da257fe5b955061389c6402540be400610cfc8d600401548961360990919063ffffffff16565b94506138cb848a60ff16815181106138b057fe5b6020026020010151610cfc878961353790919063ffffffff16565b9550505050509550959350505050565b606081831115613932576040805162461bcd60e51b815260206004820152601a60248201527f43616e6e6f742065786365656420746f74616c20737570706c79000000000000604482015290519081900360640190fd5b606084516001600160401b038111801561394b57600080fd5b50604051908082528060200260200182016040528015613975578160200160208202803683370190505b50905060005b85518110156139b75761399884610cfc87898581518110610d7257fe5b8282815181106139a457fe5b602090810291909101015260010161397b565b50949350505050565b606061130082600901805480602002602001604051908101604052809291908181526020018280548015613a1357602002820191906000526020600020905b8154815260200190600101908083116139ff575b505050505083600801805480602002602001604051908101604052809291908181526020018280548015613a6657602002820191906000526020600020905b815481526020019060010190808311613a52575b5050505050613288565b6000606083600701805480602002602001604051908101604052809291908181526020018280548015613acc57602002820191906000526020600020905b81546001600160a01b03168152600190910190602001808311613aae575b505050505090508051835114613b29576040805162461bcd60e51b815260206004820181905260248201527f416d6f756e7473206d757374206d6174636820706f6f6c656420746f6b656e73604482015290519081900360640190fd5b613b316149ec565b604051806101000160405280600081526020016000815260200160008152602001613b5b8761327d565b81526020018660060160009054906101000a90046001600160a01b03166001600160a01b031681526020016000815260200186600901805480602002602001604051908101604052809291908181526020018280548015613bdb57602002820191906000526020600020905b815481526020019060010190808311613bc7575b5050505050815260200186600801805480602002602001604051908101604052809291908181526020018280548015613c3357602002820191906000526020600020905b815481526020019060010190808311613c1f575b5050505050815250905080608001516001600160a01b03166318160ddd6040518163ffffffff1660e01b815260040160206040518083038186803b158015613c7a57600080fd5b505afa158015613c8e573d6000803e3d6000fd5b505050506040513d6020811015613ca457600080fd5b505160a082015281516060906001600160401b0381118015613cc557600080fd5b50604051908082528060200260200182016040528015613cef578160200160208202803683370190505b50905060005b8351811015613da25760a0830151151580613d2357506000868281518110613d1957fe5b6020026020010151115b613d74576040805162461bcd60e51b815260206004820152601e60248201527f4d75737420737570706c7920616c6c20746f6b656e7320696e20706f6f6c0000604482015290519081900360640190fd5b613d83868281518110610af357fe5b828281518110613d8f57fe5b6020908102919091010152600101613cf5565b5060a082015115613dc557613dc2610b528360c001518460e00151613288565b82525b613dd6610b52828460e00151613288565b60208301819052825110613e25576040805162461bcd60e51b8152602060048201526011602482015270442073686f756c6420696e63726561736560781b604482015290519081900360640190fd5b60a0820151613e3c57506020015191506113009050565b6000613e4d876004015485516135ee565b905060005b8451811015613eef57613ed0613ec46402540be400610cfc613ebd878681518110613e7957fe5b6020026020010151613eb78a60000151610cfc8c60c001518a81518110613e9c57fe5b60200260200101518d6020015161360990919063ffffffff16565b906136c9565b8690613609565b848381518110610da257fe5b838281518110613edc57fe5b6020908102919091010152600101613e52565b50613f0b613f01838560e00151613288565b8460600151613375565b60408401819052835160a0850151613f2c92610cfc9190610fb69084613537565b979650505050505050565b60008184841115613fc65760405162461bcd60e51b81526004018080602001828103825283818151815260200191508051906020019080838360005b83811015613f8b578181015183820152602001613f73565b50505050905090810190601f168015613fb85780820380516001836020036101000a031916815260200191505b509250505060405180910390fd5b505050900390565b6000806000806000613fe289888a896143cc565b809350819450829550505050600061401f8461303e8c6008018b60ff168154811061400957fe5b600091825260209091200154610cfc8688613537565b939a93995092975050505050505050565b6003810154600182015460009190428211156140bc57600284015484548083111561408e5761408361407c6140658685613537565b610cfc6140724287613537565b610fb68887613537565b8290613594565b945050505050611637565b6140836140b561409e8685613537565b610cfc6140ab4287613537565b610fb68689613537565b8290613537565b91506116379050565b600060016140d384846136c9565b11159392505050565b6060614131826040518060400160405280602081526020017f5361666545524332303a206c6f772d6c6576656c2063616c6c206661696c6564815250856001600160a01b03166146c19092919063ffffffff16565b8051909150156137335780806020019051602081101561415057600080fd5b50516137335760405162461bcd60e51b815260040180806020018281038252602a815260200180614b59602a913960400191505060405180910390fd5b805160009060ff86811690861614156141ed576040805162461bcd60e51b815260206004820152601d60248201527f43616e277420636f6d7061726520746f6b656e20746f20697473656c66000000604482015290519081900360640190fd5b808660ff161080156142015750808560ff16105b61424b576040805162461bcd60e51b8152602060048201526016602482015275151bdad95b9cc81b5d5cdd081899481a5b881c1bdbdb60521b604482015290519081900360640190fd5b60006142578489613375565b905080600080614267858c613609565b90506000805b868110156142e0578b60ff16811415614288578991506142b2565b8a60ff1681146142ad5788818151811061429e57fe5b602002602001015191506142b2565b6142d8565b6142bc8483613594565b93506142d56142cb8389613609565b610cfc8789613609565b94505b60010161426d565b506142fd6142ee8388613609565b610cfc6064610fb6888a613609565b9350600061431a61431384610cfc896064613609565b8590613594565b9050600086815b61010081101561437e5790915081906143546143468a61303e87613444876002613609565b610cfc8a6134448680613609565b915061436082846140c5565b1561437657509850611dcd975050505050505050565b600101614321565b506040805162461bcd60e51b815260206004820152601e60248201527f417070726f78696d6174696f6e20646964206e6f7420636f6e76657267650000604482015290519081900360640190fd5b600080600060606143dc886139c0565b905080518760ff1610614431576040805162461bcd60e51b8152602060048201526018602482015277546f6b656e20696e646578206f7574206f662072616e676560401b604482015290519081900360640190fd5b614439614aad565b6040518060a0016040528060008152602001600081526020016000815260200160008152602001600081525090506144708961327d565b60808201819052614482908390613375565b8082526144a29061449a908890610cfc908b90613609565b825190613537565b60208201528151829060ff8a169081106144b857fe5b6020026020010151871115614514576040805162461bcd60e51b815260206004820152601a60248201527f5769746864726177206578636565647320617661696c61626c65000000000000604482015290519081900360640190fd5b6145288160800151898484602001516146d0565b604082015281516060906001600160401b038111801561454757600080fd5b50604051908082528060200260200182016040528015614571578160200160208202803683370190505b5090506145838a6004015484516135ee565b606083015260005b83518110156146375760008482815181106145a257fe5b602002602001015190506146176140b56402540be400610cfc87606001518f60ff1687146145f057885160208a01516145eb916145e491610cfc908a90613609565b8790613537565b610fb6565b610fb6896040015161303e8b60000151610cfc8d602001518b61360990919063ffffffff16565b83838151811061462357fe5b60209081029190910101525060010161458b565b50600061466061465184608001518c8587602001516146d0565b838c60ff1681518110610da257fe5b905061468e8b6008018b60ff168154811061467757fe5b600091825260209091200154610cfc836001613537565b9050808360400151858c60ff16815181106146a557fe5b6020026020010151965096509650505050509450945094915050565b606061117d848460008561482f565b815160009060ff8516811161471e576040805162461bcd60e51b815260206004820152600f60248201526e151bdad95b881b9bdd08199bdd5b99608a1b604482015290519081900360640190fd5b8260008061472c8985613609565b905060005b84811015614793578860ff16811461478b5761476988828151811061475257fe5b60200260200101518461359490919063ffffffff16565b925061478861477e868a8481518110610d7257fe5b610cfc868a613609565b93505b600101614731565b506147b06147a18286613609565b610cfc6064610fb6878b613609565b925060006147cd6147c683610cfc8a6064613609565b8490613594565b9050600087815b61010081101561437e5790915081906148076147f98b61303e87613444876002613609565b610cfc896134448680613609565b915061481382846140c5565b156148275750965061117d95505050505050565b6001016147d4565b6060824710156148705760405162461bcd60e51b8152600401808060200182810382526026815260200180614b126026913960400191505060405180910390fd5b61487985614980565b6148ca576040805162461bcd60e51b815260206004820152601d60248201527f416464726573733a2063616c6c20746f206e6f6e2d636f6e7472616374000000604482015290519081900360640190fd5b60006060866001600160a01b031685876040518082805190602001908083835b602083106149095780518252601f1990920191602091820191016148ea565b6001836020036101000a03801982511681845116808217855250505050505090500191505060006040518083038185875af1925050503d806000811461496b576040519150601f19603f3d011682016040523d82523d6000602084013e614970565b606091505b5091509150613f2c828286614986565b3b151590565b6060831561499557508161155e565b8251156149a55782518084602001fd5b60405162461bcd60e51b8152602060048201818152845160248401528451859391928392604401919085019080838360008315613f8b578181015183820152602001613f73565b6040518061010001604052806000815260200160008152602001600081526020016000815260200160006001600160a01b031681526020016000815260200160608152602001606081525090565b6040518060800160405280600081526020016000815260200160608152602001606081525090565b828054828255906000526020600020908101928215614a9d579160200282015b82811115614a9d578251825591602001919060010190614a82565b50614aa9929150614adc565b5090565b6040518060a0016040528060008152602001600081526020016000815260200160008152602001600081525090565b5b80821115614aa95760008155600101614add56fe5dadb1eefca890521b338a7cdaa3dd8b1397864c6c10ccd091a282dc391282eb416464726573733a20696e73756666696369656e742062616c616e636520666f722063616c6c536166654d6174683a206d756c7469706c69636174696f6e206f766572666c6f775361666545524332303a204552433230206f7065726174696f6e20646964206e6f74207375636365656443616e6e6f74207769746864726177206d6f7265207468616e20617661696c61626c65a2646970667358221220223d74af94c55ecdd2e831fe1f1cf2b109b621d84a58fe2f2032d7471d596b7264736f6c634300060c0033",
  "devdoc": {
    "details": "Contracts relying on this library must initialize SwapUtils.Swap struct then use this library for SwapUtils.Swap struct. Note that this library contains both functions called by users and admins. Admin functions should be protected within contracts using this library.",
    "kind": "dev",
    "methods": {
      "addLiquidity(SwapUtils.Swap storage,uint256[],uint256,address)": {
        "params": {
          "amounts": "the amounts of each token to add, in their native precision",
          "minToMint": "the minimum LP tokens adding this amount of liquidity should mint, otherwise revert. Handy for front-running mitigation allowed addresses. If the pool is not in the guarded launch phase, this parameter will be ignored.",
          "receiver": "recipient address",
          "self": "Swap struct to read from and write to"
        },
        "returns": {
          "_0": "amount of LP token user received"
        }
      },
      "calculateRemoveLiquidity(SwapUtils.Swap storage,uint256)": {
        "params": {
          "amount": "the amount of LP tokens that would to be burned on withdrawal"
        },
        "returns": {
          "_0": "array of amounts of tokens user will receive"
        }
      },
      "calculateSwap(SwapUtils.Swap storage,uint8,uint8,uint256)": {
        "params": {
          "dx": "the number of tokens to sell. If the token charges a fee on transfers, use the amount that gets transferred after the fee.",
          "self": "Swap struct to read from",
          "tokenIndexFrom": "the token to sell",
          "tokenIndexTo": "the token to buy"
        },
        "returns": {
          "dy": "the number of tokens the user will get"
        }
      },
      "calculateTokenAmount(SwapUtils.Swap storage,uint256[],bool)": {
        "details": "This shouldn't be used outside frontends for user estimates.",
        "params": {
          "amounts": "an array of token amounts to deposit or withdrawal, corresponding to pooledTokens. The amount should be in each pooled token's native precision. If a token charges a fee on transfers, use the amount that gets transferred after the fee.",
          "deposit": "whether this is a deposit or a withdrawal",
          "self": "Swap struct to read from"
        },
        "returns": {
          "_0": "if deposit was true, total amount of lp token that will be minted and if deposit was false, total amount of lp token that will be burned"
        }
      },
      "calculateWithdrawOneToken(SwapUtils.Swap storage,uint256,uint8)": {
        "params": {
          "self": "Swap struct to read from",
          "tokenAmount": "the amount to withdraw in the pool's precision",
          "tokenIndex": "which token will be withdrawn"
        },
        "returns": {
          "_0": "the amount of token user will receive"
        }
      },
      "getAdminBalance(SwapUtils.Swap storage,uint256)": {
        "params": {
          "index": "Index of the pooled token",
          "self": "Swap struct to read from"
        },
        "returns": {
          "_0": "admin balance in the token's precision"
        }
      },
      "getVirtualPrice(SwapUtils.Swap storage)": {
        "params": {
          "self": "Swap struct to read from"
        },
        "returns": {
          "_0": "the virtual price, scaled to precision of POOL_PRECISION_DECIMALS"
        }
      },
      "removeLiquidity(SwapUtils.Swap storage,uint256,uint256[],address)": {
        "details": "Liquidity can always be removed, even when the pool is paused.",
        "params": {
          "amount": "the amount of LP tokens to burn",
          "minAmounts": "the minimum amounts of each token in the pool acceptable for this burn. Useful as a front-running mitigation",
          "receiver": "recipient address",
          "self": "Swap struct to read from and write to"
        },
        "returns": {
          "_0": "amounts of tokens the user received"
        }
      },
      "removeLiquidityImbalance(SwapUtils.Swap storage,uint256[],uint256,address)": {
        "params": {
          "amounts": "how much of each token to withdraw",
          "maxBurnAmount": "the max LP token provider is willing to pay to remove liquidity. Useful as a front-running mitigation.",
          "receiver": "recipient address",
          "self": "Swap struct to read from and write to"
        },
        "returns": {
          "_0": "actual amount of LP tokens burned in the withdrawal"
        }
      },
      "removeLiquidityOneToken(SwapUtils.Swap storage,uint256,uint8,uint256,address)": {
        "params": {
          "minAmount": "the minimum amount to withdraw, otherwise revert",
          "receiver": "recipient address",
          "self": "Swap struct to read from and write to",
          "tokenAmount": "the amount of the lp tokens to burn",
          "tokenIndex": "the index of the token you want to receive"
        },
        "returns": {
          "_0": "amount chosen token that user received"
        }
      },
      "setAdminFee(SwapUtils.Swap storage,uint256)": {
        "details": "adminFee cannot be higher than 100% of the swap fee",
        "params": {
          "newAdminFee": "new admin fee to be applied on future transactions",
          "self": "Swap struct to update"
        }
      },
      "setSwapFee(SwapUtils.Swap storage,uint256)": {
        "details": "fee cannot be higher than 1% of each swap",
        "params": {
          "newSwapFee": "new swap fee to be applied on future transactions",
          "self": "Swap struct to update"
        }
      },
      "swap(SwapUtils.Swap storage,uint8,uint8,uint256,uint256,address)": {
        "params": {
          "dx": "the amount of tokens the user wants to sell",
          "minDy": "the min amount the user would like to receive, or revert.",
          "self": "Swap struct to read from and write to",
          "tokenIndexFrom": "the token the user wants to sell",
          "tokenIndexTo": "the token the user wants to buy"
        },
        "returns": {
          "_0": "amount of token user received on swap"
        }
      },
      "withdrawAdminFees(SwapUtils.Swap storage,address)": {
        "params": {
          "self": "Swap struct to withdraw fees from",
          "to": "Address to send the fees to"
        }
      }
    },
    "title": "SwapUtils library",
    "version": 1
  },
  "userdoc": {
    "kind": "user",
    "methods": {
      "addLiquidity(SwapUtils.Swap storage,uint256[],uint256,address)": {
        "notice": "Add liquidity to the pool"
      },
      "calculateRemoveLiquidity(SwapUtils.Swap storage,uint256)": {
        "notice": "A simple method to calculate amount of each underlying tokens that is returned upon burning given amount of LP tokens"
      },
      "calculateSwap(SwapUtils.Swap storage,uint8,uint8,uint256)": {
        "notice": "Externally calculates a swap between two tokens."
      },
      "calculateTokenAmount(SwapUtils.Swap storage,uint256[],bool)": {
        "notice": "A simple method to calculate prices from deposits or withdrawals, excluding fees but including slippage. This is helpful as an input into the various \"min\" parameters on calls to fight front-running"
      },
      "calculateWithdrawOneToken(SwapUtils.Swap storage,uint256,uint8)": {
        "notice": "Calculate the dy, the amount of selected token that user receives and the fee of withdrawing in one token"
      },
      "getAdminBalance(SwapUtils.Swap storage,uint256)": {
        "notice": "return accumulated amount of admin fees of the token with given index"
      },
      "getVirtualPrice(SwapUtils.Swap storage)": {
        "notice": "Get the virtual price, to help calculate profit"
      },
      "removeLiquidity(SwapUtils.Swap storage,uint256,uint256[],address)": {
        "notice": "Burn LP tokens to remove liquidity from the pool."
      },
      "removeLiquidityImbalance(SwapUtils.Swap storage,uint256[],uint256,address)": {
        "notice": "Remove liquidity from the pool, weighted differently than the pool's current balances."
      },
      "removeLiquidityOneToken(SwapUtils.Swap storage,uint256,uint8,uint256,address)": {
        "notice": "Remove liquidity from the pool all in one token."
      },
      "setAdminFee(SwapUtils.Swap storage,uint256)": {
        "notice": "Sets the admin fee"
      },
      "setSwapFee(SwapUtils.Swap storage,uint256)": {
        "notice": "update the swap fee"
      },
      "swap(SwapUtils.Swap storage,uint8,uint8,uint256,uint256,address)": {
        "notice": "swap two tokens in the pool"
      },
      "withdrawAdminFees(SwapUtils.Swap storage,address)": {
        "notice": "withdraw all admin fees to a given address"
      }
    },
    "notice": "A library to be used within Swap.sol. Contains functions responsible for custody and AMM functionalities.",
    "version": 1
  },
  "storageLayout": {
    "storage": [],
    "types": null
  }
}