{
  "address": "0xC986C4E18331D98C50D5702FdcD69177B51Ed69a",
  "abi": [
    {
      "anonymous": false,
      "inputs": [
        {
          "indexed": true,
          "internalType": "address",
          "name": "owner",
          "type": "address"
        },
        {
          "indexed": true,
          "internalType": "address",
          "name": "spender",
          "type": "address"
        },
        {
          "indexed": false,
          "internalType": "uint256",
          "name": "value",
          "type": "uint256"
        }
      ],
      "name": "Approval",
      "type": "event"
    },
    {
      "anonymous": false,
      "inputs": [
        {
          "indexed": false,
          "internalType": "uint8",
          "name": "version",
          "type": "uint8"
        }
      ],
      "name": "Initialized",
      "type": "event"
    },
    {
      "anonymous": false,
      "inputs": [
        {
          "indexed": true,
          "internalType": "address",
          "name": "previousOwner",
          "type": "address"
        },
        {
          "indexed": true,
          "internalType": "address",
          "name": "newOwner",
          "type": "address"
        }
      ],
      "name": "OwnershipTransferred",
      "type": "event"
    },
    {
      "anonymous": false,
      "inputs": [
        {
          "indexed": true,
          "internalType": "address",
          "name": "from",
          "type": "address"
        },
        {
          "indexed": true,
          "internalType": "address",
          "name": "to",
          "type": "address"
        },
        {
          "indexed": false,
          "internalType": "uint256",
          "name": "value",
          "type": "uint256"
        }
      ],
      "name": "Transfer",
      "type": "event"
    },
    {
      "inputs": [],
      "name": "DOMAIN_SEPARATOR",
      "outputs": [
        {
          "internalType": "bytes32",
          "name": "",
          "type": "bytes32"
        }
      ],
      "stateMutability": "view",
      "type": "function"
    },
    {
      "inputs": [],
      "name": "PERMIT_TYPEHASH",
      "outputs": [
        {
          "internalType": "bytes32",
          "name": "",
          "type": "bytes32"
        }
      ],
      "stateMutability": "view",
      "type": "function"
    },
    {
      "inputs": [
        {
          "internalType": "address",
          "name": "",
          "type": "address"
        },
        {
          "internalType": "address",
          "name": "",
          "type": "address"
        }
      ],
      "name": "allowance",
      "outputs": [
        {
          "internalType": "uint256",
          "name": "",
          "type": "uint256"
        }
      ],
      "stateMutability": "view",
      "type": "function"
    },
    {
      "inputs": [
        {
          "internalType": "address",
          "name": "spender",
          "type": "address"
        },
        {
          "internalType": "uint256",
          "name": "value",
          "type": "uint256"
        }
      ],
      "name": "approve",
      "outputs": [
        {
          "internalType": "bool",
          "name": "",
          "type": "bool"
        }
      ],
      "stateMutability": "nonpayable",
      "type": "function"
    },
    {
      "inputs": [
        {
          "internalType": "address",
          "name": "",
          "type": "address"
        }
      ],
      "name": "balanceOf",
      "outputs": [
        {
          "internalType": "uint256",
          "name": "",
          "type": "uint256"
        }
      ],
      "stateMutability": "view",
      "type": "function"
    },
    {
      "inputs": [
        {
          "internalType": "address",
          "name": "from",
          "type": "address"
        },
        {
          "internalType": "uint256",
          "name": "value",
          "type": "uint256"
        }
      ],
      "name": "burnFrom",
      "outputs": [],
      "stateMutability": "nonpayable",
      "type": "function"
    },
    {
      "inputs": [],
      "name": "decimals",
      "outputs": [
        {
          "internalType": "uint8",
          "name": "",
          "type": "uint8"
        }
      ],
      "stateMutability": "view",
      "type": "function"
    },
    {
      "inputs": [
        {
          "internalType": "string",
          "name": "name",
          "type": "string"
        },
        {
          "internalType": "string",
          "name": "symbol",
          "type": "string"
        }
      ],
      "name": "initialize",
      "outputs": [
        {
          "internalType": "bool",
          "name": "",
          "type": "bool"
        }
      ],
      "stateMutability": "nonpayable",
      "type": "function"
    },
    {
      "inputs": [
        {
          "internalType": "address",
          "name": "recipient",
          "type": "address"
        },
        {
          "internalType": "uint256",
          "name": "amount",
          "type": "uint256"
        }
      ],
      "name": "mint",
      "outputs": [],
      "stateMutability": "nonpayable",
      "type": "function"
    },
    {
      "inputs": [],
      "name": "name",
      "outputs": [
        {
          "internalType": "string",
          "name": "",
          "type": "string"
        }
      ],
      "stateMutability": "view",
      "type": "function"
    },
    {
      "inputs": [
        {
          "internalType": "address",
          "name": "",
          "type": "address"
        }
      ],
      "name": "nonces",
      "outputs": [
        {
          "internalType": "uint256",
          "name": "",
          "type": "uint256"
        }
      ],
      "stateMutability": "view",
      "type": "function"
    },
    {
      "inputs": [],
      "name": "owner",
      "outputs": [
        {
          "internalType": "address",
          "name": "",
          "type": "address"
        }
      ],
      "stateMutability": "view",
      "type": "function"
    },
    {
      "inputs": [
        {
          "internalType": "address",
          "name": "owner",
          "type": "address"
        },
        {
          "internalType": "address",
          "name": "spender",
          "type": "address"
        },
        {
          "internalType": "uint256",
          "name": "value",
          "type": "uint256"
        },
        {
          "internalType": "uint256",
          "name": "deadline",
          "type": "uint256"
        },
        {
          "internalType": "uint8",
          "name": "v",
          "type": "uint8"
        },
        {
          "internalType": "bytes32",
          "name": "r",
          "type": "bytes32"
        },
        {
          "internalType": "bytes32",
          "name": "s",
          "type": "bytes32"
        }
      ],
      "name": "permit",
      "outputs": [],
      "stateMutability": "nonpayable",
      "type": "function"
    },
    {
      "inputs": [],
      "name": "renounceOwnership",
      "outputs": [],
      "stateMutability": "nonpayable",
      "type": "function"
    },
    {
      "inputs": [],
      "name": "symbol",
      "outputs": [
        {
          "internalType": "string",
          "name": "",
          "type": "string"
        }
      ],
      "stateMutability": "view",
      "type": "function"
    },
    {
      "inputs": [],
      "name": "totalSupply",
      "outputs": [
        {
          "internalType": "uint256",
          "name": "",
          "type": "uint256"
        }
      ],
      "stateMutability": "view",
      "type": "function"
    },
    {
      "inputs": [
        {
          "internalType": "address",
          "name": "to",
          "type": "address"
        },
        {
          "internalType": "uint256",
          "name": "value",
          "type": "uint256"
        }
      ],
      "name": "transfer",
      "outputs": [
        {
          "internalType": "bool",
          "name": "",
          "type": "bool"
        }
      ],
      "stateMutability": "nonpayable",
      "type": "function"
    },
    {
      "inputs": [
        {
          "internalType": "address",
          "name": "from",
          "type": "address"
        },
        {
          "internalType": "address",
          "name": "to",
          "type": "address"
        },
        {
          "internalType": "uint256",
          "name": "value",
          "type": "uint256"
        }
      ],
      "name": "transferFrom",
      "outputs": [
        {
          "internalType": "bool",
          "name": "",
          "type": "bool"
        }
      ],
      "stateMutability": "nonpayable",
      "type": "function"
    },
    {
      "inputs": [
        {
          "internalType": "address",
          "name": "newOwner",
          "type": "address"
        }
      ],
      "name": "transferOwnership",
      "outputs": [],
      "stateMutability": "nonpayable",
      "type": "function"
    }
  ],
  "transactionHash": "0x9b0b85c51f2c6fbe8aa2f40549fbb0ce2860fdb06316ff8e8d51f2636cf635a2",
  "args": [],
  "numDeployments": 1,
  "solcInputHash": "c769f91a152f7090d3338262a7cfdf0c",
  "bytecode": "0x608060405234801561001057600080fd5b5060405146907f8b73c3c69bb8fe3d512ecc4cf759cc79239f7b179b0ffacaa9a75d522b39400f90610044906065906100c8565b60408051918290038220828201825260018352603160f81b6020938401528151928301939093528101919091527fc89efdaa54c0f20c7adf612882df0950f5a951637e0307cdcb4c672f298b8bc66060820152608081018290523060a082015260c00160408051601f198184030181529190528051602090910120606a5550610163565b600080835481600182811c9150808316806100e457607f831692505b6020808410820361010357634e487b7160e01b86526022600452602486fd5b818015610117576001811461012857610155565b60ff19861689528489019650610155565b60008a81526020902060005b8681101561014d5781548b820152908501908301610134565b505084890196505b509498975050505050505050565b611176806101726000396000f3fe608060405234801561001057600080fd5b50600436106101215760003560e01c806370a08231116100ad57806395d89b411161007157806395d89b4114610279578063a9059cbb14610281578063d505accf14610294578063dd62ed3e146102a7578063f2fde38b146102d257600080fd5b806370a0823114610203578063715018a61461022357806379cc67901461022b5780637ecebe001461023e5780638da5cb5b1461025e57600080fd5b806330adf81f116100f457806330adf81f14610191578063313ce567146101b85780633644e515146101d257806340c10f19146101db5780634cd88b76146101f057600080fd5b806306fdde0314610126578063095ea7b31461014457806318160ddd1461016757806323b872dd1461017e575b600080fd5b61012e6102e5565b60405161013b9190610dbe565b60405180910390f35b610157610152366004610e2f565b610373565b604051901515815260200161013b565b61017060675481565b60405190815260200161013b565b61015761018c366004610e59565b610389565b6101707f6e71edae12b1b97f4d1f60370fef10105fa2faae0126114a169c64845d6126c981565b6101c0601281565b60405160ff909116815260200161013b565b610170606a5481565b6101ee6101e9366004610e2f565b61041d565b005b6101576101fe366004610f38565b6104db565b610170610211366004610f9c565b60686020526000908152604090205481565b6101ee610607565b6101ee610239366004610e2f565b61061b565b61017061024c366004610f9c565b606b6020526000908152604090205481565b6033546040516001600160a01b03909116815260200161013b565b61012e6106a9565b61015761028f366004610e2f565b6106b6565b6101ee6102a2366004610fb7565b6106c3565b6101706102b536600461102a565b606960209081526000928352604080842090915290825290205481565b6101ee6102e0366004610f9c565b6108d7565b606580546102f29061105d565b80601f016020809104026020016040519081016040528092919081815260200182805461031e9061105d565b801561036b5780601f106103405761010080835404028352916020019161036b565b820191906000526020600020905b81548152906001019060200180831161034e57829003601f168201915b505050505081565b6000610380338484610950565b50600192915050565b6001600160a01b038316600090815260696020908152604080832033845290915281205460001914610408576001600160a01b03841660009081526069602090815260408083203384529091529020546103e390836109b2565b6001600160a01b03851660009081526069602090815260408083203384529091529020555b6104138484846109c5565b5060019392505050565b610425610a2f565b81306001600160a01b038216036104835760405162461bcd60e51b815260206004820152601e60248201527f4c50546f6b656e3a2063616e6e6f742073656e6420746f20697473656c66000060448201526064015b60405180910390fd5b816000036104cc5760405162461bcd60e51b815260206004820152601660248201527504c50546f6b656e3a2063616e6e6f74206d696e7420360541b604482015260640161047a565b6104d68383610a89565b505050565b60008054610100900460ff16158080156104fc5750600054600160ff909116105b806105165750303b158015610516575060005460ff166001145b6105795760405162461bcd60e51b815260206004820152602e60248201527f496e697469616c697a61626c653a20636f6e747261637420697320616c72656160448201526d191e481a5b9a5d1a585b1a5e995960921b606482015260840161047a565b6000805460ff19166001179055801561059c576000805461ff0019166101001790555b6105a4610b19565b6105ac610b40565b6105b68484610b70565b600191508015610600576000805461ff0019169055604051600181527f7f26b83ff96e1f2b6a682f133852f6798a09c465da95921460cefb38474024989060200160405180910390a15b5092915050565b61060f610a2f565b6106196000610b97565b565b6001600160a01b03821660009081526069602090815260408083203384529091529020546000191461069b576001600160a01b03821660009081526069602090815260408083203384529091529020546106769082906110ad565b6001600160a01b03831660009081526069602090815260408083203384529091529020555b6106a58282610be9565b5050565b606680546102f29061105d565b60006103803384846109c5565b428410156107085760405162461bcd60e51b815260206004820152601260248201527114185a5c915490cc8c0e881156141254915160721b604482015260640161047a565b606a546001600160a01b0388166000908152606b6020526040812080549192917f6e71edae12b1b97f4d1f60370fef10105fa2faae0126114a169c64845d6126c9918b918b918b91908761075b836110c4565b909155506040805160208101969096526001600160a01b0394851690860152929091166060840152608083015260a082015260c0810187905260e001604051602081830303815290604052805190602001206040516020016107d492919061190160f01b81526002810192909252602282015260420190565b60408051601f198184030181528282528051602091820120600080855291840180845281905260ff88169284019290925260608301869052608083018590529092509060019060a0016020604051602081039080840390855afa15801561083f573d6000803e3d6000fd5b5050604051601f1901519150506001600160a01b038116158015906108755750886001600160a01b0316816001600160a01b0316145b6108c15760405162461bcd60e51b815260206004820152601c60248201527f5061697245524332303a20494e56414c49445f5349474e415455524500000000604482015260640161047a565b6108cc898989610950565b505050505050505050565b6108df610a2f565b6001600160a01b0381166109445760405162461bcd60e51b815260206004820152602660248201527f4f776e61626c653a206e6577206f776e657220697320746865207a65726f206160448201526564647265737360d01b606482015260840161047a565b61094d81610b97565b50565b6001600160a01b0383811660008181526069602090815260408083209487168084529482529182902085905590518481527f8c5be1e5ebec7d5bd14f71427d1e84f3dd0314c0f7b2291e5b200ac8c7c3b92591015b60405180910390a3505050565b60006109be82846110ad565b9392505050565b81306001600160a01b03821603610a1e5760405162461bcd60e51b815260206004820152601e60248201527f4c50546f6b656e3a2063616e6e6f742073656e6420746f20697473656c660000604482015260640161047a565b610a29848484610c73565b50505050565b6033546001600160a01b031633146106195760405162461bcd60e51b815260206004820181905260248201527f4f776e61626c653a2063616c6c6572206973206e6f7420746865206f776e6572604482015260640161047a565b606754610a969082610d19565b6067556001600160a01b038216600090815260686020526040902054610abc9082610d19565b6001600160a01b0383166000818152606860205260408082209390935591519091907fddf252ad1be2c89b69c2b068fc378daa952ba7f163c4a11628f55a4df523b3ef90610b0d9085815260200190565b60405180910390a35050565b600054610100900460ff166106195760405162461bcd60e51b815260040161047a906110dd565b600054610100900460ff16610b675760405162461bcd60e51b815260040161047a906110dd565b61061933610b97565b8151610b83906065906020850190610d25565b5080516104d6906066906020840190610d25565b603380546001600160a01b038381166001600160a01b0319831681179093556040519116919082907f8be0079c531659141344cd1fd0a4f28419497f9722a3daafe3b4186f6b6457e090600090a35050565b6001600160a01b038216600090815260686020526040902054610c0c90826109b2565b6001600160a01b038316600090815260686020526040902055606754610c3290826109b2565b6067556040518181526000906001600160a01b038416907fddf252ad1be2c89b69c2b068fc378daa952ba7f163c4a11628f55a4df523b3ef90602001610b0d565b6001600160a01b038316600090815260686020526040902054610c9690826109b2565b6001600160a01b038085166000908152606860205260408082209390935590841681522054610cc59082610d19565b6001600160a01b0380841660008181526068602052604090819020939093559151908516907fddf252ad1be2c89b69c2b068fc378daa952ba7f163c4a11628f55a4df523b3ef906109a59085815260200190565b60006109be8284611128565b828054610d319061105d565b90600052602060002090601f016020900481019282610d535760008555610d99565b82601f10610d6c57805160ff1916838001178555610d99565b82800160010185558215610d99579182015b82811115610d99578251825591602001919060010190610d7e565b50610da5929150610da9565b5090565b5b80821115610da55760008155600101610daa565b600060208083528351808285015260005b81811015610deb57858101830151858201604001528201610dcf565b81811115610dfd576000604083870101525b50601f01601f1916929092016040019392505050565b80356001600160a01b0381168114610e2a57600080fd5b919050565b60008060408385031215610e4257600080fd5b610e4b83610e13565b946020939093013593505050565b600080600060608486031215610e6e57600080fd5b610e7784610e13565b9250610e8560208501610e13565b9150604084013590509250925092565b634e487b7160e01b600052604160045260246000fd5b600082601f830112610ebc57600080fd5b813567ffffffffffffffff80821115610ed757610ed7610e95565b604051601f8301601f19908116603f01168101908282118183101715610eff57610eff610e95565b81604052838152866020858801011115610f1857600080fd5b836020870160208301376000602085830101528094505050505092915050565b60008060408385031215610f4b57600080fd5b823567ffffffffffffffff80821115610f6357600080fd5b610f6f86838701610eab565b93506020850135915080821115610f8557600080fd5b50610f9285828601610eab565b9150509250929050565b600060208284031215610fae57600080fd5b6109be82610e13565b600080600080600080600060e0888a031215610fd257600080fd5b610fdb88610e13565b9650610fe960208901610e13565b95506040880135945060608801359350608088013560ff8116811461100d57600080fd5b9699959850939692959460a0840135945060c09093013592915050565b6000806040838503121561103d57600080fd5b61104683610e13565b915061105460208401610e13565b90509250929050565b600181811c9082168061107157607f821691505b60208210810361109157634e487b7160e01b600052602260045260246000fd5b50919050565b634e487b7160e01b600052601160045260246000fd5b6000828210156110bf576110bf611097565b500390565b6000600182016110d6576110d6611097565b5060010190565b6020808252602b908201527f496e697469616c697a61626c653a20636f6e7472616374206973206e6f74206960408201526a6e697469616c697a696e6760a81b606082015260800190565b6000821982111561113b5761113b611097565b50019056fea2646970667358221220ba98eabfab2aaa418536ad95af5e9575f297df61ad5b32dd70ce1c6e884387e164736f6c634300080d0033",
  "devdoc": {
    "details": "Only Swap contracts should initialize and own LPToken contracts.",
    "kind": "dev",
    "methods": {
      "initialize(string,string)": {
        "details": "The caller of this function will become the owner. A Swap contract should call this in its initializer function.",
        "params": {
          "name": "name of this token",
          "symbol": "symbol of this token"
        }
      },
      "mint(address,uint256)": {
        "details": "only owner can call this mint function",
        "params": {
          "amount": "amount of tokens to mint",
          "recipient": "address of account to receive the tokens"
        }
      },
      "owner()": {
        "details": "Returns the address of the current owner."
      },
      "renounceOwnership()": {
        "details": "Leaves the contract without owner. It will not be possible to call `onlyOwner` functions anymore. Can only be called by the current owner. NOTE: Renouncing ownership will leave the contract without an owner, thereby removing any functionality that is only available to the owner."
      },
      "transferOwnership(address)": {
        "details": "Transfers ownership of the contract to a new account (`newOwner`). Can only be called by the current owner."
      }
    },
    "title": "Liquidity Provider Token",
    "version": 1
  },
  "userdoc": {
    "kind": "user",
    "methods": {
      "initialize(string,string)": {
        "notice": "Initializes this LPToken contract with the given name and symbol"
      },
      "mint(address,uint256)": {
        "notice": "Mints the given amount of LPToken to the recipient."
      }
    },
    "notice": "This token is an ERC20 detailed token with added capability to be minted by the owner. It is used to represent user's shares when providing liquidity to swap contracts.",
    "version": 1
  },
  "storageLayout": {
    "storage": [
      {
        "astId": 138,
        "contract": "contracts/utils/LPToken.sol:LPToken",
        "label": "_initialized",
        "offset": 0,
        "slot": "0",
        "type": "t_uint8"
      },
      {
        "astId": 141,
        "contract": "contracts/utils/LPToken.sol:LPToken",
        "label": "_initializing",
        "offset": 1,
        "slot": "0",
        "type": "t_bool"
      },
      {
        "astId": 625,
        "contract": "contracts/utils/LPToken.sol:LPToken",
        "label": "__gap",
        "offset": 0,
        "slot": "1",
        "type": "t_array(t_uint256)50_storage"
      },
      {
        "astId": 10,
        "contract": "contracts/utils/LPToken.sol:LPToken",
        "label": "_owner",
        "offset": 0,
        "slot": "51",
        "type": "t_address"
      },
      {
        "astId": 130,
        "contract": "contracts/utils/LPToken.sol:LPToken",
        "label": "__gap",
        "offset": 0,
        "slot": "52",
        "type": "t_array(t_uint256)49_storage"
      },
      {
        "astId": 8671,
        "contract": "contracts/utils/LPToken.sol:LPToken",
        "label": "name",
        "offset": 0,
        "slot": "101",
        "type": "t_string_storage"
      },
      {
        "astId": 8673,
        "contract": "contracts/utils/LPToken.sol:LPToken",
        "label": "symbol",
        "offset": 0,
        "slot": "102",
        "type": "t_string_storage"
      },
      {
        "astId": 8678,
        "contract": "contracts/utils/LPToken.sol:LPToken",
        "label": "totalSupply",
        "offset": 0,
        "slot": "103",
        "type": "t_uint256"
      },
      {
        "astId": 8682,
        "contract": "contracts/utils/LPToken.sol:LPToken",
        "label": "balanceOf",
        "offset": 0,
        "slot": "104",
        "type": "t_mapping(t_address,t_uint256)"
      },
      {
        "astId": 8688,
        "contract": "contracts/utils/LPToken.sol:LPToken",
        "label": "allowance",
        "offset": 0,
        "slot": "105",
        "type": "t_mapping(t_address,t_mapping(t_address,t_uint256))"
      },
      {
        "astId": 8690,
        "contract": "contracts/utils/LPToken.sol:LPToken",
        "label": "DOMAIN_SEPARATOR",
        "offset": 0,
        "slot": "106",
        "type": "t_bytes32"
      },
      {
        "astId": 8697,
        "contract": "contracts/utils/LPToken.sol:LPToken",
        "label": "nonces",
        "offset": 0,
        "slot": "107",
        "type": "t_mapping(t_address,t_uint256)"
      }
    ],
    "types": {
      "t_address": {
        "encoding": "inplace",
        "label": "address",
        "numberOfBytes": "20"
      },
      "t_array(t_uint256)49_storage": {
        "base": "t_uint256",
        "encoding": "inplace",
        "label": "uint256[49]",
        "numberOfBytes": "1568"
      },
      "t_array(t_uint256)50_storage": {
        "base": "t_uint256",
        "encoding": "inplace",
        "label": "uint256[50]",
        "numberOfBytes": "1600"
      },
      "t_bool": {
        "encoding": "inplace",
        "label": "bool",
        "numberOfBytes": "1"
      },
      "t_bytes32": {
        "encoding": "inplace",
        "label": "bytes32",
        "numberOfBytes": "32"
      },
      "t_mapping(t_address,t_mapping(t_address,t_uint256))": {
        "encoding": "mapping",
        "key": "t_address",
        "label": "mapping(address => mapping(address => uint256))",
        "numberOfBytes": "32",
        "value": "t_mapping(t_address,t_uint256)"
      },
      "t_mapping(t_address,t_uint256)": {
        "encoding": "mapping",
        "key": "t_address",
        "label": "mapping(address => uint256)",
        "numberOfBytes": "32",
        "value": "t_uint256"
      },
      "t_string_storage": {
        "encoding": "bytes",
        "label": "string",
        "numberOfBytes": "32"
      },
      "t_uint256": {
        "encoding": "inplace",
        "label": "uint256",
        "numberOfBytes": "32"
      },
      "t_uint8": {
        "encoding": "inplace",
        "label": "uint8",
        "numberOfBytes": "1"
      }
    }
  }
}