{
  "address": "0xa911353365504aa3b78C0b587efefF6A9477D4cC",
  "abi": [
    {
      "inputs": [
        {
          "internalType": "uint256",
          "name": "_defSwapFeeRate",
          "type": "uint256"
        },
        {
          "internalType": "uint256",
          "name": "_defAdminFeeRate",
          "type": "uint256"
        }
      ],
      "stateMutability": "nonpayable",
      "type": "constructor"
    },
    {
      "anonymous": false,
      "inputs": [
        {
          "indexed": false,
          "internalType": "uint8",
          "name": "version",
          "type": "uint8"
        }
      ],
      "name": "Initialized",
      "type": "event"
    },
    {
      "anonymous": false,
      "inputs": [
        {
          "indexed": false,
          "internalType": "address[]",
          "name": "tokens",
          "type": "address[]"
        },
        {
          "indexed": false,
          "internalType": "uint8",
          "name": "_type",
          "type": "uint8"
        },
        {
          "indexed": false,
          "internalType": "address",
          "name": "pair",
          "type": "address"
        },
        {
          "indexed": false,
          "internalType": "uint256",
          "name": "pairsAmount",
          "type": "uint256"
        }
      ],
      "name": "PairCreated",
      "type": "event"
    },
    {
      "anonymous": false,
      "inputs": [
        {
          "indexed": false,
          "internalType": "address",
          "name": "_impl",
          "type": "address"
        },
        {
          "indexed": false,
          "internalType": "uint8",
          "name": "_type",
          "type": "uint8"
        },
        {
          "indexed": false,
          "internalType": "bool",
          "name": "_auth",
          "type": "bool"
        }
      ],
      "name": "RemovePairType",
      "type": "event"
    },
    {
      "anonymous": false,
      "inputs": [
        {
          "indexed": false,
          "internalType": "uint256",
          "name": "_old",
          "type": "uint256"
        },
        {
          "indexed": false,
          "internalType": "uint256",
          "name": "_new",
          "type": "uint256"
        }
      ],
      "name": "SetDefAdminFeeRate",
      "type": "event"
    },
    {
      "anonymous": false,
      "inputs": [
        {
          "indexed": false,
          "internalType": "uint256",
          "name": "_old",
          "type": "uint256"
        },
        {
          "indexed": false,
          "internalType": "uint256",
          "name": "_new",
          "type": "uint256"
        }
      ],
      "name": "SetDefSwapFeeRate",
      "type": "event"
    },
    {
      "anonymous": false,
      "inputs": [
        {
          "indexed": false,
          "internalType": "uint256",
          "name": "_old",
          "type": "uint256"
        },
        {
          "indexed": false,
          "internalType": "uint256",
          "name": "_new",
          "type": "uint256"
        }
      ],
      "name": "SetPairAdminFeeRate",
      "type": "event"
    },
    {
      "anonymous": false,
      "inputs": [
        {
          "indexed": false,
          "internalType": "address",
          "name": "_impl",
          "type": "address"
        },
        {
          "indexed": false,
          "internalType": "uint8",
          "name": "_type",
          "type": "uint8"
        },
        {
          "indexed": false,
          "internalType": "bool",
          "name": "_auth",
          "type": "bool"
        },
        {
          "indexed": false,
          "internalType": "address",
          "name": "_old",
          "type": "address"
        }
      ],
      "name": "SetPairType",
      "type": "event"
    },
    {
      "inputs": [],
      "name": "acceptManager",
      "outputs": [],
      "stateMutability": "nonpayable",
      "type": "function"
    },
    {
      "inputs": [
        {
          "internalType": "address",
          "name": "_impl",
          "type": "address"
        }
      ],
      "name": "addPairType",
      "outputs": [],
      "stateMutability": "nonpayable",
      "type": "function"
    },
    {
      "inputs": [
        {
          "internalType": "uint256",
          "name": "",
          "type": "uint256"
        }
      ],
      "name": "allPairs",
      "outputs": [
        {
          "internalType": "address",
          "name": "",
          "type": "address"
        }
      ],
      "stateMutability": "view",
      "type": "function"
    },
    {
      "inputs": [],
      "name": "allPairsLength",
      "outputs": [
        {
          "internalType": "uint256",
          "name": "",
          "type": "uint256"
        }
      ],
      "stateMutability": "view",
      "type": "function"
    },
    {
      "inputs": [
        {
          "internalType": "uint256",
          "name": "_index",
          "type": "uint256"
        }
      ],
      "name": "atPairType",
      "outputs": [
        {
          "internalType": "address",
          "name": "",
          "type": "address"
        }
      ],
      "stateMutability": "view",
      "type": "function"
    },
    {
      "inputs": [
        {
          "internalType": "address",
          "name": "value",
          "type": "address"
        }
      ],
      "name": "containsPair",
      "outputs": [
        {
          "internalType": "bool",
          "name": "",
          "type": "bool"
        }
      ],
      "stateMutability": "view",
      "type": "function"
    },
    {
      "inputs": [
        {
          "internalType": "address[]",
          "name": "_tokens",
          "type": "address[]"
        },
        {
          "internalType": "uint8",
          "name": "_pairType",
          "type": "uint8"
        },
        {
          "internalType": "bytes",
          "name": "_data",
          "type": "bytes"
        }
      ],
      "name": "createPair",
      "outputs": [
        {
          "internalType": "address",
          "name": "_pair",
          "type": "address"
        }
      ],
      "stateMutability": "nonpayable",
      "type": "function"
    },
    {
      "inputs": [],
      "name": "defAdminFeeRate",
      "outputs": [
        {
          "internalType": "uint256",
          "name": "",
          "type": "uint256"
        }
      ],
      "stateMutability": "view",
      "type": "function"
    },
    {
      "inputs": [],
      "name": "defSwapFeeRate",
      "outputs": [
        {
          "internalType": "uint256",
          "name": "",
          "type": "uint256"
        }
      ],
      "stateMutability": "view",
      "type": "function"
    },
    {
      "inputs": [
        {
          "internalType": "address[]",
          "name": "_tokens",
          "type": "address[]"
        },
        {
          "internalType": "uint8",
          "name": "_pairType",
          "type": "uint8"
        }
      ],
      "name": "getPairAddress",
      "outputs": [
        {
          "internalType": "address",
          "name": "",
          "type": "address"
        }
      ],
      "stateMutability": "view",
      "type": "function"
    },
    {
      "inputs": [
        {
          "internalType": "uint256",
          "name": "_defSwapFeeRate",
          "type": "uint256"
        },
        {
          "internalType": "uint256",
          "name": "_defAdminFeeRate",
          "type": "uint256"
        }
      ],
      "name": "initialize",
      "outputs": [],
      "stateMutability": "nonpayable",
      "type": "function"
    },
    {
      "inputs": [
        {
          "internalType": "address",
          "name": "",
          "type": "address"
        }
      ],
      "name": "isPair",
      "outputs": [
        {
          "internalType": "bool",
          "name": "",
          "type": "bool"
        }
      ],
      "stateMutability": "view",
      "type": "function"
    },
    {
      "inputs": [],
      "name": "manager",
      "outputs": [
        {
          "internalType": "address",
          "name": "",
          "type": "address"
        }
      ],
      "stateMutability": "view",
      "type": "function"
    },
    {
      "inputs": [
        {
          "internalType": "uint8",
          "name": "",
          "type": "uint8"
        }
      ],
      "name": "pairParams",
      "outputs": [
        {
          "internalType": "address",
          "name": "_impl",
          "type": "address"
        },
        {
          "internalType": "bool",
          "name": "_auth",
          "type": "bool"
        }
      ],
      "stateMutability": "view",
      "type": "function"
    },
    {
      "inputs": [],
      "name": "pairTypeAmount",
      "outputs": [
        {
          "internalType": "uint256",
          "name": "",
          "type": "uint256"
        }
      ],
      "stateMutability": "view",
      "type": "function"
    },
    {
      "inputs": [],
      "name": "pairTypeValues",
      "outputs": [
        {
          "internalType": "address[]",
          "name": "",
          "type": "address[]"
        }
      ],
      "stateMutability": "view",
      "type": "function"
    },
    {
      "inputs": [],
      "name": "pendingManager",
      "outputs": [
        {
          "internalType": "address",
          "name": "",
          "type": "address"
        }
      ],
      "stateMutability": "view",
      "type": "function"
    },
    {
      "inputs": [
        {
          "internalType": "address",
          "name": "_impl",
          "type": "address"
        }
      ],
      "name": "removePairType",
      "outputs": [],
      "stateMutability": "nonpayable",
      "type": "function"
    },
    {
      "inputs": [
        {
          "internalType": "uint256",
          "name": "_defAdminFeeRate",
          "type": "uint256"
        }
      ],
      "name": "setDefAdminFeeRate",
      "outputs": [],
      "stateMutability": "nonpayable",
      "type": "function"
    },
    {
      "inputs": [
        {
          "internalType": "uint256",
          "name": "_defSwapFeeRate",
          "type": "uint256"
        }
      ],
      "name": "setDefSwapFeeRate",
      "outputs": [],
      "stateMutability": "nonpayable",
      "type": "function"
    },
    {
      "inputs": [
        {
          "internalType": "address",
          "name": "_manager",
          "type": "address"
        }
      ],
      "name": "setManager",
      "outputs": [],
      "stateMutability": "nonpayable",
      "type": "function"
    },
    {
      "inputs": [
        {
          "internalType": "address",
          "name": "_impl",
          "type": "address"
        }
      ],
      "name": "setPairType",
      "outputs": [],
      "stateMutability": "nonpayable",
      "type": "function"
    }
  ],
  "transactionHash": "0x67ac37da081d142432f03ddec611f5bc9e6a3f93f32bad09e7ffc7b470aab91e",
  "args": [
    "30000000",
    "5000000000"
  ],
  "numDeployments": 1,
  "solcInputHash": "51eb0f5abfb734e7e81e299507506614",
  "bytecode": "0x60806040523480156200001157600080fd5b5060405162001b2938038062001b298339810160408190526200003491620001a3565b62000040828262000048565b5050620001c8565b600054610100900460ff1615808015620000695750600054600160ff909116105b8062000099575062000086306200019460201b62000f921760201c565b15801562000099575060005460ff166001145b620001015760405162461bcd60e51b815260206004820152602e60248201527f496e697469616c697a61626c653a20636f6e747261637420697320616c72656160448201526d191e481a5b9a5d1a585b1a5e995960921b606482015260840160405180910390fd5b6000805460ff19166001179055801562000125576000805461ff0019166101001790555b6000805462010000600160b01b0319163362010000021790556002839055600382905580156200018f576000805461ff0019169055604051600181527f7f26b83ff96e1f2b6a682f133852f6798a09c465da95921460cefb38474024989060200160405180910390a15b505050565b6001600160a01b03163b151590565b60008060408385031215620001b757600080fd5b505080516020909101519092909150565b61195180620001d86000396000f3fe608060405234801561001057600080fd5b50600436106101425760003560e01c8063a5652b62116100b8578063d0ebdbe71161007c578063d0ebdbe7146102c8578063d3bd1f36146102db578063e0b3df17146102ee578063e4a3011614610301578063e5e31b1314610314578063fd8d63c21461033757600080fd5b8063a5652b621461027c578063a74ecadc14610285578063a908b0ac1461029a578063b9a59826146102ad578063cb4278e4146102c057600080fd5b8063574f2ba31161010a578063574f2ba3146101c45780636143f2f9146101cc5780636f627dbb14610220578063962912b2146102435780639d7169f414610256578063a00fff6f1461026957600080fd5b80631e3dd18b1461014757806323edcef8146101775780634380cd5b1461018e578063481c6a75146101a357806348ff15b3146101bc575b600080fd5b61015a610155366004611418565b61034a565b6040516001600160a01b0390911681526020015b60405180910390f35b61018060035481565b60405190815260200161016e565b6101a161019c366004611418565b610374565b005b60005461015a906201000090046001600160a01b031681565b6101a16103f3565b600554610180565b6102016101da366004611443565b6008602052600090815260409020546001600160a01b03811690600160a01b900460ff1682565b604080516001600160a01b03909316835290151560208301520161016e565b61023361022e36600461147c565b610478565b604051901515815260200161016e565b6101a1610251366004611418565b61048b565b6101a161026436600461147c565b6104f9565b60015461015a906001600160a01b031681565b61018060025481565b61028d6106ef565b60405161016e91906114db565b61015a6102a83660046115bc565b610700565b6101a16102bb36600461147c565b6109c1565b610180610c00565b6101a16102d636600461147c565b610c0c565b6101a16102e936600461147c565b610c5e565b61015a6102fc366004611418565b610df6565b6101a161030f366004611685565b610e03565b61023361032236600461147c565b60046020526000908152604090205460ff1681565b61015a6103453660046116a7565b610f2d565b6005818154811061035a57600080fd5b6000918252602090912001546001600160a01b0316905081565b6000546201000090046001600160a01b031633146103ad5760405162461bcd60e51b81526004016103a4906116f9565b60405180910390fd5b600380549082905560408051828152602081018490527ff5ff144628b9e19f9a5d0286784d338c78a7410e0b25c01a8b4e674bc39b33bb91015b60405180910390a15050565b6001546001600160a01b0316331461044d5760405162461bcd60e51b815260206004820152601760248201527f6e6f742070656e64696e6720666565206d616e6167657200000000000000000060448201526064016103a4565b6001546000805462010000600160b01b0319166001600160a01b039092166201000002919091179055565b6000610485600683610fa1565b92915050565b6000546201000090046001600160a01b031633146104bb5760405162461bcd60e51b81526004016103a4906116f9565b600280549082905560408051828152602081018490527fbb556759cd184345231b8fc75d9ce4a3b6318068025c80048773e1880dd336e991016103e7565b6000546201000090046001600160a01b031633146105295760405162461bcd60e51b81526004016103a4906116f9565b6000816001600160a01b031663508d1e6b6040518163ffffffff1660e01b8152600401602060405180830381865afa158015610569573d6000803e3d6000fd5b505050506040513d601f19601f8201168201806040525081019061058d919061171e565b90506000826001600160a01b0316630a5623fb6040518163ffffffff1660e01b8152600401602060405180830381865afa1580156105cf573d6000803e3d6000fd5b505050506040513d601f19601f820116820180604052508101906105f3919061173b565b60ff83166000908152600860205260409020549091506001600160a01b0316801561062557610623600682610fc6565b505b610630600685610fdb565b61064c5760405162461bcd60e51b81526004016103a49061175d565b6040805180820182526001600160a01b03868116808352851515602080850182815260ff8a166000818152600884528890209651875492511515600160a01b026001600160a81b03199093169087161791909117909555855192835282019390935292830191909152821660608201527f1400ba2558efe19fc8d7538b626f52083999103aea4d54d27d2511017e95e2d49060800160405180910390a150505050565b60606106fb6006610ff0565b905090565b600061070b84610ffd565b93506004600061071b8686610f2d565b6001600160a01b0316815260208101919091526040016000205460ff16156107855760405162461bcd60e51b815260206004820152601c60248201527f466163746f72793a205061697220616c7265616479206578697374730000000060448201526064016103a4565b6000848460405160200161079a92919061179e565b60408051601f19818403018152828252805160209182012060ff80891660008181526008855285902086860190955293546001600160a01b0381168652600160a01b900416151591840191909152925060010361081b5760025460035460408051602081019390935282015260600160405160208183030381529060405293505b8060200151156108a4576000546201000090046001600160a01b031633146108a45760405162461bcd60e51b815260206004820152603660248201527f466163746f72793a2074686973207061697220747970652063616e206f6e6c796044820152751031329031b932b0ba32b210313c9036b0b730b3b2b960511b60648201526084016103a4565b80516108b0908361113d565b604051631cd3c49560e31b81529093506001600160a01b0384169063e69e24a8906108e190899088906004016117f1565b600060405180830381600087803b1580156108fb57600080fd5b505af115801561090f573d6000803e3d6000fd5b505060058054600180820183557f036b6384b5eca791c62761152d0c79bb0604c104a5fb6f4eb0703f3154bb3db090910180546001600160a01b0319166001600160a01b03891690811790915560009081526004602052604090819020805460ff1916909217909155905490517fb1424b6c1e4d8dcbe71c791ebb0fd69752e4c4ce8ce2d5fa660ea942aaa2d3de93506109b0925089918991889190611856565b60405180910390a150509392505050565b6000546201000090046001600160a01b031633146109f15760405162461bcd60e51b81526004016103a4906116f9565b6000816001600160a01b031663508d1e6b6040518163ffffffff1660e01b8152600401602060405180830381865afa158015610a31573d6000803e3d6000fd5b505050506040513d601f19601f82011682018060405250810190610a55919061171e565b90506000826001600160a01b0316630a5623fb6040518163ffffffff1660e01b8152600401602060405180830381865afa158015610a97573d6000803e3d6000fd5b505050506040513d601f19601f82011682018060405250810190610abb919061173b565b60ff83166000908152600860205260409020549091506001600160a01b031615610b365760405162461bcd60e51b815260206004820152602660248201527f466163746f72793a20546869732070616972207479706520616c72656164792060448201526565786973747360d01b60648201526084016103a4565b610b41600684610fdb565b610b5d5760405162461bcd60e51b81526004016103a49061175d565b6040805180820182526001600160a01b03858116808352841515602080850182815260ff89166000818152600884528881209751885493511515600160a01b026001600160a81b03199094169716969096179190911790955585519283528201939093529283019190915260608201527f1400ba2558efe19fc8d7538b626f52083999103aea4d54d27d2511017e95e2d4906080015b60405180910390a1505050565b60006106fb60066111da565b6000546201000090046001600160a01b03163314610c3c5760405162461bcd60e51b81526004016103a4906116f9565b600180546001600160a01b0319166001600160a01b0392909216919091179055565b6000546201000090046001600160a01b03163314610c8e5760405162461bcd60e51b81526004016103a4906116f9565b610c99600682610fa1565b610cef5760405162461bcd60e51b815260206004820152602160248201527f466163746f72793a2054686973207061697220646f6573206e6f7420657869736044820152601d60fa1b60648201526084016103a4565b6000816001600160a01b031663508d1e6b6040518163ffffffff1660e01b8152600401602060405180830381865afa158015610d2f573d6000803e3d6000fd5b505050506040513d601f19601f82011682018060405250810190610d53919061171e565b9050610d60600683610fc6565b5060ff81811660008181526008602081815260408084208151808301835281546001600160a01b038082168352600160a01b82049099161515828601908152968890529484526001600160a81b031990941690559251835195881686529085019390935291151590830152907f626aa489691af84bf64ea4aa134b8304d7f9b324e1200a8b03fef32d2ca08e6790606001610bf3565b60006104856006836111e4565b600054610100900460ff1615808015610e235750600054600160ff909116105b80610e3d5750303b158015610e3d575060005460ff166001145b610ea05760405162461bcd60e51b815260206004820152602e60248201527f496e697469616c697a61626c653a20636f6e747261637420697320616c72656160448201526d191e481a5b9a5d1a585b1a5e995960921b60648201526084016103a4565b6000805460ff191660011790558015610ec3576000805461ff0019166101001790555b6000805462010000600160b01b031916336201000002179055600283905560038290558015610f28576000805461ff0019169055604051600181527f7f26b83ff96e1f2b6a682f133852f6798a09c465da95921460cefb384740249890602001610bf3565b505050565b600080610f3984610ffd565b83604051602001610f4b92919061179e565b60408051601f19818403018152918152815160209283012060ff861660009081526008909352912054909150610f8a906001600160a01b0316826111f0565b949350505050565b6001600160a01b03163b151590565b6001600160a01b038116600090815260018301602052604081205415155b9392505050565b6000610fbf836001600160a01b038416611250565b6000610fbf836001600160a01b038416611343565b60606000610fbf83611392565b805160609060005b8181101561113557600061101a8260016118a7565b90505b8281101561112257848181518110611037576110376118bf565b60200260200101516001600160a01b031685838151811061105a5761105a6118bf565b60200260200101516001600160a01b03161115611110576000858381518110611085576110856118bf565b602002602001015190508582815181106110a1576110a16118bf565b60200260200101518684815181106110bb576110bb6118bf565b60200260200101906001600160a01b031690816001600160a01b031681525050808683815181106110ee576110ee6118bf565b60200260200101906001600160a01b031690816001600160a01b031681525050505b8061111a816118d5565b91505061101d565b508061112d816118d5565b915050611005565b509192915050565b6000763d602d80600a3d3981f3363d3d373d3d3d363d730000008360601b60e81c176000526e5af43d82803e903d91602b57fd5bf38360781b1760205281603760096000f590506001600160a01b0381166104855760405162461bcd60e51b815260206004820152601760248201527f455243313136373a2063726561746532206661696c656400000000000000000060448201526064016103a4565b6000610485825490565b6000610fbf83836113ee565b6040513060388201526f5af43d82803e903d91602b57fd5bf3ff602482015260148101839052733d602d80600a3d3981f3363d3d373d3d3d363d738152605881018290526037600c82012060788201526055604390910120600090610fbf565b600081815260018301602052604081205480156113395760006112746001836118ee565b8554909150600090611288906001906118ee565b90508181146112ed5760008660000182815481106112a8576112a86118bf565b90600052602060002001549050808760000184815481106112cb576112cb6118bf565b6000918252602080832090910192909255918252600188019052604090208390555b85548690806112fe576112fe611905565b600190038181906000526020600020016000905590558560010160008681526020019081526020016000206000905560019350505050610485565b6000915050610485565b600081815260018301602052604081205461138a57508154600181810184556000848152602080822090930184905584548482528286019093526040902091909155610485565b506000610485565b6060816000018054806020026020016040519081016040528092919081815260200182805480156113e257602002820191906000526020600020905b8154815260200190600101908083116113ce575b50505050509050919050565b6000826000018281548110611405576114056118bf565b9060005260206000200154905092915050565b60006020828403121561142a57600080fd5b5035919050565b60ff8116811461144057600080fd5b50565b60006020828403121561145557600080fd5b8135610fbf81611431565b80356001600160a01b038116811461147757600080fd5b919050565b60006020828403121561148e57600080fd5b610fbf82611460565b600081518084526020808501945080840160005b838110156114d05781516001600160a01b0316875295820195908201906001016114ab565b509495945050505050565b602081526000610fbf6020830184611497565b634e487b7160e01b600052604160045260246000fd5b604051601f8201601f1916810167ffffffffffffffff8111828210171561152d5761152d6114ee565b604052919050565b600082601f83011261154657600080fd5b8135602067ffffffffffffffff821115611562576115626114ee565b8160051b611571828201611504565b928352848101820192828101908785111561158b57600080fd5b83870192505b848310156115b1576115a283611460565b82529183019190830190611591565b979650505050505050565b6000806000606084860312156115d157600080fd5b833567ffffffffffffffff808211156115e957600080fd5b6115f587838801611535565b9450602091508186013561160881611431565b935060408601358181111561161c57600080fd5b8601601f8101881361162d57600080fd5b80358281111561163f5761163f6114ee565b611651601f8201601f19168501611504565b9250808352888482840101111561166757600080fd5b80848301858501376000848285010152505080925050509250925092565b6000806040838503121561169857600080fd5b50508035926020909101359150565b600080604083850312156116ba57600080fd5b823567ffffffffffffffff8111156116d157600080fd5b6116dd85828601611535565b92505060208301356116ee81611431565b809150509250929050565b6020808252600b908201526a3737ba1036b0b730b3b2b960a91b604082015260600190565b60006020828403121561173057600080fd5b8151610fbf81611431565b60006020828403121561174d57600080fd5b81518015158114610fbf57600080fd5b60208082526021908201527f466163746f72793a2054686973207061697220616c72656164792065786973746040820152607360f81b606082015260800190565b825160009082906020808701845b838110156117d15781516001600160a01b0316855293820193908201906001016117ac565b5050505060f89390931b6001600160f81b03191683525050600101919050565b6040815260006118046040830185611497565b602083820381850152845180835260005b81811015611830578681018301518482018401528201611815565b818111156118415760008383860101525b50601f01601f19169190910101949350505050565b6080815260006118696080830187611497565b60ff959095166020830152506001600160a01b03929092166040830152606090910152919050565b634e487b7160e01b600052601160045260246000fd5b600082198211156118ba576118ba611891565b500190565b634e487b7160e01b600052603260045260246000fd5b6000600182016118e7576118e7611891565b5060010190565b60008282101561190057611900611891565b500390565b634e487b7160e01b600052603160045260246000fdfea26469706673582212207f00fb25b6a83ecb479aed96af144ed63df6a62a63f98eeae60a9b3b67ae6b7f64736f6c634300080d0033",
  "devdoc": {
    "kind": "dev",
    "methods": {},
    "version": 1
  },
  "userdoc": {
    "kind": "user",
    "methods": {},
    "version": 1
  },
  "storageLayout": {
    "storage": [
      {
        "astId": 6,
        "contract": "contracts/PairFactory.sol:PairFactory",
        "label": "_initialized",
        "offset": 0,
        "slot": "0",
        "type": "t_uint8"
      },
      {
        "astId": 9,
        "contract": "contracts/PairFactory.sol:PairFactory",
        "label": "_initializing",
        "offset": 1,
        "slot": "0",
        "type": "t_bool"
      },
      {
        "astId": 1168,
        "contract": "contracts/PairFactory.sol:PairFactory",
        "label": "manager",
        "offset": 2,
        "slot": "0",
        "type": "t_address"
      },
      {
        "astId": 1170,
        "contract": "contracts/PairFactory.sol:PairFactory",
        "label": "pendingManager",
        "offset": 0,
        "slot": "1",
        "type": "t_address"
      },
      {
        "astId": 1172,
        "contract": "contracts/PairFactory.sol:PairFactory",
        "label": "defSwapFeeRate",
        "offset": 0,
        "slot": "2",
        "type": "t_uint256"
      },
      {
        "astId": 1174,
        "contract": "contracts/PairFactory.sol:PairFactory",
        "label": "defAdminFeeRate",
        "offset": 0,
        "slot": "3",
        "type": "t_uint256"
      },
      {
        "astId": 1178,
        "contract": "contracts/PairFactory.sol:PairFactory",
        "label": "isPair",
        "offset": 0,
        "slot": "4",
        "type": "t_mapping(t_address,t_bool)"
      },
      {
        "astId": 1181,
        "contract": "contracts/PairFactory.sol:PairFactory",
        "label": "allPairs",
        "offset": 0,
        "slot": "5",
        "type": "t_array(t_address)dyn_storage"
      },
      {
        "astId": 1184,
        "contract": "contracts/PairFactory.sol:PairFactory",
        "label": "pairImpls",
        "offset": 0,
        "slot": "6",
        "type": "t_struct(AddressSet)858_storage"
      },
      {
        "astId": 1189,
        "contract": "contracts/PairFactory.sol:PairFactory",
        "label": "pairParams",
        "offset": 0,
        "slot": "8",
        "type": "t_mapping(t_uint8,t_struct(PairParams)1934_storage)"
      }
    ],
    "types": {
      "t_address": {
        "encoding": "inplace",
        "label": "address",
        "numberOfBytes": "20"
      },
      "t_array(t_address)dyn_storage": {
        "base": "t_address",
        "encoding": "dynamic_array",
        "label": "address[]",
        "numberOfBytes": "32"
      },
      "t_array(t_bytes32)dyn_storage": {
        "base": "t_bytes32",
        "encoding": "dynamic_array",
        "label": "bytes32[]",
        "numberOfBytes": "32"
      },
      "t_bool": {
        "encoding": "inplace",
        "label": "bool",
        "numberOfBytes": "1"
      },
      "t_bytes32": {
        "encoding": "inplace",
        "label": "bytes32",
        "numberOfBytes": "32"
      },
      "t_mapping(t_address,t_bool)": {
        "encoding": "mapping",
        "key": "t_address",
        "label": "mapping(address => bool)",
        "numberOfBytes": "32",
        "value": "t_bool"
      },
      "t_mapping(t_bytes32,t_uint256)": {
        "encoding": "mapping",
        "key": "t_bytes32",
        "label": "mapping(bytes32 => uint256)",
        "numberOfBytes": "32",
        "value": "t_uint256"
      },
      "t_mapping(t_uint8,t_struct(PairParams)1934_storage)": {
        "encoding": "mapping",
        "key": "t_uint8",
        "label": "mapping(uint8 => struct IPairFactory.PairParams)",
        "numberOfBytes": "32",
        "value": "t_struct(PairParams)1934_storage"
      },
      "t_struct(AddressSet)858_storage": {
        "encoding": "inplace",
        "label": "struct EnumerableSet.AddressSet",
        "members": [
          {
            "astId": 857,
            "contract": "contracts/PairFactory.sol:PairFactory",
            "label": "_inner",
            "offset": 0,
            "slot": "0",
            "type": "t_struct(Set)543_storage"
          }
        ],
        "numberOfBytes": "64"
      },
      "t_struct(PairParams)1934_storage": {
        "encoding": "inplace",
        "label": "struct IPairFactory.PairParams",
        "members": [
          {
            "astId": 1931,
            "contract": "contracts/PairFactory.sol:PairFactory",
            "label": "_impl",
            "offset": 0,
            "slot": "0",
            "type": "t_address"
          },
          {
            "astId": 1933,
            "contract": "contracts/PairFactory.sol:PairFactory",
            "label": "_auth",
            "offset": 20,
            "slot": "0",
            "type": "t_bool"
          }
        ],
        "numberOfBytes": "32"
      },
      "t_struct(Set)543_storage": {
        "encoding": "inplace",
        "label": "struct EnumerableSet.Set",
        "members": [
          {
            "astId": 538,
            "contract": "contracts/PairFactory.sol:PairFactory",
            "label": "_values",
            "offset": 0,
            "slot": "0",
            "type": "t_array(t_bytes32)dyn_storage"
          },
          {
            "astId": 542,
            "contract": "contracts/PairFactory.sol:PairFactory",
            "label": "_indexes",
            "offset": 0,
            "slot": "1",
            "type": "t_mapping(t_bytes32,t_uint256)"
          }
        ],
        "numberOfBytes": "64"
      },
      "t_uint256": {
        "encoding": "inplace",
        "label": "uint256",
        "numberOfBytes": "32"
      },
      "t_uint8": {
        "encoding": "inplace",
        "label": "uint8",
        "numberOfBytes": "1"
      }
    }
  }
}