{
  "address": "0x8a18a10d59a3e9999676d90f401c02ef541de66D",
  "abi": [
    {
      "inputs": [
        {
          "internalType": "address",
          "name": "_factory",
          "type": "address"
        },
        {
          "internalType": "address",
          "name": "_weth",
          "type": "address"
        }
      ],
      "stateMutability": "nonpayable",
      "type": "constructor"
    },
    {
      "anonymous": false,
      "inputs": [
        {
          "indexed": false,
          "internalType": "uint8",
          "name": "version",
          "type": "uint8"
        }
      ],
      "name": "Initialized",
      "type": "event"
    },
    {
      "anonymous": false,
      "inputs": [
        {
          "indexed": false,
          "internalType": "uint8",
          "name": "pairType",
          "type": "uint8"
        },
        {
          "indexed": false,
          "internalType": "address",
          "name": "router",
          "type": "address"
        }
      ],
      "name": "SetPairTypes",
      "type": "event"
    },
    {
      "inputs": [
        {
          "internalType": "uint8",
          "name": "_pairType",
          "type": "uint8"
        },
        {
          "internalType": "address[]",
          "name": "_tokens",
          "type": "address[]"
        },
        {
          "internalType": "uint256[]",
          "name": "_amountDesireds",
          "type": "uint256[]"
        },
        {
          "internalType": "uint256[]",
          "name": "_amountsMin",
          "type": "uint256[]"
        },
        {
          "internalType": "uint256",
          "name": "_minLiquidity",
          "type": "uint256"
        },
        {
          "internalType": "address",
          "name": "_to",
          "type": "address"
        },
        {
          "internalType": "uint256",
          "name": "_deadline",
          "type": "uint256"
        }
      ],
      "name": "addLiquidity",
      "outputs": [
        {
          "internalType": "uint256[]",
          "name": "_amounts",
          "type": "uint256[]"
        },
        {
          "internalType": "uint256",
          "name": "_liquidity",
          "type": "uint256"
        }
      ],
      "stateMutability": "nonpayable",
      "type": "function"
    },
    {
      "inputs": [],
      "name": "factory",
      "outputs": [
        {
          "internalType": "address",
          "name": "",
          "type": "address"
        }
      ],
      "stateMutability": "view",
      "type": "function"
    },
    {
      "inputs": [
        {
          "internalType": "uint256",
          "name": "_amountIn",
          "type": "uint256"
        },
        {
          "components": [
            {
              "internalType": "address",
              "name": "from",
              "type": "address"
            },
            {
              "internalType": "address",
              "name": "to",
              "type": "address"
            },
            {
              "internalType": "address",
              "name": "pair",
              "type": "address"
            }
          ],
          "internalType": "struct Router.Route[]",
          "name": "_routes",
          "type": "tuple[]"
        }
      ],
      "name": "getAmountsOut",
      "outputs": [
        {
          "internalType": "uint256",
          "name": "_amountsOut",
          "type": "uint256"
        }
      ],
      "stateMutability": "view",
      "type": "function"
    },
    {
      "inputs": [
        {
          "internalType": "address[]",
          "name": "_tokens",
          "type": "address[]"
        }
      ],
      "name": "getReserves",
      "outputs": [
        {
          "internalType": "uint256",
          "name": "reserveA",
          "type": "uint256"
        },
        {
          "internalType": "uint256",
          "name": "reserveB",
          "type": "uint256"
        }
      ],
      "stateMutability": "view",
      "type": "function"
    },
    {
      "inputs": [
        {
          "internalType": "address",
          "name": "_factory",
          "type": "address"
        },
        {
          "internalType": "address",
          "name": "_weth",
          "type": "address"
        }
      ],
      "name": "initialize",
      "outputs": [],
      "stateMutability": "nonpayable",
      "type": "function"
    },
    {
      "inputs": [
        {
          "internalType": "address[]",
          "name": "_tokens",
          "type": "address[]"
        },
        {
          "internalType": "uint8",
          "name": "_type",
          "type": "uint8"
        }
      ],
      "name": "pairFor",
      "outputs": [
        {
          "internalType": "address",
          "name": "_pair",
          "type": "address"
        },
        {
          "internalType": "bool",
          "name": "_has",
          "type": "bool"
        }
      ],
      "stateMutability": "view",
      "type": "function"
    },
    {
      "inputs": [
        {
          "internalType": "uint8",
          "name": "",
          "type": "uint8"
        }
      ],
      "name": "pairTypes",
      "outputs": [
        {
          "internalType": "address",
          "name": "",
          "type": "address"
        }
      ],
      "stateMutability": "view",
      "type": "function"
    },
    {
      "inputs": [
        {
          "internalType": "uint8",
          "name": "_pairType",
          "type": "uint8"
        },
        {
          "internalType": "address[]",
          "name": "_tokens",
          "type": "address[]"
        },
        {
          "internalType": "uint256[]",
          "name": "_amountDesireds",
          "type": "uint256[]"
        }
      ],
      "name": "quoteAddLiquidity",
      "outputs": [
        {
          "internalType": "uint256[]",
          "name": "_amountIn",
          "type": "uint256[]"
        },
        {
          "internalType": "uint256",
          "name": "liquidity",
          "type": "uint256"
        }
      ],
      "stateMutability": "view",
      "type": "function"
    },
    {
      "inputs": [
        {
          "internalType": "uint8",
          "name": "_pairType",
          "type": "uint8"
        },
        {
          "internalType": "address[]",
          "name": "_tokens",
          "type": "address[]"
        },
        {
          "internalType": "uint256",
          "name": "_liquidity",
          "type": "uint256"
        }
      ],
      "name": "quoteRemoveLiquidity",
      "outputs": [
        {
          "internalType": "uint256[]",
          "name": "_amounts",
          "type": "uint256[]"
        }
      ],
      "stateMutability": "view",
      "type": "function"
    },
    {
      "inputs": [
        {
          "internalType": "uint8",
          "name": "_pairType",
          "type": "uint8"
        },
        {
          "internalType": "address[]",
          "name": "_tokens",
          "type": "address[]"
        },
        {
          "internalType": "uint256[]",
          "name": "_amounts",
          "type": "uint256[]"
        }
      ],
      "name": "quoteRemoveLiquidityImbalance",
      "outputs": [
        {
          "internalType": "uint256",
          "name": "_amount",
          "type": "uint256"
        }
      ],
      "stateMutability": "view",
      "type": "function"
    },
    {
      "inputs": [
        {
          "internalType": "uint8",
          "name": "_pairType",
          "type": "uint8"
        },
        {
          "internalType": "address[]",
          "name": "_tokens",
          "type": "address[]"
        },
        {
          "internalType": "address",
          "name": "_token",
          "type": "address"
        },
        {
          "internalType": "uint256",
          "name": "_liquidity",
          "type": "uint256"
        }
      ],
      "name": "quoteRemoveLiquidityOneToken",
      "outputs": [
        {
          "internalType": "uint256",
          "name": "_amount",
          "type": "uint256"
        }
      ],
      "stateMutability": "view",
      "type": "function"
    },
    {
      "inputs": [
        {
          "internalType": "uint8",
          "name": "_pairType",
          "type": "uint8"
        },
        {
          "internalType": "address[]",
          "name": "_tokens",
          "type": "address[]"
        },
        {
          "internalType": "uint256",
          "name": "_liquidity",
          "type": "uint256"
        },
        {
          "internalType": "uint256[]",
          "name": "_amountsMin",
          "type": "uint256[]"
        },
        {
          "internalType": "address",
          "name": "_to",
          "type": "address"
        },
        {
          "internalType": "uint256",
          "name": "_deadline",
          "type": "uint256"
        }
      ],
      "name": "removeLiquidity",
      "outputs": [
        {
          "internalType": "uint256[]",
          "name": "_amounts",
          "type": "uint256[]"
        }
      ],
      "stateMutability": "nonpayable",
      "type": "function"
    },
    {
      "inputs": [
        {
          "internalType": "uint8",
          "name": "_pairType",
          "type": "uint8"
        },
        {
          "internalType": "address[]",
          "name": "_tokens",
          "type": "address[]"
        },
        {
          "internalType": "uint256",
          "name": "_liquidity",
          "type": "uint256"
        },
        {
          "internalType": "uint256[]",
          "name": "_amountsMin",
          "type": "uint256[]"
        },
        {
          "internalType": "address",
          "name": "_to",
          "type": "address"
        },
        {
          "internalType": "uint256",
          "name": "_deadline",
          "type": "uint256"
        }
      ],
      "name": "removeLiquidityETH",
      "outputs": [
        {
          "internalType": "uint256[]",
          "name": "_amounts",
          "type": "uint256[]"
        }
      ],
      "stateMutability": "nonpayable",
      "type": "function"
    },
    {
      "inputs": [
        {
          "internalType": "uint8",
          "name": "_pairType",
          "type": "uint8"
        },
        {
          "internalType": "address[]",
          "name": "_tokens",
          "type": "address[]"
        },
        {
          "internalType": "uint256",
          "name": "_liquidity",
          "type": "uint256"
        },
        {
          "internalType": "uint256[]",
          "name": "_amountsMin",
          "type": "uint256[]"
        },
        {
          "internalType": "address",
          "name": "_to",
          "type": "address"
        },
        {
          "internalType": "uint256",
          "name": "_deadline",
          "type": "uint256"
        },
        {
          "internalType": "bool",
          "name": "_approveMax",
          "type": "bool"
        },
        {
          "internalType": "uint8",
          "name": "_v",
          "type": "uint8"
        },
        {
          "internalType": "bytes32",
          "name": "_r",
          "type": "bytes32"
        },
        {
          "internalType": "bytes32",
          "name": "_s",
          "type": "bytes32"
        }
      ],
      "name": "removeLiquidityETHWithPermit",
      "outputs": [
        {
          "internalType": "uint256[]",
          "name": "_amounts",
          "type": "uint256[]"
        }
      ],
      "stateMutability": "nonpayable",
      "type": "function"
    },
    {
      "inputs": [
        {
          "internalType": "uint8",
          "name": "_pairType",
          "type": "uint8"
        },
        {
          "internalType": "address[]",
          "name": "_tokens",
          "type": "address[]"
        },
        {
          "internalType": "uint256[]",
          "name": "_amounts",
          "type": "uint256[]"
        },
        {
          "internalType": "uint256",
          "name": "_maxBurnAmount",
          "type": "uint256"
        },
        {
          "internalType": "address",
          "name": "_to",
          "type": "address"
        },
        {
          "internalType": "uint256",
          "name": "_deadline",
          "type": "uint256"
        }
      ],
      "name": "removeLiquidityImbalance",
      "outputs": [
        {
          "internalType": "uint256",
          "name": "_amount",
          "type": "uint256"
        }
      ],
      "stateMutability": "nonpayable",
      "type": "function"
    },
    {
      "inputs": [
        {
          "internalType": "uint8",
          "name": "_pairType",
          "type": "uint8"
        },
        {
          "internalType": "address[]",
          "name": "_tokens",
          "type": "address[]"
        },
        {
          "internalType": "uint256",
          "name": "_liquidity",
          "type": "uint256"
        },
        {
          "internalType": "address",
          "name": "_token",
          "type": "address"
        },
        {
          "internalType": "uint256",
          "name": "_minAmount",
          "type": "uint256"
        },
        {
          "internalType": "address",
          "name": "_to",
          "type": "address"
        },
        {
          "internalType": "uint256",
          "name": "_deadline",
          "type": "uint256"
        }
      ],
      "name": "removeLiquidityOneToken",
      "outputs": [
        {
          "internalType": "uint256",
          "name": "_amount",
          "type": "uint256"
        }
      ],
      "stateMutability": "nonpayable",
      "type": "function"
    },
    {
      "inputs": [
        {
          "internalType": "uint8",
          "name": "_pairType",
          "type": "uint8"
        },
        {
          "internalType": "address[]",
          "name": "_tokens",
          "type": "address[]"
        },
        {
          "internalType": "uint256",
          "name": "_liquidity",
          "type": "uint256"
        },
        {
          "internalType": "uint256[]",
          "name": "_amountsMin",
          "type": "uint256[]"
        },
        {
          "internalType": "address",
          "name": "_to",
          "type": "address"
        },
        {
          "internalType": "uint256",
          "name": "_deadline",
          "type": "uint256"
        },
        {
          "internalType": "bool",
          "name": "_approveMax",
          "type": "bool"
        },
        {
          "internalType": "uint8",
          "name": "_v",
          "type": "uint8"
        },
        {
          "internalType": "bytes32",
          "name": "_r",
          "type": "bytes32"
        },
        {
          "internalType": "bytes32",
          "name": "_s",
          "type": "bytes32"
        }
      ],
      "name": "removeLiquidityWithPermit",
      "outputs": [
        {
          "internalType": "uint256[]",
          "name": "_amounts",
          "type": "uint256[]"
        }
      ],
      "stateMutability": "nonpayable",
      "type": "function"
    },
    {
      "inputs": [
        {
          "internalType": "uint8",
          "name": "_pairType",
          "type": "uint8"
        },
        {
          "internalType": "address",
          "name": "_router",
          "type": "address"
        }
      ],
      "name": "setPairTypes",
      "outputs": [],
      "stateMutability": "nonpayable",
      "type": "function"
    },
    {
      "inputs": [
        {
          "components": [
            {
              "internalType": "address",
              "name": "from",
              "type": "address"
            },
            {
              "internalType": "address",
              "name": "to",
              "type": "address"
            },
            {
              "internalType": "address",
              "name": "pair",
              "type": "address"
            }
          ],
          "internalType": "struct Router.Route[]",
          "name": "_routes",
          "type": "tuple[]"
        },
        {
          "internalType": "uint256",
          "name": "_amountIn",
          "type": "uint256"
        },
        {
          "internalType": "uint256",
          "name": "_amountOutMin",
          "type": "uint256"
        },
        {
          "internalType": "address",
          "name": "_to",
          "type": "address"
        },
        {
          "internalType": "uint256",
          "name": "_deadline",
          "type": "uint256"
        }
      ],
      "name": "swap",
      "outputs": [
        {
          "internalType": "uint256",
          "name": "_amountOut",
          "type": "uint256"
        }
      ],
      "stateMutability": "nonpayable",
      "type": "function"
    },
    {
      "inputs": [],
      "name": "weth",
      "outputs": [
        {
          "internalType": "contract IWETH",
          "name": "",
          "type": "address"
        }
      ],
      "stateMutability": "view",
      "type": "function"
    },
    {
      "stateMutability": "payable",
      "type": "receive"
    }
  ],
  "transactionHash": "0xb4f78702c62464fa0d5cba6459ed057f0ce73ce3386b0799ca9b7c7b997adcf7",
  "args": [
    "0x577160f26cE8f137bdA345c313F2C0f0e93E521d",
    "0xB4FBF271143F4FBf7B91A5ded31805e42b2208d6"
  ],
  "numDeployments": 1,
  "solcInputHash": "4535074623f34f8243fcdfe5bf4c85b7",
  "bytecode": "0x60806040523480156200001157600080fd5b50604051620024d4380380620024d48339810160408190526200003491620001de565b62000040828262000048565b505062000216565b600054610100900460ff1615808015620000695750600054600160ff909116105b806200009957506200008630620001b260201b620011341760201c565b15801562000099575060005460ff166001145b620001015760405162461bcd60e51b815260206004820152602e60248201527f496e697469616c697a61626c653a20636f6e747261637420697320616c72656160448201526d191e481a5b9a5d1a585b1a5e995960921b606482015260840160405180910390fd5b6000805460ff19166001179055801562000125576000805461ff0019166101001790555b6000805462010000600160b01b031916620100006001600160a01b038681169190910291909117909155600180546001600160a01b0319169184169190911790558015620001ad576000805461ff0019169055604051600181527f7f26b83ff96e1f2b6a682f133852f6798a09c465da95921460cefb38474024989060200160405180910390a15b505050565b6001600160a01b03163b151590565b80516001600160a01b0381168114620001d957600080fd5b919050565b60008060408385031215620001f257600080fd5b620001fd83620001c1565b91506200020d60208401620001c1565b90509250929050565b6122ae80620002266000396000f3fe6080604052600436106101235760003560e01c806366e56f6d116100a0578063bd4c946311610064578063bd4c9463146103bd578063bf51c272146103dd578063c45a0155146103fd578063f064343014610423578063f2898b1c1461044357600080fd5b806366e56f6d146102f9578063738abdf41461031957806378f9a600146103475780639f1e9fc514610367578063bcec50a51461039d57600080fd5b80633bf9e788116100e75780633bf9e7881461022c5780633fc8cef31461024c578063407a4b081461028457806341048e92146102b9578063485cc955146102d957600080fd5b806305373e551461014957806321822df91461017f57806321941a8b1461019f578063237c65f9146101bf5780633a519141146101fe57600080fd5b36610144576001546001600160a01b0316331461014257610142611305565b005b600080fd5b34801561015557600080fd5b506101696101643660046114bd565b610463565b6040516101769190611594565b60405180910390f35b34801561018b57600080fd5b5061016961019a3660046115c0565b610511565b3480156101ab57600080fd5b506101426101ba36600461168e565b610589565b3480156101cb57600080fd5b506101df6101da3660046116c7565b6106bd565b604080516001600160a01b039093168352901515602083015201610176565b34801561020a57600080fd5b5061021e610219366004611758565b6107b8565b604051908152602001610176565b34801561023857600080fd5b5061021e6102473660046117da565b610861565b34801561025857600080fd5b5060015461026c906001600160a01b031681565b6040516001600160a01b039091168152602001610176565b34801561029057600080fd5b506102a461029f36600461187d565b6108ce565b60408051928352602083019190915201610176565b3480156102c557600080fd5b506101696102d43660046115c0565b610aca565b3480156102e557600080fd5b506101426102f43660046118b1565b610b1b565b34801561030557600080fd5b5061021e61031436600461197e565b610c67565b34801561032557600080fd5b506103396103343660046119c4565b610dbb565b604051610176929190611a39565b34801561035357600080fd5b50610339610362366004611a5b565b610e22565b34801561037357600080fd5b5061026c610382366004611b1d565b6002602052600090815260409020546001600160a01b031681565b3480156103a957600080fd5b5061021e6103b8366004611b3a565b610e95565b3480156103c957600080fd5b506101696103d83660046114bd565b610ede565b3480156103e957600080fd5b5061021e6103f8366004611bb6565b610f27565b34801561040957600080fd5b5060005461026c906201000090046001600160a01b031681565b34801561042f57600080fd5b5061016961043e366004611c20565b61108c565b34801561044f57600080fd5b5061021e61045e366004611c78565b6110ef565b60ff86166000908152600260205260408082205490516060926001600160a01b0390921691906104ee90630193221d60e21b906104ac908b908b908b908b908b90602401611d20565b60408051601f198184030181529190526020810180516001600160e01b03166001600160e01b0319909316929092179091526001600160a01b03841690611143565b9050808060200190518101906105049190611dc4565b9998505050505050505050565b60ff8a166000908152600260205260408082205490516060926001600160a01b039092169190610562906365a636f560e11b906104ac908f908f908f908f908f908f908f908f908f90602401611df8565b9050808060200190518101906105789190611dc4565b9d9c50505050505050505050505050565b600060029054906101000a90046001600160a01b03166001600160a01b031663481c6a756040518163ffffffff1660e01b8152600401602060405180830381865afa1580156105dc573d6000803e3d6000fd5b505050506040513d601f19601f820116820180604052508101906106009190611e67565b6001600160a01b0316336001600160a01b0316146106535760405162461bcd60e51b815260206004820152600b60248201526a3737ba1036b0b730b3b2b960a91b60448201526064015b60405180910390fd5b60ff821660008181526002602090815260409182902080546001600160a01b0319166001600160a01b0386169081179091558251938452908301527fa96932fdd7d627843f64506b722b21f0611a80e606fe738f2800519566ebd9bd910160405180910390a15050565b60008054604051637ec6b1e160e11b815282916201000090046001600160a01b03169063fd8d63c2906106f69087908790600401611e84565b602060405180830381865afa158015610713573d6000803e3d6000fd5b505050506040513d601f19601f820116820180604052508101906107379190611e67565b60005460405163e5e31b1360e01b81526001600160a01b038084166004830152929450620100009091049091169063e5e31b1390602401602060405180830381865afa15801561078b573d6000803e3d6000fd5b505050506040513d601f19601f820116820180604052508101906107af9190611ea9565b90509250929050565b60ff85166000908152600260205260408082205490516001600160a01b0390911690829061083f9063048241a960e31b906107fd908a908a908a908a90602401611f3a565b60408051601f198184030181529190526020810180516001600160e01b03166001600160e01b0319909316929092179091526001600160a01b0384169061116f565b9050808060200190518101906108559190611f6c565b98975050505050505050565b60ff87166000908152600260205260408082205490516001600160a01b039091169082906108aa90636fa99f3d60e01b906104ac908c908c908c908c908c908c90602401611f85565b9050808060200190518101906108c09190611f6c565b9a9950505050505050505050565b60008054604051637ec6b1e160e11b815282918291620100009091046001600160a01b03169063fd8d63c29061090b908790600190600401611e84565b602060405180830381865afa158015610928573d6000803e3d6000fd5b505050506040513d601f19601f8201168201806040525081019061094c9190611e67565b60005460405163e5e31b1360e01b81526001600160a01b038084166004830152929350620100009091049091169063e5e31b1390602401602060405180830381865afa1580156109a0573d6000803e3d6000fd5b505050506040513d601f19601f820116820180604052508101906109c49190611ea9565b15610ac4576001600090815260026020527fe90b7bceb6e7df5418fb78d8ee546e97c83a08bbccc01a0644d599ccd2a7c2e05485516001600160a01b039091169163327494619184918891610a1b57610a1b611fd3565b602002602001015187600181518110610a3657610a36611fd3565b60200260200101516040518463ffffffff1660e01b8152600401610a7a939291906001600160a01b0393841681529183166020830152909116604082015260600190565b6040805180830381865afa158015610a96573d6000803e3d6000fd5b505050506040513d601f19601f82011682018060405250810190610aba9190611fe9565b9250925050915091565b50915091565b60ff8a166000908152600260205260408082205490516060926001600160a01b0390921691906105629063ce2da95560e01b906104ac908f908f908f908f908f908f908f908f908f90602401611df8565b600054610100900460ff1615808015610b3b5750600054600160ff909116105b80610b555750303b158015610b55575060005460ff166001145b610bb85760405162461bcd60e51b815260206004820152602e60248201527f496e697469616c697a61626c653a20636f6e747261637420697320616c72656160448201526d191e481a5b9a5d1a585b1a5e995960921b606482015260840161064a565b6000805460ff191660011790558015610bdb576000805461ff0019166101001790555b6000805462010000600160b01b031916620100006001600160a01b038681169190910291909117909155600180546001600160a01b0319169184169190911790558015610c62576000805461ff0019169055604051600181527f7f26b83ff96e1f2b6a682f133852f6798a09c465da95921460cefb38474024989060200160405180910390a15b505050565b6000600182511015610cb25760405162461bcd60e51b81526020600482015260146024820152730a4deeae8cae47440929cac82989288bea082a8960631b604482015260640161064a565b508160005b8251811015610db457828181518110610cd257610cd2611fd3565b6020026020010151604001516001600160a01b0316634aa06652848381518110610cfe57610cfe611fd3565b602002602001015160000151858481518110610d1c57610d1c611fd3565b60209081029190910181015101516040516001600160e01b031960e085901b1681526001600160a01b0392831660048201529116602482015260448101859052606401602060405180830381865afa158015610d7c573d6000803e3d6000fd5b505050506040513d601f19601f82011682018060405250810190610da09190611f6c565b915080610dac8161200d565b915050610cb7565b5092915050565b60ff8316600090815260026020526040808220549051606092916001600160a01b0316908290610dfe906327954bfd60e11b906107fd9089908990602401612034565b905080806020019051810190610e149190612062565b909890975095505050505050565b60ff8716600090815260026020526040808220549051606092916001600160a01b0316908290610e6d90630c03c15d60e31b906104ac908d908d908d908d908d908d906024016120a8565b905080806020019051810190610e839190612062565b909c909b509950505050505050505050565b60ff87166000908152600260205260408082205490516001600160a01b039091169082906108aa906329c1331b60e01b906104ac908c908c908c908c908c908c90602401612109565b60ff86166000908152600260205260408082205490516060926001600160a01b0390921691906104ee906382b22fad60e01b906104ac908b908b908b908b908b90602401611d20565b6000805b8651811015611081576000878281518110610f4857610f48611fd3565b6020026020010151604001516001600160a01b031663508d1e6b6040518163ffffffff1660e01b8152600401602060405180830381865afa158015610f91573d6000803e3d6000fd5b505050506040513d601f19601f82011682018060405250810190610fb5919061214d565b60ff81166000908152600260205260408120548a519293506001600160a01b031691611053906306802e8f60e11b908c9087908110610ff657610ff6611fd3565b6020908102919091018101516040805182516001600160a01b039081166024830152938301518416604482015291015182166064820152608481018d905260a481018c9052908a1660c482015260e48101899052610104016104ac565b9050808060200190518101906110699190611f6c565b985050505080806110799061200d565b915050610f2b565b509395945050505050565b60ff83166000908152600260205260408082205490516060926001600160a01b0390921691906110cf90630596cda360e21b906107fd908890889060240161216a565b9050808060200190518101906110e59190611dc4565b9695505050505050565b60ff85166000908152600260205260408082205490516001600160a01b0390911690829061083f90631bc0504760e21b906107fd908a908a908a908a9060240161217d565b6001600160a01b03163b151590565b6060611168838360405180606001604052806027815260200161225260279139611194565b9392505050565b6060611168838360405180606001604052806025815260200161222d60259139611202565b6060600080856001600160a01b0316856040516111b191906121dd565b600060405180830381855af49150503d80600081146111ec576040519150601f19603f3d011682016040523d82523d6000602084013e6111f1565b606091505b50915091506110e58683838761125a565b6060600080856001600160a01b03168560405161121f91906121dd565b600060405180830381855afa9150503d80600081146111ec576040519150601f19603f3d011682016040523d82523d6000602084013e6111f1565b606083156112c95782516000036112c2576001600160a01b0385163b6112c25760405162461bcd60e51b815260206004820152601d60248201527f416464726573733a2063616c6c20746f206e6f6e2d636f6e7472616374000000604482015260640161064a565b50816112d3565b6112d383836112db565b949350505050565b8151156112eb5781518083602001fd5b8060405162461bcd60e51b815260040161064a91906121f9565b634e487b7160e01b600052600160045260246000fd5b60ff8116811461132a57600080fd5b50565b80356113388161131b565b919050565b634e487b7160e01b600052604160045260246000fd5b604051606081016001600160401b03811182821017156113755761137561133d565b60405290565b604051601f8201601f191681016001600160401b03811182821017156113a3576113a361133d565b604052919050565b60006001600160401b038211156113c4576113c461133d565b5060051b60200190565b6001600160a01b038116811461132a57600080fd5b8035611338816113ce565b600082601f8301126113ff57600080fd5b8135602061141461140f836113ab565b61137b565b82815260059290921b8401810191818101908684111561143357600080fd5b8286015b8481101561145757803561144a816113ce565b8352918301918301611437565b509695505050505050565b600082601f83011261147357600080fd5b8135602061148361140f836113ab565b82815260059290921b840181019181810190868411156114a257600080fd5b8286015b8481101561145757803583529183019183016114a6565b60008060008060008060c087890312156114d657600080fd5b86356114e18161131b565b955060208701356001600160401b03808211156114fd57600080fd5b6115098a838b016113ee565b965060408901359550606089013591508082111561152657600080fd5b5061153389828a01611462565b9350506080870135611544816113ce565b8092505060a087013590509295509295509295565b600081518084526020808501945080840160005b838110156115895781518752958201959082019060010161156d565b509495945050505050565b6020815260006111686020830184611559565b801515811461132a57600080fd5b8035611338816115a7565b6000806000806000806000806000806101408b8d0312156115e057600080fd5b6115e98b61132d565b995060208b01356001600160401b038082111561160557600080fd5b6116118e838f016113ee565b9a5060408d0135995060608d013591508082111561162e57600080fd5b5061163b8d828e01611462565b97505061164a60808c016113e3565b955060a08b0135945061165f60c08c016115b5565b935061166d60e08c0161132d565b92506101008b013591506101208b013590509295989b9194979a5092959850565b600080604083850312156116a157600080fd5b82356116ac8161131b565b915060208301356116bc816113ce565b809150509250929050565b600080604083850312156116da57600080fd5b82356001600160401b038111156116f057600080fd5b6116fc858286016113ee565b92505060208301356116bc8161131b565b60008083601f84011261171f57600080fd5b5081356001600160401b0381111561173657600080fd5b6020830191508360208260051b850101111561175157600080fd5b9250929050565b60008060008060006060868803121561177057600080fd5b853561177b8161131b565b945060208601356001600160401b038082111561179757600080fd5b6117a389838a0161170d565b909650945060408801359150808211156117bc57600080fd5b506117c98882890161170d565b969995985093965092949392505050565b600080600080600080600060c0888a0312156117f557600080fd5b87356118008161131b565b965060208801356001600160401b038082111561181c57600080fd5b6118288b838c016113ee565b975060408a013591508082111561183e57600080fd5b5061184b8a828b0161170d565b909650945050606088013592506080880135611866816113ce565b8092505060a0880135905092959891949750929550565b60006020828403121561188f57600080fd5b81356001600160401b038111156118a557600080fd5b6112d3848285016113ee565b600080604083850312156118c457600080fd5b82356116ac816113ce565b600082601f8301126118e057600080fd5b813560206118f061140f836113ab565b8281526060928302850182019282820191908785111561190f57600080fd5b8387015b858110156119715781818a03121561192b5760008081fd5b611933611353565b813561193e816113ce565b81528186013561194d816113ce565b81870152604082810135611960816113ce565b908201528452928401928101611913565b5090979650505050505050565b6000806040838503121561199157600080fd5b8235915060208301356001600160401b038111156119ae57600080fd5b6119ba858286016118cf565b9150509250929050565b6000806000606084860312156119d957600080fd5b83356119e48161131b565b925060208401356001600160401b0380821115611a0057600080fd5b611a0c878388016113ee565b93506040860135915080821115611a2257600080fd5b50611a2f86828701611462565b9150509250925092565b604081526000611a4c6040830185611559565b90508260208301529392505050565b600080600080600080600060e0888a031215611a7657600080fd5b8735611a818161131b565b965060208801356001600160401b0380821115611a9d57600080fd5b611aa98b838c016113ee565b975060408a0135915080821115611abf57600080fd5b611acb8b838c01611462565b965060608a0135915080821115611ae157600080fd5b50611aee8a828b01611462565b9450506080880135925060a0880135611b06816113ce565b8092505060c0880135905092959891949750929550565b600060208284031215611b2f57600080fd5b81356111688161131b565b600080600080600080600060e0888a031215611b5557600080fd5b8735611b608161131b565b965060208801356001600160401b03811115611b7b57600080fd5b611b878a828b016113ee565b965050604088013594506060880135611b9f816113ce565b93506080880135925060a0880135611b06816113ce565b600080600080600060a08688031215611bce57600080fd5b85356001600160401b03811115611be457600080fd5b611bf0888289016118cf565b95505060208601359350604086013592506060860135611c0f816113ce565b949793965091946080013592915050565b600080600060608486031215611c3557600080fd5b8335611c408161131b565b925060208401356001600160401b03811115611c5b57600080fd5b611c67868287016113ee565b925050604084013590509250925092565b600080600080600060808688031215611c9057600080fd5b8535611c9b8161131b565b945060208601356001600160401b03811115611cb657600080fd5b611cc28882890161170d565b9095509350506040860135611cd6816113ce565b949793965091946060013592915050565b600081518084526020808501945080840160005b838110156115895781516001600160a01b031687529582019590820190600101611cfb565b60a081526000611d3360a0830188611ce7565b8660208401528281036040840152611d4b8187611559565b6001600160a01b039590951660608401525050608001529392505050565b600082601f830112611d7a57600080fd5b81516020611d8a61140f836113ab565b82815260059290921b84018101918181019086841115611da957600080fd5b8286015b848110156114575780518352918301918301611dad565b600060208284031215611dd657600080fd5b81516001600160401b03811115611dec57600080fd5b6112d384828501611d69565b6000610120808352611e0c8184018d611ce7565b90508a60208401528281036040840152611e26818b611559565b6001600160a01b039990991660608401525050608081019590955292151560a085015260ff9190911660c084015260e0830152610100909101529392505050565b600060208284031215611e7957600080fd5b8151611168816113ce565b604081526000611e976040830185611ce7565b905060ff831660208301529392505050565b600060208284031215611ebb57600080fd5b8151611168816115a7565b8183526000602080850194508260005b85811015611589578135611ee9816113ce565b6001600160a01b031687529582019590820190600101611ed6565b81835260006001600160fb1b03831115611f1d57600080fd5b8260051b8083602087013760009401602001938452509192915050565b604081526000611f4e604083018688611ec6565b8281036020840152611f61818587611f04565b979650505050505050565b600060208284031215611f7e57600080fd5b5051919050565b60a081526000611f9860a0830189611ce7565b8281036020840152611fab81888a611f04565b604084019690965250506001600160a01b039290921660608301526080909101529392505050565b634e487b7160e01b600052603260045260246000fd5b60008060408385031215611ffc57600080fd5b505080516020909101519092909150565b60006001820161202d57634e487b7160e01b600052601160045260246000fd5b5060010190565b6040815260006120476040830185611ce7565b82810360208401526120598185611559565b95945050505050565b6000806040838503121561207557600080fd5b82516001600160401b0381111561208b57600080fd5b61209785828601611d69565b925050602083015190509250929050565b60c0815260006120bb60c0830189611ce7565b82810360208401526120cd8189611559565b905082810360408401526120e18188611559565b606084019690965250506001600160a01b0392909216608083015260a0909101529392505050565b60c08152600061211c60c0830189611ce7565b6020830197909752506001600160a01b03948516604082015260608101939093529216608082015260a00152919050565b60006020828403121561215f57600080fd5b81516111688161131b565b604081526000611a4c6040830185611ce7565b606081526000612191606083018688611ec6565b6001600160a01b03949094166020830152506040015292915050565b60005b838110156121c85781810151838201526020016121b0565b838111156121d7576000848401525b50505050565b600082516121ef8184602087016121ad565b9190910192915050565b60208152600082518060208401526122188160408501602087016121ad565b601f01601f1916919091016040019291505056fe416464726573733a206c6f772d6c6576656c207374617469632063616c6c206661696c6564416464726573733a206c6f772d6c6576656c2064656c65676174652063616c6c206661696c6564a264697066735822122026b90458635be0c360df38db7cca46fbc0e5e804f21ea59d4a159fb7769a2cb864736f6c634300080d0033",
  "devdoc": {
    "kind": "dev",
    "methods": {
      "getReserves(address[])": {
        "details": "only volatiole pair"
      }
    },
    "version": 1
  },
  "userdoc": {
    "kind": "user",
    "methods": {},
    "version": 1
  },
  "storageLayout": {
    "storage": [
      {
        "astId": 6,
        "contract": "contracts/Router.sol:Router",
        "label": "_initialized",
        "offset": 0,
        "slot": "0",
        "type": "t_uint8"
      },
      {
        "astId": 9,
        "contract": "contracts/Router.sol:Router",
        "label": "_initializing",
        "offset": 1,
        "slot": "0",
        "type": "t_bool"
      },
      {
        "astId": 1677,
        "contract": "contracts/Router.sol:Router",
        "label": "factory",
        "offset": 2,
        "slot": "0",
        "type": "t_address"
      },
      {
        "astId": 1680,
        "contract": "contracts/Router.sol:Router",
        "label": "weth",
        "offset": 0,
        "slot": "1",
        "type": "t_contract(IWETH)3251"
      },
      {
        "astId": 1684,
        "contract": "contracts/Router.sol:Router",
        "label": "pairTypes",
        "offset": 0,
        "slot": "2",
        "type": "t_mapping(t_uint8,t_address)"
      }
    ],
    "types": {
      "t_address": {
        "encoding": "inplace",
        "label": "address",
        "numberOfBytes": "20"
      },
      "t_bool": {
        "encoding": "inplace",
        "label": "bool",
        "numberOfBytes": "1"
      },
      "t_contract(IWETH)3251": {
        "encoding": "inplace",
        "label": "contract IWETH",
        "numberOfBytes": "20"
      },
      "t_mapping(t_uint8,t_address)": {
        "encoding": "mapping",
        "key": "t_uint8",
        "label": "mapping(uint8 => address)",
        "numberOfBytes": "32",
        "value": "t_address"
      },
      "t_uint8": {
        "encoding": "inplace",
        "label": "uint8",
        "numberOfBytes": "1"
      }
    }
  }
}