{
  "address": "0x7FE77f3922c8eaF7E8e127e414884c3b8f0d4bbd",
  "abi": [
    {
      "anonymous": false,
      "inputs": [
        {
          "indexed": true,
          "internalType": "address",
          "name": "provider",
          "type": "address"
        },
        {
          "indexed": false,
          "internalType": "uint256[]",
          "name": "tokenAmounts",
          "type": "uint256[]"
        },
        {
          "indexed": false,
          "internalType": "uint256[]",
          "name": "fees",
          "type": "uint256[]"
        },
        {
          "indexed": false,
          "internalType": "uint256",
          "name": "invariant",
          "type": "uint256"
        },
        {
          "indexed": false,
          "internalType": "uint256",
          "name": "lpTokenSupply",
          "type": "uint256"
        }
      ],
      "name": "AddLiquidity",
      "type": "event"
    },
    {
      "anonymous": false,
      "inputs": [
        {
          "indexed": false,
          "internalType": "uint8",
          "name": "version",
          "type": "uint8"
        }
      ],
      "name": "Initialized",
      "type": "event"
    },
    {
      "anonymous": false,
      "inputs": [
        {
          "indexed": false,
          "internalType": "uint256",
          "name": "newAdminFee",
          "type": "uint256"
        }
      ],
      "name": "NewAdminFee",
      "type": "event"
    },
    {
      "anonymous": false,
      "inputs": [
        {
          "indexed": false,
          "internalType": "uint256",
          "name": "newSwapFee",
          "type": "uint256"
        }
      ],
      "name": "NewSwapFee",
      "type": "event"
    },
    {
      "anonymous": false,
      "inputs": [
        {
          "indexed": false,
          "internalType": "uint256",
          "name": "newWithdrawFee",
          "type": "uint256"
        }
      ],
      "name": "NewWithdrawFee",
      "type": "event"
    },
    {
      "anonymous": false,
      "inputs": [
        {
          "indexed": false,
          "internalType": "uint256",
          "name": "oldA",
          "type": "uint256"
        },
        {
          "indexed": false,
          "internalType": "uint256",
          "name": "newA",
          "type": "uint256"
        },
        {
          "indexed": false,
          "internalType": "uint256",
          "name": "initialTime",
          "type": "uint256"
        },
        {
          "indexed": false,
          "internalType": "uint256",
          "name": "futureTime",
          "type": "uint256"
        }
      ],
      "name": "RampA",
      "type": "event"
    },
    {
      "anonymous": false,
      "inputs": [
        {
          "indexed": true,
          "internalType": "address",
          "name": "provider",
          "type": "address"
        },
        {
          "indexed": false,
          "internalType": "uint256[]",
          "name": "tokenAmounts",
          "type": "uint256[]"
        },
        {
          "indexed": false,
          "internalType": "uint256",
          "name": "lpTokenSupply",
          "type": "uint256"
        }
      ],
      "name": "RemoveLiquidity",
      "type": "event"
    },
    {
      "anonymous": false,
      "inputs": [
        {
          "indexed": true,
          "internalType": "address",
          "name": "provider",
          "type": "address"
        },
        {
          "indexed": false,
          "internalType": "uint256[]",
          "name": "tokenAmounts",
          "type": "uint256[]"
        },
        {
          "indexed": false,
          "internalType": "uint256[]",
          "name": "fees",
          "type": "uint256[]"
        },
        {
          "indexed": false,
          "internalType": "uint256",
          "name": "invariant",
          "type": "uint256"
        },
        {
          "indexed": false,
          "internalType": "uint256",
          "name": "lpTokenSupply",
          "type": "uint256"
        }
      ],
      "name": "RemoveLiquidityImbalance",
      "type": "event"
    },
    {
      "anonymous": false,
      "inputs": [
        {
          "indexed": true,
          "internalType": "address",
          "name": "provider",
          "type": "address"
        },
        {
          "indexed": false,
          "internalType": "uint256",
          "name": "lpTokenAmount",
          "type": "uint256"
        },
        {
          "indexed": false,
          "internalType": "uint256",
          "name": "lpTokenSupply",
          "type": "uint256"
        },
        {
          "indexed": false,
          "internalType": "uint256",
          "name": "boughtId",
          "type": "uint256"
        },
        {
          "indexed": false,
          "internalType": "uint256",
          "name": "tokensBought",
          "type": "uint256"
        }
      ],
      "name": "RemoveLiquidityOne",
      "type": "event"
    },
    {
      "anonymous": false,
      "inputs": [
        {
          "indexed": false,
          "internalType": "uint256",
          "name": "currentA",
          "type": "uint256"
        },
        {
          "indexed": false,
          "internalType": "uint256",
          "name": "time",
          "type": "uint256"
        }
      ],
      "name": "StopRampA",
      "type": "event"
    },
    {
      "anonymous": false,
      "inputs": [
        {
          "indexed": false,
          "internalType": "address[]",
          "name": "tokens",
          "type": "address[]"
        },
        {
          "indexed": false,
          "internalType": "uint256[]",
          "name": "swapFees",
          "type": "uint256[]"
        }
      ],
      "name": "SwapFee",
      "type": "event"
    },
    {
      "anonymous": false,
      "inputs": [
        {
          "indexed": true,
          "internalType": "address",
          "name": "buyer",
          "type": "address"
        },
        {
          "indexed": false,
          "internalType": "uint256",
          "name": "tokensSold",
          "type": "uint256"
        },
        {
          "indexed": false,
          "internalType": "uint256",
          "name": "tokensBought",
          "type": "uint256"
        },
        {
          "indexed": false,
          "internalType": "uint128",
          "name": "soldId",
          "type": "uint128"
        },
        {
          "indexed": false,
          "internalType": "uint128",
          "name": "boughtId",
          "type": "uint128"
        }
      ],
      "name": "TokenSwap",
      "type": "event"
    },
    {
      "inputs": [],
      "name": "AUTH",
      "outputs": [
        {
          "internalType": "bool",
          "name": "",
          "type": "bool"
        }
      ],
      "stateMutability": "view",
      "type": "function"
    },
    {
      "inputs": [],
      "name": "PAIR_TYPE",
      "outputs": [
        {
          "internalType": "uint8",
          "name": "",
          "type": "uint8"
        }
      ],
      "stateMutability": "view",
      "type": "function"
    },
    {
      "inputs": [
        {
          "internalType": "address[]",
          "name": "_tokens",
          "type": "address[]"
        },
        {
          "internalType": "uint256[]",
          "name": "_amounts",
          "type": "uint256[]"
        },
        {
          "internalType": "uint256",
          "name": "_minToMint",
          "type": "uint256"
        },
        {
          "internalType": "address",
          "name": "_receiver",
          "type": "address"
        },
        {
          "internalType": "uint256",
          "name": "_deadline",
          "type": "uint256"
        }
      ],
      "name": "addLiquidity",
      "outputs": [
        {
          "internalType": "uint256",
          "name": "",
          "type": "uint256"
        }
      ],
      "stateMutability": "nonpayable",
      "type": "function"
    },
    {
      "inputs": [
        {
          "internalType": "address[]",
          "name": "_tokens",
          "type": "address[]"
        },
        {
          "internalType": "uint256",
          "name": "_amount",
          "type": "uint256"
        }
      ],
      "name": "calculateRemoveLiquidity",
      "outputs": [
        {
          "internalType": "uint256[]",
          "name": "",
          "type": "uint256[]"
        }
      ],
      "stateMutability": "view",
      "type": "function"
    },
    {
      "inputs": [
        {
          "internalType": "address",
          "name": "_token",
          "type": "address"
        },
        {
          "internalType": "uint256",
          "name": "_tokenAmount",
          "type": "uint256"
        }
      ],
      "name": "calculateRemoveLiquidityOneToken",
      "outputs": [
        {
          "internalType": "uint256",
          "name": "",
          "type": "uint256"
        }
      ],
      "stateMutability": "view",
      "type": "function"
    },
    {
      "inputs": [
        {
          "internalType": "address[]",
          "name": "_tokens",
          "type": "address[]"
        },
        {
          "internalType": "uint256[]",
          "name": "_amounts",
          "type": "uint256[]"
        },
        {
          "internalType": "bool",
          "name": "_deposit",
          "type": "bool"
        }
      ],
      "name": "calculateTokenAmount",
      "outputs": [
        {
          "internalType": "uint256",
          "name": "",
          "type": "uint256"
        }
      ],
      "stateMutability": "view",
      "type": "function"
    },
    {
      "inputs": [],
      "name": "claimFees",
      "outputs": [
        {
          "internalType": "uint256[]",
          "name": "",
          "type": "uint256[]"
        }
      ],
      "stateMutability": "nonpayable",
      "type": "function"
    },
    {
      "inputs": [],
      "name": "factory",
      "outputs": [
        {
          "internalType": "address",
          "name": "",
          "type": "address"
        }
      ],
      "stateMutability": "view",
      "type": "function"
    },
    {
      "inputs": [],
      "name": "getA",
      "outputs": [
        {
          "internalType": "uint256",
          "name": "",
          "type": "uint256"
        }
      ],
      "stateMutability": "view",
      "type": "function"
    },
    {
      "inputs": [],
      "name": "getAPrecise",
      "outputs": [
        {
          "internalType": "uint256",
          "name": "",
          "type": "uint256"
        }
      ],
      "stateMutability": "view",
      "type": "function"
    },
    {
      "inputs": [
        {
          "internalType": "uint256",
          "name": "_index",
          "type": "uint256"
        }
      ],
      "name": "getAdminBalance",
      "outputs": [
        {
          "internalType": "uint256",
          "name": "",
          "type": "uint256"
        }
      ],
      "stateMutability": "view",
      "type": "function"
    },
    {
      "inputs": [
        {
          "internalType": "address",
          "name": "_tokenFrom",
          "type": "address"
        },
        {
          "internalType": "address",
          "name": "_tokenTo",
          "type": "address"
        },
        {
          "internalType": "uint256",
          "name": "_dx",
          "type": "uint256"
        }
      ],
      "name": "getAmountOut",
      "outputs": [
        {
          "internalType": "uint256",
          "name": "",
          "type": "uint256"
        }
      ],
      "stateMutability": "view",
      "type": "function"
    },
    {
      "inputs": [
        {
          "internalType": "uint8",
          "name": "_index",
          "type": "uint8"
        }
      ],
      "name": "getToken",
      "outputs": [
        {
          "internalType": "address",
          "name": "",
          "type": "address"
        }
      ],
      "stateMutability": "view",
      "type": "function"
    },
    {
      "inputs": [
        {
          "internalType": "uint8",
          "name": "_index",
          "type": "uint8"
        }
      ],
      "name": "getTokenBalance",
      "outputs": [
        {
          "internalType": "uint256",
          "name": "",
          "type": "uint256"
        }
      ],
      "stateMutability": "view",
      "type": "function"
    },
    {
      "inputs": [],
      "name": "getTokenBalances",
      "outputs": [
        {
          "internalType": "uint256[]",
          "name": "",
          "type": "uint256[]"
        }
      ],
      "stateMutability": "view",
      "type": "function"
    },
    {
      "inputs": [
        {
          "internalType": "address",
          "name": "_tokenAddress",
          "type": "address"
        }
      ],
      "name": "getTokenIndex",
      "outputs": [
        {
          "internalType": "uint8",
          "name": "",
          "type": "uint8"
        }
      ],
      "stateMutability": "view",
      "type": "function"
    },
    {
      "inputs": [],
      "name": "getVirtualPrice",
      "outputs": [
        {
          "internalType": "uint256",
          "name": "",
          "type": "uint256"
        }
      ],
      "stateMutability": "view",
      "type": "function"
    },
    {
      "inputs": [
        {
          "internalType": "address[]",
          "name": "_tokens",
          "type": "address[]"
        },
        {
          "internalType": "bytes",
          "name": "_data",
          "type": "bytes"
        }
      ],
      "name": "initialize",
      "outputs": [],
      "stateMutability": "nonpayable",
      "type": "function"
    },
    {
      "inputs": [],
      "name": "lpToken",
      "outputs": [
        {
          "internalType": "address",
          "name": "",
          "type": "address"
        }
      ],
      "stateMutability": "view",
      "type": "function"
    },
    {
      "inputs": [
        {
          "internalType": "uint256",
          "name": "_futureA",
          "type": "uint256"
        },
        {
          "internalType": "uint256",
          "name": "_futureTime",
          "type": "uint256"
        }
      ],
      "name": "rampA",
      "outputs": [],
      "stateMutability": "payable",
      "type": "function"
    },
    {
      "inputs": [
        {
          "internalType": "uint256",
          "name": "_amount",
          "type": "uint256"
        },
        {
          "internalType": "address[]",
          "name": "_tokens",
          "type": "address[]"
        },
        {
          "internalType": "uint256[]",
          "name": "_minAmounts",
          "type": "uint256[]"
        },
        {
          "internalType": "address",
          "name": "_receiver",
          "type": "address"
        },
        {
          "internalType": "uint256",
          "name": "_deadline",
          "type": "uint256"
        }
      ],
      "name": "removeLiquidity",
      "outputs": [
        {
          "internalType": "uint256[]",
          "name": "",
          "type": "uint256[]"
        }
      ],
      "stateMutability": "payable",
      "type": "function"
    },
    {
      "inputs": [
        {
          "internalType": "address[]",
          "name": "_tokens",
          "type": "address[]"
        },
        {
          "internalType": "uint256[]",
          "name": "_amounts",
          "type": "uint256[]"
        },
        {
          "internalType": "uint256",
          "name": "_maxBurnAmount",
          "type": "uint256"
        },
        {
          "internalType": "address",
          "name": "_receiver",
          "type": "address"
        },
        {
          "internalType": "uint256",
          "name": "_deadline",
          "type": "uint256"
        }
      ],
      "name": "removeLiquidityImbalance",
      "outputs": [
        {
          "internalType": "uint256",
          "name": "",
          "type": "uint256"
        }
      ],
      "stateMutability": "nonpayable",
      "type": "function"
    },
    {
      "inputs": [
        {
          "internalType": "uint256",
          "name": "_tokenAmount",
          "type": "uint256"
        },
        {
          "internalType": "address",
          "name": "_token",
          "type": "address"
        },
        {
          "internalType": "uint256",
          "name": "_minAmount",
          "type": "uint256"
        },
        {
          "internalType": "address",
          "name": "_receiver",
          "type": "address"
        },
        {
          "internalType": "uint256",
          "name": "_deadline",
          "type": "uint256"
        }
      ],
      "name": "removeLiquidityOneToken",
      "outputs": [
        {
          "internalType": "uint256",
          "name": "",
          "type": "uint256"
        }
      ],
      "stateMutability": "nonpayable",
      "type": "function"
    },
    {
      "inputs": [
        {
          "internalType": "uint256",
          "name": "_newAdminFee",
          "type": "uint256"
        }
      ],
      "name": "setAdminFeeRate",
      "outputs": [],
      "stateMutability": "nonpayable",
      "type": "function"
    },
    {
      "inputs": [
        {
          "internalType": "uint256",
          "name": "_newSwapFee",
          "type": "uint256"
        }
      ],
      "name": "setSwapFee",
      "outputs": [],
      "stateMutability": "payable",
      "type": "function"
    },
    {
      "inputs": [],
      "name": "stopRampA",
      "outputs": [],
      "stateMutability": "payable",
      "type": "function"
    },
    {
      "inputs": [
        {
          "internalType": "address",
          "name": "_tokenFrom",
          "type": "address"
        },
        {
          "internalType": "address",
          "name": "_tokenTo",
          "type": "address"
        },
        {
          "internalType": "uint256",
          "name": "_dx",
          "type": "uint256"
        },
        {
          "internalType": "uint256",
          "name": "_minDy",
          "type": "uint256"
        },
        {
          "internalType": "address",
          "name": "_receiver",
          "type": "address"
        },
        {
          "internalType": "uint256",
          "name": "_deadline",
          "type": "uint256"
        }
      ],
      "name": "swap",
      "outputs": [
        {
          "internalType": "uint256",
          "name": "",
          "type": "uint256"
        }
      ],
      "stateMutability": "nonpayable",
      "type": "function"
    },
    {
      "inputs": [],
      "name": "swapStorage",
      "outputs": [
        {
          "internalType": "uint256",
          "name": "initialA",
          "type": "uint256"
        },
        {
          "internalType": "uint256",
          "name": "futureA",
          "type": "uint256"
        },
        {
          "internalType": "uint256",
          "name": "initialATime",
          "type": "uint256"
        },
        {
          "internalType": "uint256",
          "name": "futureATime",
          "type": "uint256"
        },
        {
          "internalType": "uint256",
          "name": "swapFee",
          "type": "uint256"
        },
        {
          "internalType": "uint256",
          "name": "adminFee",
          "type": "uint256"
        },
        {
          "internalType": "contract LPToken",
          "name": "lpToken",
          "type": "address"
        }
      ],
      "stateMutability": "view",
      "type": "function"
    },
    {
      "inputs": [],
      "name": "tokens",
      "outputs": [
        {
          "internalType": "contract IERC20[]",
          "name": "",
          "type": "address[]"
        }
      ],
      "stateMutability": "view",
      "type": "function"
    }
  ],
  "transactionHash": "0x6da0cee52825989c81400bf026243376b3bf2e57fabfb04f9880086288b72549",
  "args": [],
  "numDeployments": 1,
  "solcInputHash": "74d525d72fc5a5aa3e0a9e519ce6b097",
  "bytecode": "0x608060405234801561001057600080fd5b5061327d806100206000396000f3fe6080604052600436106101c25760003560e01c80637f9731b2116100f7578063c45a015511610095578063dfb56c2411610064578063dfb56c2414610527578063e25aa5fa1461053a578063e69e24a81461054f578063ef0a712f1461056f57600080fd5b8063c45a0155146104cf578063c4db7fa0146104f5578063d294f093146104fd578063d46300fd1461051257600080fd5b80639908fc8b116100d15780639908fc8b146104585780639d63848a14610478578063a1dc90311461049a578063b36a5af3146104af57600080fd5b80637f9731b2146103f857806382b866001461041857806391ceb3eb1461043857600080fd5b8063508d1e6b116101645780635fd65f0f1161013e5780635fd65f0f146103225780635fe192c61461039857806366c0bd24146103b85780636fa99f3d146103d857600080fd5b8063508d1e6b146102b6578063593d132c146102dd5780635fcbd285146102f057600080fd5b806334e19907116101a057806334e19907146102345780633c1a4cb0146102495780634aa06652146102695780634bd92a0d1461028957600080fd5b80630a5623fb146101c75780630ba81959146101f15780632a94e3f714610214575b600080fd5b3480156101d357600080fd5b506101dc600181565b60405190151581526020015b60405180910390f35b3480156101fd57600080fd5b5061020661058f565b6040519081526020016101e8565b34801561022057600080fd5b5061020661022f36600461275a565b6105a0565b6102476102423660046127dd565b610634565b005b34801561025557600080fd5b5061020661026436600461280b565b61075f565b34801561027557600080fd5b50610206610284366004612837565b610806565b34801561029557600080fd5b506102a96102a4366004612878565b6108be565b6040516101e891906128c3565b3480156102c257600080fd5b506102cb600281565b60405160ff90911681526020016101e8565b6102476102eb366004612907565b6109ee565b3480156102fc57600080fd5b506008546001600160a01b03165b6040516001600160a01b0390911681526020016101e8565b34801561032e57600080fd5b5060025460035460045460055460065460075460085461035a969594939291906001600160a01b031687565b604080519788526020880196909652948601939093526060850191909152608084015260a08301526001600160a01b031660c082015260e0016101e8565b3480156103a457600080fd5b506102066103b3366004612929565b610ab2565b3480156103c457600080fd5b506102cb6103d336600461297b565b610bba565b3480156103e457600080fd5b506102066103f3366004612998565b610c31565b34801561040457600080fd5b50610206610413366004612998565b610d16565b34801561042457600080fd5b5061030a610433366004612a3d565b610d88565b34801561044457600080fd5b50610206610453366004612a3d565b610e00565b34801561046457600080fd5b50610206610473366004612a5a565b610e75565b34801561048457600080fd5b5061048d610f8e565b6040516101e89190612ac1565b3480156104a657600080fd5b506102a9610ff3565b3480156104bb57600080fd5b506102476104ca3660046127dd565b61104d565b3480156104db57600080fd5b5060005461030a906201000090046001600160a01b031681565b610247611140565b34801561050957600080fd5b506102a9611200565b34801561051e57600080fd5b50610206611309565b6102a9610535366004612b02565b611315565b34801561054657600080fd5b506102066113ed565b34801561055b57600080fd5b5061024761056a366004612b81565b611464565b34801561057b57600080fd5b5061020661058a3660046127dd565b611815565b600061059b6002611893565b905090565b600073EEAd4d4e539A8c63fC9c0Cc66c29e6bD54425A5163834b491060026105ca8989898961189e565b856040518463ffffffff1660e01b81526004016105e993929190612c52565b602060405180830381865af4158015610606573d6000803e3d6000fd5b505050506040513d601f19601f8201168201806040525081019061062a9190612c7d565b9695505050505050565b6000546201000090046001600160a01b03163314806106cc57506000546040805163481c6a7560e01b8152905133926201000090046001600160a01b03169163481c6a759160048083019260209291908290030181865afa15801561069d573d6000803e3d6000fd5b505050506040513d601f19601f820116820180604052508101906106c19190612c96565b6001600160a01b0316145b6106f15760405162461bcd60e51b81526004016106e890612cb3565b60405180910390fd5b60405163119f861b60e21b8152600260048201526024810182905273EEAd4d4e539A8c63fC9c0Cc66c29e6bD54425A519063467e186c906044015b60006040518083038186803b15801561074457600080fd5b505af4158015610758573d6000803e3d6000fd5b5050505050565b6001600160a01b0382166000908152600c602052604080822054905163703493a160e11b8152600260048201526024810184905260ff909116604482015273EEAd4d4e539A8c63fC9c0Cc66c29e6bD54425A519063e069274290606401602060405180830381865af41580156107d9573d6000803e3d6000fd5b505050506040513d601f19601f820116820180604052508101906107fd9190612c7d565b90505b92915050565b6001600160a01b038381166000908152600c60205260408082205492851682528082205490516312c8d80f60e21b81526002600482015260ff938416602482015292166044830152606482018390529073EEAd4d4e539A8c63fC9c0Cc66c29e6bD54425A5190634b23603c90608401602060405180830381865af4158015610892573d6000803e3d6000fd5b505050506040513d601f19601f820116820180604052508101906108b69190612c7d565b949350505050565b6040516338381f2560e11b8152600260048201526024810182905260609060009073EEAd4d4e539A8c63fC9c0Cc66c29e6bD54425A51906370703e4a90604401600060405180830381865af415801561091b573d6000803e3d6000fd5b505050506040513d6000823e601f3d908101601f191682016040526109439190810190612d2e565b90508060005b858110156109e45782600c600089898581811061096857610968612dd3565b905060200201602081019061097d919061297b565b6001600160a01b03168152602081019190915260400160002054815160ff9091169081106109ad576109ad612dd3565b60200260200101518282815181106109c7576109c7612dd3565b6020908102919091010152806109dc81612dff565b915050610949565b5095945050505050565b6000546201000090046001600160a01b0316331480610a8657506000546040805163481c6a7560e01b8152905133926201000090046001600160a01b03169163481c6a759160048083019260209291908290030181865afa158015610a57573d6000803e3d6000fd5b505050506040513d601f19601f82011682018060405250810190610a7b9190612c96565b6001600160a01b0316145b610aa25760405162461bcd60e51b81526004016106e890612cb3565b610aae60028383611979565b5050565b6000600154600114610ad65760405162461bcd60e51b81526004016106e890612e18565b60006001558142811015610afc5760405162461bcd60e51b81526004016106e890612e3e565b6001600160a01b038681166000908152600c602052604090819020549051630f28f48560e41b815260026004820152602481018a905260ff909116604482015260648101879052908516608482015273EEAd4d4e539A8c63fC9c0Cc66c29e6bD54425A519063f28f48509060a401602060405180830381865af4158015610b87573d6000803e3d6000fd5b505050506040513d601f19601f82011682018060405250810190610bab9190612c7d565b60018055979650505050505050565b6001600160a01b0381166000818152600c6020526040812054909160ff90911690610be482610d88565b6001600160a01b0316146108005760405162461bcd60e51b8152602060048201526014602482015273151bdad95b88191bd95cc81b9bdd08195e1a5cdd60621b60448201526064016106e8565b6000600154600114610c555760405162461bcd60e51b81526004016106e890612e18565b60006001558142811015610c7b5760405162461bcd60e51b81526004016106e890612e3e565b73EEAd4d4e539A8c63fC9c0Cc66c29e6bD54425A5163b3bcd4c96002610ca38c8c8c8c61189e565b88886040518563ffffffff1660e01b8152600401610cc49493929190612e68565b602060405180830381865af4158015610ce1573d6000803e3d6000fd5b505050506040513d601f19601f82011682018060405250810190610d059190612c7d565b600180559998505050505050505050565b6000600154600114610d3a5760405162461bcd60e51b81526004016106e890612e18565b60006001558142811015610d605760405162461bcd60e51b81526004016106e890612e3e565b73EEAd4d4e539A8c63fC9c0Cc66c29e6bD54425A5163241609966002610ca38c8c8c8c61189e565b60095460009060ff831610610dce5760405162461bcd60e51b815260206004820152600c60248201526b4f7574206f662072616e676560a01b60448201526064016106e8565b6009805460ff8416908110610de557610de5612dd3565b6000918252602090912001546001600160a01b031692915050565b60095460009060ff831610610e4c5760405162461bcd60e51b8152602060048201526012602482015271496e646578206f7574206f662072616e676560701b60448201526064016106e8565b600b805460ff8416908110610e6357610e63612dd3565b90600052602060002001549050919050565b6000600154600114610e995760405162461bcd60e51b81526004016106e890612e18565b60006001558142811015610ebf5760405162461bcd60e51b81526004016106e890612e3e565b6001600160a01b038881166000908152600c6020526040808220548a841683529181902054905163f356255360e01b81526002600482015260ff928316602482015291166044820152606481018890526084810187905290851660a482015273EEAd4d4e539A8c63fC9c0Cc66c29e6bD54425A519063f35625539060c401602060405180830381865af4158015610f5a573d6000803e3d6000fd5b505050506040513d601f19601f82011682018060405250810190610f7e9190612c7d565b6001805598975050505050505050565b60606002600701805480602002602001604051908101604052809291908181526020018280548015610fe957602002820191906000526020600020905b81546001600160a01b03168152600190910190602001808311610fcb575b5050505050905090565b60606002600901805480602002602001604051908101604052809291908181526020018280548015610fe957602002820191906000526020600020905b815481526020019060010190808311611030575050505050905090565b6000546201000090046001600160a01b03163314806110e557506000546040805163481c6a7560e01b8152905133926201000090046001600160a01b03169163481c6a759160048083019260209291908290030181865afa1580156110b6573d6000803e3d6000fd5b505050506040513d601f19601f820116820180604052508101906110da9190612c96565b6001600160a01b0316145b6111015760405162461bcd60e51b81526004016106e890612cb3565b604051633823393b60e11b8152600260048201526024810182905273EEAd4d4e539A8c63fC9c0Cc66c29e6bD54425A519063704672769060440161072c565b6000546201000090046001600160a01b03163314806111d857506000546040805163481c6a7560e01b8152905133926201000090046001600160a01b03169163481c6a759160048083019260209291908290030181865afa1580156111a9573d6000803e3d6000fd5b505050506040513d601f19601f820116820180604052508101906111cd9190612c96565b6001600160a01b0316145b6111f45760405162461bcd60e51b81526004016106e890612cb3565b6111fe6002611bb9565b565b6060600273EEAd4d4e539A8c63fC9c0Cc66c29e6bD54425A516324c5c7519091600060029054906101000a90046001600160a01b03166001600160a01b031663481c6a756040518163ffffffff1660e01b8152600401602060405180830381865afa158015611273573d6000803e3d6000fd5b505050506040513d601f19601f820116820180604052508101906112979190612c96565b6040516001600160e01b031960e085901b16815260048101929092526001600160a01b03166024820152604401600060405180830381865af41580156112e1573d6000803e3d6000fd5b505050506040513d6000823e601f3d908101601f1916820160405261059b9190810190612d2e565b600061059b6002611c76565b60606001546001146113395760405162461bcd60e51b81526004016106e890612e18565b6000600155814281101561135f5760405162461bcd60e51b81526004016106e890612e3e565b73EEAd4d4e539A8c63fC9c0Cc66c29e6bD54425A5163abbce08360028b6113888c8c8c8c61189e565b886040518563ffffffff1660e01b81526004016113a89493929190612ea2565b600060405180830381865af41580156113c5573d6000803e3d6000fd5b505050506040513d6000823e601f3d908101601f19168201604052610d059190810190612d2e565b604051631c641b0b60e21b81526002600482015260009073EEAd4d4e539A8c63fC9c0Cc66c29e6bD54425A51906371906c2c90602401602060405180830381865af4158015611440573d6000803e3d6000fd5b505050506040513d601f19601f8201168201806040525081019061059b9190612c7d565b600054610100900460ff16158080156114845750600054600160ff909116105b8061149e5750303b15801561149e575060005460ff166001145b6115015760405162461bcd60e51b815260206004820152602e60248201527f496e697469616c697a61626c653a20636f6e747261637420697320616c72656160448201526d191e481a5b9a5d1a585b1a5e995960921b60648201526084016106e8565b6000805460ff191660011790558015611524576000805461ff0019166101001790555b6000805462010000600160b01b031916336201000002178155600180805560408051808201825260148152730222337b931b29029ba30b136329020a6a69016960651b60208083019190915282518084018452600c81526b64414d4d2d537461626c652d60a01b818301528351808501909452938352602d60f81b9083015292876001600160401b038111156115bc576115bc612ce8565b6040519080825280602002602001820160405280156115e5578160200160208202803683370190505b50905060005b888110156117615789898281811061160557611605612dd3565b905060200201602081019061161a919061297b565b6001600160a01b031663313ce5676040518163ffffffff1660e01b8152600401602060405180830381865afa158015611657573d6000803e3d6000fd5b505050506040513d601f19601f8201168201806040525081019061167b9190612eda565b82828151811061168d5761168d612dd3565b602002602001019060ff16908160ff168152505060006116db8b8b848181106116b8576116b8612dd3565b90506020020160208101906116cd919061297b565b6001600160a01b0316611c8d565b90506116e860018b612ef7565b8203611701576040518060200160405280600081525093505b85818560405160200161171693929190612f3e565b604051602081830303815290604052955084818560405160200161173c93929190612f3e565b604051602081830303815290604052945050808061175990612dff565b9150506115eb565b5060008080806117738a8c018c612f81565b93509350935093506117c08d8d808060200260200160405190810160405280939291908181526020018383602002808284376000920191909152508992508c91508b905086898988611d75565b50505050505050508015610758576000805461ff0019169055604051600181527f7f26b83ff96e1f2b6a682f133852f6798a09c465da95921460cefb3847402498906020015b60405180910390a15050505050565b6040516303e8240b60e51b8152600260048201526024810182905260009073EEAd4d4e539A8c63fC9c0Cc66c29e6bD54425A5190637d04816090604401602060405180830381865af415801561186f573d6000803e3d6000fd5b505050506040513d601f19601f820116820180604052508101906108009190612c7d565b6000610800826124a5565b606082828080602002602001604051908101604052809392919081815260200183836020028082843760009201829052509394505050505b84811015611970578383828181106118f0576118f0612dd3565b9050602002013582600c600089898681811061190e5761190e612dd3565b9050602002016020810190611923919061297b565b6001600160a01b03168152602081019190915260400160002054815160ff90911690811061195357611953612dd3565b60209081029190910101528061196881612dff565b9150506118d6565b50949350505050565b600283015461198b9062015180612fc2565b4210156119da5760405162461bcd60e51b815260206004820152601f60248201527f57616974203120646179206265666f7265207374617274696e672072616d700060448201526064016106e8565b6119e76212750042612fc2565b811015611a2f5760405162461bcd60e51b8152602060048201526016602482015275496e73756666696369656e742072616d702074696d6560501b60448201526064016106e8565b600082118015611a415750620f424082105b611a8d5760405162461bcd60e51b815260206004820181905260248201527f667574757265415f206d757374206265203e203020616e64203c204d41585f4160448201526064016106e8565b6000611a98846124a5565b90506000611aa7606485612fda565b905081811015611b085781611abd600283612fda565b1015611b035760405162461bcd60e51b8152602060048201526015602482015274199d5d1d5c995057c81a5cc81d1bdbc81cdb585b1b605a1b60448201526064016106e8565b611b5a565b611b13600283612fda565b811115611b5a5760405162461bcd60e51b8152602060048201526015602482015274667574757265415f20697320746f6f206c6172676560581b60448201526064016106e8565b81855560018501819055426002860181905560038601849055604080518481526020810184905290810191909152606081018490527fa2b71ec6df949300b59aab36b55e189697b750119dd349fcfa8c0f779e83c25490608001611806565b42816003015411611c0c5760405162461bcd60e51b815260206004820152601760248201527f52616d7020697320616c72656164792073746f7070656400000000000000000060448201526064016106e8565b6000611c17826124a5565b808355600183018190554260028401819055600384018190556040519192507f46e22fb3709ad289f62ce63d469248536dbc78d82b84a3d7e74ad606dc20193891611c6a91848252602082015260400190565b60405180910390a15050565b60006064611c83836124a5565b6108009190612ff9565b60606001600160a01b03821615611d705760408051600481526024810182526020810180516001600160e01b03166395d89b4160e01b179052905160009182916001600160a01b03861691611ce19161301b565b600060405180830381855afa9150503d8060008114611d1c576040519150601f19603f3d011682016040523d82523d6000602084013e611d21565b606091505b50915091508115611d6d578051602014611d4e5780806020019051810190611d499190613037565b611d6a565b611d6a81806020019051810190611d659190612c7d565b612549565b92505b50505b919050565b6001885111611dc65760405162461bcd60e51b815260206004820152601960248201527f5f706f6f6c6564546f6b656e732e6c656e677468203c3d20310000000000000060448201526064016106e8565b602088511115611e185760405162461bcd60e51b815260206004820152601960248201527f5f706f6f6c6564546f6b656e732e6c656e677468203e2033320000000000000060448201526064016106e8565b8651885114611e695760405162461bcd60e51b815260206004820152601f60248201527f5f706f6f6c6564546f6b656e7320646563696d616c73206d69736d617463680060448201526064016106e8565b600087516001600160401b03811115611e8457611e84612ce8565b604051908082528060200260200182016040528015611ead578160200160208202803683370190505b509050600088516001600160401b03811115611ecb57611ecb612ce8565b604051908082528060200260200182016040528015611ef4578160200160208202803683370190505b50905060005b8a518160ff1610156122295760ff811615611fe357600c60008c8360ff1681518110611f2857611f28612dd3565b6020908102919091018101516001600160a01b031682528101919091526040016000205460ff16158015611fa457508a8160ff1681518110611f6c57611f6c612dd3565b60200260200101516001600160a01b03168b600081518110611f9057611f90612dd3565b60200260200101516001600160a01b031614155b611fe35760405162461bcd60e51b815260206004820152601060248201526f4475706c696361746520746f6b656e7360801b60448201526064016106e8565b60006001600160a01b03168b8260ff168151811061200357612003612dd3565b60200260200101516001600160a01b0316141580156120505750306001600160a01b03168b8260ff168151811061203c5761203c612dd3565b60200260200101516001600160a01b031614155b61209c5760405162461bcd60e51b815260206004820152601d60248201527f546865203020616464726573732069736e277420616e204552432d323000000060448201526064016106e8565b601260ff168a8260ff16815181106120b6576120b6612dd3565b602002602001015160ff16111561210f5760405162461bcd60e51b815260206004820152601a60248201527f546f6b656e20646563696d616c732065786365656473206d617800000000000060448201526064016106e8565b898160ff168151811061212457612124612dd3565b602002602001015160ff16601260ff1661213e9190612ef7565b61214990600a6131a5565b838260ff168151811061215e5761215e612dd3565b6020026020010181815250508a8160ff168151811061217f5761217f612dd3565b6020026020010151828260ff168151811061219c5761219c612dd3565b60200260200101906001600160a01b031690816001600160a01b03168152505080600c60008d8460ff16815181106121d6576121d6612dd3565b60200260200101516001600160a01b03166001600160a01b0316815260200190815260200160002060006101000a81548160ff021916908360ff1602179055508080612221906131b1565b915050611efa565b50620f424086106122715760405162461bcd60e51b81526020600482015260126024820152715f612065786365656473206d6178696d756d60701b60448201526064016106e8565b6305f5e10085106122bb5760405162461bcd60e51b81526020600482015260146024820152735f6665652065786365656473206d6178696d756d60601b60448201526064016106e8565b6402540be400841061230f5760405162461bcd60e51b815260206004820152601960248201527f5f61646d696e4665652065786365656473206d6178696d756d0000000000000060448201526064016106e8565b600061231a846125b4565b60405163266c45bb60e11b81529091506001600160a01b03821690634cd88b769061234b908c908c906004016131fc565b6020604051808303816000875af115801561236a573d6000803e3d6000fd5b505050506040513d601f19601f8201168201806040525081019061238e919061322a565b6123da5760405162461bcd60e51b815260206004820152601c60248201527f636f756c64206e6f7420696e6974206c70546f6b656e20636c6f6e650000000060448201526064016106e8565b600880546001600160a01b0319166001600160a01b0383161790558151612408906009906020850190612649565b50825161241c90600a9060208601906126ae565b508a516001600160401b0381111561243657612436612ce8565b60405190808252806020026020018201604052801561245f578160200160208202803683370190505b50805161247491600b916020909101906126ae565b50612480606488612fda565b60025561248e606488612fda565b600355505050600692909255600755505050505050565b600381015460018201546000919042821115612542576002840154845480831115612506576124d48285612ef7565b6124de8342612ef7565b6124e88386612ef7565b6124f29190612fda565b6124fc9190612ff9565b61062a9082612fc2565b6125108285612ef7565b61251a8342612ef7565b6125248584612ef7565b61252e9190612fda565b6125389190612ff9565b61062a9082612ef7565b9392505050565b606060005b828160ff166020811061256357612563612dd3565b1a60f81b6001600160f81b03191615801590612582575060208160ff16105b156125995780612591816131b1565b91505061254e565b60405191506040820160405280825282602083015250919050565b6000763d602d80600a3d3981f3363d3d373d3d3d363d730000008260601b60e81c176000526e5af43d82803e903d91602b57fd5bf38260781b17602052603760096000f090506001600160a01b038116611d705760405162461bcd60e51b8152602060048201526016602482015275115490cc4c4d8dce8818dc99585d194819985a5b195960521b60448201526064016106e8565b82805482825590600052602060002090810192821561269e579160200282015b8281111561269e57825182546001600160a01b0319166001600160a01b03909116178255602090920191600190910190612669565b506126aa9291506126e9565b5090565b82805482825590600052602060002090810192821561269e579160200282015b8281111561269e5782518255916020019190600101906126ce565b5b808211156126aa57600081556001016126ea565b60008083601f84011261271057600080fd5b5081356001600160401b0381111561272757600080fd5b6020830191508360208260051b850101111561274257600080fd5b9250929050565b801515811461275757600080fd5b50565b60008060008060006060868803121561277257600080fd5b85356001600160401b038082111561278957600080fd5b61279589838a016126fe565b909750955060208801359150808211156127ae57600080fd5b506127bb888289016126fe565b90945092505060408601356127cf81612749565b809150509295509295909350565b6000602082840312156127ef57600080fd5b5035919050565b6001600160a01b038116811461275757600080fd5b6000806040838503121561281e57600080fd5b8235612829816127f6565b946020939093013593505050565b60008060006060848603121561284c57600080fd5b8335612857816127f6565b92506020840135612867816127f6565b929592945050506040919091013590565b60008060006040848603121561288d57600080fd5b83356001600160401b038111156128a357600080fd5b6128af868287016126fe565b909790965060209590950135949350505050565b6020808252825182820181905260009190848201906040850190845b818110156128fb578351835292840192918401916001016128df565b50909695505050505050565b6000806040838503121561291a57600080fd5b50508035926020909101359150565b600080600080600060a0868803121561294157600080fd5b853594506020860135612953816127f6565b935060408601359250606086013561296a816127f6565b949793965091946080013592915050565b60006020828403121561298d57600080fd5b8135612542816127f6565b600080600080600080600060a0888a0312156129b357600080fd5b87356001600160401b03808211156129ca57600080fd5b6129d68b838c016126fe565b909950975060208a01359150808211156129ef57600080fd5b506129fc8a828b016126fe565b909650945050604088013592506060880135612a17816127f6565b809250506080880135905092959891949750929550565b60ff8116811461275757600080fd5b600060208284031215612a4f57600080fd5b813561254281612a2e565b60008060008060008060c08789031215612a7357600080fd5b8635612a7e816127f6565b95506020870135612a8e816127f6565b945060408701359350606087013592506080870135612aac816127f6565b8092505060a087013590509295509295509295565b6020808252825182820181905260009190848201906040850190845b818110156128fb5783516001600160a01b031683529284019291840191600101612add565b600080600080600080600060a0888a031215612b1d57600080fd5b8735965060208801356001600160401b0380821115612b3b57600080fd5b612b478b838c016126fe565b909850965060408a0135915080821115612b6057600080fd5b50612b6d8a828b016126fe565b9095509350506060880135612a17816127f6565b60008060008060408587031215612b9757600080fd5b84356001600160401b0380821115612bae57600080fd5b612bba888389016126fe565b90965094506020870135915080821115612bd357600080fd5b818701915087601f830112612be757600080fd5b813581811115612bf657600080fd5b886020828501011115612c0857600080fd5b95989497505060200194505050565b600081518084526020808501945080840160005b83811015612c4757815187529582019590820190600101612c2b565b509495945050505050565b838152606060208201526000612c6b6060830185612c17565b90508215156040830152949350505050565b600060208284031215612c8f57600080fd5b5051919050565b600060208284031215612ca857600080fd5b8151612542816127f6565b6020808252818101527f4f776e61626c653a2063616c6c6572206973206e6f7420746865206f776e6572604082015260600190565b634e487b7160e01b600052604160045260246000fd5b604051601f8201601f191681016001600160401b0381118282101715612d2657612d26612ce8565b604052919050565b60006020808385031215612d4157600080fd5b82516001600160401b0380821115612d5857600080fd5b818501915085601f830112612d6c57600080fd5b815181811115612d7e57612d7e612ce8565b8060051b9150612d8f848301612cfe565b8181529183018401918481019088841115612da957600080fd5b938501935b83851015612dc757845182529385019390850190612dae565b98975050505050505050565b634e487b7160e01b600052603260045260246000fd5b634e487b7160e01b600052601160045260246000fd5b600060018201612e1157612e11612de9565b5060010190565b6020808252600c908201526b14185a5c8e881313d0d2d15160a21b604082015260600190565b60208082526010908201526f111958591b1a5b99481b9bdd081b595d60821b604082015260600190565b848152608060208201526000612e816080830186612c17565b6040830194909452506001600160a01b039190911660609091015292915050565b848152836020820152608060408201526000612ec16080830185612c17565b905060018060a01b038316606083015295945050505050565b600060208284031215612eec57600080fd5b815161254281612a2e565b600082821015612f0957612f09612de9565b500390565b60005b83811015612f29578181015183820152602001612f11565b83811115612f38576000848401525b50505050565b60008451612f50818460208901612f0e565b845190830190612f64818360208901612f0e565b8451910190612f77818360208801612f0e565b0195945050505050565b60008060008060808587031215612f9757600080fd5b8435935060208501359250604085013591506060850135612fb7816127f6565b939692955090935050565b60008219821115612fd557612fd5612de9565b500190565b6000816000190483118215151615612ff457612ff4612de9565b500290565b60008261301657634e487b7160e01b600052601260045260246000fd5b500490565b6000825161302d818460208701612f0e565b9190910192915050565b60006020828403121561304957600080fd5b81516001600160401b038082111561306057600080fd5b818401915084601f83011261307457600080fd5b81518181111561308657613086612ce8565b613099601f8201601f1916602001612cfe565b91508082528560208285010111156130b057600080fd5b611970816020840160208601612f0e565b600181815b808511156130fc5781600019048211156130e2576130e2612de9565b808516156130ef57918102915b93841c93908002906130c6565b509250929050565b60008261311357506001610800565b8161312057506000610800565b816001811461313657600281146131405761315c565b6001915050610800565b60ff84111561315157613151612de9565b50506001821b610800565b5060208310610133831016604e8410600b841016171561317f575081810a610800565b61318983836130c1565b806000190482111561319d5761319d612de9565b029392505050565b60006107fd8383613104565b600060ff821660ff81036131c7576131c7612de9565b60010192915050565b600081518084526131e8816020860160208601612f0e565b601f01601f19169290920160200192915050565b60408152600061320f60408301856131d0565b828103602084015261322181856131d0565b95945050505050565b60006020828403121561323c57600080fd5b81516125428161274956fea26469706673582212208eb00e868f8da0a6d508ec9eaba9eb110f388851e0491e0bf82254708f7ec01d64736f6c634300080d0033",
  "deployedBytecode": "0x6080604052600436106101c25760003560e01c80637f9731b2116100f7578063c45a015511610095578063dfb56c2411610064578063dfb56c2414610527578063e25aa5fa1461053a578063e69e24a81461054f578063ef0a712f1461056f57600080fd5b8063c45a0155146104cf578063c4db7fa0146104f5578063d294f093146104fd578063d46300fd1461051257600080fd5b80639908fc8b116100d15780639908fc8b146104585780639d63848a14610478578063a1dc90311461049a578063b36a5af3146104af57600080fd5b80637f9731b2146103f857806382b866001461041857806391ceb3eb1461043857600080fd5b8063508d1e6b116101645780635fd65f0f1161013e5780635fd65f0f146103225780635fe192c61461039857806366c0bd24146103b85780636fa99f3d146103d857600080fd5b8063508d1e6b146102b6578063593d132c146102dd5780635fcbd285146102f057600080fd5b806334e19907116101a057806334e19907146102345780633c1a4cb0146102495780634aa06652146102695780634bd92a0d1461028957600080fd5b80630a5623fb146101c75780630ba81959146101f15780632a94e3f714610214575b600080fd5b3480156101d357600080fd5b506101dc600181565b60405190151581526020015b60405180910390f35b3480156101fd57600080fd5b5061020661058f565b6040519081526020016101e8565b34801561022057600080fd5b5061020661022f36600461275a565b6105a0565b6102476102423660046127dd565b610634565b005b34801561025557600080fd5b5061020661026436600461280b565b61075f565b34801561027557600080fd5b50610206610284366004612837565b610806565b34801561029557600080fd5b506102a96102a4366004612878565b6108be565b6040516101e891906128c3565b3480156102c257600080fd5b506102cb600281565b60405160ff90911681526020016101e8565b6102476102eb366004612907565b6109ee565b3480156102fc57600080fd5b506008546001600160a01b03165b6040516001600160a01b0390911681526020016101e8565b34801561032e57600080fd5b5060025460035460045460055460065460075460085461035a969594939291906001600160a01b031687565b604080519788526020880196909652948601939093526060850191909152608084015260a08301526001600160a01b031660c082015260e0016101e8565b3480156103a457600080fd5b506102066103b3366004612929565b610ab2565b3480156103c457600080fd5b506102cb6103d336600461297b565b610bba565b3480156103e457600080fd5b506102066103f3366004612998565b610c31565b34801561040457600080fd5b50610206610413366004612998565b610d16565b34801561042457600080fd5b5061030a610433366004612a3d565b610d88565b34801561044457600080fd5b50610206610453366004612a3d565b610e00565b34801561046457600080fd5b50610206610473366004612a5a565b610e75565b34801561048457600080fd5b5061048d610f8e565b6040516101e89190612ac1565b3480156104a657600080fd5b506102a9610ff3565b3480156104bb57600080fd5b506102476104ca3660046127dd565b61104d565b3480156104db57600080fd5b5060005461030a906201000090046001600160a01b031681565b610247611140565b34801561050957600080fd5b506102a9611200565b34801561051e57600080fd5b50610206611309565b6102a9610535366004612b02565b611315565b34801561054657600080fd5b506102066113ed565b34801561055b57600080fd5b5061024761056a366004612b81565b611464565b34801561057b57600080fd5b5061020661058a3660046127dd565b611815565b600061059b6002611893565b905090565b600073__$4f9bc9d987b626ebf927a63757d74ce646$__63834b491060026105ca8989898961189e565b856040518463ffffffff1660e01b81526004016105e993929190612c52565b602060405180830381865af4158015610606573d6000803e3d6000fd5b505050506040513d601f19601f8201168201806040525081019061062a9190612c7d565b9695505050505050565b6000546201000090046001600160a01b03163314806106cc57506000546040805163481c6a7560e01b8152905133926201000090046001600160a01b03169163481c6a759160048083019260209291908290030181865afa15801561069d573d6000803e3d6000fd5b505050506040513d601f19601f820116820180604052508101906106c19190612c96565b6001600160a01b0316145b6106f15760405162461bcd60e51b81526004016106e890612cb3565b60405180910390fd5b60405163119f861b60e21b8152600260048201526024810182905273__$4f9bc9d987b626ebf927a63757d74ce646$__9063467e186c906044015b60006040518083038186803b15801561074457600080fd5b505af4158015610758573d6000803e3d6000fd5b5050505050565b6001600160a01b0382166000908152600c602052604080822054905163703493a160e11b8152600260048201526024810184905260ff909116604482015273__$4f9bc9d987b626ebf927a63757d74ce646$__9063e069274290606401602060405180830381865af41580156107d9573d6000803e3d6000fd5b505050506040513d601f19601f820116820180604052508101906107fd9190612c7d565b90505b92915050565b6001600160a01b038381166000908152600c60205260408082205492851682528082205490516312c8d80f60e21b81526002600482015260ff938416602482015292166044830152606482018390529073__$4f9bc9d987b626ebf927a63757d74ce646$__90634b23603c90608401602060405180830381865af4158015610892573d6000803e3d6000fd5b505050506040513d601f19601f820116820180604052508101906108b69190612c7d565b949350505050565b6040516338381f2560e11b8152600260048201526024810182905260609060009073__$4f9bc9d987b626ebf927a63757d74ce646$__906370703e4a90604401600060405180830381865af415801561091b573d6000803e3d6000fd5b505050506040513d6000823e601f3d908101601f191682016040526109439190810190612d2e565b90508060005b858110156109e45782600c600089898581811061096857610968612dd3565b905060200201602081019061097d919061297b565b6001600160a01b03168152602081019190915260400160002054815160ff9091169081106109ad576109ad612dd3565b60200260200101518282815181106109c7576109c7612dd3565b6020908102919091010152806109dc81612dff565b915050610949565b5095945050505050565b6000546201000090046001600160a01b0316331480610a8657506000546040805163481c6a7560e01b8152905133926201000090046001600160a01b03169163481c6a759160048083019260209291908290030181865afa158015610a57573d6000803e3d6000fd5b505050506040513d601f19601f82011682018060405250810190610a7b9190612c96565b6001600160a01b0316145b610aa25760405162461bcd60e51b81526004016106e890612cb3565b610aae60028383611979565b5050565b6000600154600114610ad65760405162461bcd60e51b81526004016106e890612e18565b60006001558142811015610afc5760405162461bcd60e51b81526004016106e890612e3e565b6001600160a01b038681166000908152600c602052604090819020549051630f28f48560e41b815260026004820152602481018a905260ff909116604482015260648101879052908516608482015273__$4f9bc9d987b626ebf927a63757d74ce646$__9063f28f48509060a401602060405180830381865af4158015610b87573d6000803e3d6000fd5b505050506040513d601f19601f82011682018060405250810190610bab9190612c7d565b60018055979650505050505050565b6001600160a01b0381166000818152600c6020526040812054909160ff90911690610be482610d88565b6001600160a01b0316146108005760405162461bcd60e51b8152602060048201526014602482015273151bdad95b88191bd95cc81b9bdd08195e1a5cdd60621b60448201526064016106e8565b6000600154600114610c555760405162461bcd60e51b81526004016106e890612e18565b60006001558142811015610c7b5760405162461bcd60e51b81526004016106e890612e3e565b73__$4f9bc9d987b626ebf927a63757d74ce646$__63b3bcd4c96002610ca38c8c8c8c61189e565b88886040518563ffffffff1660e01b8152600401610cc49493929190612e68565b602060405180830381865af4158015610ce1573d6000803e3d6000fd5b505050506040513d601f19601f82011682018060405250810190610d059190612c7d565b600180559998505050505050505050565b6000600154600114610d3a5760405162461bcd60e51b81526004016106e890612e18565b60006001558142811015610d605760405162461bcd60e51b81526004016106e890612e3e565b73__$4f9bc9d987b626ebf927a63757d74ce646$__63241609966002610ca38c8c8c8c61189e565b60095460009060ff831610610dce5760405162461bcd60e51b815260206004820152600c60248201526b4f7574206f662072616e676560a01b60448201526064016106e8565b6009805460ff8416908110610de557610de5612dd3565b6000918252602090912001546001600160a01b031692915050565b60095460009060ff831610610e4c5760405162461bcd60e51b8152602060048201526012602482015271496e646578206f7574206f662072616e676560701b60448201526064016106e8565b600b805460ff8416908110610e6357610e63612dd3565b90600052602060002001549050919050565b6000600154600114610e995760405162461bcd60e51b81526004016106e890612e18565b60006001558142811015610ebf5760405162461bcd60e51b81526004016106e890612e3e565b6001600160a01b038881166000908152600c6020526040808220548a841683529181902054905163f356255360e01b81526002600482015260ff928316602482015291166044820152606481018890526084810187905290851660a482015273__$4f9bc9d987b626ebf927a63757d74ce646$__9063f35625539060c401602060405180830381865af4158015610f5a573d6000803e3d6000fd5b505050506040513d601f19601f82011682018060405250810190610f7e9190612c7d565b6001805598975050505050505050565b60606002600701805480602002602001604051908101604052809291908181526020018280548015610fe957602002820191906000526020600020905b81546001600160a01b03168152600190910190602001808311610fcb575b5050505050905090565b60606002600901805480602002602001604051908101604052809291908181526020018280548015610fe957602002820191906000526020600020905b815481526020019060010190808311611030575050505050905090565b6000546201000090046001600160a01b03163314806110e557506000546040805163481c6a7560e01b8152905133926201000090046001600160a01b03169163481c6a759160048083019260209291908290030181865afa1580156110b6573d6000803e3d6000fd5b505050506040513d601f19601f820116820180604052508101906110da9190612c96565b6001600160a01b0316145b6111015760405162461bcd60e51b81526004016106e890612cb3565b604051633823393b60e11b8152600260048201526024810182905273__$4f9bc9d987b626ebf927a63757d74ce646$__9063704672769060440161072c565b6000546201000090046001600160a01b03163314806111d857506000546040805163481c6a7560e01b8152905133926201000090046001600160a01b03169163481c6a759160048083019260209291908290030181865afa1580156111a9573d6000803e3d6000fd5b505050506040513d601f19601f820116820180604052508101906111cd9190612c96565b6001600160a01b0316145b6111f45760405162461bcd60e51b81526004016106e890612cb3565b6111fe6002611bb9565b565b6060600273__$4f9bc9d987b626ebf927a63757d74ce646$__6324c5c7519091600060029054906101000a90046001600160a01b03166001600160a01b031663481c6a756040518163ffffffff1660e01b8152600401602060405180830381865afa158015611273573d6000803e3d6000fd5b505050506040513d601f19601f820116820180604052508101906112979190612c96565b6040516001600160e01b031960e085901b16815260048101929092526001600160a01b03166024820152604401600060405180830381865af41580156112e1573d6000803e3d6000fd5b505050506040513d6000823e601f3d908101601f1916820160405261059b9190810190612d2e565b600061059b6002611c76565b60606001546001146113395760405162461bcd60e51b81526004016106e890612e18565b6000600155814281101561135f5760405162461bcd60e51b81526004016106e890612e3e565b73__$4f9bc9d987b626ebf927a63757d74ce646$__63abbce08360028b6113888c8c8c8c61189e565b886040518563ffffffff1660e01b81526004016113a89493929190612ea2565b600060405180830381865af41580156113c5573d6000803e3d6000fd5b505050506040513d6000823e601f3d908101601f19168201604052610d059190810190612d2e565b604051631c641b0b60e21b81526002600482015260009073__$4f9bc9d987b626ebf927a63757d74ce646$__906371906c2c90602401602060405180830381865af4158015611440573d6000803e3d6000fd5b505050506040513d601f19601f8201168201806040525081019061059b9190612c7d565b600054610100900460ff16158080156114845750600054600160ff909116105b8061149e5750303b15801561149e575060005460ff166001145b6115015760405162461bcd60e51b815260206004820152602e60248201527f496e697469616c697a61626c653a20636f6e747261637420697320616c72656160448201526d191e481a5b9a5d1a585b1a5e995960921b60648201526084016106e8565b6000805460ff191660011790558015611524576000805461ff0019166101001790555b6000805462010000600160b01b031916336201000002178155600180805560408051808201825260148152730222337b931b29029ba30b136329020a6a69016960651b60208083019190915282518084018452600c81526b64414d4d2d537461626c652d60a01b818301528351808501909452938352602d60f81b9083015292876001600160401b038111156115bc576115bc612ce8565b6040519080825280602002602001820160405280156115e5578160200160208202803683370190505b50905060005b888110156117615789898281811061160557611605612dd3565b905060200201602081019061161a919061297b565b6001600160a01b031663313ce5676040518163ffffffff1660e01b8152600401602060405180830381865afa158015611657573d6000803e3d6000fd5b505050506040513d601f19601f8201168201806040525081019061167b9190612eda565b82828151811061168d5761168d612dd3565b602002602001019060ff16908160ff168152505060006116db8b8b848181106116b8576116b8612dd3565b90506020020160208101906116cd919061297b565b6001600160a01b0316611c8d565b90506116e860018b612ef7565b8203611701576040518060200160405280600081525093505b85818560405160200161171693929190612f3e565b604051602081830303815290604052955084818560405160200161173c93929190612f3e565b604051602081830303815290604052945050808061175990612dff565b9150506115eb565b5060008080806117738a8c018c612f81565b93509350935093506117c08d8d808060200260200160405190810160405280939291908181526020018383602002808284376000920191909152508992508c91508b905086898988611d75565b50505050505050508015610758576000805461ff0019169055604051600181527f7f26b83ff96e1f2b6a682f133852f6798a09c465da95921460cefb3847402498906020015b60405180910390a15050505050565b6040516303e8240b60e51b8152600260048201526024810182905260009073__$4f9bc9d987b626ebf927a63757d74ce646$__90637d04816090604401602060405180830381865af415801561186f573d6000803e3d6000fd5b505050506040513d601f19601f820116820180604052508101906108009190612c7d565b6000610800826124a5565b606082828080602002602001604051908101604052809392919081815260200183836020028082843760009201829052509394505050505b84811015611970578383828181106118f0576118f0612dd3565b9050602002013582600c600089898681811061190e5761190e612dd3565b9050602002016020810190611923919061297b565b6001600160a01b03168152602081019190915260400160002054815160ff90911690811061195357611953612dd3565b60209081029190910101528061196881612dff565b9150506118d6565b50949350505050565b600283015461198b9062015180612fc2565b4210156119da5760405162461bcd60e51b815260206004820152601f60248201527f57616974203120646179206265666f7265207374617274696e672072616d700060448201526064016106e8565b6119e76212750042612fc2565b811015611a2f5760405162461bcd60e51b8152602060048201526016602482015275496e73756666696369656e742072616d702074696d6560501b60448201526064016106e8565b600082118015611a415750620f424082105b611a8d5760405162461bcd60e51b815260206004820181905260248201527f667574757265415f206d757374206265203e203020616e64203c204d41585f4160448201526064016106e8565b6000611a98846124a5565b90506000611aa7606485612fda565b905081811015611b085781611abd600283612fda565b1015611b035760405162461bcd60e51b8152602060048201526015602482015274199d5d1d5c995057c81a5cc81d1bdbc81cdb585b1b605a1b60448201526064016106e8565b611b5a565b611b13600283612fda565b811115611b5a5760405162461bcd60e51b8152602060048201526015602482015274667574757265415f20697320746f6f206c6172676560581b60448201526064016106e8565b81855560018501819055426002860181905560038601849055604080518481526020810184905290810191909152606081018490527fa2b71ec6df949300b59aab36b55e189697b750119dd349fcfa8c0f779e83c25490608001611806565b42816003015411611c0c5760405162461bcd60e51b815260206004820152601760248201527f52616d7020697320616c72656164792073746f7070656400000000000000000060448201526064016106e8565b6000611c17826124a5565b808355600183018190554260028401819055600384018190556040519192507f46e22fb3709ad289f62ce63d469248536dbc78d82b84a3d7e74ad606dc20193891611c6a91848252602082015260400190565b60405180910390a15050565b60006064611c83836124a5565b6108009190612ff9565b60606001600160a01b03821615611d705760408051600481526024810182526020810180516001600160e01b03166395d89b4160e01b179052905160009182916001600160a01b03861691611ce19161301b565b600060405180830381855afa9150503d8060008114611d1c576040519150601f19603f3d011682016040523d82523d6000602084013e611d21565b606091505b50915091508115611d6d578051602014611d4e5780806020019051810190611d499190613037565b611d6a565b611d6a81806020019051810190611d659190612c7d565b612549565b92505b50505b919050565b6001885111611dc65760405162461bcd60e51b815260206004820152601960248201527f5f706f6f6c6564546f6b656e732e6c656e677468203c3d20310000000000000060448201526064016106e8565b602088511115611e185760405162461bcd60e51b815260206004820152601960248201527f5f706f6f6c6564546f6b656e732e6c656e677468203e2033320000000000000060448201526064016106e8565b8651885114611e695760405162461bcd60e51b815260206004820152601f60248201527f5f706f6f6c6564546f6b656e7320646563696d616c73206d69736d617463680060448201526064016106e8565b600087516001600160401b03811115611e8457611e84612ce8565b604051908082528060200260200182016040528015611ead578160200160208202803683370190505b509050600088516001600160401b03811115611ecb57611ecb612ce8565b604051908082528060200260200182016040528015611ef4578160200160208202803683370190505b50905060005b8a518160ff1610156122295760ff811615611fe357600c60008c8360ff1681518110611f2857611f28612dd3565b6020908102919091018101516001600160a01b031682528101919091526040016000205460ff16158015611fa457508a8160ff1681518110611f6c57611f6c612dd3565b60200260200101516001600160a01b03168b600081518110611f9057611f90612dd3565b60200260200101516001600160a01b031614155b611fe35760405162461bcd60e51b815260206004820152601060248201526f4475706c696361746520746f6b656e7360801b60448201526064016106e8565b60006001600160a01b03168b8260ff168151811061200357612003612dd3565b60200260200101516001600160a01b0316141580156120505750306001600160a01b03168b8260ff168151811061203c5761203c612dd3565b60200260200101516001600160a01b031614155b61209c5760405162461bcd60e51b815260206004820152601d60248201527f546865203020616464726573732069736e277420616e204552432d323000000060448201526064016106e8565b601260ff168a8260ff16815181106120b6576120b6612dd3565b602002602001015160ff16111561210f5760405162461bcd60e51b815260206004820152601a60248201527f546f6b656e20646563696d616c732065786365656473206d617800000000000060448201526064016106e8565b898160ff168151811061212457612124612dd3565b602002602001015160ff16601260ff1661213e9190612ef7565b61214990600a6131a5565b838260ff168151811061215e5761215e612dd3565b6020026020010181815250508a8160ff168151811061217f5761217f612dd3565b6020026020010151828260ff168151811061219c5761219c612dd3565b60200260200101906001600160a01b031690816001600160a01b03168152505080600c60008d8460ff16815181106121d6576121d6612dd3565b60200260200101516001600160a01b03166001600160a01b0316815260200190815260200160002060006101000a81548160ff021916908360ff1602179055508080612221906131b1565b915050611efa565b50620f424086106122715760405162461bcd60e51b81526020600482015260126024820152715f612065786365656473206d6178696d756d60701b60448201526064016106e8565b6305f5e10085106122bb5760405162461bcd60e51b81526020600482015260146024820152735f6665652065786365656473206d6178696d756d60601b60448201526064016106e8565b6402540be400841061230f5760405162461bcd60e51b815260206004820152601960248201527f5f61646d696e4665652065786365656473206d6178696d756d0000000000000060448201526064016106e8565b600061231a846125b4565b60405163266c45bb60e11b81529091506001600160a01b03821690634cd88b769061234b908c908c906004016131fc565b6020604051808303816000875af115801561236a573d6000803e3d6000fd5b505050506040513d601f19601f8201168201806040525081019061238e919061322a565b6123da5760405162461bcd60e51b815260206004820152601c60248201527f636f756c64206e6f7420696e6974206c70546f6b656e20636c6f6e650000000060448201526064016106e8565b600880546001600160a01b0319166001600160a01b0383161790558151612408906009906020850190612649565b50825161241c90600a9060208601906126ae565b508a516001600160401b0381111561243657612436612ce8565b60405190808252806020026020018201604052801561245f578160200160208202803683370190505b50805161247491600b916020909101906126ae565b50612480606488612fda565b60025561248e606488612fda565b600355505050600692909255600755505050505050565b600381015460018201546000919042821115612542576002840154845480831115612506576124d48285612ef7565b6124de8342612ef7565b6124e88386612ef7565b6124f29190612fda565b6124fc9190612ff9565b61062a9082612fc2565b6125108285612ef7565b61251a8342612ef7565b6125248584612ef7565b61252e9190612fda565b6125389190612ff9565b61062a9082612ef7565b9392505050565b606060005b828160ff166020811061256357612563612dd3565b1a60f81b6001600160f81b03191615801590612582575060208160ff16105b156125995780612591816131b1565b91505061254e565b60405191506040820160405280825282602083015250919050565b6000763d602d80600a3d3981f3363d3d373d3d3d363d730000008260601b60e81c176000526e5af43d82803e903d91602b57fd5bf38260781b17602052603760096000f090506001600160a01b038116611d705760405162461bcd60e51b8152602060048201526016602482015275115490cc4c4d8dce8818dc99585d194819985a5b195960521b60448201526064016106e8565b82805482825590600052602060002090810192821561269e579160200282015b8281111561269e57825182546001600160a01b0319166001600160a01b03909116178255602090920191600190910190612669565b506126aa9291506126e9565b5090565b82805482825590600052602060002090810192821561269e579160200282015b8281111561269e5782518255916020019190600101906126ce565b5b808211156126aa57600081556001016126ea565b60008083601f84011261271057600080fd5b5081356001600160401b0381111561272757600080fd5b6020830191508360208260051b850101111561274257600080fd5b9250929050565b801515811461275757600080fd5b50565b60008060008060006060868803121561277257600080fd5b85356001600160401b038082111561278957600080fd5b61279589838a016126fe565b909750955060208801359150808211156127ae57600080fd5b506127bb888289016126fe565b90945092505060408601356127cf81612749565b809150509295509295909350565b6000602082840312156127ef57600080fd5b5035919050565b6001600160a01b038116811461275757600080fd5b6000806040838503121561281e57600080fd5b8235612829816127f6565b946020939093013593505050565b60008060006060848603121561284c57600080fd5b8335612857816127f6565b92506020840135612867816127f6565b929592945050506040919091013590565b60008060006040848603121561288d57600080fd5b83356001600160401b038111156128a357600080fd5b6128af868287016126fe565b909790965060209590950135949350505050565b6020808252825182820181905260009190848201906040850190845b818110156128fb578351835292840192918401916001016128df565b50909695505050505050565b6000806040838503121561291a57600080fd5b50508035926020909101359150565b600080600080600060a0868803121561294157600080fd5b853594506020860135612953816127f6565b935060408601359250606086013561296a816127f6565b949793965091946080013592915050565b60006020828403121561298d57600080fd5b8135612542816127f6565b600080600080600080600060a0888a0312156129b357600080fd5b87356001600160401b03808211156129ca57600080fd5b6129d68b838c016126fe565b909950975060208a01359150808211156129ef57600080fd5b506129fc8a828b016126fe565b909650945050604088013592506060880135612a17816127f6565b809250506080880135905092959891949750929550565b60ff8116811461275757600080fd5b600060208284031215612a4f57600080fd5b813561254281612a2e565b60008060008060008060c08789031215612a7357600080fd5b8635612a7e816127f6565b95506020870135612a8e816127f6565b945060408701359350606087013592506080870135612aac816127f6565b8092505060a087013590509295509295509295565b6020808252825182820181905260009190848201906040850190845b818110156128fb5783516001600160a01b031683529284019291840191600101612add565b600080600080600080600060a0888a031215612b1d57600080fd5b8735965060208801356001600160401b0380821115612b3b57600080fd5b612b478b838c016126fe565b909850965060408a0135915080821115612b6057600080fd5b50612b6d8a828b016126fe565b9095509350506060880135612a17816127f6565b60008060008060408587031215612b9757600080fd5b84356001600160401b0380821115612bae57600080fd5b612bba888389016126fe565b90965094506020870135915080821115612bd357600080fd5b818701915087601f830112612be757600080fd5b813581811115612bf657600080fd5b886020828501011115612c0857600080fd5b95989497505060200194505050565b600081518084526020808501945080840160005b83811015612c4757815187529582019590820190600101612c2b565b509495945050505050565b838152606060208201526000612c6b6060830185612c17565b90508215156040830152949350505050565b600060208284031215612c8f57600080fd5b5051919050565b600060208284031215612ca857600080fd5b8151612542816127f6565b6020808252818101527f4f776e61626c653a2063616c6c6572206973206e6f7420746865206f776e6572604082015260600190565b634e487b7160e01b600052604160045260246000fd5b604051601f8201601f191681016001600160401b0381118282101715612d2657612d26612ce8565b604052919050565b60006020808385031215612d4157600080fd5b82516001600160401b0380821115612d5857600080fd5b818501915085601f830112612d6c57600080fd5b815181811115612d7e57612d7e612ce8565b8060051b9150612d8f848301612cfe565b8181529183018401918481019088841115612da957600080fd5b938501935b83851015612dc757845182529385019390850190612dae565b98975050505050505050565b634e487b7160e01b600052603260045260246000fd5b634e487b7160e01b600052601160045260246000fd5b600060018201612e1157612e11612de9565b5060010190565b6020808252600c908201526b14185a5c8e881313d0d2d15160a21b604082015260600190565b60208082526010908201526f111958591b1a5b99481b9bdd081b595d60821b604082015260600190565b848152608060208201526000612e816080830186612c17565b6040830194909452506001600160a01b039190911660609091015292915050565b848152836020820152608060408201526000612ec16080830185612c17565b905060018060a01b038316606083015295945050505050565b600060208284031215612eec57600080fd5b815161254281612a2e565b600082821015612f0957612f09612de9565b500390565b60005b83811015612f29578181015183820152602001612f11565b83811115612f38576000848401525b50505050565b60008451612f50818460208901612f0e565b845190830190612f64818360208901612f0e565b8451910190612f77818360208801612f0e565b0195945050505050565b60008060008060808587031215612f9757600080fd5b8435935060208501359250604085013591506060850135612fb7816127f6565b939692955090935050565b60008219821115612fd557612fd5612de9565b500190565b6000816000190483118215151615612ff457612ff4612de9565b500290565b60008261301657634e487b7160e01b600052601260045260246000fd5b500490565b6000825161302d818460208701612f0e565b9190910192915050565b60006020828403121561304957600080fd5b81516001600160401b038082111561306057600080fd5b818401915084601f83011261307457600080fd5b81518181111561308657613086612ce8565b613099601f8201601f1916602001612cfe565b91508082528560208285010111156130b057600080fd5b611970816020840160208601612f0e565b600181815b808511156130fc5781600019048211156130e2576130e2612de9565b808516156130ef57918102915b93841c93908002906130c6565b509250929050565b60008261311357506001610800565b8161312057506000610800565b816001811461313657600281146131405761315c565b6001915050610800565b60ff84111561315157613151612de9565b50506001821b610800565b5060208310610133831016604e8410600b841016171561317f575081810a610800565b61318983836130c1565b806000190482111561319d5761319d612de9565b029392505050565b60006107fd8383613104565b600060ff821660ff81036131c7576131c7612de9565b60010192915050565b600081518084526131e8816020860160208601612f0e565b601f01601f19169290920160200192915050565b60408152600061320f60408301856131d0565b828103602084015261322181856131d0565b95945050505050565b60006020828403121561323c57600080fd5b81516125428161274956fea26469706673582212208eb00e868f8da0a6d508ec9eaba9eb110f388851e0491e0bf82254708f7ec01d64736f6c634300080d0033",
  "libraries": {
    "SwapUtils": "0xEEAd4d4e539A8c63fC9c0Cc66c29e6bD54425A51"
  },
  "devdoc": {
    "details": "Most of the logic is stored as a library `SwapUtils` for the sake of reducing contract's deployment size.",
    "kind": "dev",
    "methods": {
      "addLiquidity(address[],uint256[],uint256,address,uint256)": {
        "params": {
          "_amounts": "the amounts of each token to add, in their native precision,corresponding to param _tokens",
          "_deadline": "latest timestamp to accept this transaction",
          "_minToMint": "the minimum LP tokens adding this amount of liquidity should mint, otherwise revert. Handy for front-running mitigation",
          "_receiver": "recipient address",
          "_tokens": "token address list"
        },
        "returns": {
          "_0": "amount of LP token user minted and received"
        }
      },
      "calculateRemoveLiquidity(address[],uint256)": {
        "params": {
          "_amount": "the amount of LP tokens that would be burned on withdrawal",
          "_tokens": "token address list"
        },
        "returns": {
          "_0": "array of token balances that the user will receive"
        }
      },
      "calculateRemoveLiquidityOneToken(address,uint256)": {
        "params": {
          "_token": "address of tokens that will be withdrawn",
          "_tokenAmount": "the amount of LP token to burn"
        },
        "returns": {
          "_0": "calculated amount of underlying token available to withdraw"
        }
      },
      "calculateTokenAmount(address[],uint256[],bool)": {
        "details": "This shouldn't be used outside frontends for user estimates.",
        "params": {
          "_amounts": "an array of token amounts to deposit or withdrawal, corresponding to param _tokens. The amount should be in each pooled token's native precision. If a token charges a fee on transfers, use the amount that gets transferred after the fee.",
          "_deposit": "whether this is a deposit or a withdrawal",
          "_tokens": "an array of all token addresses for the pair,"
        },
        "returns": {
          "_0": "token amount the user will receive"
        }
      },
      "getA()": {
        "details": "See the StableSwap paper for details",
        "returns": {
          "_0": "A parameter"
        }
      },
      "getAPrecise()": {
        "details": "See the StableSwap paper for details",
        "returns": {
          "_0": "A parameter in its raw precision form"
        }
      },
      "getAdminBalance(uint256)": {
        "params": {
          "_index": "Index of the pooled token"
        },
        "returns": {
          "_0": "admin's token balance in the token's precision"
        }
      },
      "getAmountOut(address,address,uint256)": {
        "params": {
          "_dx": "the amount of tokens the user wants to sell. If the token charges a fee on transfers, use the amount that gets transferred after the fee.",
          "_tokenFrom": "the token address the user wants to sell",
          "_tokenTo": "the token address the user wants to buy"
        },
        "returns": {
          "_0": "amount of tokens the user will receive"
        }
      },
      "getToken(uint8)": {
        "params": {
          "_index": "the index of the token"
        },
        "returns": {
          "_0": "address of the token at given index"
        }
      },
      "getTokenBalance(uint8)": {
        "params": {
          "_index": "the index of the token"
        },
        "returns": {
          "_0": "current balance of the pooled token at given index with token's native precision"
        }
      },
      "getTokenBalances()": {
        "returns": {
          "_0": "current balances of the pooled tokens"
        }
      },
      "getTokenIndex(address)": {
        "params": {
          "_tokenAddress": "address of the token"
        },
        "returns": {
          "_0": "the index of the given token address"
        }
      },
      "getVirtualPrice()": {
        "returns": {
          "_0": "the virtual price, scaled to the POOL_PRECISION_DECIMALS"
        }
      },
      "lpToken()": {
        "returns": {
          "_0": "lpToken addresse"
        }
      },
      "rampA(uint256,uint256)": {
        "params": {
          "_futureA": "the new A to ramp towards",
          "_futureTime": "timestamp when the new A should be reached"
        }
      },
      "removeLiquidity(uint256,address[],uint256[],address,uint256)": {
        "details": "Liquidity can always be removed, even when the pool is paused.",
        "params": {
          "_amount": "the amount of LP tokens to burn",
          "_deadline": "latest timestamp to accept this transaction",
          "_minAmounts": "the minimum amounts of each token in the pool        acceptable for this burn. Useful as a front-running mitigation",
          "_receiver": "recipient address",
          "_tokens": "token address list"
        },
        "returns": {
          "_0": "amounts of tokens user received"
        }
      },
      "removeLiquidityImbalance(address[],uint256[],uint256,address,uint256)": {
        "params": {
          "_amounts": "how much of each token to withdraw",
          "_deadline": "latest timestamp to accept this transaction",
          "_maxBurnAmount": "the max LP token provider is willing to pay to remove liquidity. Useful as a front-running mitigation.",
          "_receiver": "recipient address",
          "_tokens": "token address list"
        },
        "returns": {
          "_0": "amount of LP tokens burned"
        }
      },
      "removeLiquidityOneToken(uint256,address,uint256,address,uint256)": {
        "params": {
          "_deadline": "latest timestamp to accept this transaction",
          "_minAmount": "the minimum amount to withdraw, otherwise revert",
          "_receiver": "recipient address",
          "_token": "address of the token you want to receive",
          "_tokenAmount": "the amount of the token you want to receive"
        },
        "returns": {
          "_0": "amount of chosen token user received"
        }
      },
      "setAdminFeeRate(uint256)": {
        "params": {
          "_newAdminFee": "new admin fee to be applied on future transactions"
        }
      },
      "setSwapFee(uint256)": {
        "params": {
          "_newSwapFee": "new swap fee to be applied on future transactions"
        }
      },
      "swap(address,address,uint256,uint256,address,uint256)": {
        "params": {
          "_deadline": "latest timestamp to accept this transaction",
          "_dx": "the amount of tokens the user wants to swap from",
          "_minDy": "the min amount the user would like to receive, or revert.",
          "_receiver": "recipient address",
          "_tokenFrom": "the token address the user wants to sell",
          "_tokenTo": "the token address the user wants to buy"
        }
      },
      "tokens()": {
        "returns": {
          "_0": "all token addresses"
        }
      }
    },
    "title": "Swap - A StableSwap implementation in solidity.",
    "version": 1
  },
  "userdoc": {
    "kind": "user",
    "methods": {
      "addLiquidity(address[],uint256[],uint256,address,uint256)": {
        "notice": "Add liquidity to the pool with the given amounts of tokens"
      },
      "calculateRemoveLiquidity(address[],uint256)": {
        "notice": "A simple method to calculate amount of each underlying tokens that is returned upon burning given amount of LP tokens"
      },
      "calculateRemoveLiquidityOneToken(address,uint256)": {
        "notice": "Calculate the amount of underlying token available to withdraw when withdrawing via only single token"
      },
      "calculateTokenAmount(address[],uint256[],bool)": {
        "notice": "A simple method to calculate prices from deposits or withdrawals, excluding fees but including slippage. This is helpful as an input into the various \"min\" parameters on calls to fight front-running"
      },
      "claimFees()": {
        "notice": "Withdraw all admin fees to the contract factory manager"
      },
      "getA()": {
        "notice": "Return A, the amplification coefficient * n * (n - 1)"
      },
      "getAPrecise()": {
        "notice": "Return A in its raw precision form"
      },
      "getAdminBalance(uint256)": {
        "notice": "This function reads the accumulated amount of admin fees of the token with given index"
      },
      "getAmountOut(address,address,uint256)": {
        "notice": "Calculate amount of tokens you receive on swap"
      },
      "getToken(uint8)": {
        "notice": "Return address of the pooled token at given index. Reverts if _tokenIndex is out of range."
      },
      "getTokenBalance(uint8)": {
        "notice": "Return current balance of the pooled token at given index"
      },
      "getTokenBalances()": {
        "notice": "Return current balances of the pooled tokens"
      },
      "getTokenIndex(address)": {
        "notice": "Return the index of the given token address. Reverts if no matching token is found."
      },
      "getVirtualPrice()": {
        "notice": "Get the virtual price, to help calculate profit"
      },
      "lpToken()": {
        "notice": "Query lpToken addresse."
      },
      "rampA(uint256,uint256)": {
        "notice": "Start ramping up or down A parameter towards given futureA and futureTime Checks if the change is too rapid, and commits the new A value only when it falls under the limit range."
      },
      "removeLiquidity(uint256,address[],uint256[],address,uint256)": {
        "notice": "Burn LP tokens to remove liquidity from the pool. Withdraw fee that decays linearly over period of 4 weeks since last deposit will apply."
      },
      "removeLiquidityImbalance(address[],uint256[],uint256,address,uint256)": {
        "notice": "Remove liquidity from the pool, weighted differently than the pool's current balances. Withdraw fee that decays linearly over period of 4 weeks since last deposit will apply."
      },
      "removeLiquidityOneToken(uint256,address,uint256,address,uint256)": {
        "notice": "Remove liquidity from the pool all in one token. Withdraw fee that decays linearly over period of 4 weeks since last deposit will apply."
      },
      "setAdminFeeRate(uint256)": {
        "notice": "Update the admin fee. Admin fee takes portion of the swap fee."
      },
      "setSwapFee(uint256)": {
        "notice": "Update the swap fee to be applied on swaps"
      },
      "stopRampA()": {
        "notice": "Stop ramping A immediately. Reverts if ramp A is already stopped."
      },
      "swap(address,address,uint256,uint256,address,uint256)": {
        "notice": "Calculate amount of tokens you receive on swap"
      },
      "tokens()": {
        "notice": "Query all token addresses in pair."
      }
    },
    "notice": "This contract is responsible for custody of closely pegged assets (eg. group of stablecoins) and automatic market making system. Users become an LP (Liquidity Provider) by depositing their tokens in desired ratios for an exchange of the pool token that represents their share of the pool. Users can burn pool tokens and withdraw their share of token(s). Each time a swap between the pooled tokens happens, a set fee incurs which effectively gets distributed to the LPs. In case of emergencies, admin can pause additional deposits, swaps, or single-asset withdraws - which stops the ratio of the tokens in the pool from changing. Users can always withdraw their tokens via multi-asset withdraws.",
    "version": 1
  },
  "storageLayout": {
    "storage": [
      {
        "astId": 138,
        "contract": "contracts/StablePair.sol:StablePair",
        "label": "_initialized",
        "offset": 0,
        "slot": "0",
        "type": "t_uint8"
      },
      {
        "astId": 141,
        "contract": "contracts/StablePair.sol:StablePair",
        "label": "_initializing",
        "offset": 1,
        "slot": "0",
        "type": "t_bool"
      },
      {
        "astId": 3543,
        "contract": "contracts/StablePair.sol:StablePair",
        "label": "factory",
        "offset": 2,
        "slot": "0",
        "type": "t_address"
      },
      {
        "astId": 3545,
        "contract": "contracts/StablePair.sol:StablePair",
        "label": "unlocked_",
        "offset": 0,
        "slot": "1",
        "type": "t_uint256"
      },
      {
        "astId": 3548,
        "contract": "contracts/StablePair.sol:StablePair",
        "label": "swapStorage",
        "offset": 0,
        "slot": "2",
        "type": "t_struct(Swap)9977_storage"
      },
      {
        "astId": 3552,
        "contract": "contracts/StablePair.sol:StablePair",
        "label": "tokenIndexes_",
        "offset": 0,
        "slot": "12",
        "type": "t_mapping(t_address,t_uint8)"
      }
    ],
    "types": {
      "t_address": {
        "encoding": "inplace",
        "label": "address",
        "numberOfBytes": "20"
      },
      "t_array(t_contract(IERC20)787)dyn_storage": {
        "base": "t_contract(IERC20)787",
        "encoding": "dynamic_array",
        "label": "contract IERC20[]",
        "numberOfBytes": "32"
      },
      "t_array(t_uint256)dyn_storage": {
        "base": "t_uint256",
        "encoding": "dynamic_array",
        "label": "uint256[]",
        "numberOfBytes": "32"
      },
      "t_bool": {
        "encoding": "inplace",
        "label": "bool",
        "numberOfBytes": "1"
      },
      "t_contract(IERC20)787": {
        "encoding": "inplace",
        "label": "contract IERC20",
        "numberOfBytes": "20"
      },
      "t_contract(LPToken)9813": {
        "encoding": "inplace",
        "label": "contract LPToken",
        "numberOfBytes": "20"
      },
      "t_mapping(t_address,t_uint8)": {
        "encoding": "mapping",
        "key": "t_address",
        "label": "mapping(address => uint8)",
        "numberOfBytes": "32",
        "value": "t_uint8"
      },
      "t_struct(Swap)9977_storage": {
        "encoding": "inplace",
        "label": "struct SwapUtils.Swap",
        "members": [
          {
            "astId": 9953,
            "contract": "contracts/StablePair.sol:StablePair",
            "label": "initialA",
            "offset": 0,
            "slot": "0",
            "type": "t_uint256"
          },
          {
            "astId": 9955,
            "contract": "contracts/StablePair.sol:StablePair",
            "label": "futureA",
            "offset": 0,
            "slot": "1",
            "type": "t_uint256"
          },
          {
            "astId": 9957,
            "contract": "contracts/StablePair.sol:StablePair",
            "label": "initialATime",
            "offset": 0,
            "slot": "2",
            "type": "t_uint256"
          },
          {
            "astId": 9959,
            "contract": "contracts/StablePair.sol:StablePair",
            "label": "futureATime",
            "offset": 0,
            "slot": "3",
            "type": "t_uint256"
          },
          {
            "astId": 9961,
            "contract": "contracts/StablePair.sol:StablePair",
            "label": "swapFee",
            "offset": 0,
            "slot": "4",
            "type": "t_uint256"
          },
          {
            "astId": 9963,
            "contract": "contracts/StablePair.sol:StablePair",
            "label": "adminFee",
            "offset": 0,
            "slot": "5",
            "type": "t_uint256"
          },
          {
            "astId": 9966,
            "contract": "contracts/StablePair.sol:StablePair",
            "label": "lpToken",
            "offset": 0,
            "slot": "6",
            "type": "t_contract(LPToken)9813"
          },
          {
            "astId": 9970,
            "contract": "contracts/StablePair.sol:StablePair",
            "label": "pooledTokens",
            "offset": 0,
            "slot": "7",
            "type": "t_array(t_contract(IERC20)787)dyn_storage"
          },
          {
            "astId": 9973,
            "contract": "contracts/StablePair.sol:StablePair",
            "label": "tokenPrecisionMultipliers",
            "offset": 0,
            "slot": "8",
            "type": "t_array(t_uint256)dyn_storage"
          },
          {
            "astId": 9976,
            "contract": "contracts/StablePair.sol:StablePair",
            "label": "balances",
            "offset": 0,
            "slot": "9",
            "type": "t_array(t_uint256)dyn_storage"
          }
        ],
        "numberOfBytes": "320"
      },
      "t_uint256": {
        "encoding": "inplace",
        "label": "uint256",
        "numberOfBytes": "32"
      },
      "t_uint8": {
        "encoding": "inplace",
        "label": "uint8",
        "numberOfBytes": "1"
      }
    }
  }
}