{
  "address": "0x889ff5D30D785271C8AC39A93cCaf1E058818a8D",
  "abi": [
    {
      "anonymous": false,
      "inputs": [
        {
          "indexed": true,
          "internalType": "address",
          "name": "owner",
          "type": "address"
        },
        {
          "indexed": true,
          "internalType": "address",
          "name": "spender",
          "type": "address"
        },
        {
          "indexed": false,
          "internalType": "uint256",
          "name": "value",
          "type": "uint256"
        }
      ],
      "name": "Approval",
      "type": "event"
    },
    {
      "anonymous": false,
      "inputs": [
        {
          "indexed": true,
          "internalType": "address",
          "name": "sender",
          "type": "address"
        },
        {
          "indexed": false,
          "internalType": "uint256",
          "name": "amount0",
          "type": "uint256"
        },
        {
          "indexed": false,
          "internalType": "uint256",
          "name": "amount1",
          "type": "uint256"
        },
        {
          "indexed": true,
          "internalType": "address",
          "name": "to",
          "type": "address"
        }
      ],
      "name": "Burn",
      "type": "event"
    },
    {
      "anonymous": false,
      "inputs": [
        {
          "indexed": false,
          "internalType": "address",
          "name": "token0",
          "type": "address"
        },
        {
          "indexed": false,
          "internalType": "address",
          "name": "token1",
          "type": "address"
        },
        {
          "indexed": false,
          "internalType": "uint256",
          "name": "amount0",
          "type": "uint256"
        },
        {
          "indexed": false,
          "internalType": "uint256",
          "name": "amount1",
          "type": "uint256"
        }
      ],
      "name": "ClaimFees",
      "type": "event"
    },
    {
      "anonymous": false,
      "inputs": [
        {
          "indexed": false,
          "internalType": "uint8",
          "name": "version",
          "type": "uint8"
        }
      ],
      "name": "Initialized",
      "type": "event"
    },
    {
      "anonymous": false,
      "inputs": [
        {
          "indexed": true,
          "internalType": "address",
          "name": "sender",
          "type": "address"
        },
        {
          "indexed": false,
          "internalType": "uint256",
          "name": "amount0",
          "type": "uint256"
        },
        {
          "indexed": false,
          "internalType": "uint256",
          "name": "amount1",
          "type": "uint256"
        }
      ],
      "name": "Mint",
      "type": "event"
    },
    {
      "anonymous": false,
      "inputs": [
        {
          "indexed": false,
          "internalType": "uint256",
          "name": "_old",
          "type": "uint256"
        },
        {
          "indexed": false,
          "internalType": "uint256",
          "name": "_new",
          "type": "uint256"
        }
      ],
      "name": "SetAdminFeeRate",
      "type": "event"
    },
    {
      "anonymous": false,
      "inputs": [
        {
          "indexed": false,
          "internalType": "uint256",
          "name": "_old",
          "type": "uint256"
        },
        {
          "indexed": false,
          "internalType": "uint256",
          "name": "_new",
          "type": "uint256"
        }
      ],
      "name": "SetSwapFeeRate",
      "type": "event"
    },
    {
      "anonymous": false,
      "inputs": [
        {
          "indexed": true,
          "internalType": "address",
          "name": "sender",
          "type": "address"
        },
        {
          "indexed": false,
          "internalType": "uint256",
          "name": "amount0In",
          "type": "uint256"
        },
        {
          "indexed": false,
          "internalType": "uint256",
          "name": "amount1In",
          "type": "uint256"
        },
        {
          "indexed": false,
          "internalType": "uint256",
          "name": "amount0Out",
          "type": "uint256"
        },
        {
          "indexed": false,
          "internalType": "uint256",
          "name": "amount1Out",
          "type": "uint256"
        },
        {
          "indexed": true,
          "internalType": "address",
          "name": "to",
          "type": "address"
        }
      ],
      "name": "Swap",
      "type": "event"
    },
    {
      "anonymous": false,
      "inputs": [
        {
          "indexed": false,
          "internalType": "address[]",
          "name": "tokens",
          "type": "address[]"
        },
        {
          "indexed": false,
          "internalType": "uint256[]",
          "name": "swapFees",
          "type": "uint256[]"
        }
      ],
      "name": "SwapFee",
      "type": "event"
    },
    {
      "anonymous": false,
      "inputs": [
        {
          "indexed": false,
          "internalType": "uint112",
          "name": "reserve0",
          "type": "uint112"
        },
        {
          "indexed": false,
          "internalType": "uint112",
          "name": "reserve1",
          "type": "uint112"
        }
      ],
      "name": "Sync",
      "type": "event"
    },
    {
      "anonymous": false,
      "inputs": [
        {
          "indexed": true,
          "internalType": "address",
          "name": "from",
          "type": "address"
        },
        {
          "indexed": true,
          "internalType": "address",
          "name": "to",
          "type": "address"
        },
        {
          "indexed": false,
          "internalType": "uint256",
          "name": "value",
          "type": "uint256"
        }
      ],
      "name": "Transfer",
      "type": "event"
    },
    {
      "inputs": [],
      "name": "AUTH",
      "outputs": [
        {
          "internalType": "bool",
          "name": "",
          "type": "bool"
        }
      ],
      "stateMutability": "view",
      "type": "function"
    },
    {
      "inputs": [],
      "name": "DOMAIN_SEPARATOR",
      "outputs": [
        {
          "internalType": "bytes32",
          "name": "",
          "type": "bytes32"
        }
      ],
      "stateMutability": "view",
      "type": "function"
    },
    {
      "inputs": [],
      "name": "FEE_DENOMINATOR",
      "outputs": [
        {
          "internalType": "uint256",
          "name": "",
          "type": "uint256"
        }
      ],
      "stateMutability": "view",
      "type": "function"
    },
    {
      "inputs": [],
      "name": "MAX_ADMIN_FEE",
      "outputs": [
        {
          "internalType": "uint256",
          "name": "",
          "type": "uint256"
        }
      ],
      "stateMutability": "view",
      "type": "function"
    },
    {
      "inputs": [],
      "name": "MAX_SWAP_FEE",
      "outputs": [
        {
          "internalType": "uint256",
          "name": "",
          "type": "uint256"
        }
      ],
      "stateMutability": "view",
      "type": "function"
    },
    {
      "inputs": [],
      "name": "MINIMUM_LIQUIDITY",
      "outputs": [
        {
          "internalType": "uint256",
          "name": "",
          "type": "uint256"
        }
      ],
      "stateMutability": "view",
      "type": "function"
    },
    {
      "inputs": [],
      "name": "PAIR_TYPE",
      "outputs": [
        {
          "internalType": "uint8",
          "name": "",
          "type": "uint8"
        }
      ],
      "stateMutability": "view",
      "type": "function"
    },
    {
      "inputs": [],
      "name": "PERMIT_TYPEHASH",
      "outputs": [
        {
          "internalType": "bytes32",
          "name": "",
          "type": "bytes32"
        }
      ],
      "stateMutability": "view",
      "type": "function"
    },
    {
      "inputs": [],
      "name": "adminFeeRate",
      "outputs": [
        {
          "internalType": "uint256",
          "name": "",
          "type": "uint256"
        }
      ],
      "stateMutability": "view",
      "type": "function"
    },
    {
      "inputs": [
        {
          "internalType": "address",
          "name": "",
          "type": "address"
        },
        {
          "internalType": "address",
          "name": "",
          "type": "address"
        }
      ],
      "name": "allowance",
      "outputs": [
        {
          "internalType": "uint256",
          "name": "",
          "type": "uint256"
        }
      ],
      "stateMutability": "view",
      "type": "function"
    },
    {
      "inputs": [
        {
          "internalType": "address",
          "name": "spender",
          "type": "address"
        },
        {
          "internalType": "uint256",
          "name": "value",
          "type": "uint256"
        }
      ],
      "name": "approve",
      "outputs": [
        {
          "internalType": "bool",
          "name": "",
          "type": "bool"
        }
      ],
      "stateMutability": "nonpayable",
      "type": "function"
    },
    {
      "inputs": [
        {
          "internalType": "address",
          "name": "",
          "type": "address"
        }
      ],
      "name": "balanceOf",
      "outputs": [
        {
          "internalType": "uint256",
          "name": "",
          "type": "uint256"
        }
      ],
      "stateMutability": "view",
      "type": "function"
    },
    {
      "inputs": [
        {
          "internalType": "address",
          "name": "to",
          "type": "address"
        }
      ],
      "name": "burn",
      "outputs": [
        {
          "internalType": "uint256",
          "name": "amount0",
          "type": "uint256"
        },
        {
          "internalType": "uint256",
          "name": "amount1",
          "type": "uint256"
        }
      ],
      "stateMutability": "nonpayable",
      "type": "function"
    },
    {
      "inputs": [],
      "name": "claimFees",
      "outputs": [
        {
          "internalType": "uint256[]",
          "name": "_adminFees",
          "type": "uint256[]"
        }
      ],
      "stateMutability": "nonpayable",
      "type": "function"
    },
    {
      "inputs": [],
      "name": "decimals",
      "outputs": [
        {
          "internalType": "uint8",
          "name": "",
          "type": "uint8"
        }
      ],
      "stateMutability": "view",
      "type": "function"
    },
    {
      "inputs": [],
      "name": "factory",
      "outputs": [
        {
          "internalType": "address",
          "name": "",
          "type": "address"
        }
      ],
      "stateMutability": "view",
      "type": "function"
    },
    {
      "inputs": [
        {
          "internalType": "address",
          "name": "_from",
          "type": "address"
        },
        {
          "internalType": "address",
          "name": "",
          "type": "address"
        },
        {
          "internalType": "uint256",
          "name": "_amount",
          "type": "uint256"
        }
      ],
      "name": "getAmountOut",
      "outputs": [
        {
          "internalType": "uint256",
          "name": "",
          "type": "uint256"
        }
      ],
      "stateMutability": "view",
      "type": "function"
    },
    {
      "inputs": [],
      "name": "getRealBalanceOf",
      "outputs": [
        {
          "internalType": "uint256",
          "name": "",
          "type": "uint256"
        },
        {
          "internalType": "uint256",
          "name": "",
          "type": "uint256"
        }
      ],
      "stateMutability": "view",
      "type": "function"
    },
    {
      "inputs": [],
      "name": "getReserves",
      "outputs": [
        {
          "internalType": "uint112",
          "name": "_reserve0",
          "type": "uint112"
        },
        {
          "internalType": "uint112",
          "name": "_reserve1",
          "type": "uint112"
        },
        {
          "internalType": "uint32",
          "name": "_blockTimestampLast",
          "type": "uint32"
        }
      ],
      "stateMutability": "view",
      "type": "function"
    },
    {
      "inputs": [
        {
          "internalType": "address[]",
          "name": "_tokens",
          "type": "address[]"
        },
        {
          "internalType": "bytes",
          "name": "_data",
          "type": "bytes"
        }
      ],
      "name": "initialize",
      "outputs": [],
      "stateMutability": "nonpayable",
      "type": "function"
    },
    {
      "inputs": [],
      "name": "kLast",
      "outputs": [
        {
          "internalType": "uint256",
          "name": "",
          "type": "uint256"
        }
      ],
      "stateMutability": "view",
      "type": "function"
    },
    {
      "inputs": [
        {
          "internalType": "address",
          "name": "to",
          "type": "address"
        }
      ],
      "name": "mint",
      "outputs": [
        {
          "internalType": "uint256",
          "name": "liquidity",
          "type": "uint256"
        }
      ],
      "stateMutability": "nonpayable",
      "type": "function"
    },
    {
      "inputs": [],
      "name": "name",
      "outputs": [
        {
          "internalType": "string",
          "name": "",
          "type": "string"
        }
      ],
      "stateMutability": "view",
      "type": "function"
    },
    {
      "inputs": [
        {
          "internalType": "address",
          "name": "",
          "type": "address"
        }
      ],
      "name": "nonces",
      "outputs": [
        {
          "internalType": "uint256",
          "name": "",
          "type": "uint256"
        }
      ],
      "stateMutability": "view",
      "type": "function"
    },
    {
      "inputs": [
        {
          "internalType": "address",
          "name": "owner",
          "type": "address"
        },
        {
          "internalType": "address",
          "name": "spender",
          "type": "address"
        },
        {
          "internalType": "uint256",
          "name": "value",
          "type": "uint256"
        },
        {
          "internalType": "uint256",
          "name": "deadline",
          "type": "uint256"
        },
        {
          "internalType": "uint8",
          "name": "v",
          "type": "uint8"
        },
        {
          "internalType": "bytes32",
          "name": "r",
          "type": "bytes32"
        },
        {
          "internalType": "bytes32",
          "name": "s",
          "type": "bytes32"
        }
      ],
      "name": "permit",
      "outputs": [],
      "stateMutability": "nonpayable",
      "type": "function"
    },
    {
      "inputs": [],
      "name": "price0CumulativeLast",
      "outputs": [
        {
          "internalType": "uint256",
          "name": "",
          "type": "uint256"
        }
      ],
      "stateMutability": "view",
      "type": "function"
    },
    {
      "inputs": [],
      "name": "price1CumulativeLast",
      "outputs": [
        {
          "internalType": "uint256",
          "name": "",
          "type": "uint256"
        }
      ],
      "stateMutability": "view",
      "type": "function"
    },
    {
      "inputs": [
        {
          "internalType": "uint256",
          "name": "_adminFeeRate",
          "type": "uint256"
        }
      ],
      "name": "setAdminFeeRate",
      "outputs": [],
      "stateMutability": "nonpayable",
      "type": "function"
    },
    {
      "inputs": [
        {
          "internalType": "uint256",
          "name": "_swapFeeRate",
          "type": "uint256"
        }
      ],
      "name": "setSwapFeeRate",
      "outputs": [],
      "stateMutability": "nonpayable",
      "type": "function"
    },
    {
      "inputs": [
        {
          "internalType": "address",
          "name": "to",
          "type": "address"
        }
      ],
      "name": "skim",
      "outputs": [],
      "stateMutability": "nonpayable",
      "type": "function"
    },
    {
      "inputs": [
        {
          "internalType": "address",
          "name": "_tokenA",
          "type": "address"
        },
        {
          "internalType": "address",
          "name": "_tokenB",
          "type": "address"
        }
      ],
      "name": "sortTokens",
      "outputs": [
        {
          "internalType": "address",
          "name": "_token0",
          "type": "address"
        },
        {
          "internalType": "address",
          "name": "_token1",
          "type": "address"
        }
      ],
      "stateMutability": "pure",
      "type": "function"
    },
    {
      "inputs": [
        {
          "internalType": "uint256",
          "name": "amount0Out",
          "type": "uint256"
        },
        {
          "internalType": "uint256",
          "name": "amount1Out",
          "type": "uint256"
        },
        {
          "internalType": "address",
          "name": "to",
          "type": "address"
        },
        {
          "internalType": "bytes",
          "name": "data",
          "type": "bytes"
        }
      ],
      "name": "swap",
      "outputs": [],
      "stateMutability": "nonpayable",
      "type": "function"
    },
    {
      "inputs": [],
      "name": "swapFeeRate",
      "outputs": [
        {
          "internalType": "uint256",
          "name": "",
          "type": "uint256"
        }
      ],
      "stateMutability": "view",
      "type": "function"
    },
    {
      "inputs": [],
      "name": "symbol",
      "outputs": [
        {
          "internalType": "string",
          "name": "",
          "type": "string"
        }
      ],
      "stateMutability": "view",
      "type": "function"
    },
    {
      "inputs": [],
      "name": "sync",
      "outputs": [],
      "stateMutability": "nonpayable",
      "type": "function"
    },
    {
      "inputs": [],
      "name": "token0",
      "outputs": [
        {
          "internalType": "address",
          "name": "",
          "type": "address"
        }
      ],
      "stateMutability": "view",
      "type": "function"
    },
    {
      "inputs": [],
      "name": "token1",
      "outputs": [
        {
          "internalType": "address",
          "name": "",
          "type": "address"
        }
      ],
      "stateMutability": "view",
      "type": "function"
    },
    {
      "inputs": [],
      "name": "tokens",
      "outputs": [
        {
          "internalType": "address[]",
          "name": "_tokens",
          "type": "address[]"
        }
      ],
      "stateMutability": "view",
      "type": "function"
    },
    {
      "inputs": [],
      "name": "totalAdminFee0",
      "outputs": [
        {
          "internalType": "uint256",
          "name": "",
          "type": "uint256"
        }
      ],
      "stateMutability": "view",
      "type": "function"
    },
    {
      "inputs": [],
      "name": "totalAdminFee1",
      "outputs": [
        {
          "internalType": "uint256",
          "name": "",
          "type": "uint256"
        }
      ],
      "stateMutability": "view",
      "type": "function"
    },
    {
      "inputs": [],
      "name": "totalSupply",
      "outputs": [
        {
          "internalType": "uint256",
          "name": "",
          "type": "uint256"
        }
      ],
      "stateMutability": "view",
      "type": "function"
    },
    {
      "inputs": [
        {
          "internalType": "address",
          "name": "to",
          "type": "address"
        },
        {
          "internalType": "uint256",
          "name": "value",
          "type": "uint256"
        }
      ],
      "name": "transfer",
      "outputs": [
        {
          "internalType": "bool",
          "name": "",
          "type": "bool"
        }
      ],
      "stateMutability": "nonpayable",
      "type": "function"
    },
    {
      "inputs": [
        {
          "internalType": "address",
          "name": "from",
          "type": "address"
        },
        {
          "internalType": "address",
          "name": "to",
          "type": "address"
        },
        {
          "internalType": "uint256",
          "name": "value",
          "type": "uint256"
        }
      ],
      "name": "transferFrom",
      "outputs": [
        {
          "internalType": "bool",
          "name": "",
          "type": "bool"
        }
      ],
      "stateMutability": "nonpayable",
      "type": "function"
    }
  ],
  "transactionHash": "0x8451782d77957379113edddb486c07e84dfc4820a4e9b2b146592c766e93cd52",
  "args": [],
  "numDeployments": 1,
  "solcInputHash": "74d525d72fc5a5aa3e0a9e519ce6b097",
  "bytecode": "0x60806040523480156200001157600080fd5b5060405146907f8b73c3c69bb8fe3d512ecc4cf759cc79239f7b179b0ffacaa9a75d522b39400f906200004790600090620000cc565b60408051918290038220828201825260018352603160f81b6020938401528151928301939093528101919091527fc89efdaa54c0f20c7adf612882df0950f5a951637e0307cdcb4c672f298b8bc66060820152608081018290523060a082015260c00160408051601f198184030181529190528051602090910120600555506200016f565b600080835481600182811c915080831680620000e957607f831692505b602080841082036200010957634e487b7160e01b86526022600452602486fd5b818015620001205760018114620001325762000161565b60ff1986168952848901965062000161565b60008a81526020902060005b86811015620001595781548b8201529085019083016200013e565b505084890196505b509498975050505050505050565b61337c806200017f6000396000f3fe608060405234801561001057600080fd5b50600436106102695760003560e01c80637ecebe0011610151578063d1154ff0116100c3578063dd62ed3e11610087578063dd62ed3e1461057b578063e69e24a8146105a6578063f3de03621461056f578063f9f0f20d146105b9578063ffc91bbd146105c1578063fff6cae9146105ca57600080fd5b8063d1154ff014610521578063d21220a714610534578063d294f09314610547578063d505accf1461055c578063d73792a91461056f57600080fd5b8063a9059cbb11610115578063a9059cbb146104bb578063ab3d8544146104ce578063b36a5af3146104d9578063ba9a7a56146104ec578063bc25cf77146104f5578063c45a01551461050857600080fd5b80637ecebe001461044d57806389afcb441461046d5780638cece5271461049557806395d89b411461049e5780639d63848a146104a657600080fd5b8063313ce567116101ea578063544caa56116101ae578063544caa56146103cc5780635909c0d5146103ff5780635a3d5493146104085780636a6278421461041157806370a08231146104245780637464fc3d1461044457600080fd5b8063313ce567146103855780633644e5151461039f5780633a04801d146103a85780634aa06652146103b1578063508d1e6b146103c457600080fd5b80630dfe1681116102315780630dfe1681146103005780630ef552131461032b57806318160ddd1461034257806323b872dd1461034b57806330adf81f1461035e57600080fd5b8063022c0d9f1461026e57806306fdde03146102835780630902f1ac146102a1578063095ea7b3146102d55780630a5623fb146102f8575b600080fd5b61028161027c366004612937565b6105d2565b005b61028b610ad6565b60405161029891906129fd565b60405180910390f35b6102a9610b64565b604080516001600160701b03948516815293909216602084015263ffffffff1690820152606001610298565b6102e86102e3366004612a30565b610b8e565b6040519015158152602001610298565b6102e8600081565b600854610313906001600160a01b031681565b6040516001600160a01b039091168152602001610298565b61033460125481565b604051908152602001610298565b61033460025481565b6102e8610359366004612a5c565b610ba5565b6103347f6e71edae12b1b97f4d1f60370fef10105fa2faae0126114a169c64845d6126c981565b61038d601281565b60405160ff9091168152602001610298565b61033460055481565b610334600f5481565b6103346103bf366004612a5c565b610c39565b61038d600181565b6103df6103da366004612a9d565b610cb3565b604080516001600160a01b03938416815292909116602083015201610298565b610334600b5481565b610334600c5481565b61033461041f366004612ad6565b610d91565b610334610432366004612ad6565b60036020526000908152604090205481565b610334600d5481565b61033461045b366004612ad6565b60066020526000908152604090205481565b61048061047b366004612ad6565b610f47565b60408051928352602083019190915201610298565b61033460105481565b61028b6111ad565b6104ae6111ba565b6040516102989190612b37565b6102e86104c9366004612a30565b61124e565b6103346305f5e10081565b6102816104e7366004612b4a565b61125b565b6103346103e881565b610281610503366004612ad6565b611391565b600754610313906201000090046001600160a01b031681565b61028161052f366004612b4a565b611433565b600954610313906001600160a01b031681565b61054f611560565b6040516102989190612b93565b61028161056a366004612ba6565b611753565b6103346402540be40081565b610334610589366004612a9d565b600460209081526000928352604080842090915290825290205481565b6102816105b4366004612ce2565b611967565b610480611cba565b61033460115481565b610281611d71565b600e546001146105fd5760405162461bcd60e51b81526004016105f490612db6565b60405180910390fd5b6000600e55841515806106105750600084115b61065c5760405162461bcd60e51b815260206004820181905260248201527f506169723a20494e53554646494349454e545f4f55545055545f414d4f554e5460448201526064016105f4565b600080610667610b64565b5091509150816001600160701b03168710801561068c5750806001600160701b031686105b6106d85760405162461bcd60e51b815260206004820152601c60248201527f506169723a20494e53554646494349454e545f4c49515549444954590000000060448201526064016105f4565b60085460095460009182916001600160a01b039182169190811690891682148015906107165750806001600160a01b0316896001600160a01b031614155b6107555760405162461bcd60e51b815260206004820152601060248201526f506169723a20494e56414c49445f544f60801b60448201526064016105f4565b8a1561076657610766828a8d611dd5565b891561077757610777818a8c611dd5565b86156107e457604051639a7bff7960e01b81526001600160a01b038a1690639a7bff79906107b19033908f908f908e908e90600401612ddc565b600060405180830381600087803b1580156107cb57600080fd5b505af11580156107df573d6000803e3d6000fd5b505050505b6107ec611cba565b90945092506000915061080a90508a6001600160701b038716612e3e565b8311610817576000610834565b61082a8a6001600160701b038716612e3e565b6108349084612e3e565b9050600061084b8a6001600160701b038716612e3e565b8311610858576000610875565b61086b8a6001600160701b038716612e3e565b6108759084612e3e565b905060008211806108865750600081115b6108d25760405162461bcd60e51b815260206004820152601f60248201527f506169723a20494e53554646494349454e545f494e5055545f414d4f554e540060448201526064016105f4565b60006109016108ec600f5485611f1890919063ffffffff16565b6108fb876402540be400611f18565b90611f2b565b9050600061091d6108ec600f5485611f1890919063ffffffff16565b905061094e61093260026402540be400612f39565b6109486001600160701b038b8116908b16611f18565b90611f18565b6109588383611f18565b10156109905760405162461bcd60e51b8152602060048201526007602482015266506169723a204b60c81b60448201526064016105f4565b60008061099d8686611f37565b90925090506109ac8289612f48565b9750876109b98289612f48565b604080516002808252606082018352929a506000935091906020830190803683370190505090508282826000815181106109f5576109f5612f60565b6020026020010183600181518110610a0f57610a0f612f60565b6020908102919091010191909152527f5dadb1eefca890521b338a7cdaa3dd8b1397864c6c10ccd091a282dc391282eb610a476111ba565b82604051610a56929190612f76565b60405180910390a15050505050610a6f8484888861201d565b60408051838152602081018390529081018c9052606081018b90526001600160a01b038a169033907fd78ad95fa46c994b6551d0da85fc275fe613ce37657fb8d5e3d130840159d8229060800160405180910390a350506001600e55505050505050505050565b60008054610ae390612fa4565b80601f0160208091040260200160405190810160405280929190818152602001828054610b0f90612fa4565b8015610b5c5780601f10610b3157610100808354040283529160200191610b5c565b820191906000526020600020905b815481529060010190602001808311610b3f57829003601f168201915b505050505081565b600a546001600160701b0380821692600160701b830490911691600160e01b900463ffffffff1690565b6000610b9b338484612204565b5060015b92915050565b6001600160a01b038316600090815260046020908152604080832033845290915281205460001914610c24576001600160a01b0384166000908152600460209081526040808320338452909152902054610bff9083611f2b565b6001600160a01b03851660009081526004602090815260408083203384529091529020555b610c2f848484612266565b5060019392505050565b600854600090819081906001600160a01b03878116911614610c7057600a546001600160701b03600160701b820481169116610c88565b600a546001600160701b0380821691600160701b9004165b6001600160701b031691506001600160701b03169150610ca984838361230c565b9695505050505050565b600080826001600160a01b0316846001600160a01b031603610d175760405162461bcd60e51b815260206004820152601960248201527f506169723a204944454e544943414c5f4144445245535345530000000000000060448201526064016105f4565b826001600160a01b0316846001600160a01b031610610d37578284610d3a565b83835b90925090506001600160a01b038216610d8a5760405162461bcd60e51b8152602060048201526012602482015271506169723a205a45524f5f4144445245535360701b60448201526064016105f4565b9250929050565b6000600e54600114610db55760405162461bcd60e51b81526004016105f490612db6565b6000600e81905580610dc5610b64565b5091509150600080610dd5611cba565b90925090506000610def836001600160701b038716611f2b565b90506000610e06836001600160701b038716611f2b565b6002549091506000819003610e4157610e2d6103e86108fb610e288686611f18565b61241a565b9750610e3c60006103e8612502565b610e88565b610e856001600160701b038816610e588584611f18565b610e629190612ff4565b6001600160701b038816610e768585611f18565b610e809190612ff4565b612592565b97505b60008811610ee45760405162461bcd60e51b815260206004820152602360248201527f506169723a20494e53554646494349454e545f4c49515549444954595f4d494e60448201526215115160ea1b60648201526084016105f4565b610eee8989612502565b610efa8585898961201d565b604080518481526020810184905233917f4c209b5fc8ad50758f13e2e1088ba56a560dff690a1c6fef26394f4c03821c4f910160405180910390a250506001600e55509395945050505050565b600080600e54600114610f6c5760405162461bcd60e51b81526004016105f490612db6565b6000600e81905580610f7c610b64565b506008546009549294509092506001600160a01b039081169116600080610fa1611cba565b306000908152600360205260409020546002549294509092509080610fc68386611f18565b610fd09190612ff4565b995080610fdd8385611f18565b610fe79190612ff4565b985060008a118015610ff95750600089115b6110515760405162461bcd60e51b815260206004820152602360248201527f506169723a20494e53554646494349454e545f4c49515549444954595f42555260448201526213915160ea1b60648201526084016105f4565b61105b30836125a8565b611066868c8c611dd5565b611071858c8b611dd5565b6040516370a0823160e01b81523060048201526001600160a01b038716906370a0823190602401602060405180830381865afa1580156110b5573d6000803e3d6000fd5b505050506040513d601f19601f820116820180604052508101906110d99190613008565b6040516370a0823160e01b81523060048201529094506001600160a01b038616906370a0823190602401602060405180830381865afa158015611120573d6000803e3d6000fd5b505050506040513d601f19601f820116820180604052508101906111449190613008565b925061115284848a8a61201d565b604080518b8152602081018b90526001600160a01b038d169133917fdccd412f0b1252819cb1fd330b93224ca42612892bb3f4f789976e6d81936496910160405180910390a350505050505050506001600e81905550915091565b60018054610ae390612fa4565b6040805160028082526060808301845292602083019080368337505060085482519293506001600160a01b0316918391506000906111fa576111fa612f60565b6001600160a01b03928316602091820292909201015260095482519116908290600190811061122b5761122b612f60565b60200260200101906001600160a01b031690816001600160a01b03168152505090565b6000610b9b338484612266565b600760029054906101000a90046001600160a01b03166001600160a01b031663481c6a756040518163ffffffff1660e01b8152600401602060405180830381865afa1580156112ae573d6000803e3d6000fd5b505050506040513d601f19601f820116820180604052508101906112d29190613021565b6001600160a01b0316336001600160a01b0316146113265760405162461bcd60e51b81526020600482015260116024820152702830b4b91d103737ba1036b0b730b3b2b960791b60448201526064016105f4565b6402540be40081111561134b5760405162461bcd60e51b81526004016105f49061303e565b601080549082905560408051828152602081018490527fc49b03da3444d692820082f74621517924ca78c599ebbdc46c2d7ec998eaba7691015b60405180910390a15050565b600e546001146113b35760405162461bcd60e51b81526004016105f490612db6565b6000600e8190556008546009546001600160a01b0391821692911690806113d8611cba565b600a54919350915061140190859087906113fc9086906001600160701b0316611f2b565b611dd5565b600a5461142790849087906113fc908590600160701b90046001600160701b0316611f2b565b50506001600e55505050565b600760029054906101000a90046001600160a01b03166001600160a01b031663481c6a756040518163ffffffff1660e01b8152600401602060405180830381865afa158015611486573d6000803e3d6000fd5b505050506040513d601f19601f820116820180604052508101906114aa9190613021565b6001600160a01b0316336001600160a01b0316146114fe5760405162461bcd60e51b81526020600482015260116024820152702830b4b91d103737ba1036b0b730b3b2b960791b60448201526064016105f4565b6305f5e1008111156115225760405162461bcd60e51b81526004016105f49061308e565b600f80549082905560408051828152602081018490527f2f5af8c6eb9240361dbd88ac5f4818740d38a4f12070bd75460a97d61b726c399101611385565b60606000600760029054906101000a90046001600160a01b03166001600160a01b031663481c6a756040518163ffffffff1660e01b8152600401602060405180830381865afa1580156115b7573d6000803e3d6000fd5b505050506040513d601f19601f820116820180604052508101906115db9190613021565b60408051600280825260608201835292935091906020830190803683370190505091506011546012548360008151811061161757611617612f60565b602002602001018460018151811061163157611631612f60565b602090810291909101019190915252600060128190556011819055600854835161167f926001600160a01b0390921691849186919061167257611672612f60565b6020026020010151611dd5565b60095482516116a7916001600160a01b03169083908590600190811061167257611672612f60565b60085460095483517f1c1305802190d35d1b91e92c6043982b3398ae34849c43d2c2f17e61ac67f040926001600160a01b0390811692169085906000906116f0576116f0612f60565b60200260200101518560018151811061170b5761170b612f60565b602002602001015160405161174794939291906001600160a01b0394851681529290931660208301526040820152606081019190915260800190565b60405180910390a15090565b428410156117985760405162461bcd60e51b815260206004820152601260248201527114185a5c915490cc8c0e881156141254915160721b60448201526064016105f4565b6005546001600160a01b038816600090815260066020526040812080549192917f6e71edae12b1b97f4d1f60370fef10105fa2faae0126114a169c64845d6126c9918b918b918b9190876117eb836130dd565b909155506040805160208101969096526001600160a01b0394851690860152929091166060840152608083015260a082015260c0810187905260e0016040516020818303038152906040528051906020012060405160200161186492919061190160f01b81526002810192909252602282015260420190565b60408051601f198184030181528282528051602091820120600080855291840180845281905260ff88169284019290925260608301869052608083018590529092509060019060a0016020604051602081039080840390855afa1580156118cf573d6000803e3d6000fd5b5050604051601f1901519150506001600160a01b038116158015906119055750886001600160a01b0316816001600160a01b0316145b6119515760405162461bcd60e51b815260206004820152601c60248201527f5061697245524332303a20494e56414c49445f5349474e41545552450000000060448201526064016105f4565b61195c898989612204565b505050505050505050565b600754610100900460ff16158080156119875750600754600160ff909116105b806119a15750303b1580156119a1575060075460ff166001145b611a045760405162461bcd60e51b815260206004820152602e60248201527f496e697469616c697a61626c653a20636f6e747261637420697320616c72656160448201526d191e481a5b9a5d1a585b1a5e995960921b60648201526084016105f4565b6007805460ff191660011790558015611a27576007805461ff0019166101001790555b6007805462010000600160b01b0319163362010000021790556001600e81905583518491908110611a5a57611a5a612f60565b60200260200101516001600160a01b031683600081518110611a7e57611a7e612f60565b60200260200101516001600160a01b031603611adc5760405162461bcd60e51b815260206004820152601e60248201527f506169723a20546f6b656e2063616e6e6f74206265207468652073616d65000060448201526064016105f4565b82600081518110611aef57611aef612f60565b602002602001015183600181518110611b0a57611b0a612f60565b602090810291909101810151600980546001600160a01b039283166001600160a01b031991821617909155600880549490921693169290921790915582516000918291611b5e9190860181019086016130f6565b915091506305f5e100821115611b865760405162461bcd60e51b81526004016105f49061308e565b6402540be400811115611bab5760405162461bcd60e51b81526004016105f49061303e565b6010819055600f8290558451611c6d90611be6908790600090611bd057611bd0612f60565b60200260200101516001600160a01b0316612632565b611bfc87600181518110611bd057611bd0612f60565b604051602001611c0d92919061311a565b604051602081830303815290604052611c3287600081518110611bd057611bd0612f60565b611c4888600181518110611bd057611bd0612f60565b604051602001611c59929190613178565b60405160208183030381529060405261271a565b50508015611cb5576007805461ff0019169055604051600181527f7f26b83ff96e1f2b6a682f133852f6798a09c465da95921460cefb38474024989060200160405180910390a15b505050565b6011546008546040516370a0823160e01b81523060048201526000928392611d33926001600160a01b03909116906370a08231906024015b602060405180830381865afa158015611d0f573d6000803e3d6000fd5b505050506040513d601f19601f820116820180604052508101906108fb9190613008565b6012546009546040516370a0823160e01b8152306004820152611d6992916001600160a01b0316906370a0823190602401611cf2565b915091509091565b600e54600114611d935760405162461bcd60e51b81526004016105f490612db6565b6000600e81905580611da3611cba565b600a549193509150611dcc90839083906001600160701b0380821691600160701b90041661201d565b50506001600e55565b604080518082018252601981527f7472616e7366657228616464726573732c75696e74323536290000000000000060209182015281516001600160a01b0385811660248301526044808301869052845180840390910181526064909201845291810180516001600160e01b031663a9059cbb60e01b17905291516000928392871691611e6191906131ce565b6000604051808303816000865af19150503d8060008114611e9e576040519150601f19603f3d011682016040523d82523d6000602084013e611ea3565b606091505b5091509150818015611ecd575080511580611ecd575080806020019051810190611ecd91906131ea565b611f115760405162461bcd60e51b815260206004820152601560248201527414185a5c8e881514905394d1915497d19052531151605a1b60448201526064016105f4565b5050505050565b6000611f24828461320c565b9392505050565b6000611f248284612e3e565b6000806000611f606402540be400611f5a600f5488611f1890919063ffffffff16565b90612741565b90506000611f826402540be400611f5a600f5488611f1890919063ffffffff16565b90506000611fa46402540be400611f5a60105486611f1890919063ffffffff16565b90506000611fc66402540be400611f5a60105486611f1890919063ffffffff16565b9050611fd28285612e3e565b9550611fde8185612e3e565b94508160116000828254611ff29190612f48565b92505081905550806012600082825461200b9190612f48565b92505081905550505050509250929050565b6001600160701b03841180159061203b57506001600160701b038311155b6120785760405162461bcd60e51b815260206004820152600e60248201526d506169723a204f564552464c4f5760901b60448201526064016105f4565b60006120896401000000004261322b565b600a549091506000906120a990600160e01b900463ffffffff168361323f565b905060008163ffffffff161180156120c957506001600160701b03841615155b80156120dd57506001600160701b03831615155b1561216c578063ffffffff16612105856120f68661274d565b6001600160e01b031690612766565b6001600160e01b0316612118919061320c565b600b60008282546121299190612f48565b909155505063ffffffff8116612142846120f68761274d565b6001600160e01b0316612155919061320c565b600c60008282546121669190612f48565b90915550505b600a805463ffffffff8416600160e01b026001600160e01b036001600160701b03898116600160701b9081026001600160e01b03199095168c83161794909417918216831794859055604080519382169282169290921783529290930490911660208201527f1c411e9a96e071241c2f21f7726b17ae89e3cab4c78be50e062b03a9fffbbad1910160405180910390a1505050505050565b6001600160a01b0383811660008181526004602090815260408083209487168084529482529182902085905590518481527f8c5be1e5ebec7d5bd14f71427d1e84f3dd0314c0f7b2291e5b200ac8c7c3b92591015b60405180910390a3505050565b6001600160a01b0383166000908152600360205260409020546122899082611f2b565b6001600160a01b0380851660009081526003602052604080822093909355908416815220546122b8908261277b565b6001600160a01b0380841660008181526003602052604090819020939093559151908516907fddf252ad1be2c89b69c2b068fc378daa952ba7f163c4a11628f55a4df523b3ef906122599085815260200190565b600080841161235d5760405162461bcd60e51b815260206004820152601f60248201527f506169723a20494e53554646494349454e545f494e5055545f414d4f554e540060448201526064016105f4565b60008311801561236d5750600082115b6123b95760405162461bcd60e51b815260206004820152601c60248201527f506169723a20494e53554646494349454e545f4c49515549444954590000000060448201526064016105f4565b60006123d8600f546402540be4006123d19190612e3e565b8690611f18565b905060006123e68285611f18565b90506000612403836123fd886402540be400611f18565b9061277b565b905061240f8183612ff4565b979650505050505050565b60008160000361242c57506000919050565b6000600161243984612787565b901c6001901b9050600181848161245257612452612fde565b048201901c9050600181848161246a5761246a612fde565b048201901c9050600181848161248257612482612fde565b048201901c9050600181848161249a5761249a612fde565b048201901c905060018184816124b2576124b2612fde565b048201901c905060018184816124ca576124ca612fde565b048201901c905060018184816124e2576124e2612fde565b048201901c9050611f24818285816124fc576124fc612fde565b04612592565b60025461250f908261277b565b6002556001600160a01b038216600090815260036020526040902054612535908261277b565b6001600160a01b0383166000818152600360205260408082209390935591519091907fddf252ad1be2c89b69c2b068fc378daa952ba7f163c4a11628f55a4df523b3ef906125869085815260200190565b60405180910390a35050565b60008183106125a15781611f24565b5090919050565b6001600160a01b0382166000908152600360205260409020546125cb9082611f2b565b6001600160a01b0383166000908152600360205260409020556002546125f19082611f2b565b6002556040518181526000906001600160a01b038416907fddf252ad1be2c89b69c2b068fc378daa952ba7f163c4a11628f55a4df523b3ef90602001612586565b60606001600160a01b038216156127155760408051600481526024810182526020810180516001600160e01b03166395d89b4160e01b179052905160009182916001600160a01b03861691612686916131ce565b600060405180830381855afa9150503d80600081146126c1576040519150601f19603f3d011682016040523d82523d6000602084013e6126c6565b606091505b509150915081156127125780516020146126f357808060200190518101906126ee9190613264565b61270f565b61270f8180602001905181019061270a9190613008565b61281b565b92505b50505b919050565b815161272d906000906020850190612886565b508051611cb5906001906020840190612886565b6000611f248284612ff4565b6000610b9f600160701b6001600160701b0384166132d2565b6000611f246001600160701b03831684613301565b6000611f248284612f48565b600080608083901c1561279c57608092831c92015b604083901c156127ae57604092831c92015b602083901c156127c057602092831c92015b601083901c156127d257601092831c92015b600883901c156127e457600892831c92015b600483901c156127f657600492831c92015b600283901c1561280857600292831c92015b600183901c15610b9f5760010192915050565b606060005b828160ff166020811061283557612835612f60565b1a60f81b6001600160f81b03191615801590612854575060208160ff16105b1561286b578061286381613327565b915050612820565b60405191506040820160405280825282602083015250919050565b82805461289290612fa4565b90600052602060002090601f0160209004810192826128b457600085556128fa565b82601f106128cd57805160ff19168380011785556128fa565b828001600101855582156128fa579182015b828111156128fa5782518255916020019190600101906128df565b5061290692915061290a565b5090565b5b80821115612906576000815560010161290b565b6001600160a01b038116811461293457600080fd5b50565b60008060008060006080868803121561294f57600080fd5b853594506020860135935060408601356129688161291f565b9250606086013567ffffffffffffffff8082111561298557600080fd5b818801915088601f83011261299957600080fd5b8135818111156129a857600080fd5b8960208285010111156129ba57600080fd5b9699959850939650602001949392505050565b60005b838110156129e85781810151838201526020016129d0565b838111156129f7576000848401525b50505050565b6020815260008251806020840152612a1c8160408501602087016129cd565b601f01601f19169190910160400192915050565b60008060408385031215612a4357600080fd5b8235612a4e8161291f565b946020939093013593505050565b600080600060608486031215612a7157600080fd5b8335612a7c8161291f565b92506020840135612a8c8161291f565b929592945050506040919091013590565b60008060408385031215612ab057600080fd5b8235612abb8161291f565b91506020830135612acb8161291f565b809150509250929050565b600060208284031215612ae857600080fd5b8135611f248161291f565b600081518084526020808501945080840160005b83811015612b2c5781516001600160a01b031687529582019590820190600101612b07565b509495945050505050565b602081526000611f246020830184612af3565b600060208284031215612b5c57600080fd5b5035919050565b600081518084526020808501945080840160005b83811015612b2c57815187529582019590820190600101612b77565b602081526000611f246020830184612b63565b600080600080600080600060e0888a031215612bc157600080fd5b8735612bcc8161291f565b96506020880135612bdc8161291f565b95506040880135945060608801359350608088013560ff81168114612c0057600080fd5b9699959850939692959460a0840135945060c09093013592915050565b634e487b7160e01b600052604160045260246000fd5b604051601f8201601f1916810167ffffffffffffffff81118282101715612c5c57612c5c612c1d565b604052919050565b600067ffffffffffffffff821115612c7e57612c7e612c1d565b50601f01601f191660200190565b600082601f830112612c9d57600080fd5b8135612cb0612cab82612c64565b612c33565b818152846020838601011115612cc557600080fd5b816020850160208301376000918101602001919091529392505050565b60008060408385031215612cf557600080fd5b823567ffffffffffffffff80821115612d0d57600080fd5b818501915085601f830112612d2157600080fd5b8135602082821115612d3557612d35612c1d565b8160051b612d44828201612c33565b928352848101820192828101908a851115612d5e57600080fd5b958301955b84871015612d885786359250612d788361291f565b8282529583019590830190612d63565b9750505086013592505080821115612d9f57600080fd5b50612dac85828601612c8c565b9150509250929050565b6020808252600c908201526b14185a5c8e881313d0d2d15160a21b604082015260600190565b60018060a01b038616815284602082015283604082015260806060820152816080820152818360a0830137600081830160a090810191909152601f909201601f19160101949350505050565b634e487b7160e01b600052601160045260246000fd5b600082821015612e5057612e50612e28565b500390565b600181815b80851115612e90578160001904821115612e7657612e76612e28565b80851615612e8357918102915b93841c9390800290612e5a565b509250929050565b600082612ea757506001610b9f565b81612eb457506000610b9f565b8160018114612eca5760028114612ed457612ef0565b6001915050610b9f565b60ff841115612ee557612ee5612e28565b50506001821b610b9f565b5060208310610133831016604e8410600b8410161715612f13575081810a610b9f565b612f1d8383612e55565b8060001904821115612f3157612f31612e28565b029392505050565b6000611f2460ff841683612e98565b60008219821115612f5b57612f5b612e28565b500190565b634e487b7160e01b600052603260045260246000fd5b604081526000612f896040830185612af3565b8281036020840152612f9b8185612b63565b95945050505050565b600181811c90821680612fb857607f821691505b602082108103612fd857634e487b7160e01b600052602260045260246000fd5b50919050565b634e487b7160e01b600052601260045260246000fd5b60008261300357613003612fde565b500490565b60006020828403121561301a57600080fd5b5051919050565b60006020828403121561303357600080fd5b8151611f248161291f565b60208082526030908201527f506169723a2041646d696e4665652069732067726561746572207468616e207460408201526f6865206d6178696d756d2076616c756560801b606082015260800190565b6020808252602f908201527f506169723a20537761704665652069732067726561746572207468616e20746860408201526e65206d6178696d756d2076616c756560881b606082015260800190565b6000600182016130ef576130ef612e28565b5060010190565b6000806040838503121561310957600080fd5b505080516020909101519092909150565b750222337b931b2902b37b630ba34b6329020a6a69016960551b81526000835161314b8160168501602088016129cd565b602d60f81b601691840191820152835161316c8160178401602088016129cd565b01601701949350505050565b6d64414d4d2d566f6c6174696c652d60901b8152600083516131a181600e8501602088016129cd565b602d60f81b600e9184019182015283516131c281600f8401602088016129cd565b01600f01949350505050565b600082516131e08184602087016129cd565b9190910192915050565b6000602082840312156131fc57600080fd5b81518015158114611f2457600080fd5b600081600019048311821515161561322657613226612e28565b500290565b60008261323a5761323a612fde565b500690565b600063ffffffff8381169083168181101561325c5761325c612e28565b039392505050565b60006020828403121561327657600080fd5b815167ffffffffffffffff81111561328d57600080fd5b8201601f8101841361329e57600080fd5b80516132ac612cab82612c64565b8181528560208385010111156132c157600080fd5b612f9b8260208301602086016129cd565b60006001600160e01b03828116848216811515828404821116156132f8576132f8612e28565b02949350505050565b60006001600160e01b038381168061331b5761331b612fde565b92169190910492915050565b600060ff821660ff810361333d5761333d612e28565b6001019291505056fea2646970667358221220090448c79afbce3984dfdee607e100e9fba177f120aa76f3d3c00485dc59575664736f6c634300080d0033",
  "devdoc": {
    "kind": "dev",
    "methods": {},
    "version": 1
  },
  "userdoc": {
    "kind": "user",
    "methods": {},
    "version": 1
  },
  "storageLayout": {
    "storage": [
      {
        "astId": 6847,
        "contract": "contracts/VolatilePair.sol:VolatilePair",
        "label": "name",
        "offset": 0,
        "slot": "0",
        "type": "t_string_storage"
      },
      {
        "astId": 6849,
        "contract": "contracts/VolatilePair.sol:VolatilePair",
        "label": "symbol",
        "offset": 0,
        "slot": "1",
        "type": "t_string_storage"
      },
      {
        "astId": 6854,
        "contract": "contracts/VolatilePair.sol:VolatilePair",
        "label": "totalSupply",
        "offset": 0,
        "slot": "2",
        "type": "t_uint256"
      },
      {
        "astId": 6858,
        "contract": "contracts/VolatilePair.sol:VolatilePair",
        "label": "balanceOf",
        "offset": 0,
        "slot": "3",
        "type": "t_mapping(t_address,t_uint256)"
      },
      {
        "astId": 6864,
        "contract": "contracts/VolatilePair.sol:VolatilePair",
        "label": "allowance",
        "offset": 0,
        "slot": "4",
        "type": "t_mapping(t_address,t_mapping(t_address,t_uint256))"
      },
      {
        "astId": 6866,
        "contract": "contracts/VolatilePair.sol:VolatilePair",
        "label": "DOMAIN_SEPARATOR",
        "offset": 0,
        "slot": "5",
        "type": "t_bytes32"
      },
      {
        "astId": 6873,
        "contract": "contracts/VolatilePair.sol:VolatilePair",
        "label": "nonces",
        "offset": 0,
        "slot": "6",
        "type": "t_mapping(t_address,t_uint256)"
      },
      {
        "astId": 138,
        "contract": "contracts/VolatilePair.sol:VolatilePair",
        "label": "_initialized",
        "offset": 0,
        "slot": "7",
        "type": "t_uint8"
      },
      {
        "astId": 141,
        "contract": "contracts/VolatilePair.sol:VolatilePair",
        "label": "_initializing",
        "offset": 1,
        "slot": "7",
        "type": "t_bool"
      },
      {
        "astId": 4753,
        "contract": "contracts/VolatilePair.sol:VolatilePair",
        "label": "factory",
        "offset": 2,
        "slot": "7",
        "type": "t_address"
      },
      {
        "astId": 4755,
        "contract": "contracts/VolatilePair.sol:VolatilePair",
        "label": "token0",
        "offset": 0,
        "slot": "8",
        "type": "t_address"
      },
      {
        "astId": 4757,
        "contract": "contracts/VolatilePair.sol:VolatilePair",
        "label": "token1",
        "offset": 0,
        "slot": "9",
        "type": "t_address"
      },
      {
        "astId": 4759,
        "contract": "contracts/VolatilePair.sol:VolatilePair",
        "label": "reserve0",
        "offset": 0,
        "slot": "10",
        "type": "t_uint112"
      },
      {
        "astId": 4761,
        "contract": "contracts/VolatilePair.sol:VolatilePair",
        "label": "reserve1",
        "offset": 14,
        "slot": "10",
        "type": "t_uint112"
      },
      {
        "astId": 4763,
        "contract": "contracts/VolatilePair.sol:VolatilePair",
        "label": "blockTimestampLast",
        "offset": 28,
        "slot": "10",
        "type": "t_uint32"
      },
      {
        "astId": 4765,
        "contract": "contracts/VolatilePair.sol:VolatilePair",
        "label": "price0CumulativeLast",
        "offset": 0,
        "slot": "11",
        "type": "t_uint256"
      },
      {
        "astId": 4767,
        "contract": "contracts/VolatilePair.sol:VolatilePair",
        "label": "price1CumulativeLast",
        "offset": 0,
        "slot": "12",
        "type": "t_uint256"
      },
      {
        "astId": 4769,
        "contract": "contracts/VolatilePair.sol:VolatilePair",
        "label": "kLast",
        "offset": 0,
        "slot": "13",
        "type": "t_uint256"
      },
      {
        "astId": 4771,
        "contract": "contracts/VolatilePair.sol:VolatilePair",
        "label": "unlocked",
        "offset": 0,
        "slot": "14",
        "type": "t_uint256"
      },
      {
        "astId": 4794,
        "contract": "contracts/VolatilePair.sol:VolatilePair",
        "label": "swapFeeRate",
        "offset": 0,
        "slot": "15",
        "type": "t_uint256"
      },
      {
        "astId": 4796,
        "contract": "contracts/VolatilePair.sol:VolatilePair",
        "label": "adminFeeRate",
        "offset": 0,
        "slot": "16",
        "type": "t_uint256"
      },
      {
        "astId": 4798,
        "contract": "contracts/VolatilePair.sol:VolatilePair",
        "label": "totalAdminFee0",
        "offset": 0,
        "slot": "17",
        "type": "t_uint256"
      },
      {
        "astId": 4800,
        "contract": "contracts/VolatilePair.sol:VolatilePair",
        "label": "totalAdminFee1",
        "offset": 0,
        "slot": "18",
        "type": "t_uint256"
      }
    ],
    "types": {
      "t_address": {
        "encoding": "inplace",
        "label": "address",
        "numberOfBytes": "20"
      },
      "t_bool": {
        "encoding": "inplace",
        "label": "bool",
        "numberOfBytes": "1"
      },
      "t_bytes32": {
        "encoding": "inplace",
        "label": "bytes32",
        "numberOfBytes": "32"
      },
      "t_mapping(t_address,t_mapping(t_address,t_uint256))": {
        "encoding": "mapping",
        "key": "t_address",
        "label": "mapping(address => mapping(address => uint256))",
        "numberOfBytes": "32",
        "value": "t_mapping(t_address,t_uint256)"
      },
      "t_mapping(t_address,t_uint256)": {
        "encoding": "mapping",
        "key": "t_address",
        "label": "mapping(address => uint256)",
        "numberOfBytes": "32",
        "value": "t_uint256"
      },
      "t_string_storage": {
        "encoding": "bytes",
        "label": "string",
        "numberOfBytes": "32"
      },
      "t_uint112": {
        "encoding": "inplace",
        "label": "uint112",
        "numberOfBytes": "14"
      },
      "t_uint256": {
        "encoding": "inplace",
        "label": "uint256",
        "numberOfBytes": "32"
      },
      "t_uint32": {
        "encoding": "inplace",
        "label": "uint32",
        "numberOfBytes": "4"
      },
      "t_uint8": {
        "encoding": "inplace",
        "label": "uint8",
        "numberOfBytes": "1"
      }
    }
  }
}