{
  "address": "0x791D0fC1366a383c73c91061115715Bbd6eDa70b",
  "abi": [
    {
      "constant": true,
      "inputs": [],
      "name": "mintingFinished",
      "outputs": [
        {
          "name": "",
          "type": "bool"
        }
      ],
      "payable": false,
      "stateMutability": "view",
      "type": "function"
    },
    {
      "constant": true,
      "inputs": [],
      "name": "name",
      "outputs": [
        {
          "name": "",
          "type": "string"
        }
      ],
      "payable": false,
      "stateMutability": "view",
      "type": "function"
    },
    {
      "constant": false,
      "inputs": [
        {
          "name": "_to",
          "type": "address"
        },
        {
          "name": "_amount",
          "type": "uint256"
        }
      ],
      "name": "allocateTo",
      "outputs": [],
      "payable": false,
      "stateMutability": "nonpayable",
      "type": "function"
    },
    {
      "constant": false,
      "inputs": [
        {
          "name": "_spender",
          "type": "address"
        },
        {
          "name": "_value",
          "type": "uint256"
        }
      ],
      "name": "approve",
      "outputs": [
        {
          "name": "",
          "type": "bool"
        }
      ],
      "payable": false,
      "stateMutability": "nonpayable",
      "type": "function"
    },
    {
      "constant": false,
      "inputs": [
        {
          "name": "_token",
          "type": "address"
        }
      ],
      "name": "reclaimToken",
      "outputs": [],
      "payable": false,
      "stateMutability": "nonpayable",
      "type": "function"
    },
    {
      "constant": true,
      "inputs": [],
      "name": "totalSupply",
      "outputs": [
        {
          "name": "",
          "type": "uint256"
        }
      ],
      "payable": false,
      "stateMutability": "view",
      "type": "function"
    },
    {
      "constant": false,
      "inputs": [
        {
          "name": "_from",
          "type": "address"
        },
        {
          "name": "_to",
          "type": "address"
        },
        {
          "name": "_value",
          "type": "uint256"
        }
      ],
      "name": "transferFrom",
      "outputs": [
        {
          "name": "",
          "type": "bool"
        }
      ],
      "payable": false,
      "stateMutability": "nonpayable",
      "type": "function"
    },
    {
      "constant": true,
      "inputs": [],
      "name": "decimals",
      "outputs": [
        {
          "name": "",
          "type": "uint8"
        }
      ],
      "payable": false,
      "stateMutability": "view",
      "type": "function"
    },
    {
      "constant": false,
      "inputs": [],
      "name": "unpause",
      "outputs": [],
      "payable": false,
      "stateMutability": "nonpayable",
      "type": "function"
    },
    {
      "constant": false,
      "inputs": [
        {
          "name": "_to",
          "type": "address"
        },
        {
          "name": "_amount",
          "type": "uint256"
        }
      ],
      "name": "mint",
      "outputs": [
        {
          "name": "",
          "type": "bool"
        }
      ],
      "payable": false,
      "stateMutability": "nonpayable",
      "type": "function"
    },
    {
      "constant": false,
      "inputs": [
        {
          "name": "value",
          "type": "uint256"
        }
      ],
      "name": "burn",
      "outputs": [],
      "payable": false,
      "stateMutability": "nonpayable",
      "type": "function"
    },
    {
      "constant": false,
      "inputs": [],
      "name": "claimOwnership",
      "outputs": [],
      "payable": false,
      "stateMutability": "nonpayable",
      "type": "function"
    },
    {
      "constant": true,
      "inputs": [],
      "name": "paused",
      "outputs": [
        {
          "name": "",
          "type": "bool"
        }
      ],
      "payable": false,
      "stateMutability": "view",
      "type": "function"
    },
    {
      "constant": false,
      "inputs": [
        {
          "name": "_spender",
          "type": "address"
        },
        {
          "name": "_subtractedValue",
          "type": "uint256"
        }
      ],
      "name": "decreaseApproval",
      "outputs": [
        {
          "name": "success",
          "type": "bool"
        }
      ],
      "payable": false,
      "stateMutability": "nonpayable",
      "type": "function"
    },
    {
      "constant": true,
      "inputs": [
        {
          "name": "_owner",
          "type": "address"
        }
      ],
      "name": "balanceOf",
      "outputs": [
        {
          "name": "",
          "type": "uint256"
        }
      ],
      "payable": false,
      "stateMutability": "view",
      "type": "function"
    },
    {
      "constant": false,
      "inputs": [],
      "name": "renounceOwnership",
      "outputs": [],
      "payable": false,
      "stateMutability": "nonpayable",
      "type": "function"
    },
    {
      "constant": false,
      "inputs": [],
      "name": "finishMinting",
      "outputs": [
        {
          "name": "",
          "type": "bool"
        }
      ],
      "payable": false,
      "stateMutability": "nonpayable",
      "type": "function"
    },
    {
      "constant": false,
      "inputs": [],
      "name": "pause",
      "outputs": [],
      "payable": false,
      "stateMutability": "nonpayable",
      "type": "function"
    },
    {
      "constant": true,
      "inputs": [],
      "name": "owner",
      "outputs": [
        {
          "name": "",
          "type": "address"
        }
      ],
      "payable": false,
      "stateMutability": "view",
      "type": "function"
    },
    {
      "constant": true,
      "inputs": [],
      "name": "symbol",
      "outputs": [
        {
          "name": "",
          "type": "string"
        }
      ],
      "payable": false,
      "stateMutability": "view",
      "type": "function"
    },
    {
      "constant": false,
      "inputs": [
        {
          "name": "_to",
          "type": "address"
        },
        {
          "name": "_value",
          "type": "uint256"
        }
      ],
      "name": "transfer",
      "outputs": [
        {
          "name": "",
          "type": "bool"
        }
      ],
      "payable": false,
      "stateMutability": "nonpayable",
      "type": "function"
    },
    {
      "constant": false,
      "inputs": [
        {
          "name": "_spender",
          "type": "address"
        },
        {
          "name": "_addedValue",
          "type": "uint256"
        }
      ],
      "name": "increaseApproval",
      "outputs": [
        {
          "name": "success",
          "type": "bool"
        }
      ],
      "payable": false,
      "stateMutability": "nonpayable",
      "type": "function"
    },
    {
      "constant": true,
      "inputs": [
        {
          "name": "_owner",
          "type": "address"
        },
        {
          "name": "_spender",
          "type": "address"
        }
      ],
      "name": "allowance",
      "outputs": [
        {
          "name": "",
          "type": "uint256"
        }
      ],
      "payable": false,
      "stateMutability": "view",
      "type": "function"
    },
    {
      "constant": true,
      "inputs": [],
      "name": "pendingOwner",
      "outputs": [
        {
          "name": "",
          "type": "address"
        }
      ],
      "payable": false,
      "stateMutability": "view",
      "type": "function"
    },
    {
      "constant": false,
      "inputs": [
        {
          "name": "newOwner",
          "type": "address"
        }
      ],
      "name": "transferOwnership",
      "outputs": [],
      "payable": false,
      "stateMutability": "nonpayable",
      "type": "function"
    },
    {
      "anonymous": false,
      "inputs": [],
      "name": "Pause",
      "type": "event"
    },
    {
      "anonymous": false,
      "inputs": [],
      "name": "Unpause",
      "type": "event"
    },
    {
      "anonymous": false,
      "inputs": [
        {
          "indexed": true,
          "name": "burner",
          "type": "address"
        },
        {
          "indexed": false,
          "name": "value",
          "type": "uint256"
        }
      ],
      "name": "Burn",
      "type": "event"
    },
    {
      "anonymous": false,
      "inputs": [
        {
          "indexed": true,
          "name": "to",
          "type": "address"
        },
        {
          "indexed": false,
          "name": "amount",
          "type": "uint256"
        }
      ],
      "name": "Mint",
      "type": "event"
    },
    {
      "anonymous": false,
      "inputs": [],
      "name": "MintFinished",
      "type": "event"
    },
    {
      "anonymous": false,
      "inputs": [
        {
          "indexed": true,
          "name": "previousOwner",
          "type": "address"
        }
      ],
      "name": "OwnershipRenounced",
      "type": "event"
    },
    {
      "anonymous": false,
      "inputs": [
        {
          "indexed": true,
          "name": "previousOwner",
          "type": "address"
        },
        {
          "indexed": true,
          "name": "newOwner",
          "type": "address"
        }
      ],
      "name": "OwnershipTransferred",
      "type": "event"
    },
    {
      "anonymous": false,
      "inputs": [
        {
          "indexed": true,
          "name": "owner",
          "type": "address"
        },
        {
          "indexed": true,
          "name": "spender",
          "type": "address"
        },
        {
          "indexed": false,
          "name": "value",
          "type": "uint256"
        }
      ],
      "name": "Approval",
      "type": "event"
    },
    {
      "anonymous": false,
      "inputs": [
        {
          "indexed": true,
          "name": "from",
          "type": "address"
        },
        {
          "indexed": true,
          "name": "to",
          "type": "address"
        },
        {
          "indexed": false,
          "name": "value",
          "type": "uint256"
        }
      ],
      "name": "Transfer",
      "type": "event"
    }
  ],
  "transactionHash": "0x208a3fb43a8c33c2896221cd8e64952ef426411bbfa04441c4b4588fcebbde56",
  "args": [],
  "numDeployments": 1,
  "solcInputHash": "89be6753d23da471977d1856c1236981",
  "bytecode": "0x6005805460a860020a61ffff0219169055600b60808181527f577261707065642042544300000000000000000000000000000000000000000060a0908152610100604052600460c09081527f574254430000000000000000000000000000000000000000000000000000000060e0529192600891620000829160039190620000c7565b50815162000098906004906020850190620000c7565b506005805460ff191660ff929092169190911761010060a860020a0319166101003302179055506200016c9050565b828054600181600116156101000203166002900490600052602060002090601f016020900481019282601f106200010a57805160ff19168380011785556200013a565b828001600101855582156200013a579182015b828111156200013a5782518255916020019190600101906200011d565b50620001489291506200014c565b5090565b6200016991905b8082111562000148576000815560010162000153565b90565b6112d7806200017c6000396000f3006080604052600436106101485763ffffffff7c010000000000000000000000000000000000000000000000000000000060003504166305d2035b811461014d57806306fdde031461017657806308bca56614610200578063095ea7b31461022657806317ffc3201461024a57806318160ddd1461026b57806323b872dd14610292578063313ce567146102bc5780633f4ba83a146102e757806340c10f19146102fc57806342966c68146103205780634e71e0c8146103385780635c975abb1461034d578063661884631461036257806370a0823114610386578063715018a6146103a75780637d64bcb4146103bc5780638456cb59146103d15780638da5cb5b146103e657806395d89b4114610417578063a9059cbb1461042c578063d73dd62314610450578063dd62ed3e14610474578063e30c39781461049b578063f2fde38b146104b0575b600080fd5b34801561015957600080fd5b506101626104d1565b604080519115158252519081900360200190f35b34801561018257600080fd5b5061018b6104f3565b6040805160208082528351818301528351919283929083019185019080838360005b838110156101c55781810151838201526020016101ad565b50505050905090810190601f1680156101f25780820380516001836020036101000a031916815260200191505b509250505060405180910390f35b34801561020c57600080fd5b50610224600160a060020a0360043516602435610581565b005b34801561023257600080fd5b50610162600160a060020a0360043516602435610643565b34801561025657600080fd5b50610224600160a060020a036004351661066e565b34801561027757600080fd5b50610280610746565b60408051918252519081900360200190f35b34801561029e57600080fd5b50610162600160a060020a036004358116906024351660443561074c565b3480156102c857600080fd5b506102d1610779565b6040805160ff9092168252519081900360200190f35b3480156102f357600080fd5b50610224610782565b34801561030857600080fd5b50610162600160a060020a0360043516602435610801565b34801561032c57600080fd5b50610224600435610910565b34801561034457600080fd5b50610224610938565b34801561035957600080fd5b506101626109e0565b34801561036e57600080fd5b50610162600160a060020a03600435166024356109f0565b34801561039257600080fd5b50610280600160a060020a0360043516610a14565b3480156103b357600080fd5b50610224610a2f565b3480156103c857600080fd5b50610162610ab2565b3480156103dd57600080fd5b50610224610ad7565b3480156103f257600080fd5b506103fb610b5b565b60408051600160a060020a039092168252519081900360200190f35b34801561042357600080fd5b5061018b610b6f565b34801561043857600080fd5b50610162600160a060020a0360043516602435610bca565b34801561045c57600080fd5b50610162600160a060020a0360043516602435610bee565b34801561048057600080fd5b50610280600160a060020a0360043581169060243516610c12565b3480156104a757600080fd5b506103fb610c3d565b3480156104bc57600080fd5b50610224600160a060020a0360043516610c4c565b6005547501000000000000000000000000000000000000000000900460ff1681565b6003805460408051602060026001851615610100026000190190941693909304601f810184900484028201840190925281815292918301828280156105795780601f1061054e57610100808354040283529160200191610579565b820191906000526020600020905b81548152906001019060200180831161055c57829003601f168201915b505050505081565b600154610594908263ffffffff610c9716565b600155600160a060020a0382166000908152602081905260409020546105c0908263ffffffff610c9716565b600160a060020a03831660008181526020818152604091829020939093558051848152905191927f0f6798a560793a54c3bcfe86a93cde1e73087d944c0ea20544137d412139688592918290030190a2604080518281529051600160a060020a0384169160009160008051602061128c8339815191529181900360200190a35050565b60055460009060b060020a900460ff161561065d57600080fd5b6106678383610caa565b9392505050565b6005546000906101009004600160a060020a0316331461068d57600080fd5b604080517f70a082310000000000000000000000000000000000000000000000000000000081523060048201529051600160a060020a038416916370a082319160248083019260209291908290030181600087803b1580156106ee57600080fd5b505af1158015610702573d6000803e3d6000fd5b505050506040513d602081101561071857600080fd5b505160055490915061074290600160a060020a03848116916101009004168363ffffffff610d1016565b5050565b60015490565b60055460009060b060020a900460ff161561076657600080fd5b610771848484610dc8565b949350505050565b60055460ff1681565b6005546101009004600160a060020a0316331461079e57600080fd5b60055460b060020a900460ff1615156107b657600080fd5b6005805476ff00000000000000000000000000000000000000000000191690556040517f7805862f689e2f13df9f062ff482ad3ad112aca9e0847911ed832e158c525b3390600090a1565b6005546000906101009004600160a060020a0316331461082057600080fd5b6005547501000000000000000000000000000000000000000000900460ff161561084957600080fd5b60015461085c908363ffffffff610c9716565b600155600160a060020a038316600090815260208190526040902054610888908363ffffffff610c9716565b600160a060020a03841660008181526020818152604091829020939093558051858152905191927f0f6798a560793a54c3bcfe86a93cde1e73087d944c0ea20544137d412139688592918290030190a2604080518381529051600160a060020a0385169160009160008051602061128c8339815191529181900360200190a350600192915050565b6005546101009004600160a060020a0316331461092c57600080fd5b61093581610f2b565b50565b600654600160a060020a0316331461094f57600080fd5b600654600554604051600160a060020a0392831692610100909204909116907f8be0079c531659141344cd1fd0a4f28419497f9722a3daafe3b4186f6b6457e090600090a3600680546005805474ffffffffffffffffffffffffffffffffffffffff001916610100600160a060020a0384160217905573ffffffffffffffffffffffffffffffffffffffff19169055565b60055460b060020a900460ff1681565b60055460009060b060020a900460ff1615610a0a57600080fd5b6106678383610f35565b600160a060020a031660009081526020819052604090205490565b6005546101009004600160a060020a03163314610a4b57600080fd5b604080517f08c379a000000000000000000000000000000000000000000000000000000000815260206004820152601f60248201527f72656e6f756e63696e67206f776e65727368697020697320626c6f636b656400604482015290519081900360640190fd5b6005546000906101009004600160a060020a03163314610ad157600080fd5b50600090565b6005546101009004600160a060020a03163314610af357600080fd5b60055460b060020a900460ff1615610b0a57600080fd5b6005805476ff00000000000000000000000000000000000000000000191660b060020a1790556040517f6985a02210a168e66602d3235cb6db0e70f92b3ba4d376a33c0f3d9434bff62590600090a1565b6005546101009004600160a060020a031681565b6004805460408051602060026001851615610100026000190190941693909304601f810184900484028201840190925281815292918301828280156105795780601f1061054e57610100808354040283529160200191610579565b60055460009060b060020a900460ff1615610be457600080fd5b6106678383611024565b60055460009060b060020a900460ff1615610c0857600080fd5b61066783836110f1565b600160a060020a03918216600090815260026020908152604080832093909416825291909152205490565b600654600160a060020a031681565b6005546101009004600160a060020a03163314610c6857600080fd5b6006805473ffffffffffffffffffffffffffffffffffffffff1916600160a060020a0392909216919091179055565b81810182811015610ca457fe5b92915050565b336000818152600260209081526040808320600160a060020a038716808552908352818420869055815186815291519394909390927f8c5be1e5ebec7d5bd14f71427d1e84f3dd0314c0f7b2291e5b200ac8c7c3b925928290030190a350600192915050565b82600160a060020a031663a9059cbb83836040518363ffffffff167c01000000000000000000000000000000000000000000000000000000000281526004018083600160a060020a0316600160a060020a0316815260200182815260200192505050602060405180830381600087803b158015610d8c57600080fd5b505af1158015610da0573d6000803e3d6000fd5b505050506040513d6020811015610db657600080fd5b50511515610dc357600080fd5b505050565b600160a060020a038316600090815260208190526040812054821115610ded57600080fd5b600160a060020a0384166000908152600260209081526040808320338452909152902054821115610e1d57600080fd5b600160a060020a0383161515610e3257600080fd5b600160a060020a038416600090815260208190526040902054610e5b908363ffffffff61118a16565b600160a060020a038086166000908152602081905260408082209390935590851681522054610e90908363ffffffff610c9716565b600160a060020a03808516600090815260208181526040808320949094559187168152600282528281203382529091522054610ed2908363ffffffff61118a16565b600160a060020a038086166000818152600260209081526040808320338452825291829020949094558051868152905192871693919260008051602061128c833981519152929181900390910190a35060019392505050565b610935338261119c565b336000908152600260209081526040808320600160a060020a0386168452909152812054808310610f8957336000908152600260209081526040808320600160a060020a0388168452909152812055610fbe565b610f99818463ffffffff61118a16565b336000908152600260209081526040808320600160a060020a03891684529091529020555b336000818152600260209081526040808320600160a060020a0389168085529083529281902054815190815290519293927f8c5be1e5ebec7d5bd14f71427d1e84f3dd0314c0f7b2291e5b200ac8c7c3b925929181900390910190a35060019392505050565b3360009081526020819052604081205482111561104057600080fd5b600160a060020a038316151561105557600080fd5b33600090815260208190526040902054611075908363ffffffff61118a16565b3360009081526020819052604080822092909255600160a060020a038516815220546110a7908363ffffffff610c9716565b600160a060020a0384166000818152602081815260409182902093909355805185815290519192339260008051602061128c8339815191529281900390910190a350600192915050565b336000908152600260209081526040808320600160a060020a0386168452909152812054611125908363ffffffff610c9716565b336000818152600260209081526040808320600160a060020a0389168085529083529281902085905580519485525191937f8c5be1e5ebec7d5bd14f71427d1e84f3dd0314c0f7b2291e5b200ac8c7c3b925929081900390910190a350600192915050565b60008282111561119657fe5b50900390565b600160a060020a0382166000908152602081905260409020548111156111c157600080fd5b600160a060020a0382166000908152602081905260409020546111ea908263ffffffff61118a16565b600160a060020a038316600090815260208190526040902055600154611216908263ffffffff61118a16565b600155604080518281529051600160a060020a038416917fcc16f5dbb4873280815c1ee09dbd06736cffcc184412cf7a71a0fdb75d397ca5919081900360200190a2604080518281529051600091600160a060020a0385169160008051602061128c8339815191529181900360200190a350505600ddf252ad1be2c89b69c2b068fc378daa952ba7f163c4a11628f55a4df523b3efa165627a7a72305820001d6f5a64217f4e24eceac6ce1c8f3aae9ef163a1d25d313af3726bce2861c00029",
  "devdoc": {
    "methods": {
      "allowance(address,address)": {
        "details": "Function to check the amount of tokens that an owner allowed to a spender.\r",
        "params": {
          "_owner": "address The address which owns the funds.\r",
          "_spender": "address The address which will spend the funds.\r"
        },
        "return": "A uint256 specifying the amount of tokens still available for the spender.\r"
      },
      "balanceOf(address)": {
        "details": "Gets the balance of the specified address.\r",
        "params": {
          "_owner": "The address to query the the balance of.\r"
        },
        "return": "An uint256 representing the amount owned by the passed address.\r"
      },
      "claimOwnership()": {
        "details": "Allows the pendingOwner address to finalize the transfer.\r"
      },
      "mint(address,uint256)": {
        "details": "Function to mint tokens\r",
        "params": {
          "_amount": "The amount of tokens to mint.\r",
          "_to": "The address that will receive the minted tokens.\r"
        },
        "return": "A boolean that indicates if the operation was successful.\r"
      },
      "pause()": {
        "details": "called by the owner to pause, triggers stopped state\r"
      },
      "reclaimToken(address)": {
        "details": "Reclaim all ERC20Basic compatible tokens\r",
        "params": {
          "_token": "ERC20Basic The address of the token contract\r"
        }
      },
      "totalSupply()": {
        "details": "Total number of tokens in existence\r"
      },
      "transferOwnership(address)": {
        "details": "Allows the current owner to set the pendingOwner address.\r",
        "params": {
          "newOwner": "The address to transfer ownership to.\r"
        }
      },
      "unpause()": {
        "details": "called by the owner to unpause, returns to normal state\r"
      }
    }
  },
  "userdoc": {
    "methods": {}
  }
}